:020000040000FA
:10000000F05B002019020000210200002302000022
:1000100000000000000000000000000000000000E0
:10002000000000000000000000000000E9240000C3
:1000300000000000000000009F010000612500009A
:100040002B0200002B020000852300002B02000081
:10005000C52000002B0200002B0200002B02000034
:100060002B0200002B0200002B0200002B020000DC
:100070002B0200002B0200002B0200002B020000CC
:100080002B0200002B0200002B0200002B020000BC
:100090008D2100002B0200002B0200002B0200002B
:1000A000CD1100002B0200002B0200002B020000EB
:1000B0002B0200002B0200002B0200002B0200008C
:1000C00000F002F800F041F80CA030C808382418FD
:1000D0002D18A246671EAB4654465D46AC4201D180
:1000E00000F033F87E460F3E0FCCB6460126334271
:1000F00000D0FB1AA246AB4633431847A43E00008B
:10010000C43E00000023002400250026103A01D33D
:1001100078C1FBD8520700D330C100D50B607047BF
:1001200010B5782902D100F069F910BD002010BD8A
:100130001FB500F0A9FD04000020002103F00AFD16
:10014000401C60601FBD10B510BD00F06FFF114670
:10015000FFF7EEFF02F026FF00F090FF03B4FFF779
:10016000F2FF03BC00F0D6FF084B19680868203086
:1001700080F30988022080F31488BFF36F8F3FBC9F
:10018000AE4608BC04BC62B6184700001C00002044
:10019000EFF3108072B6704780F310887047EFF36A
:1001A00009800E4B1A6820381060F0C044464D4656
:1001B00056465F46F0C008B572B603F0ABFA62B6B9
:1001C0000CBC116808681030F0C8A046A946B246B9
:1001D000BB4680F309882038F0C818471C0000206F
:1001E00070B505460C46164602E00FCC0FC5103E12
:1001F000102EFAD2082E02D303CC03C5083E042EDB
:1002000007D301CC01C5361F03E021782970641C97
:100210006D1C761EF9D270BD07488047074800471D
:10022000FEE7FEE7FEE7FEE7FEE7FEE704480549D6
:10023000054A064B7047000015270000C10000006A
:10024000F04B0020F05B0020F0530020F053002022
:100250004343514330B55C18010C130C0D4692B268
:100260005D4380B251432C19054655430A0C0904DD
:100270004D1962415843010C00044019514130BDF1
:10028000FEB5054610460C46184373D0AE468C4664
:100290000020AD1A01469C4167D366460027012421
:1002A0003D46B61A9D4102D313463A46212465467F
:1002B00076462F04360C3E432D0CB61A9D4104D3CE
:1002C000150C1B042B4312041034654676462F068A
:1002D000360A3E432D0AB61A9D4104D3150E1B0261
:1002E0002B4312020834654676462F0736093E43F3
:1002F0002D09B61A9D4104D3150F1B012B43120182
:10030000241D65467646AF07B6083E43AD08B61ACB
:100310009D4104D3950F9B002B439200A41C65467E
:100320007646EF0776083E436D08B61A9D411AD30C
:1003300092185B41641C16E00018764665464941F8
:10034000B71A9D410191009009D36046B11A9841B6
:100350008E468446009801990025401C6941DD07BE
:1003600052082A435B08641EE6D57246634603B012
:10037000F0BDFFE700200146C046C0462A4623469E
:10038000F5E700000FB41CB5074B06AA7B4469468D
:100390000090059800F017FC0020694600F026FC4C
:1003A0001CBC08BC04B018475D08000070B50446CA
:1003B00085690068C10601D5302600E02026C00707
:1003C00007D070BD62683046A1689047206A401C23
:1003D00020626D1EF6D570BD70B504468569007843
:1003E000C00707D170BD6268A16820209047206ACD
:1003F000401C20626D1EF6D570BD000070B504462D
:100400000D4621461068C046C0462188090502D520
:100410000F4A7A4402E00E4A7A440E322346002103
:10042000243305E006070009360F965D5E54491C2B
:100430000028F7D120780023000705D5702D03D0C0
:10044000002901D002231132204600F05EFB70BD6E
:100450000E3B0000F3B50446002081B02062204628
:10046000E1688847002872D0252802D06268A16818
:10047000ABE0594F00267F442046E168884720289A
:10048000054608DB312D06D278192038007800287F
:1004900001D00643F0E7B00701D5042086430020D1
:1004A000E0610746A0612A2D0AD0284602F0B0FB81
:1004B000002827D0B8000019303D0090856119E070
:1004C0000298BA00121902C8916102902046E168B0
:1004D0008847012F054617D1E06900281FDA202040
:1004E00086431CE000980A2180694843009940191E
:1004F000303888612046E1688847054602F088FB6D
:100500000028EFD1012F0AD02E2D08D12046E16816
:1005100088470546202006437F1C022FC3DBA069C5
:10052000002803DA4042A06101200643F00701D011
:10053000102086436C2D0BD0682D09D04C2D3CD05B
:100540006A2D38D0742D38D07A2D36D016E040E0A0
:10055000E1682F4620468847B842054609D16C2FEE
:1005600029D001208002E1680643204688470546DD
:1005700004E06C2F1DD0FF2001300643002D28D051
:1005800028464138192803D80120C00206432035E7
:10059000204626602946029A1646FFF7C1FD00282C
:1005A00010D001280BD0F61DF008C00008300290D2
:1005B00055E74020E1E78020D5E70020D3E7361D4E
:1005C00002964CE762682846A1689047206A401C62
:1005D00044E7206AFEBD0000D23A00000FB400B527
:1005E0008DB010A909900B900020C04300910A9093
:1005F00000200C90074878440690074878446A46E3
:1006000007900F9909A800F00BFB0DB008BC04B0CF
:10061000184700004B06000065060000FFB51D46A8
:100620000027FF4383B05C68002001909E68A969A1
:1006300004987F1C88470090296A88470028F6D1D3
:100640000098401C0CD0032040028443002E19DD8A
:10065000600614D500982B2809D02D280FD103E06F
:100660000020C04307B0F0BD012080020443A96907
:1006700004987F1C8847761E002E009002DD0098AB
:10068000302803D00598002825D035E00120A9693D
:1006900040020443761E04987F1C8847002E009079
:1006A00003DD782805D0582803D00598002810D0FD
:1006B00022E00598002801D010281DD10120A96949
:1006C00040028443761E04987F1C884700901020C7
:1006D00002E0082000E00A2005900DE00121059AC3
:1006E00049020C430199761E514308180190A969EB
:1006F00004987F1C88470090002E05DD059900981E
:1007000000F079FA0028E9DAE96904988847A00539
:1007100002D40120C043A5E7E00722D1600611D52D
:100720006005019800D5404229680A1D2A600968C1
:10073000220501D5087014E0220701D5088010E0D9
:1007400008600EE02868011D29600068210502D5B7
:100750000199017005E02107019901D5018000E0B0
:10076000016038467EE7000030B5441C03E00178A4
:10077000401C00290DD08107F9D10B4BDD0104C8C5
:10078000D11A91432940FAD0001B0A0603D0C01E9B
:1007900030BD001B30BD0A0401D0801E30BD0902EF
:1007A000FCD0401E30BD00000101010101E004C089
:1007B000091F0429FBD28B0701D50280801CC907C1
:1007C00000D00270704700290BD0C30702D002701E
:1007D000401C491E022904D3830702D50280801CD5
:1007E000891EE3E70022EEE70022DFE7002203098B
:1007F0008B422CD3030A8B4211D300239C464EE03C
:1008000003460B433CD4002243088B4231D30309F7
:100810008B421CD3030A8B4201D394463FE0C309A9
:100820008B4201D3CB01C01A524183098B4201D3C1
:100830008B01C01A524143098B4201D34B01C01AAC
:10084000524103098B4201D30B01C01A5241C30824
:100850008B4201D3CB00C01A524183088B4201D393
:100860008B00C01A524143088B4201D34B00C01A7F
:100870005241411A00D201465241104670475DE094
:10088000CA0F00D04942031000D340425340002217
:100890009C4603098B422DD3030A8B4212D3FC22C0
:1008A000890112BA030A8B420CD3890192118B423F
:1008B00008D3890192118B4204D389013AD0921155
:1008C00000E08909C3098B4201D3CB01C01A524110
:1008D00083098B4201D38B01C01A524143098B42D9
:1008E00001D34B01C01A524103098B4201D30B01C2
:1008F000C01A5241C3088B4201D3CB00C01A5241E7
:1009000083088B4201D38B00C01A5241D9D24308CD
:100910008B4201D34B00C01A5241411A00D201460A
:10092000634652415B10104601D34042002B00D574
:100930004942704763465B1000D3404201B5002036
:10094000C046C04602BD704770477047F0B5FF25EE
:100950002D04C609C209FF2704462E400137CB09E2
:100960003E4348402A402B400746002A6BD0002BCC
:1009700069D0AA4267D0AB4265D0002800DA32467F
:100980000125ED0529432C4309022002090AD21A48
:100990004B0C7F24E31A434C000A7C44E35C7D2427
:1009A0002404121914145B00A218884201D3521CAB
:1009B00000E0400049420C465C4324115C43DB01EB
:1009C0006415E318040A5C43C502200D0C46444339
:1009D0006419250A5D432303EC0C0D4665430003AF
:1009E0000019EB184C42A34201D35B18401CD405FC
:1009F0002018002B07D05B00C91804D3401C002925
:100A000001D1400840003F2189048A4209D3002ACD
:100A100008DC1106090F04D0032149074018C00F54
:100A2000C007F0BD01224100120689187F2252063C
:100A30009142F6D205214907C84201D59010F0BD78
:100A4000FF20C005F0BD002F00DA32461648AA424A
:100A500007D2AB4205D21902090E17D0F80FC00712
:100A6000F0BDFF2563002D06AB42F9D84900A9422D
:100A7000F6D8AB4201D1A942F2D0A94201D100215E
:100A800001E061004908D0050843F0BD1102090EDC
:100A9000FBD0FF200243D005F0BD0A4601461046B8
:100AA00054E70000BF3500000000C07F1F22030C88
:100AB00002D10F2200041CD0030E01D10002083A1B
:100AC000030F01D10001121F830F01D18000921E7C
:100AD000002801DB4000521ED205511802125118A5
:100AE0001922904004D3491C002801D1490849002B
:100AF00008467047C10FC90700D040420122920743
:100B00001143D3E701218907D0E7FFB504460D461D
:100B100081B0243000902168880604D51022E06955
:100B20009143216000E00120A84201DD471B00E065
:100B300000270498A1697A191018081AA061207872
:100B4000C00602D42046FFF731FC002608E00398D7
:100B50006268A168805D9047206A401C761C206214
:100B600004988642F3DB2078C0060AD52046FFF7BA
:100B70001DFC06E06268A16830209047206A401C96
:100B8000206238467F1E0028F4DC07E00098626887
:100B9000A168405D9047206A401C206228466D1E77
:100BA0000028F3DC2046FFF717FC2078000602D56A
:100BB000022005B0F0BD0120FBE7000001694A1CDE
:100BC00002610878704700B58FB00291002105914D
:100BD0000549019379440391114604906846FFF753
:100BE00039FC0FB000BD0000E5FFFFFF0A68107080
:100BF000521C0A6070473A2800D23038202302463F
:100C00009A43412A01D310463738884201D3002045
:100C1000C043704702685118137801601846704746
:100C200010B5D16005497944516105497944116293
:100C300000211161114600F035F810BDEBFFFFFFF8
:100C4000610000004268002A08D001680B78491C46
:100C5000002B03D0521E06C0184670470121C16008
:100C6000881E70474268002A0BD0C3680168002BB9
:100C700007D183688B4204D0491E521C06C0002055
:100C800070470020C043704700487047B04B0020B9
:100C900010B5044600F0EAF90068005DC007C00F17
:100CA00010BD0000F3B50C468FB000200C90012061
:100CB00000260E9008460C300390626903980121CB
:100CC0009047051E2ED0252D2DD0216A884700285B
:100CD00018D06269039801219047216A884700284B
:100CE000F7D16269411E0398904700E0761CA16924
:100CF0000F988847216A88470028F7D1E1690F9843
:100D00008847DAE7A1690F988847A842074601D1CA
:100D1000761CD2E7E1690F9888477F1C02D10C98B6
:100D2000002877D06BE16269039800273D46394679
:100D300090472A280CD16269039801219047012528
:100D400006E00A214F433F18303FEBD41020054303
:100D50006269039801219047014630390A2903D27C
:100D6000AC498F42DEDCECE7E90600D4AA4F6C28E0
:100D70000AD04C2810D0682824D06A282ED0742895
:100D80000CD07A280AD00DE06269039801219047BF
:100D90006C2823D004211CE02020054362690398BD
:100DA00001219047A760652865604FD026DC582850
:100DB00039D01ADC452849D012DC252834D0412806
:100DC000B0D143E06269039801219047682802D0BE
:100DD00008210D43E6E70120C002DEE70220DCE740
:100DE000462833D047289DD130E05B2870D0612859
:100DF0002CD063286CD0642894D161E06F284FD048
:100E000009DC662822D0672820D0692826D06E28E1
:100E100017D12EE0EFE070284DD073286FD07528E1
:100E20004ED078280DD154E0A1690F988847252825
:100E3000054600D16CE7E1690F9888476D1C00D129
:100E40006DE7DCE00A224CE00A2252E00120234652
:100E50006A460F99C043C046C046C5E040212846B7
:100E6000234608436060A80701D5002239E000222C
:100E70003FE0E80700D020E72068011D21600068FE
:100E8000290501D5067018E7290701D5068014E762
:100E9000A90703D5F117066041600EE706600CE76D
:100EA00040212846234608436060A80701D5082250
:100EB00017E008221DE0594928460840606016E006
:100EC00040212846234608436060A807BCD5B9E7FF
:100ED00015E04021284608436060A80707D523464F
:100EE000102201200F99C043C046C0467CE010226A
:100EF000234601200F99C043FFF790FB74E00021C7
:100F000063280B460191009102910D9102D05B285C
:100F100007D03BE0E80601D40120A060012000904A
:100F200034E0E06801210D906269039890475E28E3
:100F300007D101200190E06801210D9062690398BA
:100F400090472169002906D10B4604AA8F00491C4D
:100F50000829D351FADB002851D02169002926D075
:100F60000298401C029062690398012190475D2815
:100F7000F1D10198002808D0002004AB8100401C6A
:100F80005A58D24308285A50F8DB04AB206900288D
:100F900020791CD04007029A00980D9B00922246AF
:100FA00002901F480F991DD5C046C0461CE0C117CE
:100FB000C90E09184A114909930004AA9A1849014F
:100FC000411A13680120884003431360CBE74007B0
:100FD000224613480F9902D5C046C04604E0C046D9
:100FE000C04601E0C046C04600280ADA401C06D1CF
:100FF0000E98002803D00020C04311B0F0BD0C981B
:10100000FBE7E90702D10C99491C0C913618002026
:101010000E9052E6CCCCCC0CFFFFFF7FF1F7FFFF28
:10102000FEFFFFFF00487047904B00207546FFF71A
:10103000F9FFAE46050069465346C008C000854624
:1010400018B020B5FFF7F2F860BC00274908B64693
:101050000026C0C5C0C5C0C5C0C5C0C5C0C5C0C5C7
:10106000C0C5403D49008D467047000010B5FFF7F0
:101070000BFE001D10BD00BFDD2A000010B50446A8
:10108000C046C0462046FFF769F810BD024670B55D
:101090000A4392072AD11E4DEE0104C808C9541B09
:1010A0009443344017D0D0B2D9B2401A210601433C
:1010B00010D190B299B2401A210401430AD1100212
:1010C0001902000A090A401A2102014302D1100E36
:1010D000190E401A70BD9A42DFD010BA19BA884270
:1010E00001D9012070BD0020C04370BD02780B788B
:1010F000401C491C002A09D09A4207D102780B787B
:10110000401C491C002A01D09A42EFD0D01A70BD71
:101110000101010101491820ABBEFEE726000200D3
:10112000704770B58C180578401C6B075B0F01D1B8
:101130000378401C2A1106D10278401C03E006788F
:10114000401C0E70491C5B1EF9D12B0705D40023EF
:10115000521E0DD40B70491CFAE70378401CCB1AC1
:10116000921C03E01D780D70491C5B1C521EF9D5C2
:10117000A142D8D3002070BD10B5114811490860B4
:1011800019200968886010210E480068C16001219B
:101190000C480068016106210A480068816130211D
:1011A00008480068C16159210648006801620122AF
:1011B0001146054801F050FE02490968486110BD1A
:1011C00064020020640000202020000010B500BF51
:1011D00008480069C007C00F012148404840002866
:1011E00006D000BF01200349086100BF00F004F9E8
:1011F00010BD000000B4014070470000F0B589B098
:1012000004460D4616461F463FA207CA05920491A2
:101210000390E117090F091909117D22D2005143EA
:101220000094E217120F121912111201A21A64236C
:101230005A438918EA17120F521912110A235A43F6
:1012400089182846EA17120F121812111201AA1A49
:101250008918029501940891F217120F9219121130
:101260005A433046F3171B0F1B181B111B01F31AAF
:10127000D218D2B20792FA17120FD21912110A23FA
:101280005A433846FB171B0F1B181B111B01FB1A77
:10129000D218D2B206920798022819D1089880076E
:1012A000800F002805D164210898FFF79FFA0029D4
:1012B00006D1FF2191310898FFF798FA002906D14D
:1012C0006846407B401CC1B26846417300E000BFE5
:1012D00007980C2802DD002009B0F0BD06981F28F1
:1012E00001DD0020F8E70798012809DB0798401E78
:1012F00003A9095C0698814202DB0698012801DAFD
:101300000020E9E70120E7E71F1C1F1E1F1E1F1F0B
:101310001E1F1E1FF0B5034618110A2778431F072A
:101320003F0FC019C4B208110A2778430F073F0FB7
:10133000C019C5B210110A27784317073F0FC0190B
:10134000C6B2002C02D011DD182C0FDA002D02D00D
:101350000ADD3C2D08DA002E02D003DD3C2E01DA36
:101360000120F0BD0020FCE70020FAE70020F8E7AC
:1013700010B501F025FB10BD10B5002436E060016A
:101380001C4940184078002800D12EE0600119491E
:1013900040188368C1686001164A82181069526952
:1013A000181A91410DD26001124940188368C06833
:1013B00000215A1C484161010E4BC9188A60C8605F
:1013C00003E0012061010B4A505460010949085CA7
:1013D000012809D1600140188069002804D061010A
:1013E000044A89188869804700BF641C052CC6DB45
:1013F00010BD00007000002010B5002436E0600130
:101400001C4940184078002800D12EE0600119499D
:1014100040188368C1686001164A821810695269D1
:10142000181A91410DD26001124940188368C068B2
:1014300000215A1C484161010E4BC9188A60C860DE
:1014400003E0012061010B4A505460010949085C26
:10145000012809D1600140188069002804D0610189
:10146000044A89188869804700BF641C032CC6DBC6
:1014700010BD00002001002008B5002000900448A5
:101480000F22D2010023016C1846884708BD0000D6
:101490001002002070B505460E460448281AC4B252
:1014A00021463246284600F021F970BD6402002032
:1014B000F8B5074624200090164E002000F02CF8C6
:1014C00031460978884201D1002F17D0012409E064
:1014D000315DE0B200F08EF80546002D01D02846BF
:1014E000F8BD641C00988442F2DB3178002000F0E3
:1014F00081F80546002D0BD02846F1E7012404E0D1
:10150000E0B200F009F83055641C00988442F7DB23
:101510000020E5E76402002038B505460020009071
:1015200017490870002406E0284600F02BF86946A9
:101530000855601CC4B2022CF6DB6846017840787E
:10154000814202D16846007838BD284600F01AF87A
:1015500069468870684601788078814202D1684681
:101560000078F1E7684641788078814202D1684688
:101570004078E9E70120024908705520E4E70000BF
:101580008C02002070B50446A02500F04DFD2846D1
:1015900000F0F2FC00F094FC002801D1552070BD51
:1015A000012000F0FBF8204600F0E6FC00F088FC8B
:1015B000002801D15520F2E7012000F0EFF800F0FB
:1015C00033FDA125284600F0D7FC00F079FC002867
:1015D00001D15520E3E7012000F0E0F800F096FC8F
:1015E000064600F0FDFC00F049FD022000F0CAF8BC
:1015F0003046D4E770B506460C4600200C4908700A
:1016000000250DE02146304600F014F83046FFF783
:1016100083FFA04202D10648007870BD681CC5B2A5
:10162000032DEFDB01200249087008460078F4E73B
:101630008C02002070B505460C46A02600F0F4FC94
:10164000304600F099FC00F03BFC002801D1552009
:1016500070BD284600F090FC00F032FC002801D15B
:101660005520F5E7204600F087FC00F029FC002813
:1016700001D15520ECE700F001FD052000F082F8D3
:101680000020E5E700B585B014216846FFF7ACF807
:101690000120000300900020019001200290002012
:1016A00003906946024800F0C9F805B000BD00008B
:1016B000000C004000B585B014216846FFF794F88F
:1016C000012000030090012001900290002003906F
:1016D0006946054800F0B2F801210903024800F00C
:1016E00088F905B000BD0000000C0040F7B50646C3
:1016F0000F4600240AE0315D3A19D0B2FFF77AFFB5
:101700000546002D01D02846FEBD641C0298844287
:10171000F1DB0020F8E7012101607047816849088A
:1017200049008160704742690B031B0B9A43426179
:1017300070478168012211438160704781680222ED
:1017400011438160704742690B031B0B1A434261CE
:10175000704701460868C007C00F01225040504042
:1017600070470000064800690421084304490861E5
:1017700008460069012108430149086170470000DB
:1017800000E000E010B5044603E07D20C00000F05A
:1017900005F82046641E0028F7D110BD10B5044698
:1017A0000C490D480068FFF721F84443012000066A
:1017B000844200D900E020460446601E0749486183
:1017C0000020886100BF05480069C003C00F0028E1
:1017D000F9D010BD40420F006000002000E000E0A2
:1017E0000348806B4008400001498863704700004F
:1017F00000A801400348C06BC007C00F012148404A
:101800004840704700A80140826A8BB29A438262C6
:10181000704702688BB29A430260704782688BB24D
:101820009A438260704742688BB29A434260704725
:10183000026A8BB29A43026270470000F8B506460E
:101840000C460027002500BF654886420BD064483F
:101850004030864207D062488030864203D06048DC
:10186000C030864201D1012000E00020002801D1D3
:1018700000BFFEE700BF00BF2068002805D9594916
:101880002068884201D8012000E00020002801D112
:1018900000BFFEE700BF00BF6068032808D0606893
:1018A000002805D06068012802D06068022801D1B4
:1018B000012000E00020002801D100BFFEE700BFAA
:1018C00000BFA068012802D0A068002801D1012033
:1018D00000E00020002801D100BFFEE700BF00BFEC
:1018E000E068002802D0E068012801D1012000E072
:1018F0000020002801D100BFFEE700BF80203A4948
:10190000896A0143384A916200BF62E00121B9400F
:10191000206808400546002D5AD06068032812D17F
:1019200029463046FFF775FF29463046FFF77BFF13
:1019300029463046FFF772FF00BFB06AA9B20843DC
:10194000B06200BF2EE029463046FFF75DFF6068B9
:10195000002806D100BF3068A9B20843306000BF3C
:1019600003E029463046FFF754FFA068002804D161
:1019700029463046FFF752FF06E000BFB068A9B223
:101980000843B06000BF00BFE068002806D000BF79
:101990007068A9B20843706000BF03E02946304672
:1019A000FFF741FF606802280DD12069012806D1A8
:1019B00000BF306AA9B20843306200BF03E0294685
:1019C0003046FFF735FF29463046626800F014F8CC
:1019D0007F1C2068F840002898D10120F8BD000045
:1019E000000C0040FFFF0000000200408AB282614C
:1019F00070478AB24261704730B5C3680C464C43A9
:101A000065006419A3430C464C4354432343C3600D
:101A100030BD10B5FFF7A6FE10BD000070B505463D
:101A20000C462868032801D9032028602046002896
:101A300005DBC206D20E01219140094A116000BFA8
:101A40002046296800F01EFC2046002806DBC2065E
:101A5000D20E01219140024A803A116000BF70BD50
:101A600080E100E00449096B07221206914301431B
:101A7000014A116370470000400200400349896B2E
:101A8000090A09020143014A9163704700020040BC
:101A9000024600BF1C48106000BF8869D368DB099C
:101AA000DB010343D36000BF48691369DB09DB0135
:101AB0000343136100BF086953699B099B010343FA
:101AC000536100BF886893699B099B01034393613D
:101AD00000BFC868D369DB08DB000343D36100BFE4
:101AE0004868136A5B095B010343136200BF08681F
:101AF000536A1B0A1B020343536200BF00BF034823
:101B0000106000BF01207047ACACACAC5A5A5A5AB6
:101B1000024600BFD0684006400E886100BF1069D1
:101B20004006400E486100BF50698006800E086183
:101B300000BF90698006800E886000BFD0694007B2
:101B4000400FC86000BF106AC006C00E486000BFEA
:101B5000506AC0B2086001207047000030B50446EA
:101B60000D4600BF0B48844201D1012000E0002057
:101B7000002801D100BFFEE700BF04200649896AA2
:101B80000143054A916200BF29462046FFF780FFC6
:101B9000012030BD00100140000200400168FF221A
:101BA00001329143016070470168FF220132114305
:101BB0000160704701684908490001607047016889
:101BC0000122114301607047F8B506460027032043
:101BD0000006FFF747FF00BF2048C0680121084307
:101BE0001E49C86000BF1E491E48FFF79CFD012129
:101BF00049041C48FFF7A7FD1A48FFF78CFD194858
:101C0000FFF797FD1748FFF799FD00BF1548FFF74D
:101C1000A0FD04467F1C1448874201D0002CF5D05B
:101C2000012C17D10F48FFF776FD00BF0D488069E2
:101C300080B230600B48FFF771FD61040948FFF77F
:101C400072FD00BF0548C068A0430449C86000BFDA
:101C5000002500E001252846F8BD00000CA8014041
:101C6000FFFF0F0000AC0140FF010000F0B58BB09A
:101C70000024282101A8FEF7B7FD002700210D460A
:101C80000E461A48FFF79BFF18481830FFF78CFFE5
:101C90001748FFF74EFD1420FFF774FD00BF0DE05D
:101CA000082000F067F8A10001AA5050A00001A987
:101CB0000858002145194E41601CC4B20A2CEFDBC4
:101CC0000A22002328463146FEF7DAFA05462F4657
:101CD0000648FFF76FFF05481830FFF75FFF04481D
:101CE000FFF71CFD38460BB0F0BD00000CA801400A
:101CF00000AC0140F3B581B00E46002701208006FC
:101D0000FFF7B0FE18491948FFF70DFD1748019974
:101D1000FFF719FD1548FFF7FEFC1448FFF709FD12
:101D20001248FFF70BFD00BF1048FFF712FD0446F5
:101D30007F1C0F48874201D0002CF5D0012C10D118
:101D40000A48FFF7E8FC00BF0848806980B23060AD
:101D50000648FFF7E3FC05480199FFF7E4FC00257E
:101D600000E001252846FEBDFFFF0F0000AC01404A
:101D7000FF010000F1B58AB000200890079006909E
:101D800008A8FFF721FFC0B2059006A90A98FFF73F
:101D9000B1FFC0B204900898002821D0059800280F
:101DA0001ED1049800281BD10F49069800F0FEFEB2
:101DB0000E4A1489002506460F4622462B46FEF79A
:101DC00047FA019100900A49089800F0EFFE024698
:101DD0000B460391029001990098FEF751FA079083
:101DE00007980BB0F0BD0000B80B000000FBFF1F10
:101DF000FF0F0000F0B58BB007460024282101A892
:101E0000FEF7F2FC0020009000210D460E461A4815
:101E1000FFF7D5FE18481830FFF7C6FE1748FFF742
:101E200088FC1420FFF7AEFC00BF0DE03846FFF73A
:101E3000A1FFA10001AA5050A00001A9085800214B
:101E400045194E41601CC4B20A2CEFDB0A22002364
:101E500028463146FEF714FA054600950648FFF776
:101E6000A9FE05481830FFF799FE0448FFF756FC15
:101E700000980BB0F0BD00000CA8014000AC014080
:101E800070B500BF00BF20200B49486100BF012092
:101E9000FFF7B0FF05461020FFF7ACFF0446291BF3
:101EA000064A62431046FEF7A1FC0646202002497E
:101EB000886100BF304670BDC00C00401027000094
:101EC00010B5FFF7DFFB0121C9020F48FFF791FDB5
:101ED0000420FFF763FC00BF0B48C06980B20121FA
:101EE00009030840002801D0002400E0012401215A
:101EF000C9020548FFF77AFD0420FFF74FFCFFF702
:101F0000D9FB204610BD0000000C004070B5002435
:101F1000FFF7B8FB0121C9021648FFF767FD04204F
:101F2000FFF73CFC00251EE00121C9021148FFF724
:101F300060FD0420FFF732FC6006040E00BF0D4870
:101F4000C06980B2012109030840002802D00120A5
:101F5000044301E0FE2004400121C9020548FFF7C7
:101F600045FD681CC5B2082DDEDBFFF7A3FB20464C
:101F700070BD0000000C004070B50446FFF79AFBEE
:101F8000002525E080202040002805D001210903FC
:101F90001248FFF72EFD04E0012109030F48FFF767
:101FA00025FD0420FFF7FAFB0121C9020B48FFF7CA
:101FB00020FD0420FFF7F2FB0121C9020748FFF7CB
:101FC00015FD0420FFF7EAFB6006040E681CC5B28D
:101FD000082DD7DB0420FFF7E1FB70BD000C0040AB
:101FE00010B5FFF767FB012109030E48FFF701FD5C
:101FF0000420FFF7D3FB0121C9020A48FFF7F6FCD2
:102000000420FFF7CBFB0121C9020648FFF7F1FCD2
:102010000420FFF7C3FB0121C9020248FFF7E6FCD9
:1020200010BD0000000C004010B5FFF743FB04207A
:10203000FFF7B4FB012109030F48FFF7DAFC042086
:10204000FFF7ACFB0121C9020B48FFF7D2FC0420CB
:10205000FFF7A4FB012109030748FFF7C7FC042091
:10206000FFF79CFB0121C9020348FFF7BFFC0420D6
:10207000FFF794FB10BD0000000C004010B5FFF707
:1020800019FB012109030E48FFF7B0FC0420FFF7FC
:1020900085FB0121C9020A48FFF7ABFC0420FFF7CA
:1020A0007DFB012109030648FFF7A0FC0420FFF790
:1020B00075FB012109030248FFF79BFC10BD0000DE
:1020C000000C004008B5FFF78BFB00BF02200B4956
:1020D000C86300BF0A480078401C094908705520B1
:1020E000FFF7CCFC00F08EF8064800900648FF226F
:1020F0002D320023016A0320884708BD00A8014053
:1021000068000020A12D0000F000002010B5002480
:1021100036E060011C4940184078002800D12EE0CC
:102120006001194940188368C1686001164A821825
:1021300010695269181A91410DD260011249401874
:102140008368C06800215A1C484161010E4BC918C0
:102150008A60C86003E0012061010B4A50546001AD
:102160000949085C012809D16001401880690028EC
:1021700004D06101044A89188869804700BF641C43
:10218000062CC6DB10BD00009001002010B500BF7A
:102190000A48406904210840800800280CD000BF8C
:1021A00004200649486100BFFFF7B0FF00BF0448A4
:1021B0000449086000BF00BF10BD000000340140AA
:1021C0005A5A341200140140704710B500F006F856
:1021D0006420FFF7D7FAFFF7CBF810BD00B585B044
:1021E00001200749486100BF009001900020029043
:1021F0000390049069460248FFF720FB05B000BD3C
:10220000800C004008B50A480A4908600846016881
:102210000948FFF7A3FC0220009002216846FFF75F
:10222000FDFB7D20C000FFF7ADFA00F0F7F808BD18
:102230006C020020A40200200010014010B500F044
:1022400069FB00F05BFB10BD08B50C4800900C4822
:102250003C220023016A184688470EE0084880386F
:102260000078002809D0FFF7E9FF044800900448EF
:102270003C220023016A18468847EFE7A935000091
:10228000F000002010B5002819DB1A4A03231B02B6
:10229000D21883089B00D2588307DC0EFF23A3408B
:1022A0009A438B071B0E8407E40EA3401A43114B7D
:1022B000032424021B198408A4001A5118E00E4AB2
:1022C00003071B0F083B9B089B00D2588307DC0EBB
:1022D000FF23A3409A438B071B0E8407E40EA34001
:1022E0001A43054B0407240F083CA408A4001A5104
:1022F00010BD000000E100E01CED00E0FFB5044669
:102300000D46164600200090019002900390012196
:10231000684600F085FC019600950293684687C8E0
:1023200087C4103CFFBD000070B58EB00646002586
:1023300021E007A91248FFF7EBFB69461048FFF7B9
:10234000E7FB00240AE0A00007A90858A1006A469C
:102350005158884200D003E0601CC4B2072CF2DB65
:1023600000BF072C05D11C2207A93046FDF738FF16
:1023700003E0681CC5B2032DDBDB00BF0EB070BDEF
:102380000010014010B500BF2048406808210840F7
:10239000C008002839D000BF1C4880680840C00829
:1023A000002832D000BF08201849886000BF1848B4
:1023B0000068FFF7B9FFFEF7DFFF1648C1688847DE
:1023C000134800688069002818D1114800684069E6
:1023D000002812D10E480068006900280DD10C4B6E
:1023E0001B689A680A4B1B685968094B1B68186878
:1023F00000F032FD06490968C86000BF0648007851
:10240000012802D100200449087010BD00100140CD
:10241000A4020020AC020020A802002008B504207D
:102420000A49896A0143094A916200BF00BF08480E
:102430004068082108430649486000BF0220009018
:1024400002216846FFF7EAFA08BD000000020040DA
:10245000001001403EB50446A269616920696B46DF
:1024600007C320460FC800F076FC002800D13EBD0F
:1024700001200B490870002503E00120FFF782F9D5
:102480006D1C7D20C000854203DA054800780028D5
:10249000F3D121460348FFF7FBFA00BFE7E700004E
:1024A000A80200200010014008B50D4800900D481A
:1024B0003C220023016A012088470FE00948603868
:1024C000007800280AD00020FEF7F2FF04480090B0
:1024D00004483C220023016A01208847EEE70000FF
:1024E000AB350000F0000020704700001FB501234D
:1024F000FF2202496846FFF701FF1FBD8447002005
:1025000008B51248009012480068C0883C22504329
:10251000C31704460F482246016A0220884714E088
:102520000C484038007800280FD0FFF7DFFF07483D
:10253000009007480068C0883C225043C3170446F7
:1025400004482246016A02208847E9E7AD350000C9
:1025500064000020F000002010B5FEF78DFF10BDD4
:1025600010B5FDF715FE044601F0B4F9002803D0BC
:1025700001200007024948602046FDF70DFE10BD0E
:1025800000ED00E010B55648C0684007400F03005A
:1025900000F024FB084C050A4C0F2F34394C5148ED
:1025A0000068514908605BE000F046F94E49086058
:1025B00056E04B484030406A8003800F002806D028
:1025C000012808D002280AD0032810D10BE0474880
:1025D000454908600BE046484349086007E0454824
:1025E0004149086003E044483F49086000BF00BF1C
:1025F00036E0424800683C49086031E07D20000236
:10260000394908602CE03648C0680007C00F002830
:1026100002D0012808D103E039483349086003E0BB
:1026200038483149086000BF00BF19E02C480069F4
:102630000003000F00280DD0012802D0022808D185
:1026400003E031482849086008E03048264908601E
:1026500004E000BF2E482449086000BF00BF00BF4F
:1026600000BF1F48C0684005400F030000F0B6FAE5
:1026700008050A0F14191F252B311B4800681A4939
:1026800008602BE0184800681749086026E01648E3
:1026900000681549086021E0134800681249086085
:1026A0001CE01148006840080F49086016E00E4819
:1026B000006880080C49086010E00B480068C008FA
:1026C000094908600AE008480068000906490860EE
:1026D00004E0054800680449086000BF00BF10BD61
:1026E000000200405C0000206000002000093D0066
:1026F00040420F0020A1070090D0030058000020A6
:10270000006CDC02008793030024F40000366E01A5
:1027100000127A0010B50020424988610520400669
:10272000C8600846806A802108433E4988623E4866
:10273000C0680F21890408433B49C860002039491B
:1027400048620846406A0521090208433549486243
:102750007D24240100E0641E002CFCD13148C068B7
:102760000121C90608432F49C860AA2088630120B7
:102770002E4908600E2048600320C90448602C4898
:102780000068000C2A490988C94389B2884202D1ED
:102790002748006800E040204006400E214948617B
:1027A00023484068000C22498988C94389B288427D
:1027B00002D11F48406800E040204006400E194901
:1027C000403188621A484038006A000C1849403984
:1027D000098CC94389B2884203D115484038006A40
:1027E00000E08020C0B20F4908620F484068FF2116
:1027F000813108430C4948600A48C06A10210843E7
:102800000849C8620B48C06B091508430949C863E9
:102810000448C06A102188430249C862FFF7B2FE2B
:1028200010BD000000020040C00C004000A80140A4
:1028300040FBFF1F0004004010B500242A488069B7
:102840008007C00F002802D0012817D113E02648C6
:1028500000690003000F002809D0012802D00228D7
:1028600004D101E0214C04E0214C02E000BF214CE6
:1028700000BF00BF02E02048046800BF00BF1A4844
:1028800080694006400F030000F0A8F90805070919
:102890000B0D13151B1D00BF15E0640813E0A40801
:1028A00011E0E4080FE00C212046FDF79FFF0446ED
:1028B00009E0240907E018212046FDF797FF0446A8
:1028C00001E0640900BF00BF074880694002400E74
:1028D000401C4443044880690007C00F002800D012
:1028E0006400204610BD0000000200400024F400F7
:1028F00000366E0100127A005C00002010B500BFA7
:10290000FFF7B4F90446600020180149086010BDC3
:1029100094020020FEB500270026FFF7B1FA054615
:102920002248854203D9002021490860FEBD214884
:10293000854203D200201E490860F7E71E48006860
:10294000A84203D11D481A490860EFE7012425E099
:10295000A00019490858A8421FD220462838FEF77F
:10296000C9F80646611E8900134A5158A200124B4D
:102970009A58881AFEF7C6F80746A1000E4A515821
:10298000681AFEF7BFF839460090FDF7DFFF3146C1
:10299000019001F03BF9064602E0641C8C2CD7DB69
:1029A00000BF0348066000BFC0E7000087DF0500E6
:1029B000980200207D020000F43C0000000020C2CC
:1029C00008B500BF0648806B0121084304498863AD
:1029D00000BF0120009004216846FFF71FF808BDE2
:1029E00000A801400122027041607047F0B50599CE
:1029F000002801DB052800DBF0BD002445010B4E5B
:102A0000745501244501AD196C70440135466419B3
:102A10006361226100254601044FF619B560F56037
:102A200044013D466419A16100BFE5E77000002044
:102A3000F0B50599002801DB032800DBF0BD002478
:102A400045010B4E745501244501AD196C704401CC
:102A5000354664196361226100254601044FF61969
:102A6000B560F56044013D466419A16100BFE5E72A
:102A700020010020F0B50599002801DB062800DBC5
:102A8000F0BD002445010B4E745501244501AD19DC
:102A90006C7044013546641963612261002546016A
:102AA000044FF619B560F56044013D466419A16113
:102AB00000BFE5E79001002010B5002801DB0628E3
:102AC00000DB10BD00214201084BD21851704201B9
:102AD000995400224301054C1B199A60DA604201A7
:102AE0002346D218916100BFEBE70000900100205F
:102AF00010B5002801DB052800DB10BD00214201D4
:102B0000084BD21851704201995400224301054CE0
:102B10001B199A60DA6042012346D218916100BF06
:102B2000EBE7000070000020017801291DD1416809
:102B3000491E41604168002917DA00BF00BF00BF8D
:102B400000BF00BFBFF34F8F00BF00BF00BF0749EA
:102B5000074AD16000BF00BF00BFBFF34F8F00BF67
:102B600000BF00BF00BF00BFFDE770470400FA05CB
:102B700000ED00E010B5002801DB032800DB10BDEC
:102B800000214201084BD218517042019954002291
:102B90004301054C1B199A60DA6042012346D218A2
:102BA000916100BFEBE7000020010020F8B582B280
:102BB0008BB2040C0D0C10465843002126465E4390
:102BC000370C36048019794116466E43370C3604AB
:102BD0008019794126466E438919F8BD30B4744690
:102BE000641E2578641CAB4204D3635D5B00E3186C
:102BF00030BC18471D46F8E710B50446A068012808
:102C000003D12068FDF7B0FD10BD0020C043FBE7F5
:102C100030380A2801D20120704700207047000098
:102C20008160014AC2607047F92B0000F0B51FB403
:102C30008EB004460D4600BF002006900790089015
:102C400009900690079008900990109810283FD09E
:102C500000263746002009E00F21214006AA115422
:102C60002B07210919432D090C46401C1028F3DBC2
:102C70000020059027E006A90598085C0021039133
:102C800002900020019011E01098C317039A029956
:102C90000A930C920D910B90084611460B9AFDF782
:102CA000D7FA039102900198401C01900599019870
:102CB0008842E9DB3A460399029836184A4117469A
:102CC0000598401C059005981028D4DB34463D46F5
:102CD000002006900790089009901198102833D092
:102CE000002637460020059014E0119AD31720469D
:102CF0002946FDF7C5FAD1B206AA05981154119AD2
:102D0000D31720462946FDF7BBFA04460D46059821
:102D1000401C059005981028E7DB0F2010E0330FCA
:102D20003901194336010F4606A9095C0C07240F27
:102D3000E51731463A4621432A430E461746401EC0
:102D40000028ECDA34463D4626462F463D463046BE
:102D5000294613B0F0BD0FB410B5089BDAB2079B3B
:102D6000D9B2069BD8B2FEF7D5FA002803D110BC21
:102D700008BC04B01847049CE3B2039CE2B2029C76
:102D8000E1B22402200EFEF739FA002800D1EEE766
:102D90000298C0B2192801D30120E8E70020E6E735
:102DA00030B58BB0274800902748FF222D320023F2
:102DB000016A0320884725480078002805D1224869
:102DC000416A032088470BB030BD0025FFF7F8FDAE
:102DD00001251F4CA04700282BD11C480078401B20
:102DE0001A49087008464068002801D048688047A2
:102DF000FFF7EAF9AA20FEF741FE142106A8FDF725
:102E0000F3FC06A800F090F8FFF7FCF90123142268
:102E100006A902A8FFF772FA0020009002A80FC8C6
:102E200000F05AFBFEF7A4FA0748416A03208847DE
:102E3000C9E7FEF7D5FC00BF02200649C86300BF02
:102E400000BFC0E7A12D0000F000002068000020B6
:102E5000F517000000A80140F0B585B005460C4606
:102E6000164600BF002003900290019000901023AE
:102E70000A2228460021FFF7D9FE054610230A2220
:102E800020460021FFF7D2FE044610230A223046D6
:102E90000021FFF7CBFE0646012C01D0022C0ED1FB
:102EA000681E6421FDF7A2FC0290681E6421FDF7F4
:102EB0009DFC039120460C30019000960BE06421AC
:102EC0002846FDF793FC029064212846FDF78EFC0E
:102ED0000391019400960199491C1A225143084616
:102EE0000A21FDF783FC03998A0852180299890880
:102EF000521802994900511A411800980818471EA3
:102F0000002F04DB07213846FDF77AFC04E0072197
:102F10003846FDF775FCC91D0F46002F00D1072765
:102F2000384605B0F0BD00001FB5044608480168EA
:102F30000848FEF7EDFD064803940268103207CA00
:102F40006B4607C3024800680FC800F005F81FBDB4
:102F5000A4020020001001400FB41FB50D9C0A9B75
:102F6000089A0B990C98019300920291039005A185
:102F70002046079B069AFDF705FA1FBC08BC04B063
:102F8000184700003230253032782D253032782D28
:102F90002530327820253032783A253032783A257B
:102FA0003032780086B0FFF70FF9FEF732FDFEF7FA
:102FB000E3F8FFF70AF9FEF75FFA0020FEF778FA68
:102FC000FFF7CAFAFEF718F9002000F07DFA00209A
:102FD00005900490039003220021012000F0F2FBF1
:102FE0001149086005A80121002380220091019069
:102FF0000EA1114800F040FC04A802210023802209
:10300000009101900DA1104800F036FC03A80221A8
:1030100000238022009101900CA10E4800F02CFCAE
:1030200000F046FB00BFFEE7A0020020526561648D
:10303000454570726F6D0000A92400004C6F6172ED
:1030400053656E6400000000012500005465737430
:10305000416C6C004922000010B5044600F0D8FA1B
:1030600020480068401C1F4908601F48006800286D
:1030700008D11D4804600846006801280ED100F000
:1030800019F90BE019480068002807D116480068B4
:10309000C06AE16A884201D8134804601448006895
:1030A000401C134908601349E06A0968884202D944
:1030B0001049E06A08601422E16A51430E4A8818F8
:1030C000211D00F098FA00F0B1FA084800680028C5
:1030D00007D005480068C06AE16A884201D200F062
:1030E000DBFA10BD2C0000201C000020380000205E
:1030F0004800002034000020BC46002070B525E0C8
:1031000000F000FB14480068002801D1012000E015
:103110000020054600F0AEFC002D17D100F078FA33
:103120000D48C068C468201D00F041FA0B480068D3
:10313000401E0A4908600A480068401E08490860A5
:1031400000F074FA204600F00DF800BF0448006853
:103150000028D5D170BD00005C4700202C00002065
:103160002800002010B50446206B00F06DFA2046C0
:1031700000F06AFA10BD000030B511239B02174819
:103180004407640F002C05D0C01DC008C000134CBC
:10319000041B1B1B0246124C22600024104D6C6065
:1031A000D0180838C008C0000E4C206000240D4D17
:1031B0002D686C600B4D2D682C601146441A4C60D4
:1031C000084C24680C60084D4C682C60074D4C6816
:1031D0002C600124E407064D2C6030BDBC020020A9
:1031E0000000002008000020100000200C0000203B
:1031F0001400002000BFFFF781FF0348006801288A
:10320000F9D900F049FAF6E7BC460020F8B50646C1
:103210000D461746069C002D01D1246000E0276072
:10322000E66325640121204600F0EAFAF8BDFFB507
:1032300081B00E460A9F0C9C216B0398401E8000B3
:10324000081800900098C008C0000090002508E011
:10325000715D204634304155705D002800D102E098
:103260006D1C102DF4D300BF002143200155052F04
:1032700000D30427E762201D00F0BAF92046183079
:1032800000F0B6F924610520C01BA0616462002033
:103290006064002148200155049A0199009800F0CB
:1032A00003F920600B98002801D00B98046005B04A
:1032B000F0BD000010B5002406E0142161430E4A61
:1032C000881800F088F9641C052CF6D30B4800F030
:1032D00082F90B4800F07FF90A4800F07CF90A48AF
:1032E00000F079F9094800F076F9044808490860C7
:1032F00003480849086010BDBC4600202047002054
:1033000034470020484700205C47002070470020D9
:10331000200000202400002010B50146164800E0DF
:10332000006803688B42FBD3024643689B188B42BC
:1033300004D143684C681B19436001460A464B6838
:103340009B180468A34211D10C4C03682468A34263
:1033500008D04B68046864681B194B6003681B68DD
:103360000B6005E0054B1B680B6001E003680B6018
:10337000884200D0016010BD00000020080000203D
:103380000B4909680968002901D1012100E00021E9
:10339000002904D00021C943064A116006E004490F
:1033A0000968C968C868034A41681160704700002D
:1033B000200000204C0000200248034948610720FB
:1033C000086170473F1F000000E000E072B600BFD8
:1033D000FEE70000F8B505460020009000F092F9E5
:1033E0002C480068002801D1FFF7C6FE2A48006873
:1033F0002840002849D1002D09D008356807400F22
:10340000002804D06807400F0821081A4519002D2C
:103410003BD022480068854237D8214E30460468A8
:1034200001E0264624686068A84202D2206800288D
:10343000F7D118480068844227D0306808300090DF
:10344000206830606068401B102807D967196068E1
:10345000401B786065603846FFF75EFF0F49606883
:103460000968081A0D490860084600680D4909688E
:10347000884203D2094800680A4908600649606822
:103480000968084360600020206000F0F3FA0098AB
:10349000F8BD000008000020140000200C000020EF
:1034A0000000002010000020001F01231B06036005
:1034B000001F0160001F034B0360143802602038B6
:1034C00070470000CD3300000021024A5180118076
:1034D00070470000880200207FB58CB0149D1C212D
:1034E00005A8FDF781F90C9E0BA80AA909AA07AB4C
:1034F000009301920291039006AB05AA23A13046E6
:10350000FDF76CF80A231022059C20460021FFF7E6
:103510008DFB05900A231022069C20460021FFF710
:1035200085FB06900A231022079C20460021FFF706
:103530007DFB07900A231022099C20460021FFF7FB
:1035400075FB09900A2310220A9C20460021FFF7F0
:103550006DFB0A900A2310220B9C20460021FFF7E6
:1035600065FB0B9005A807C8FFF776FC089005A837
:10357000FEF770FF0A480068FEF7D6FE002D03D064
:103580001C210848FDF786FF10B070BD25642D256D
:10359000642D25642025643A25643A2564000000E2
:1035A000A40200206C02002070477047704701465B
:1035B0000A694B68886898608B68486858605068EA
:1035C000884201D188685060002008611068401E60
:1035D0001060106870470146083141600021C943FE
:1035E000816001460831C1600161002101607047BE
:1035F00000210161704742684A6093688B6093685C
:1036000059609160086103685B1C036070470000AB
:1036100072B605480068401C03490860BFF34F8F2D
:10362000BFF36F8F70470000180000200548006846
:10363000401E0449086008460068002800D162B6B0
:10364000704700001800002070B506463546002E71
:103650001CD0083D2C460E496068096808400028C7
:1036600014D02068002811D109496068096888438E
:10367000606000F047F8074960680968401805492C
:1036800008602046FFF748FE00F0F4F970BD000026
:10369000140000200C0000200120000703494860AE
:1036A000BFF34F8FBFF36F8F7047000000ED00E056
:1036B0001CB50D4800210B468022009101900BA102
:1036C0000C4800F0D9F80446012C0CD172B6002049
:1036D000C0430949086001200849086000200849E2
:1036E000086000F053F81CBD5000002049444C45D0
:1036F00000000000F53100004C00002038000020E0
:103700003000002002480068401C014908607047F2
:103710005400002018480068002803D001201749F1
:10372000086027E00020154908601548016800E09E
:10373000491E14204843134A1058002801D1012083
:1037400000E000200028F3D114224A430D4BD0188A
:10375000426852684260024608324368934202D18E
:103760004268526842604268D268074B1A60044857
:10377000016000BF7047000054000020400000209E
:1037800034000020BC4600201C00002010B50B486F
:10379000006AFF2109040843084908620846006AD4
:1037A000FF210906084305490862FFF705FE0020CE
:1037B00003490860FCF7D8FC002010BD00ED00E0D4
:1037C00018000020F7B582B007460D46002D01D144
:1037D000002601E03E466E4330464830FFF7FAFDD2
:1037E0000446002C09D02046483001900094294618
:1037F0003846049B019AFFF709FD204605B0F0BD4D
:1038000070B505460E462C46FFF702FF216CE06BB3
:1038100048432168401860600020A0632068A060D1
:10382000E06B401E216C484321684018E060002195
:10383000C9434420015545200155002E10D120696F
:10384000002801D1012000E00020002810D12046EE
:10385000103000F0CFF800280AD0FFF71DFF07E076
:1038600020461030FFF7B7FE20462430FFF7B3FEA6
:10387000FFF7DCFE012070BDFFB585B01746B8002C
:10388000FFF7A8FD0646002E0BD04C20FFF7A2FD47
:103890000446002C01D0266304E03046FFF7D4FE36
:1038A00000E00024002C10D000220F990E986B46E7
:1038B00013C303923A46089B06990598FFF7B7FC95
:1038C0002046FFF7C9FB012501E00025ED4328460E
:1038D00009B0F0BDF8B5002000903B480068002812
:1038E00064D13A480068451C38480560002D0FD166
:1038F0003748076837480068354908603548076029
:1039000035480068401C34490860FFF739FD00BFA6
:103910003248006885423DD300BF2D4800680068EA
:10392000002801D1012000E00020002804D0002060
:10393000C0432A4908602CE025480068C068C46874
:103940006668B54202D22548066022E0201DFFF7D6
:103950002EFEA06A002803D020461830FFF727FE6D
:103960001F49E06A0968884202D91D49E06A086077
:103970001422E16A51431B4A8818211DFFF73BFEC0
:103980001949E06A0968C96A8842C6D301200090D3
:10399000C3E700BF14480068C06A142148431149B6
:1039A0000858012801D90120009004E00F48006860
:1039B000401C0E4908600E480068002801D0012014
:1039C00000900098F8BD0000540000203000002056
:1039D0002000002024000020440000204C00002093
:1039E00034000020BC4600201C0000203C000020C9
:1039F0004000002070B50646F068C46820461830C4
:103A0000FFF7D5FD15480068002813D1201DFFF7EA
:103A1000CEFD1349E06A0968884202D91049E06A7C
:103A200008601422E16A51430E4A8818211DFFF7ED
:103A3000E2FD04E0214618310B48FFF7DCFD0B499D
:103A4000E06A0968C96A884204D901250120084949
:103A5000086000E00025284670BD000054000020EA
:103A600034000020BC460020484700201C000020F5
:103A70004000002070B500240026FFF7C9FD2D4846
:103A80000068401E2B4908600846006800284DD198
:103A900029480068002849D022E02848C068C46846
:103AA00020461830FFF783FD201DFFF780FD2449D5
:103AB000E06A0968884202D92149E06A0860142254
:103AC000E16A51431F4A8818211DFFF794FD1E49E2
:103AD000E06A0968C96A884202D301201B4908606C
:103AE00016480068002801D1012000E000200028CD
:103AF000D3D0002C01D0FFF743FC15480568002DFA
:103B00000DD000BFFFF7E6FE002802D001200F49CC
:103B100008606D1E002DF5D100200D4908600B488E
:103B20000068002802D00126FFF7B6FDFFF77EFDF2
:103B3000304670BD540000202C0000204847002073
:103B400034000020BC4600201C0000204000002063
:103B50003C00002010B500290AD00878002807D0C2
:103B600005487844FDF792FA002801D0002010BDE6
:103B70000248784410BD00005E04000056040000B6
:103B800070B501250400ED074C4020D4441A01D241
:103B9000001B0919C60D4B00F2B2FF2A29D01B0EDB
:103BA0002CD000020C02D31A2C43DC402843051908
:103BB00010D2280A02D3401C6D0611D0761EF605DD
:103BC0008019FF2A00DA70BDC00DC00570BD6940C4
:103BD00000F02EF801200543C541521C761CE8E791
:103BE00064089C40C90161408900E7D10124A043D9
:103BF000E4E71B0E440200D0034870BD002AFCD14C
:103C0000C00FC00770BD00BF0000C07F70B50125A8
:103C1000ED07684004004C4002D5694000F008F808
:103C2000FFF7B4FF70B501250400ED074C4022D426
:103C3000441A02D26C40001B0919C60D4B00F2B2A7
:103C4000FF2A4BD01B0E50D000020C02D31A2C437B
:103C5000DC40A843051B05D5AD0019D36D08761EC1
:103C6000521E37D0F605280A01D2801970BD704166
:103C70006D0603D070BD6940FFF788FF9C400902C4
:103C80006140490001D0401E70BD0124A04370BDB9
:103C90006D081DD001202B0C01D12D0410302B0EEE
:103CA00001D12D0208302B0F01D12D01001DAB0FCA
:103CB00001D1AD00801CEB0F01D16D00401C6D00E7
:103CC000361A121A680AF5054019012A02DB70BD7E
:103CD000002070BDC036300AC00770BD1B0E440204
:103CE00001D1FF2B00D1024870BD002AF0D070BD79
:103CF0000000C07F87DF0500D0790500EB1B0500C1
:103D000027C50400E4740400952A0400B8E5030004
:103D1000D9A50300906A03007B330300470003002A
:103D2000A4D002004AA40200F87A020074540200EF
:103D300086300200FE0E0200AEEF01006DD20100DF
:103D400013B701007E9D01008E850100256F0100E3
:103D5000275A01007B4601000B340100BF220100FD
:103D6000851201004B030100FDF400008EE7000006
:103D7000EFDA000011CF0000E8C3000069B90000CD
:103D800088AF00003CA600007A9D00003B95000033
:103D9000758D000022860000397F0000B678000093
:103DA00090720000C36C0000496700001E620000B2
:103DB0003B5D00009E58000041540000225000006E
:103DC0003B4C00008B4800000E450000C041000045
:103DD0009F3E0000A93B0000DB38000032360000A7
:103DE000AD33000049310000062F0000E02C000038
:103DF000D62A0000E6280000102700005225000007
:103E0000A923000017220000982000002C1F0000AA
:103E1000D21D0000881C00004F1B0000251A000066
:103E20000A190000FC170000FB160000061600002F
:103E30001D1500003E1400006A130000A0120000CF
:103E4000DF1100002811000078100000D10F0000E1
:103E5000310F0000980E0000070E00007B0D0000DF
:103E6000F60C0000770C0000FE0B00008A0B00002F
:103E70001B0B0000B00A00004A0A0000E90900001C
:103E80008C09000032090000DC0800008A080000EC
:103E90003C080000F0070000A807000062070000CF
:103EA00020070000E0060000A306000068060000EE
:103EB0002F060000F9050000C5050000930500006D
:103EC000630500003405000008050000DD04000063
:103ED000B40400008C0400006604000042040000EA
:103EE0001E040000FC030000DC030000BC03000013
:103EF0009E03000081030000650300004A030000E8
:103F00002F03000016030000FE020000E60200007E
:103F1000D0020000BA020000A502000091020000D9
:103F20007D02000030313233343536373839414282
:103F3000434445464030580030313233343536370B
:103F400038396162636465664030780004000008B7
:103F500000000000000000020001000010818283C8
:103F60008485868788898B8C8D8E8F919293959688
:103F700097999A9C9D9FA0A2A3A5A7A8AAACAEB012
:103F8000B2B3B5B7B9BCBEC0C2C5C7C9CCCED1D417
:103F9000D7D9DCDFE2E6E9ECF0F3F7FAFE00000047
:103FA000D040000000000020BC02000022110000F0
:103FB00014410000BC02002034590000040100003C
:103FC0001001000043000000F8FFFFFF00404040E8
:103FD00040404040404041414141414040404040DC
:103FE0004040404040404040404040404005020288
:103FF0000202020202020202020202020220202047
:1040000020202020202020020202020202029090A2
:1040100090909090101010101010101010101010A0
:1040200010101010101010100202020202028888F4
:104030008888888808080808080808080808080800
:1040400008080808080808080202020240000000E8
:104050000000000000000000000000000000000060
:104060000000000000000000000000000000000050
:104070000000000000000000000000000000000040
:104080000000000000000000000000000000000030
:104090000000000000000000000000000000000020
:1040A0000000000000000000000000000000000010
:1040B0000000000000000000000000000000000000
:1040C00000000000000000000000000000000000F0
:1040D00001181AAA01013D32804B127A0401AB2368
:1040E000ED2923F12A0267051A316C23752B02C7CB
:1040F000031A75D01AB9047206320116B234567812
:104100000102267813C201031A100E320223E52998
:0441100023292B0034
:04000005000000C136
:00000001FF
