:020000040000FA
:10400000A057002039420000414200004342000016
:1040100000000000000000000000000000000000A0
:1040200000000000000000000000000035F000006B
:104030000000000000000000BF4100002107010057
:104040004B4200004B42000035ED00004B420000A7
:10405000BDCC00004B4200004B4200004B42000030
:104060004B4200004B4200004B420000BD160100D5
:104070004B4200004B4200004B4200004B4200000C
:104080004B4200004B4200004B4200004B420000FC
:1040900005CD00004B4200004B4200004B420000A7
:1040A000218100004B4200004B4200004B420000C7
:1040B0004B4200004B42000029B3000029CD000014
:1040C00000F002F800F050F80CA030C808382418AE
:1040D0002D18A246671EAB4654465D46AC4201D140
:1040E00000F042F87E460F3E0FCCB6460126334222
:1040F00000D0FB1AA246AB4633431847E840010004
:10410000084101000023002400250026103A01D3B5
:1041100078C1FBD8520700D330C100D50B6070477F
:1041200010B5642902D100F0C3F910BD782902D17D
:1041300000F020FA10BD732902D101F0DDFC10BDA2
:10414000002010BD1FB501F0C1FD040000200021BA
:1041500013F01AF8401C60600020002112F0FEFFEE
:10416000E0601FBD10B510BD02F0DCFA1146FFF78C
:10417000E9FF10F02DF902F08DFD03B4FFF7F2FF17
:1041800003BC02F0BFFD0000084B1968086820302E
:1041900080F30988022080F31488BFF36F8F3FBC3F
:1041A000AE4608BC04BC62B6184700001C000020E4
:1041B000EFF3108072B6704780F310887047EFF30A
:1041C00009800E4B1A6820381060F0C044464D46F6
:1041D00056465F46F0C008B572B612F009F862B6EE
:1041E0000CBC116808681030F0C8A046A946B24659
:1041F000BB4680F309882038F0C818471C0000200F
:1042000070B505460C46164602E00FCC0FC5103EB1
:10421000102EFAD2082E02D303CC03C5083E042E7A
:1042200007D301CC01C5361F03E021782970641C37
:104230006D1C761EF9D270BD0748804707480047BD
:10424000FEE7FEE7FEE7FEE7FEE7FEE70448054976
:10425000054A064B70470000D5080100C140000028
:1042600020510020A0570020A0510020A051002084
:1042700010B5202A04DB0146203A9140002010BDF1
:10428000914020239C1A0346E3401943904010BDFF
:1042900010B5202A04DB0846203AD040002110BD8A
:1042A0000B462024D340D040A21A9140084319461F
:1042B00010BD4343514330B55C18010C130C0D463F
:1042C00092B25D4380B251432C19054655430A0C06
:1042D00009044D1962415843010C00044019514131
:1042E00030BDFEB5054610460C46184373D0AE46A9
:1042F0008C460020AD1A01469C4167D366460027D4
:1043000001243D46B61A9D4102D313463A46212464
:10431000654676462F04360C3E432D0CB61A9D4159
:1043200004D3150C1B042B43120410346546764647
:104330002F06360A3E432D0AB61A9D4104D3150EA8
:104340001B022B4312020834654676462F073609B6
:104350003E432D09B61A9D4104D3150F1B012B4373
:104360001201241D65467646AF07B6083E43AD08E8
:10437000B61A9D4104D3950F9B002B439200A41CB9
:1043800065467646EF0776083E436D08B61A9D41AE
:104390001AD392185B41641C16E0001876466546F5
:1043A0004941B71A9D410191009009D36046B11A65
:1043B00098418E468446009801990025401C694129
:1043C000DD0752082A435B08641EE6D57246634641
:1043D00003B0F0BDFFE700200146C046C0462A46B4
:1043E0002346F5E70FB41CB5084B06AA7B44694683
:1043F0000090059801F055FB04460020694601F045
:1044000063FB20461CBC08BC04B01847D91600004A
:1044100070B5044685690068C10601D5302600E004
:104420002026C00707D070BD62683046A16890475B
:10443000206A401C20626D1EF6D570BD70B5044622
:1044400085690078C00707D170BD6268A168202027
:104450009047206A401C20626D1EF6D570BD70B575
:104460000C460546012A05D02878800600D5EA6961
:10447000002302E0012305E05B1C934202D2E05CD2
:104480000028F9D1A869E618C01AA861286AC018DE
:1044900028622846FFF7BCFF04E06A682078A96814
:1044A000641C9047B442F8D32846FFF7C7FF70BD9D
:1044B000F7B5002575291068009914A611D0C046DB
:1044C000C046002802DA404211A608E000990968B7
:1044D0008A0701D50FA602E0490704D50EA60125DB
:1044E00001E0C046C046009F0024243704E001F0EC
:1044F000A7FB30313955641C0028F8D12B463246D1
:104500002146009801F070FAFEBD00000000000096
:104510002D0000002B00000020000000F8B50F4621
:104520000188090502D5224C7C4402E0204C7C44E1
:104530000E3405460021243508E016071209360F0F
:10454000A65D6E541E0732431B09491C16461E43C6
:10455000F3D1224604780023240705D5702F06D016
:10456000002901D00223113201F03EFAF8BD0123E7
:104570001032F9E770B504460D4621461068C04672
:10458000C0460023024629462046FFF7C7FF70BDFC
:10459000D21DD308DB000CCBC0E730B40368202465
:1045A0001268234303600823C36130BC0023B5E7CE
:1045B000E0390100F3B50446002081B020622046B6
:1045C000E1688847002872D0252802D06268A16877
:1045D000ABE0594F00267F442046E16888472028F9
:1045E000054608DB312D06D27819203800780028DE
:1045F00001D00643F0E7B00701D504208643002030
:10460000E0610746A0612A2D0AD028460EF056FB2D
:10461000002827D0B8000019303D0090856119E0CE
:104620000298BA00121902C8916102902046E1680E
:104630008847012F054617D1E06900281FDA20209E
:1046400086431CE000980A2180694843009940197C
:10465000303888612046E168884705460EF02EFB19
:104660000028EFD1012F0AD02E2D08D12046E16875
:1046700088470546202006437F1C022FC3DBA06924
:10468000002803DA4042A06101200643F00701D070
:10469000102086436C2D0BD0682D09D04C2D3CD0BA
:1046A0006A2D38D0742D38D07A2D36D016E040E0FF
:1046B000E1682F4620468847B842054609D16C2F4D
:1046C00029D001208002E16806432046884705463C
:1046D00004E06C2F1DD0FF2001300643002D28D0B0
:1046E00028464138192803D80120C0020643203546
:1046F000204626602946029A1646FFF711FD00283B
:1047000010D001280BD0F61DF008C0000830029030
:1047100055E74020E1E78020D5E70020D3E7361DAC
:1047200002964CE762682846A1689047206A401CC0
:1047300044E7206AFEBD00005A3901000FB400B5FD
:104740008DB010A909900B900020C04300910A90F1
:1047500000200C90074878440690074878446A4641
:1047600007900F9909A801F0E1F90DB008BC04B059
:1047700018470000F713000011140000FFB51D4694
:104780000027FF4383B05C68002001909E68A96900
:1047900004987F1C88470090296A88470028F6D132
:1047A0000098401C0CD0032040028443002E19DDE9
:1047B000600614D500982B2809D02D280FD103E0CE
:1047C0000020C04307B0F0BD012080020443A96966
:1047D00004987F1C8847761E002E009002DD00980A
:1047E000302803D00598002825D035E00120A9699C
:1047F00040020443761E04987F1C8847002E0090D8
:1048000003DD782805D0582803D00598002810D05B
:1048100022E00598002801D010281DD10120A969A7
:1048200040028443761E04987F1C88470090102025
:1048300002E0082000E00A2005900DE00121059A21
:1048400049020C430199761E514308180190A96949
:1048500004987F1C88470090002E05DD059900987C
:1048600001F04EF90028E9DAE96904988847A005C3
:1048700002D40120C043A5E7E00722D1600611D58C
:104880006005019800D5404229680A1D2A60096820
:10489000220501D5087014E0220701D5088010E038
:1048A00008600EE02868011D29600068210502D516
:1048B0000199017005E02107019901D5018000E00F
:1048C000016038467EE7401ECAB24178401C8A42E9
:1048D00002D00029F9D10020704730B505460B46BB
:1048E0002A461C781078521C5B1C002801D0A0427C
:1048F000F7D0002C03D0002802D06D1CEFE728462B
:1049000030BD0000034670B502460B439B070FD134
:104910000E4CE60100E008C208C91D1B9D4335424C
:10492000F9D0D9B21170521C00290DD01B0AF8E73A
:104930000B78491C1370521C002B05D00B78491CB6
:104940001370521C002BF3D170BD00000101010156
:1049500030B5441C03E00178401C00290DD08107CC
:10496000F9D10B4BDD0104C8D11A91432940FAD08B
:10497000001B0A0603D0C01E30BD001B30BD0A0458
:1049800001D0801E30BD0902FCD0401E30BD0000A9
:1049900001010101F8B5042A2CD3830712D00B784A
:1049A000491C0370401C521E83070BD00B78491C16
:1049B0000370401C521E830704D00B78491C0370FF
:1049C000401C521E8B079B0F05D0C91ADF00202305
:1049D000DE1B08C90AE0FFF713FCF8BD1D4608C935
:1049E000FD401C46B4402C4310C0121F042AF5D2CF
:1049F000F308C91A521EF0D40B78491C0370401CEE
:104A0000521EEAD40B78491C0370401C012AE4D4DE
:104A100009780170F8BDD2B210B513029A181304C8
:104A20009A1800F00EF810BD01E004C0091F042917
:104A3000FBD28B0701D50280801CC90700D0027011
:104A4000704700290BD0C30702D00270401C491EDA
:104A5000022904D3830702D50280801C891EE3E764
:104A60000022EEE70022DFE7024670B50A43920714
:104A70002AD11E4DEE0104C808C9541B944334408A
:104A800017D0D0B2D9B2401A2106014310D190B24A
:104A900099B2401A210401430AD110021902000AF6
:104AA000090A401A2102014302D1100E190E401AC0
:104AB00070BD9A42DFD010BA19BA884201D90120DC
:104AC00070BD0020C04370BD02780B78401C491CAB
:104AD000002A09D09A4207D102780B78401C491C61
:104AE000002A01D09A42EFD0D01A70BD0101010115
:104AF000002203098B422CD3030A8B4211D30023DB
:104B00009C464EE003460B433CD4002243088B42B4
:104B100031D303098B421CD3030A8B4201D3944641
:104B20003FE0C3098B4201D3CB01C01A5241830934
:104B30008B4201D38B01C01A524143098B4201D3EE
:104B40004B01C01A524103098B4201D30B01C01A19
:104B50005241C3088B4201D3CB00C01A5241830893
:104B60008B4201D38B00C01A524143088B4201D3C0
:104B70004B00C01A5241411A00D201465241104620
:104B800070475DE0CA0F00D04942031000D3404295
:104B9000534000229C4603098B422DD3030A8B42CB
:104BA00012D3FC22890112BA030A8B420CD3890169
:104BB00092118B4208D3890192118B4204D389014F
:104BC0003AD0921100E08909C3098B4201D3CB018D
:104BD000C01A524183098B4201D38B01C01A524142
:104BE00043098B4201D34B01C01A524103098B4246
:104BF00001D30B01C01A5241C3088B4201D3CB0031
:104C0000C01A524183088B4201D38B00C01A524113
:104C1000D9D243088B4201D34B00C01A5241411AEA
:104C200000D20146634652415B10104601D3404218
:104C3000002B00D54942704763465B1000D34042C9
:104C400001B50020C046C04602BD7047704770479E
:104C50000246C80FC00781434B0030B54B405B0094
:104C60009B0D20D01923DB06C91801231B0599428F
:104C700020DB0324A40704251346AB400BD3002BF1
:104C800004D1EB0613409B00E34204D401246407E3
:104C9000002312195941FF231B0599420BD2C90069
:104CA0000143500F09E0CB0204D50143080302433E
:104CB00005D0054830BDFF21C905084330BD084671
:104CC00007210905884330BD0000C07FF0B50C46C0
:104CD000871A9C410D46861A9D4103D2C01BA141F3
:104CE000D21963410D0D1F0DC94EEC1BAE435CD0B4
:104CF0007F057F0D0026002F51D02D05AC46A9431E
:104D0000DD020123ED0A1B051D4320231B1B24D4B8
:104D10001746E740381871412F46E740CC199D40AF
:104D20002818314661410C0D27D161449A4013D5B2
:104D30000023401C594152000ED14008400001227E
:104D40004B005205D34207D305204007C14201D58D
:104D5000B04900E0B0493046F0BD6B00002A00D0F9
:104D600001229A181F23203C1B1B01D5002302E0BF
:104D7000E540281871410C0DD7D0012424050919EC
:104D8000C407CD0740084908E40F28436144002CBC
:104D9000D5D00024401C61419A40D0D1CDE76A05AE
:104DA000520DD9D1C90FC907D5E79C4D4E00002837
:104DB00001D0012400E0002434195F00002A01D052
:104DC000012600E00026BE19954FAC420CD8AE4239
:104DD0000AD8B44206D001256D05EC42BCD010467D
:104DE0001946F0BD9942FCD000203946F0BDF0B51F
:104DF0001FB40C460F46811A9F412546861A9D41D5
:104E000006D20125ED076F40401ABC4152187B4184
:104E1000210D1E0D8D1BAC467D4D8D437ED075053D
:104E20006D0D7CD00D05AE46AC431B031B0B794DBD
:104E300052429D41202366469B1B14D31746F740E0
:104E4000381800260090744160462F460741E41947
:104E500000989D402818664116D4714671189A40F2
:104E600025D5012320E093182A466A415200002BE1
:104E700000D0521C1E23203E9B1B002B61DD3541C0
:104E8000EE1728186641E8D5001876415B1C9A4059
:104E900000D3401C4B05F3181524E34010D3002B1E
:104EA00052D071467118D30FC01802D3491C05B0F7
:104EB000F0BD0123DB079A42F9D140084000F6E734
:104EC00001225205B21801D1002853D00123CC0A87
:104ED000DB029943891E002A08D1020C03D0020C80
:104EE0000004103902E00246002020390023550B4F
:104EF00005D112020823550B01D152010D23550C87
:104F000001D112011B1DD50C01D192009B1C150D66
:104F100001D152005B1C2025EE1A01E02CE022E0BA
:104F20000546F54015439840CA1AE107691813056C
:104F3000C918002ABBDA032040070818C10FC907A7
:104F40000FE071466118B2E7F1074008084371109D
:104F500071444A000CD001235B059A42A7D2C90FC5
:104F6000C9070020A3E74905490D26D1002001E02B
:104F70000028F4D100219AE7284D6600002801D0CE
:104F8000012100E0002171185F00002A01D00126F4
:104F900000E00026BE19224FA94210D8AE420ED81A
:104FA000B14208D001256D05E94206D01946A80294
:104FB000414010467BE79C4201D0214677E7002024
:104FC000394674E710B50C465C4005D50124E4076A
:104FD0006340FFF70CFF10BDFFF778FE10BD30B443
:104FE0000C465C4004D50124E407634030BC6DE608
:104FF00030BCFCE670B50124E40761400D465D401D
:1050000002D4FFF763FE70BD6340FFF7F0FE70BD92
:10501000FF0700000000F0FF0000F07F0000E0FF4D
:105020000000F87FF0B5F94D0C091E092C402E4008
:105030002F468BB0A7437DD0B543FCD0002E7AD04D
:10504000002CFCD00D465D40ED0F2543AC1BFF2529
:10505000AD0464190894C502440DC9022143500DE2
:10506000DC0204430120C00701430443D202019142
:10507000200C110C00958C46010423468B430A91A9
:1050800061460904E24D8A430991010A7D444919A8
:105090008039097805464D4301266D18F605751BC4
:1050A0006943C90C640B891C4C436418B5012C1B63
:1050B000250C2E04B4434C434D43210C6918890937
:1050C0000591009DE90701D00121C90704912C46F3
:1050D00001996708CD072F434C08059DE10B4D430F
:1050E0002D0C29466646754302950D4645432E46CE
:1050F000029D7D1BB44100950D465D4301942C0C2F
:105100002F040D465543AE462D0C3D4302950394A6
:105110007546049C2D04641B049406D2029C039DD6
:10512000641C002675410395029401AC70CC009F6D
:105130007D1B01E03EE162E1B44109040095079165
:1051400001940599A4086143090C0C464443650B7E
:10515000E7040C4666467443A646640B3C4303953D
:1051600002947446049DE4042C1B049406D2029C11
:10517000039D641C002675410395029401AC70CC1C
:10518000009F7D1BB44101940C465C430095650F64
:10519000E7000C465443A646640F3C430395029433
:1051A0007446049DE4002C1B049406D2029C039DCB
:1051B000641C002675410395029401AC70CC009FDD
:1051C0007D1BB441AE09AF06049DC900AD092F4354
:1051D000049DA406AD060495079D34436918079104
:1051E000059DE10B4D432D0C2946664675430295FE
:1051F0000D4645432E46029D7D1BB44100950D464C
:105200005D4301942C0C2F040D465543AE462D0CE6
:105210003D43029503947546049C2D04641B04943D
:1052200006D2029C039D641C0026754103950294DE
:1052300001AC70CC009F7D1BB44101948C05069499
:10524000079C890A611800950791019C0599A4089B
:105250006143090C0D464543680BEF040D46644657
:1052600065436C0B3C43049FED047D1BAC4602D2AE
:105270000025641C6841009E019D371B854108463E
:10528000584301950C46460FC5005443600F284310
:105290006546E4002C1B02D20025401C6E41019D96
:1052A0003F1AB5412846BD09800628438446A00917
:1052B000BF064E020699A40676180743079D0020F4
:1052C00068410A99079019430020099B00906046A5
:1052D000FF1913434041E20F64003A43A4460446D9
:1052E000D71A8C41A04203D90120009020463A46AB
:1052F000C70F941840416246D20F224364466400AF
:105300000494009CBE466400D71AA4460446029743
:105310008C417746002F01D1A04204D96046401C41
:105320008446029A2046C40FA64694184041049A27
:105330000546D20F224364466400D31A8D4171465C
:10534000002901D1A84202D928461A46641C1043FC
:105350000122002800D0164361020020079B891912
:1053600004465C410223002C02DB491813466441C9
:10537000089DCE0A2D145D194B056705E10A2C0521
:105380000D1908993E43C9076940002B08D0934086
:1053900006D30022761C5141002B01D176087600FD
:1053A0001C4A002D43DB154241D0AA433FD0304672
:1053B0000BB0F0BD06180D464D41174C7642AC417E
:1053C0001AD395181C465C41134A6D42A24113D36F
:1053D000012252054C00D4420AD15C00D4420BD0C9
:1053E0004B4002D592021143E2E749004908DFE74A
:1053F0005940C90FC90718E000200849D8E70548F7
:1054000001420DD10342F7D0F2E700000000FF0790
:10541000B52E01000000F07F0000E0FF0000F87FE3
:10542000114859400143C01241400020C0E7012308
:10543000089A9B069A4205DC032252078918C90F75
:10544000C907B5E7052252078918074A1143D21246
:105450005140ADE770B515461C4602460B4628463E
:105460002146FFF7DFFD70BDFFFFFF7F30B503462C
:10547000CA02400D1043164D164C0A1502D02043A7
:10548000002A06DBAA1A002A12DDD040FF2A0BDC14
:1054900030BD5205520D01D140004008AA1A07D470
:1054A000D0404042FF2A01DD002030BD0028FCDD55
:1054B0004A00002B01D0012000E00020101801223A
:1054C0005205D042F0D8C817C043604030BD00003C
:1054D0001E040000000000800346CA02400D10B503
:1054E00010430A1504D00124E4072043002A05DBF9
:1054F0000A4CA21A04D4D040FF2A00DD002010BDBF
:105500004A00002B01D0012000E0002010180122E9
:105510005205D042F2D8C817C04310BD1E04000087
:105520001F22030C02D10F22000402D0030E03D06D
:1055300004E00020014670470002083A030F01D141
:105540000001121F830F01D18000921E002801DB91
:105550004000521E120551184205C0124118104653
:105560007047C10FC90700D0404201229207114382
:10557000D6E701218907D3E7F0B58B4C0F09254603
:1055800089B0BD437BD01D092646AE43FAD00E46F6
:105590005E402740F60F3E43254071D02401214252
:1055A000FBD0FF24AD19A4042D1B039501252D0567
:1055B000DB02DB0AC9022B43C90A29431E01090188
:1055C000040F130F050121431701880B8203914338
:1055D0002D098C46A90B1E438A039543B30B9A03EE
:1055E00096433F09BA0B9403A74302962E467E4387
:1055F0000497B6464E19D7190C46019654430597A1
:105600007E43371B7646BF1B3601B646BE0B3619A6
:1056100000967646BC043719009C01D3641C0094A4
:105620006400002F01D001263443029E049F75437D
:1056300066467E430496760034196E003419009451
:10564000029C019E1C196643751BAE460694654676
:105650004519059C05956C43594375460891691A8F
:105660000191049E01465143A41B0491611A009CC0
:105670000791E10605D061090122114302E072E0C1
:105680006EE06109089D00272C0A2D066918049D0B
:105690007C412A0A2D066918019D6241AC0DAD02BC
:1056A0006D185441079A910D920255196141029A61
:1056B000644658435443069B059A5A43121A131BD7
:1056C0009A0E9B015B187A41010B0005C3185141EA
:1056D000220A200644195A419A4200D2491C01204C
:1056E0004002814203D315230226F64302E014232D
:1056F0000326F6432020C51AA9401746AF40DA40DA
:105700000A4320460399D840091473181905511803
:10571000039A3843D2075140AC4009D0012294404B
:1057200006D30022401C5141002C01D1400840000A
:105730001E4A934212D3012203989206904207DB3D
:105740000520400709181A480143C012414004E0EF
:10575000032040070818C10FC907002009B0F0BD99
:105760000020F107FAE705180C464C4111486D423C
:10577000A04115D394181A465A410E4864429041EC
:105780000ED301204A004005824209D35A008242CA
:1057900006D35940C90F084AC90700201143DDE765
:1057A00000200649DAE700000000FF07FE070000BE
:1057B000FFFFFF7F0000E0FF0000F07F0000F87FA8
:1057C0000121C9050123411842001B06D3185B0EB5
:1057D0000AD0C1100722D206891840075242D1428E
:1057E00001D5520089187047090208D50146002AE0
:1057F00003D0C10FC907002070471046704742020E
:1058000002D0002002497047072109050143F4E74F
:105810000000F87FF0B5FF252D04C609C209FF2757
:1058200004462E400137CB093E4348402A402B40D6
:105830000746002A6BD0002B69D0AA4267D0AB4242
:1058400065D0002800DA32460125ED0529432C43B6
:1058500009022002090AD21A4B0C7F24E31A434C96
:10586000000A7C44E35C7D242404121914145B00B8
:10587000A218884201D3521C00E0400049420C4665
:105880005C4324115C43DB016415E318040A5C43A8
:10589000C502200D0C4644436419250A5D432303C9
:1058A000EC0C0D46654300030019EB184C42A34273
:1058B00001D35B18401CD4052018002B07D05B00D7
:1058C000C91804D3401C002901D1400840003F21E1
:1058D00089048A4209D3002A08DC1106090F04D082
:1058E000032149074018C00FC007F0BD0122410045
:1058F000120689187F2252069142F6D205214907E5
:10590000C84201D59010F0BDFF20C005F0BD002FAA
:1059100000DA32461648AA4207D2AB4205D2190233
:10592000090E17D0F80FC007F0BDFF2563002D0644
:10593000AB42F9D84900A942F6D8AB4201D1A942FD
:10594000F2D0A94201D1002101E061004908D0054F
:105950000843F0BD1102090EFBD0FF200243D00521
:10596000F0BD0A460146104654E700005F270100DB
:105970000000C07F1F22030C02D10F2200041CD0A4
:10598000030E01D10002083A030F01D10001121FDA
:10599000830F01D18000921E002801DB4000521EBF
:1059A000D2055118021251181922904004D3491CF3
:1059B000002801D14908490008467047C10FC907AE
:1059C00000D04042012292071143D3E70121890709
:1059D000D0E710B500F07EF9006810BD10B50446A0
:1059E00000F078F9046010BDFFB504460D4681B0A3
:1059F000243000902168880604D51022E069914384
:105A0000216000E00120A84201DD471B00E00027E3
:105A10000498A1697A191018081AA0612078C006A4
:105A200002D42046FEF7F4FC002608E003986268E2
:105A3000A168805D9047206A401C761C2062049813
:105A40008642F3DB2078C0060AD52046FEF7E0FC4C
:105A500006E06268A16830209047206A401C2062FE
:105A600038467F1E0028F4DC07E000986268A168D1
:105A7000405D9047206A401C206228466D1E002829
:105A8000F3DC2046FEF7DAFC2078000602D502207F
:105A900005B0F0BD0120FBE701694A1C02610878EE
:105AA000704700B58FB0029100210591054901931F
:105AB00079440391114604906846FEF77BFD0FB0D0
:105AC00000BD0000E5FFFFFF0A681070521C0A606D
:105AD000704710B54369002B02D0C046C04601E0B4
:105AE000FEF7BDFC012010BD1278014624310A707A
:105AF00000224A700122ECE711680022D243E8E755
:105B00003A2800D23038202302469A43412A01D352
:105B100010463738884201D30020C0437047000048
:105B200002685118137801601846704710B5D160AB
:105B30000549794451610549794411620021116197
:105B4000114600F0D5F810BDEBFFFFFFA1010000EA
:105B50004268002A08D001680B78491C002B03D04A
:105B6000521E06C0184670470121C160881E70474A
:105B70004268002A0BD0C3680168002B07D18368F4
:105B80008B4204D0491E521C06C0002070470020E2
:105B9000C04370470FB4002300B589B00CA9009131
:105BA0000B99CB60224B7B44224A7A440792042211
:105BB00006930192204A0292204A7A446B46089248
:105BC0000246002011F096FC09B008BC04B018474A
:105BD00070B5064615460C46324686B00020C043D6
:105BE00001900020049004A8009102916946FFF7FB
:105BF000D1FF024604982118002D05D0002801D0BD
:105C0000084600E020462860049800280DD0002AAD
:105C100002DD0098884208D03246081B6946019090
:105C200004A800940294FFF7B5FF06B070BD000011
:105C3000A7FFFFFFC3FFFFFFFFFFFF7F1F01000064
:105C400001468008081A02091018020A1018020CEE
:105C50001018C008820012185200891A01E0401C76
:105C60000A390A29FBD2704710B5FF231B064400EE
:105C70009C421DD84C009C421AD80346124A0B4342
:105C800007D4401A02D3EFF3008010BDEFF3008079
:105C900010BD081A06D2EFF3008001219043C90716
:105CA000084302E0EFF30080904380F3008810BDCA
:105CB0000D231B041A4204D01146002000F00EFDF3
:105CC00010BD00F023FD10BD00000090004870479B
:105CD000E050002000487047C050002010B5044636
:105CE00000F040FD0068005DC007C00F10BD00005F
:105CF000F3B50C468FB000200C90012000260E90CA
:105D000008460C3003906269039801219047051EF4
:105D10002ED0252D2DD0216A8847002818D0626901
:105D2000039801219047216A88470028F7D16269CA
:105D3000411E0398904700E0761CA1690F988847A0
:105D4000216A88470028F7D1E1690F988847DAE788
:105D5000A1690F988847A842074601D1761CD2E76F
:105D6000E1690F9888477F1C02D10C98002877D0F2
:105D700075E16269039800273D46394690472A2815
:105D80000CD16269039801219047012506E00A21A0
:105D90004F433F18303FEBD410200543626903980E
:105DA00001219047014630390A2903D2B1498F4277
:105DB000DEDCECE7E90600D4AF4F6C280AD04C28B3
:105DC00010D0682824D06A282ED074280CD07A28C5
:105DD0000AD00DE062690398012190476C2823D016
:105DE00004211CE0202005436269039801219047AB
:105DF000A760652865604FD026DC582839D01ADCAA
:105E0000452849D012DC252834D04128B0D143E0C0
:105E10006269039801219047682802D008210D4348
:105E2000E6E70120C002DEE70220DCE7462833D0A7
:105E300047289DD130E05B2870D061282CD06328A2
:105E40006CD0642894D161E06F284FD009DC6628BB
:105E500022D0672820D0692826D06E2888D12EE04D
:105E6000F9E070284DD073286FD075284ED078286F
:105E70000DD154E0A1690F9888472528054600D127
:105E80006CE7E1690F9888476D1C00D16DE7E6E08B
:105E90000A224CE00A2252E0012023466A460F996A
:105EA000C04311F027FBCFE040212846234608439A
:105EB0006060A80701D5002239E000223FE0E80732
:105EC00000D020E72068011D21600068290501D568
:105ED000067018E7290701D5068014E7A90703D53E
:105EE000F117066041600EE706600CE74021284686
:105EF000234608436060A80701D5082217E008225E
:105F00001DE05E4928460840606016E040212846B2
:105F1000234608436060A807BCD5B9E715E04021D7
:105F2000284608436060A80707D5234610220120B1
:105F30000F99C043C046C04686E010222346012088
:105F40000F99C043FEF71AFC7EE0002163280B4640
:105F50000191009102910D9102D05B2808D03CE0A4
:105F60002079C00601D40120A0600120009034E017
:105F7000E06801210D906269039890475E2807D17F
:105F800001200190E06801210D906269039890471B
:105F90002169002906D10B4604AA8F00491C082953
:105FA000D351FADB00285AD02169002927D0029862
:105FB000401C029062690398012190475D28F1D14D
:105FC0000198002808D0002004AB8100401C5A58DA
:105FD000D24308285A50F8DB04AB20690028207906
:105FE0001DD0400726D5029A00980D9B00922246AC
:105FF000029001200F99C043C046C04624E0C1175B
:10600000C90E09184A114909930004AA9A184901AE
:10601000411A13680120884003431360CAE7400710
:10602000224617480F9902D5C046C0460CE0C0462C
:10603000C04609E00298224600990D9B009002910B
:106040000F480F99C046C04600280ADA401C06D106
:106050000E98002803D00020C04311B0F0BD0C986A
:10606000FBE7E90702D10C99491C0C913618002076
:106070000E9048E6CCCCCC0CFFFFFF7FF1F7FFFF82
:10608000FEFFFFFFF7B516468AB0334878446C46EA
:1060900003467C33C06F5A689B680DC42E48784411
:1060A000763003AC0DC80DC43720C0010818372165
:1060B0001B30FEF727FD05460C46803D1B3C02D5F4
:1060C0006442012000E000200027099010E0E00772
:1060D0000CD00C2020497843794432464C39411881
:1060E0006846012300F054FA6B4607C364107F1C16
:1060F000002CECD1184F7F442E3F16E0E80712D059
:106100002001C0190EC80691089307920068F0425A
:1061100001D1981908903246012306A903A800F07E
:1061200037FA03AB07C36D10641C002DE6D1099844
:10613000002806D032466946012303A800F07EFA03
:1061400005E001233246694603A800F021FA0A9BC4
:1061500007C30DB0F0BD0000781F010003464000EA
:106160000A4610B5400D0BD00121C9070F24A40227
:1061700000191C0364082143540D2143D20207E097
:1061800000210120F2E7D40F490021435200401EB4
:106190000029F8DADB0FDB07184310BDFFB50D4609
:1061A000144685B0486851680CF074FC0091019069
:1061B000A868A1680CF06EFC02910390A868616861
:1061C0000CF068FC029A12188242029201D201205D
:1061D00000E00020019A0B18D2180028019202D08A
:1061E0008A4202D903E08A4201D2012000E0002065
:1061F0000099081800906868A1680CF04BFC029A9E
:1062000012188242029201D2012000E00020019A7D
:106210000B18D2180028019202D08A4202D903E05A
:106220008A4201D2012000E0002000990818009065
:106230002868216840004900400849084018FA4988
:10624000471814E001994000C90F084300900198D5
:1062500002994000C90F0843019002980399400039
:10626000C90F08430290039840007F1E03900098D6
:106270000028E7DA0898002801D0EC4E00E000265C
:10628000B74201DA012000E00020002804902AD063
:10629000F71BF806C00E15D0029B2021091A039A9D
:1062A0008B401A430392029A019BC2408B401A43CF
:1062B0000292019A009BC2408B4000991A430192BE
:1062C000C14000917B110DD06F460320C11A03D548
:1062D00000218200B95003E08A008100BA587A5048
:1062E000401EF3D5374603980299002800D00120BC
:1062F000014308980291002808460CD0002800D0DD
:1063000001200199019A490508430121D20AC902D5
:10631000D202019200E001210E9B0122D207012B43
:1063200002D0002B03D013E0002807D120E09042D8
:1063300004D890420CD1019B0B4209D0019B591803
:10634000019105D10099491C009101D17F1C009257
:1063500000280DD0102108460020C04604980028CF
:1063600006D00F98002803D0082108460020C04618
:1063700028682168019B009A4840C10F0598C90709
:1063800039430EC009B0F0BDFFB587B0099A08982F
:10639000089953689268406889689646002203937A
:1063A00017469446089A12685300099A5B081268C7
:1063B000520052089A1A9E4BD4180A9A002A01D009
:1063C000352200E040220692002201231546049265
:1063D000DB07059324E0002D05D175460346039E97
:1063E0004D1BB34109D375466646039B491B049D6B
:1063F0009841059B7519AC465F4163463B4308D005
:10640000059B049EDD0776082E435B0804960593E2
:1064100001E0521E641EC50FED0749184041521C91
:10642000069B9A42D7DB002D04D17546039A6B1A5E
:10643000824101D203200CE0039A0B466B4042409C
:10644000134303D0014303D0012002E0022000E007
:106450000020614601910021009702910A990029CC
:1064600005D0614640020143704B019102E0800774
:10647000002302909C4201DA012000E00020070086
:106480003AD01A1BD006C00E15D0029D2021019CC7
:10649000091AC5408C402543029C8C4000D0012441
:1064A0002543019C0295009DC4408D4000992C43DA
:1064B0000194C140009154111DD06D46022100226B
:1064C00002290CD10320001B07E0002804DB860012
:1064D000AE59002E00D00122401C0328F5DB081B1A
:1064E00002D588002A5004E08000285810438A0012
:1064F000A850491EE3D51C460A98002802980CD0E3
:10650000002800D001200199019A49050843012182
:10651000D20AC902D202019200E00121109B01229D
:10652000D207012B02D0002B03D013E0002807D1A3
:106530001FE0904204D890420CD1019B0B4209D03D
:10654000019B5918019105D10099491C009101D175
:10655000641C009200280CD0102108460020C04680
:10656000002F06D01198002803D0082108460020EB
:10657000C04608980999019A009B0068096848403C
:10658000C10F0798C907214382600AC00BB0F0BD54
:1065900000B585B0019300920A460146002302A887
:1065A000FFF7FCFD02A807C805B000BDFFB50A460D
:1065B0001F4685B00799019301230091014602A867
:1065C000FFF7ECFD02990398049ECA0F4900D20719
:1065D00000920F22490892028C1A0021002800DB49
:1065E0000C46450013486D08844214D3079A002ACC
:1065F00004DA441E0026104DF64302E004460D4620
:106600000E46102108460020C046002F03D004216A
:1066100008460020C0462005E90A084300990843BF
:106620006905F20A1143ADE602C0FFFF013C00001C
:10663000FF3F0000FF070000FFFFFF7F00B585B0B0
:10664000019300920A460146002302A8FFF79CFE30
:1066500002A807C8A8E7FFB50A461F4685B00799F4
:10666000019301230091014602A8FFF78DFE0299D4
:106670000398049ECA0F4900D20700920F224908CE
:1066800092028C1A0021002800DB0C4645001148BC
:106690006D08844214D3079A002A04DA441E0026A7
:1066A0000D4DF64302E004460D460E461021084605
:1066B0000020C046002F03D0042108460020C04619
:1066C0002005E90A0843009908436905F20A1143C5
:1066D00058E60000FF070000FFFFFF7FC80212D549
:1066E0004803400F002804D0C803C043012188405C
:1066F0007047EFF3008000010009032109070843F8
:1067000080F30088704700207047000010B50248F1
:1067100000F0C8FA10BD00000000C07F00487047BC
:10672000C05000207546FFF7F9FFAE4605006946E8
:106730005346C008C000854618B020B5FDF786FD59
:1067400060BC00274908B6460026C0C5C0C5C0C504
:10675000C0C5C0C5C0C5C0C5C0C5403D49008D4607
:106760007047000010B5FFF7B1FA001D10BD00BF63
:10677000190A0100FFB58BB00878FF2806D0491C24
:106780002D2805D000230020009009E000200EE015
:106790000123F8E7009A0A2462438018491C0090FC
:1067A0000878FF28F6D1002B02D0009840420090D4
:1067B000002503952C460D9800782D2801D02B2814
:1067C00015D10D99491C2D280D9102D00020039060
:1067D0000DE00120FBE7401C214600270A223B4632
:1067E0000D902846FDF765FD35183C464C410D9847
:1067F0000678FF2EEFD1002108460020C0460399FD
:10680000002902D08100401840080002860F012EA6
:1068100001DD0026F6430E990098471828462043CC
:106820000BD0FF20F530C7421ADA0398C1070B9846
:10683000002E41600ADD012009E00398C1070B9892
:1068400041600B99002008600FB0F0BD00200B994B
:106850000860FFF73FFA02210160182108461AE09C
:10686000FF20F530874219DD002E02DAFC4878441B
:1068700001E0FC48784406C80B9806C00B980399C1
:106880004068C90708430B994860FFF723FA0221C3
:106890000160142108460020C046D5E700210846C3
:1068A0000020C04639000A9001D5724200E032460D
:1068B000002900DA794207A8FFF7E4FB07AB07CB12
:1068C00004AB07C3E848009000200146214304D1EF
:1068D0002C460546E44920390091210C0904014366
:1068E00006D1290C24040C4300992D041039009181
:1068F000210E0906014306D1290E24020C430099FA
:106900002D0208390091210F0907014306D1290FF3
:1069100024010C4300992D01091F0091A10F890743
:10692000014306D1A90FA4000C430099AD00891EB4
:106930000091E10FC907084304D100986D19644123
:10694000401E0090002F0295019406DD32466846F5
:10695000012304A9FFF72AFE05E001233246684619
:1069600004A9FFF778FE044603980D46002802D0DC
:106970000120C0074440002108460020C0460A9973
:10698000BA4E48400007800F07D1600040082843F6
:1069900003D06000400DB04214D1FFF79BF90221F3
:1069A00001606000400DB0420CD1B148784406C887
:1069B0000B9806C00B98E10FC907406808430B9974
:1069C000486041E70B9844600B9805603CE7FFB5D1
:1069D0001F4695B0002000250C909E685C68ED4332
:1069E0001390FFF773F9C0680168405C1490B969AF
:1069F00016986D1C88470A90396A88470028F6D196
:106A00000A98401C0AD00D20C0018443002E12DDDC
:106A10000A982B2809D02D280DD103E00020C0436F
:106A200019B0F0BD012080020443B96916986D1CAD
:106A30008847761E0A90600504A901D52D2000E044
:106A40002B206A46491C107410A8002E0D910B9043
:106A50003BDD0A98692805D0492803D06E2801D06B
:106A60004E281DD13B46039002200296179A169994
:106A7000C0430095019410F04DFDC11CD0D10FE032
:106A8000B96916986D1C88470A900120761E40024D
:106A90000443179805601398401C002E139014DDD2
:106AA0000A983028ECD0782801D058280DD11398B6
:106AB00001280AD13B460296179A1699001F0095A5
:106AC000019410F01FFDC11CAAD114990A988842A4
:106AD00046D18020044308E00C981799401E0C9082
:106AE000012040020443681C0860B9696D1C1698B7
:106AF000761E884730280A90EED031E014998842FB
:106B000005D1200603D480200443761E1EE00A9897
:106B10000CF0D4F8002826D0012008A94002044334
:106B20000D980331761E88420BD20A980D993038A1
:106B300008700D98401C0D90200607D50C98401E3B
:106B400003E0200602D40C98401C0C90A00502D54E
:106B50001799681C0860B96916986D1C88470A90D7
:106B6000002ECBDC59E0002E57DD0A98652801D0B5
:106B7000452852D1A00550D50320B96900028443AD
:106B80006D1C1698761E8847002E0A900CDD2B2867
:106B900004D02D2808D1FF2001300443B96916988C
:106BA0006D1C8847761E0A90E00501D52D2100E076
:106BB0002B210B9801700B98401C0B90009025E046
:106BC000012012A9400204430B980131761E88422D
:106BD0000ED20A980B9930380006000E087003D1C7
:106BE00000990B9888420AD90B98401C0B9006E03C
:106BF000E00501D51F4801E01E4840420C90B969EC
:106C000016986D1C88470A9017980560002E04DDC1
:106C10000A980CF053F80028D2D1F96916988847E1
:106C20000D99FF2004AA08700B99087000200E909F
:106C30000F900C9B10A90EA8FFF79CFDA00502D495
:106C40000120C043ECE62420044215D0E0071FD108
:106C500038680F9A0E99031D3B60006806C017E064
:106C60009A1901008C1901003E400000FF07000046
:106C700054180100F1D8FFFF0EA968460BF048FF39
:106C8000E00705D13868009A011D3960006802608C
:106C90002846C5E610B50446C046C0462046FDF766
:106CA0006CFA10BD10B50C461107090F092904D064
:106CB0000A290AD008290CD104E011460820FFF760
:106CC0000DFD06E0510606D501E0510601D5012073
:106CD000C007214610BDD10607D501010909CC081E
:106CE0004907000E0006044309E0410F200249074E
:106CF000000A0143200E00061D22D141014308462F
:106D0000E7E7000001491820ABBEFEE726000200BD
:106D1000FFB51F4689B0139812994005C00FC007F0
:106D200005900020079005460446461E04900290F8
:106D30003C20491C12910690B9690A988847039033
:106D40001498401E14901498002841DD03982E28B2
:106D500016D01021FEF7D4FE002834DB0121049167
:106D6000079901431AD0069900290CDB069AC1172E
:106D7000FDF77EFA054306980C43001F069006E0D7
:106D8000012002900EE0002801D0012005430120DF
:106D900007900298002805D1361D03E002980028CC
:106DA00000D0361F1298401C1290B9690A98884783
:106DB00003901498401E149004980028C3D00B9997
:106DC00012980860BFE70398702808D0502806D0B2
:106DD000F9690A9888470498002815D051E00020E6
:106DE000039001200290049800280AD01298401CB9
:106DF0001290B9690A9888471499491E002914917C
:106E000006DCF9690A9888470120C0430DB0F0BD3F
:106E10002B2804D02D280DD10020C04302901298B9
:106E2000401C1290B9690A9888471499491E002994
:106E30001491E6DD411CE4D00A21FEF761FE002832
:106E4000DFDB03990A225143081803901298401C73
:106E50001290B9690A9888470A21FEF751FE1499E1
:106E60000B9A491E1491129911601499002901DDA1
:106E70000028E6DAF9690A98884702990398484396
:106E8000861913982421084004902846204304D0F2
:106E9000A10F8907090002D006E005989BE0A90F21
:106EA000A4000C43AD00B61EE10FC907080002D1D3
:106EB0006D196441761E0498002803D00B200290BF
:106EC0005D4803E0282002907D20C0438642039065
:106ED00007DA811B029808184128029001DD412041
:106EE0000290029A01200021521EFDF7C1F90246CC
:106EF00028400B462140084301D0012000E000203B
:106F000007900020521EC04343412A4023401A43A9
:106F100001D0012000E0002007990690014352D0E3
:106F2000002108460020C0460321059A8905084033
:106F3000002A05D082008018C20F101840100840A7
:106F40008015012802DD0020C04301E0012815D092
:106F5000401C38D00798002835D0069800280DD15D
:106F6000029A01200021FDF783F9284021400843BF
:106F700001D0012000E00020002824D0029A012046
:106F80000021FDF775F9034640198C4661412A1A24
:106F90008C410FD30298402807DD0498039E0028F7
:106FA00001D0343E02E0173E00E0761C01240025AB
:106FB000E40708E05B1E62460024E4436241DD43CF
:106FC000D44305400C4003980121081AB04206DA68
:106FD0001A49059808430190002000900EE06000D7
:106FE0006205010BE80A1043059A009068460A43BF
:106FF00013490A43314601920BF0F9FD0498002829
:107000000AD01398C00714D13868019A0099031D5B
:107010003B60006806C00CE002A869460BF078FDF2
:107020001398C00705D13868029A011D39600068BD
:1070300002601298EAE6000002FCFFFF0000F07F09
:107040000000F03FFFB51D4687B01198484A109CDC
:10705000129E40051399C00F761EC007024301928D
:1070600000220092FF22D205104320229143492999
:10707000059003D017464E2928D04FE03DA002AA24
:107080000BC801270BC2A9690898641C8847761EA3
:10709000014607D402A8C05D002803D020229143F6
:1070A00081420AD0E96908988847032F36D0082F13
:1070B00034D00120C0430BB0F0BD7F1C032F01D0A2
:1070C000082FE0D10999601C0860DCE7A9690898DD
:1070D000641C8847761E2DD4B84341282AD1A9695B
:1070E0000898641C8847761E24D4B8434E2821D1C2
:1070F000A9690898641C884701990122D2041143A8
:1071000001910599D200114305910999761E0C60F1
:1071100001D4282806D0E969089888471198C00743
:1071200012D023E0A9690898641C8847761E01D410
:10713000002803DAE96908988847BAE72928F1D1D5
:107140000998641C0460E9E711982421084207D0DB
:107150002868019A0099031D2B60006806C005E0AD
:1071600028680599021D2A60006801602046A2E790
:107170000000F07F494E46494E4954590000000036
:1071800070470000F8B5224C4E00069DA6420AD872
:10719000A64201D1002806D15E00A64203D8A6422D
:1071A0000AD1002A08D00D24240425422CD02946D7
:1071B0000020FFF793FAF8BD0C461C430CD499420B
:1071C00002D0EFF30080F8BD904202D0EFF30080D0
:1071D000F8BDEFF30080F8BD09242407E5008B42D9
:1071E00006D0EFF30080A043591A06D2284304E0EA
:1071F000101A05D3EFF30080A04380F30088F8BD98
:10720000EFF30080A043F1E7009500F033F8F8BDFC
:107210000000E0FF70B505464800440D124B002009
:10722000002C0AD0634008D09A4206DA6642B24285
:1072300003DD12054019514170BD002C08D0002B10
:1072400009D0C90FC907002AF6DB084A114370BDEF
:10725000C90FC90770BD28460A03104302D0002099
:10726000034970BD284670BDFF0700000000F07F95
:107270000000F87F10B500200249029AFFF712FDC6
:1072800010BD00000000F87F70B58C180578401C18
:107290006B075B0F01D10378401C2A1106D10278DD
:1072A000401C03E00678401C0E70491C5B1EF9D19F
:1072B0002B0705D40023521E0DD40B70491CFAE78E
:1072C0000378401CCB1A921C03E01D780D70491CFA
:1072D0005B1C521EF9D5A142D8D3002070BDF0B579
:1072E0008DB006460C4617461D46E10F0919491098
:1072F000A94202DD00200DB0F0BD002009900A90E7
:107300000B900C90012109A80BF0E0FC00200590E7
:10731000069007900890012105A80BF0D7FC09966C
:107320000A9405970695099908460A9A0EF0F6FC04
:1073300005A80FC803936B4607C309A80FC80CF034
:1073400069F904900498D6E708B51B481B49086002
:1073500019211A4800688030C1631021174800685D
:10736000BC304160012115480068BC3081600621B5
:1073700012480068BC300161302110480068BC3000
:10738000416159210D480068BC30816101221146DC
:107390000B480CF03DFA09490968BC31C86009483E
:1073A00006490968C880002000900748002213465B
:1073B000016C1046884708BD280500207800002091
:1073C00020200000FF0F0000C8010020FFB599B089
:1073D000239F229C002114911591169117911191D0
:1073E000129113910F22FD480168A33114A8FDF7F3
:1073F000D1FA01231522F948016879310DA806F068
:1074000087FD0DA8109988470C900A2311AA0C99A2
:107410000D98FFF764FF0D9908460C9A0DF03AF9A4
:107420002646641C641C781E4000ED4940184078D4
:107430002246641C19998854781E4000E849085C6B
:107440002246641C199988542246641C1999249870
:10745000885400210A910B913B000BF033FB321A48
:107460001A1B1C1D1E1F204F7E7F808182838493E8
:107470009495C5D1FDFCFBFAF9F8F7F6F5F4F3F2B3
:10748000F1F0EFEEEDECEBEAE9E8E7E6E5E4E3E264
:10749000E11A46E345E344E343E342E341E3D149F0
:1074A0008868FEF78DF901230822059104900AA946
:1074B00006A806F02DFD0020029005990498019180
:1074C000009006A80FC801F0DBFB08A8007A22464E
:1074D000641C1999885408A9487A2246641C199991
:1074E000885408A9887A2246641C1999885408A8E7
:1074F000C17A2046641C199A115412E3B949C8682C
:10750000FEF75EF901230822059104900AA906A856
:1075100006F0FEFC0020029005990498019100906D
:1075200006A80FC801F0ACFB08A8007A2246641C2C
:107530001999885408A9487A2246641C19998854D4
:1075400008A9887A2246641C1999885408A8C17A27
:107550002246641C19988154E3E2E2E2E1E2E0E2AF
:10756000DFE2DEE2DDE29F4880880004000E224672
:10757000641C199988549B4801792246641C199807
:107580008154CEE2CDE2CCE220202246641C19993F
:1075900088549548006800782246641C19998854DC
:1075A0009148006800792246641C199988548E48D5
:1075B0000068007A2246641C199988548A48006839
:1075C000007C2246641C1999885487480068007D15
:1075D0002246641C1999885483480068017E22461B
:1075E000641C199881549CE2002506E011A94A5DAB
:1075F0002046641C199B1A546D1C0A2DF6DB90E280
:1076000010A9087C0007000F2246641C19998854B1
:1076100010A9487C0001897C0907090F40181CE06B
:1076200060E15EE15CE15AE153E151E148E146E1AC
:1076300044E142E112E110E10EE1FAE0E9E0E7E0C5
:10764000E5E0DEE0DCE0D5E0D3E0D1E0CFE0CDE086
:107650006EE06CE05FE052E048E02246641C19995D
:10766000885410A9C87C0001097D0907090F40183A
:107670002246641C1999885410A9487D0001897D0F
:107680000907090F40182246641C1999885410A94B
:10769000C87D0001097E0907090F40182246641CB5
:1076A0001999885410A9487E0001897E0907090F9D
:1076B00040182246641C1999885410A9C87E0001FC
:1076C000097F0907090F40182246641C199988543C
:1076D00010A8407F010110A8807F0007000F081844
:1076E000C1B22246641C199881541AE23B480068D2
:1076F000B83000782246641C1999885411E2374941
:107700000968B8314878FF21FDF7FCF92246641C6E
:107710001998815405E231490968B8318878FF2108
:10772000FDF7F0F92346641C199AD154F9E1F8E108
:107730002A480068006E000E2246641C199988547D
:1077400026480068006E0002000E2246641C19994B
:10775000885422480068006E0004000E2246641C13
:10776000199988541D480068006E2246641C1999B6
:1077700088541A480068603000792246641C1999C0
:107780008854002027E08200144909686631895A2C
:107790000B122146641C199D6B5482000F49096825
:1077A00066318B5C2146641C199D6B5482000B4929
:1077B0000968663151188B782146641C199D6B54F9
:1077C00082000649096866315118CB782146641C4D
:1077D000199D6B54401C0428D5DBA2E178000020E1
:1077E000050600207C060020D806002099E198E1DB
:1077F00097E196E10B202246641C1999885490E188
:107800008FE101202246641C1999885489E188E19E
:1078100087E1CB480068C08800122246641C199991
:107820008854C748006881792246641C199881549D
:1078300077E1C34800684030838B19990D19C0481F
:1078400002683232BFA12846FCF7CCFD199A101904
:10785000FDF77EF8041964E163E162E1B84800686D
:1078600040782246641C19998854B548006880788D
:107870002246641C19998854B1480068C078224691
:10788000641C19998854AE48006800792246641C2B
:1078900019998854FF202246641C1999885422465D
:1078A000641C199988542246641C19998854FF2134
:1078B0002246641C1998815433E132E131E130E110
:1078C0009F48006800792246641C1999885428E171
:1078D00027E100202246641C1999885421E120E107
:1078E0001FE11EE1002009909848008A98498842CB
:1078F00003DD7D20C000099009E09448008A282813
:1079000002DA0020099002E09048008A09900022E3
:107910002046641C199B1A542046641C199B1A5457
:107920002046641C199B1A542046641C199B1A5447
:107930002046641C199B1A542146641C199B5A54F6
:107940002046641C199B1A5409980004020E204614
:10795000641C199B1A540998C2B22046641C199BD6
:107960001A54774800680830FCF7F2FF0790199A1C
:1079700010197349079A09680831FDF70BF8704828
:1079800000680830FCF7E4FF0419704988680BF0C0
:10799000EDFE0546E817010E481900120102681AAB
:1079A000C2B207952046641C199B1A54E817010EB1
:1079B00048190004020E07952046641C199B1A54AE
:1079C0006249C8680BF0D2FE0546E817010E481957
:1079D00000120102681AC2B207952046641C199B66
:1079E0001A54E817010E48190004020E07952046A4
:1079F000641C199B1A540021089151480068C08CDE
:107A00008000B83081B2042208A801F084FA0898F6
:107A1000000E2146641C199B585408980002020E5F
:107A20002046641C199B1A5408980004020E204634
:107A3000641C199B1A542146641C199B08985854BD
:107A40003F480068C08800122146641C199B5854A6
:107A50003B48006882792046641C199B1A543B48B5
:107A6000C27C2046641C199B1A5438488088000444
:107A7000020E2046641C199B1A5434480279204691
:107A8000641C199B1A547D21C9000998884201DAA7
:107A9000992200E055222046641C199B1A540B229F
:107AA0002046641C199B1A5420222046641C199BF2
:107AB0001A542848006802782046641C199B1A54FE
:107AC0002448006802792046641C199B1A542148F6
:107AD0000068027A2046641C199B1A541D480068ED
:107AE000027C2046641C199B1A541A480068027DC7
:107AF0002046641C199B1A5416480068027E2046D2
:107B0000641C199B1A541148C08A00122146641C37
:107B1000199B58540D48827D2046641C199B1A54A9
:107B200000BF00BFA01B0004010E199A9155A01BB5
:107B3000C1B2701C199A115420461DB0F0BD00004E
:107B40007800002025733A25640000007C060020A0
:107B5000B6030000D8060020F0B587B0032200214C
:107B600001200EF021FD8D4908600EF0D0FB8C49FC
:107B70000860FF240025002703E1002188480068F1
:107B80000EF0A0FB08210840002816D084480068A9
:107B90000EF098FB01239A02824903A806F0B8F977
:107BA00081488088009003A80FC80BF0E6FE0221F0
:107BB0007B4800680EF0C5FBF2240021784800687D
:107BC0000EF080FBC007C00F00280CD001217448C4
:107BD00000680EF077FBF124744F754D0121890286
:107BE0007448FCF73DFF00216D4800680EF06AFB09
:107BF0000221084000280BD0694800680EF062FBA3
:107C0000F2246A4F6A4D012189026A48FCF728FF75
:107C1000F12C01D0F22C7DD10020C04366490880B0
:107C200029882246384603F0FDFF0646002E12D171
:107C30001F2005F0A1FF0B2005F09EFF00F0C6FD00
:107C400000F0D2FD5D48416E00208847002006F01C
:107C5000F3FBFF2495E01F2005F08EFF0B2005F0BD
:107C60008BFF2888002825D0F12C06D14F48C01E54
:107C70000188504805F0F4F81CE001239A025049AD
:107C800003A806F045F90699059801910090474828
:107C9000C01E01884748049B039A06F029FF41490A
:107CA000C91E08800846018845480DF066FC012081
:107CB0004149087600F08AFD00F096FD3F48416E8C
:107CC00000208847002006F0B7FB3E4800780028D7
:107CD00038D1FF2E36D1012001F014F8002004F035
:107CE000A7FE00200DF09EFC374800680690324841
:107CF000008869464883304800883449884205D165
:107D000008F0A2FC0020C0432B4908802A480088C4
:107D10002F4900E018E0884213D0F12C03D108204D
:107D20006946087602E009206946087622480088FC
:107D300069464883069809F087FE0020C0431E4923
:107D4000088000BFFF2400BF0021154800680EF026
:107D5000B9FA04210840002812D0012006F06CFB7B
:107D60001C4806F015FE002802D000201A490870B1
:107D700004210B4800680EF0A5FA002006F05CFB19
:107D800000BF00235A1E1946044800680EF037FC55
:107D9000012800D1F1E607B0F0BD00001407002073
:107DA0000C0700209B4C002098500020934400209A
:107DB00094480020904000207C06002018020020FB
:107DC0009848002004060020047F0100EEEE000029
:107DD000FFFF0000998B0000180700200FB4F0B5DA
:107DE0009FB00746299D05A80CF070F96D1C3868F6
:107DF000461C3446002004907A683868022360A14B
:107E000001900CF0CAFB002801D0012004903AE058
:107E100005A80CF001FA00282AD020787B2802D08F
:107E200020785B2804D1217805A80DF05CF928E0C2
:107E3000049800280BD120782C2802D060780028E4
:107E40001FD16D1E002D1CD0661C34461BE0204641
:107E50002038C07F222802D120782C2802D06078D8
:107E600000280ED16D1E002D0BD0661C34460AE092
:107E700020787D2802D020785D2802D105A80CF05A
:107E800021FC641C00BF002D02DD20780028BFD13A
:107E900020462038C07F0390002120462038C1773B
:107EA00026992598FCF7DCFD3046FCF751FD019042
:107EB000269A259800903146019B0BF00DFB214638
:107EC00020390398C8772598FCF742FD02900020DE
:107ED0001BE02599095C002916D02599095C5B29CE
:107EE00012D02599095C20290ED02599095C0D290D
:107EF0000AD02599095C0A2906D02599095C22290E
:107F000002D025990E1803E0401C02998842E0DB5C
:107F100000BF0299481E1BE02599095C002916D074
:107F20002599095C5D2912D02599095C20290ED07C
:107F30002599095C0D290AD02599095C0A2906D0E2
:107F40002599095C222902D025990C1802E0401ECF
:107F50000028E1DC00BF00206070002503E0705DB8
:107F6000259948556D1C3046FCF7F2FCA842F6D81E
:107F70000020259948551FB0F0BC08BC04B0184734
:107F8000220000000FB47CB504460B9D07982168C1
:107F9000884203D17CBC08BC04B018475B20079919
:107FA00008700798401C07900898401E089001959B
:107FB0000A980090E669204607A90EC9B047012338
:107FC00009A1089A07980BF0ADF80798401E079092
:107FD0000898401C08900798FCF7BAFC0022079903
:107FE0000A5400BFD6E700005D00000010B504464B
:107FF00004A12068FCF738FD002801D1012010BD44
:108000000020FCE75B5D0000F0B59BB005462869E9
:10801000401C002802D028691BB0F0BD01A80CF05C
:1080200055F800272868461C34460020009002239B
:1080300027A16A6828680CF0B0FA002801D0012056
:10804000009036E001A80CF0E7F8002826D0207850
:108050007B2802D020785B2804D1217801A80DF07C
:1080600042F824E00098002809D120782C2802D07A
:10807000607800281BD17F1C661C344619E020461E
:108080002038C07F222802D120782C2802D06078A6
:1080900000280CD17F1C661C34460AE020787D281D
:1080A00002D020785D2802D101A80CF00BFB641CE3
:1080B00000BF20780028C5D12846A9698847002834
:1080C00001D0002000E0384628612869A4E70000BC
:1080D000220000001FB5079840000199884200DB8C
:1080E0001FBD019B009A0799069803F05DFD00BF34
:1080F000F6E7000010B505F0A7F8024801F0E0F936
:1081000010BD000000B4014000BF044800684008F2
:1081100040000249086000BF7047000000B4014001
:1081200010B500BF08480069C007C00F01214840D2
:108130004840002806D000BF01200349086100BF65
:1081400000F06AFB10BD000000B4014000B585B02E
:1081500014216846FCF786FC022000900020019064
:1081600001200290002003906946024801F01EFDA4
:1081700005B000BD400C004000B585B01421684634
:10818000FCF770FC0220009001200190002002907A
:1081900003906946044801F009FD0221024801F0FC
:1081A000EBFD05B000BD0000400C00401FB582B0E3
:1081B000089C0398042805DD002C03D1002001460B
:1081C00006B010BD0398082804DD002C02D0002062
:1081D0000146F5E7039902980DF0CAFD002004E07E
:1081E0000299095C6A461154401C03998142F7DCEC
:1081F000002C02D001990098E2E70098FDF7E0FA20
:10820000DEE770B50446002504F096F9502004F02E
:1082100037F904F0EDF90546204604F031F904F091
:10822000E7F9054604F088F9512004F029F904F033
:10823000DFF90546002004F065F8054604F0BCF9B6
:10824000284670BD70B505460C4604F075F95020FF
:1082500004F016F904F0CCF9284604F011F904F002
:10826000C7F9204604F00CF904F0C2F904F0A4F9AF
:1082700070BD000000B585B014216846FCF7F2FB24
:108280000120009000200190012002900020039026
:108290006946024801F08AFC05B000BDC00C0040F0
:1082A00000B585B014216846FCF7DCFB0120009086
:1082B00001900290002003906946024801F076FC8C
:1082C00005B000BDC00C0040F7B5074615460421B7
:1082D000052004F01FFA0021012004F030FA80216B
:1082E0000A2004F034FA002405E0395D092004F086
:1082F00026FA601CC4B201988442F6DB03210120F7
:1083000004F01DFAFF2400BF052004F012FA06460F
:10831000601EC4B2002C03D0042030400028F3D0EB
:10832000222004F006FA2870212004F002FA687076
:10833000FEBD70B503460C46002100201D462146B7
:1083400003E06E5C3618F0B2491C9142F9D370BD5F
:1083500008B5002000900D480068C08C8000B8303F
:1083600081B20422684600F0D6FD0098401C002827
:108370000AD1009005480068C08C8000B830C1B2B6
:108380000422684600F00CFE08BD000078000020C2
:1083900008B5002000906A460421064800680EF0E7
:1083A0003BF80098002803D00120000702494860EC
:1083B00008BD00006007002000ED00E0F0B589B0C6
:1083C00004460D4616461F463FA207CA0592049171
:1083D0000390E117090F091909117D22D2005143B9
:1083E0000094E217120F121912111201A21A64233B
:1083F0005A438918EA17120F521912110A235A43C5
:1084000089182846EA17120F121812111201AA1A17
:108410008918029501940891F217120F92191211FE
:108420005A433046F3171B0F1B181B111B01F31A7D
:10843000D218D2B20792FA17120FD21912110A23C8
:108440005A433846FB171B0F1B181B111B01FB1A45
:10845000D218D2B206920798022819D1089880073C
:10846000800F002805D164210898FCF741FB002902
:1084700006D1FF2191310898FCF73AFB002906D17B
:108480006846407B401CC1B26846417300E000BFB3
:1084900007980C2802DD002009B0F0BD06981F28BF
:1084A00001DD0020F8E70798012809DB0798401E46
:1084B00003A9095C0698814202DB0698012801DACB
:1084C0000020E9E70120E7E71F1C1F1E1F1E1F1FDA
:1084D0001E1F1E1F10B5002400201A4988700A2094
:1084E00001F08CF800BF1848C06980B21021084024
:1084F000002807D1134880780A214843401C1149BD
:10850000887001241E2001F079F810210E4801F036
:1085100051FC00BF0C48C06980B20121C90208406B
:10852000002807D1074880780A214843801C054964
:10853000887001240121C902034801F03BFC204658
:1085400010BD00004C070020800C004000B585B035
:1085500004F0D0FD10200090012001900020029036
:1085600003906946234801F021FB1021214801F0C6
:1085700009FC21480068C3880022184611460CF007
:108580009DFE002824D01D4800900120019000206D
:108590000290039069461748403801F007FB01211B
:1085A0001448403801F0EEFB02211248403801F037
:1085B000E9FB04210F48403801F0E4FB01214902A6
:1085C0000C48403801F0DEFB012004F09FFD0FE075
:1085D000002004F09BFD40200090002001900290BC
:1085E000039069460348403801F0E0FA02F012FDBA
:1085F00005B000BDC00C004078000020070200005C
:10860000F0B5034618110A2778431F073F0FC0191A
:10861000C4B208110A2778430F073F0FC019C5B22B
:1086200010110A27784317073F0FC019C6B2002C54
:1086300002D011DD182C0FDA002D02D00ADD3C2DFE
:1086400008DA002E02D003DD3C2E01DA0120F0BD55
:108650000020FCE70020FAE70020F8E710B500242E
:1086600000BF05E00020A100044A5050601CC4B2C5
:10867000082CF7DB04F052FC10BD0000A0500020D5
:1086800010B504490448FCF7EBF900200349888041
:1086900010BD000001040000934400209048002019
:1086A00000B585B0012040030090012001900290A8
:1086B0000020039004906946104801F077FA0121E8
:1086C00049030E4801F064FB012080030090012063
:1086D000019002900020039004906946074801F041
:1086E00065FA01218903054801F052FB0121C90304
:1086F000024801F04DFB05B000BD0000000C004039
:1087000008B51648007F002801D0002001E0144879
:108710000078134908701148007F002819D10846D5
:108720000078002815D108460078401C0870002009
:1087300000900C4801220023016C184688470A4823
:108740000078002800D102E007480078401E064962
:10875000087004F00BF807F055FE08BD7C060020F9
:108760006F070020F80000206C07002000B585B0DE
:10877000012040030090012001900290002003900E
:1087800004906946104801F011FA012149030E488E
:1087900001F0FEFA01208003009001200190029078
:1087A0000020039004906946074801F0FFF9012179
:1087B0008903054801F0ECFA20210348403001F01C
:1087C000E7FA05B000BD0000400C004010B50448B9
:1087D00081880448FCF744F900200149888010BDD5
:1087E000904800209344002010B504488188044834
:1087F000FCF736F900200149888010BD9850002010
:108800009B4C0020024610464843400A704710B572
:1088100009F056FE10BD000010B5002446E06001CE
:10882000244940184078002800D13EE060012149E9
:108830004018C368816860011E4A80180269406957
:10884000891A83410CD260011A4940188268C068B5
:108850000021521C48416101164BC9188A60C8604A
:10886000600114494018C3688268600141180869B2
:108870004969101A8B4104D3012061010D4A5054FB
:1088800003E0002061010B4A505460010949085C73
:10889000012809D1600140188069002804D06101D5
:1088A000044A89188869804700BF641C032CB6DB22
:1088B00010BD000018020020F3B587B00C46002C54
:1088C00002D1002009B0F0BD2046FCF752FE05465B
:1088D00000220F4BFCF750FE039102900798FCF723
:1088E00048FE054600220B4BFCF746FE0191009026
:1088F000039B029AFCF796FB05910490FCF7A8F9FC
:1089000007460AF033FF0A21484380B2DAE7000045
:108910000000F03F00002440002070471FB588B0E1
:108920000E9CE07C002806D001280ED0022816D02C
:10893000032828D11DE0202221466846FBF760FC71
:1089400008A80FC80AF0A8FE1DE0202221466846AC
:10895000FBF756FC08A80FC80CF050FE13E02022CD
:1089600021466846FBF74CFC08A80FC80CF0FAFF3C
:1089700009E0202221466846FBF742FC08A80FC800
:108980000CF060FF00BF00BF0CB010BD10B504F0CC
:108990001FFDFFF73CFF04F07FFCFFF7D7FD04F05D
:1089A00079FE05F0C1F804F0F7F904F061FEFFF775
:1089B00077FE10BD70B504460D46FFF74FFE082147
:1089C000072004F07DF80721182004F079F806212B
:1089D0001B2004F075F8FF2C12D00A212046FCF76A
:1089E00091F8C6B20521304604F06AF80A21204603
:1089F000FCF788F8CEB20421304604F061F807E0B5
:108A00000521132004F05CF804210E2004F058F82E
:108A100003211B2004F054F8002D08D1022113205B
:108A200004F04EF80121182004F04AF807E0022172
:108A3000182004F045F80121232004F041F807F044
:108A4000C7FA04F06BFA70BD7FB504460025207D9F
:108A500003000AF037F80A0608132B1E4E59433854
:108A6000646F012566E0204610300FC86E460FC6C1
:108A700020460FC80AF0FAFD05465BE0204610309C
:108A80000FC86E460FC620460FC806F005FA054609
:108A900050E0E3692269A169606901AE0BC60092EA
:108AA00020460FC80BF040FA054643E0E36922690F
:108AB000A169606901AE0BC6009220460FC80BF099
:108AC000FBF9054636E0204610300FC86E460FC64B
:108AD00020460FC80BF0ACF905462BE020461030BD
:108AE0000FC86E460FC620460FC80BF09FFA05460A
:108AF00020E0204610300FC86E460FC620460FC833
:108B00000AF0F6FF054615E0204610300FC86E4605
:108B10000FC620460FC80BF031F805460AE0204684
:108B200010300FC86E460FC620460FC80BF0B6FABD
:108B3000054600BF00BF284604B070BD7FB5089D44
:108B40001348281800280BD01249401800280DD0CF
:108B5000FF38113800280AD04018002813D10CE043
:108B600068460FC809F0D8F804460CE00BE06846E8
:108B70000FC8FFF7D1FE044605E068460FC806F0AF
:108B800057FA044600BF00BF204604B070BD000085
:108B9000E16F7FFFF0FEFEFF10B58CB004461C2194
:108BA00005A8FBF75FFF1C22214605A8FBF728FB61
:108BB0006846407EFF282DD005A88079FF2829D15E
:108BC00005A8C079FF2825D105A8007AFF2821D162
:108BD0002A48006840786946497E88421AD027486A
:108BE0000068817805A88079814213D12348006804
:108BF000C17805A8C07981420CD12048006801796C
:108C000005A8007A814205D1022007F03FFB002031
:108C10000CB010BD6846007E030009F053FF050448
:108C2000071322252A0005F01BFC24E0012306225D
:108C300007A9013101A805F06BF901A80FC806F0DA
:108C40001FFB18E00123032208A9033101A805F046
:108C50005FF90A9880B2009001A80FC804F094F957
:108C600009E007F0F1FC06E004490B980968C880A8
:108C700001E00020CCE700BF0120C9E77800002018
:108C8000FFB585B00F9E0E9D002002901098002821
:108C900009D00698082801DA09B0F0BD01960095C0
:108CA000082002900AE00698042800DAF4E7284633
:108CB0003146FBF7CDFF00900420029000240AE02B
:108CC000E200009F0198039038460399FBF7E0FA11
:108CD00005990855641C02988442F1DB02990598B5
:108CE0000DF046F800BFD7E770B505460E460448BC
:108CF000281AC4B221463246284600F051F970BD08
:108D000028050020F8B50746D8200090164E002010
:108D100000F02CF831460978884201D1002F17D095
:108D2000012409E0315DE0B200F09EF80546002D17
:108D300001D02846F8BD641C00988442F2DB3178EB
:108D4000002000F091F80546002D0BD02846F1E7F1
:108D5000012404E0E0B200F009F83055641C0098EA
:108D60008442F7DB0020E5E72805002038B50546FA
:108D70000020009017490870002406E0284600F003
:108D80002BF869460855601CC4B2022CF6DB684615
:108D900001784078814202D16846007838BD284683
:108DA00000F01AF869468870684601788078814238
:108DB00002D168460078F1E76846417880788142C0
:108DC00002D168464078E9E7012002490870552041
:108DD000E4E700000006002070B50446A02503F07B
:108DE00081FB284603F0F4FA03F04AFA002806D182
:108DF00003F0BEFB012000F001FC552070BD0120F6
:108E000000F008FC204603F0E3FA03F039FA0028EA
:108E100006D103F0ADFB012000F0F0FB5520EDE79B
:108E2000012000F0F7FB03F05DFBA125284603F0CD
:108E3000CFFA03F025FA002806D103F099FB0120B0
:108E400000F0DCFB5520D9E7012000F0E3FB03F044
:108E500089FA064603F0F0FA03F08AFB012000F0DD
:108E6000CDFB3046CAE7000070B506460C46002030
:108E70000C49087000250DE02146304600F014F83A
:108E80003046FFF773FFA04202D10648007870BD5C
:108E9000681CC5B2032DEFDB0120024908700846AB
:108EA0000078F4E70006002070B505460C46A026C1
:108EB00003F018FB304603F08BFA03F0E1F90028C9
:108EC00006D103F055FB012000F098FB552070BD42
:108ED000284603F07DFA03F0D3F9002806D103F009
:108EE00047FB012000F08AFB5520F0E7204603F005
:108EF0006FFA03F0C5F9002806D103F039FB012011
:108F000000F07CFB5520E2E703F032FB012000F08B
:108F100075FB0020DBE7F8B505460E461746002432
:108F200005E03119C8B2FFF721FF2855641CBC4287
:108F3000F7DB0020F8BD000000B585B014216846BD
:108F4000FBF790FD0120000300900020019001201C
:108F50000290002003906946024800F027FE05B009
:108F600000BD0000000C004000B585B0142168462B
:108F7000FBF778FD01200003009001200190029092
:108F8000002003906946054800F010FE0121090306
:108F9000024800F07DFF05B000BD0000000C00405D
:108FA000F7B506460F4600240AE0315D3A19D0B203
:108FB000FFF75AFF0546002D01D02846FEBD641C70
:108FC00002988442F1DB0020F8E710B580210C20E4
:108FD00003F0BDFB0021012003F0B1FB10BD000038
:108FE00010B50446002C01D1012010BD20210A48F3
:108FF00000F0BFFE642000F001FB04F0BFFB04F0B2
:1090000001FC20200449486100BF7D20C00000F021
:10901000F5FA0120E9E70000800C00400121016021
:109020007047000010B50146012200BF48680028C3
:1090300015D013064868984211D0530648689842E4
:109040000DD003231B064868984208D09306486851
:10905000984204D005231B064868984201D101209C
:1090600000E00020002801D100BFFEE700BF00BFE4
:10907000086800280DD001231B040868984208D016
:109080005B000868984204D003231B0408689842D8
:1090900001D1012000E00020002801D100BFFEE73F
:1090A00000BFFF200130134BDB6A0343114CE36226
:1090B00000BF00030F4B40331B6B03430D4C403488
:1090C000236300BF486823461B6B07242406A34381
:1090D0000343084C4034236300BF086823461B6BDE
:1090E00003242404A3430343024C4034236300BFFE
:1090F000104610BD000200408168490849008160A7
:10910000704742690B031B0B9A43426170478168A9
:1091100001221143816070478168022211438160FE
:10912000704742690B031B0B1A43426170470000F2
:1091300070B502460124002300BFDA48824201D103
:10914000012000E00020002801D100BFFEE700BFA1
:1091500000BF0868002804D001256D020868A842F5
:1091600001D1012000E00020002801D100BFFEE76E
:1091700000BF00BF4868002804D00125ED02486800
:10918000A84201D1012000E00020002801D100BF49
:10919000FEE700BF00BFC868002802D0C8680428E6
:1091A00001D1012000E00020002801D100BFFEE72E
:1091B00000BF00BF086900280DD001252D030869F4
:1091C000A84208D06D000869A84204D003252D03E9
:1091D0000869A84201D1012000E00020002801D147
:1091E00000BFFEE700BF00BF2020405C002803D086
:1091F0002020405C012801D1012000E0002000284F
:1092000001D100BFFEE700BF00BF486A002821D09F
:1092100001256D04486AA8421CD06D00486AA84226
:1092200018D003256D04486AA84213D00125ED0427
:10923000486AA8420ED005256D04486AA84209D0A4
:109240000325AD04486AA84204D007256D04486A86
:10925000A84201D1012000E00020002801D100BF78
:10926000FEE700BF00BF886A002826D001252D0533
:10927000886AA84221D06D00886AA8421DD00325C3
:109280002D05886AA84218D00125AD05886AA84234
:1092900013D005252D05886AA8420ED003256D053B
:1092A000886AA84209D007252D05886AA84204D0FB
:1092B0000125ED05886AA84201D1012000E00020C7
:1092C000002801D100BFFEE700BF4020764DAD6A07
:1092D0000543754EB56200BF00BF74480068B51500
:1092E0002843724D286000BF00BF704818380068DE
:1092F000C007C00F01256840684000280FD100BF9B
:1093000001206A4D183D686000BF00BF2846006814
:1093100001252843654D183D286000BF00BF00BFF0
:1093200062481838006802252843604D183D2860BF
:1093300000BF05E07D208002834200D30BE05B1C70
:1093400000BF5A4818384068C007C00F0125684060
:1093500068400028EED000BF00BF90684008400081
:10936000906000BF00BF9068C007C00F0125684033
:10937000684000287ED10868D56801267602B5438A
:109380000543D56000BF4868D568B600B5430543BE
:10939000D56000BF087A002806D000BFD0687510DD
:1093A0002843D06000BF07E000BFD0680125AD02B0
:1093B000A843D06000BF00BF487A002807D000BF94
:1093C000D068FF2501352843D06000BF07E000BF0B
:1093D000D068FF250135A843D06000BF00BFC86832
:1093E000D5680426B5430543D56000BF00209568C5
:1093F000F601B5430543956000BF00BF9568761040
:10940000B5430543956000BF0869D5680326360358
:10941000B5430543D56000BF4869D568F026B5431C
:109420000543D56000BF0B20000215693601B54326
:109430000543156100BF886915692D092D01054394
:10944000156100BFC8691569F026B543054315616C
:1094500000BF2020405C002819D0486AD568072644
:109460007604B5430543D56000BF886AD5680F26EA
:10947000360500E013E0B5430543D56000BF00BFEB
:10948000D06801252D042843D06000BF08E000BF4C
:10949000D06801252D04A843D06000BF00E000245F
:1094A000204670BD00AC01400002004024A80140ED
:1094B00001460868C007C00F012250405040704765
:1094C00001680122114301607047000030B5024677
:1094D0007D235B0100BF3F48824201D1012000E0B3
:1094E0000020002801D100BFFEE700BF00BFC86810
:1094F000002808D0C868012805D0C868022802D012
:10950000C868032801D1012000E00020002801D113
:1095100000BFFEE700BF00BF8868012802D088684E
:10952000002801D1012000E00020002801D100BF67
:10953000FEE700BF0120284C646B0443264D6C639A
:1095400000BFC868244C4034246BA408A400044322
:10955000214D40352C6300BF10202C46246B044362
:109560002C6300BF0868946A906200BF00BF106857
:109570000224A043106000BF4868D46AD06200BFD4
:109580008868012806D100BF10688024204310603D
:1095900000BF06E000BF10688024A043106000BF39
:1095A00000BF00BF506901242043506100BF00E0AC
:1095B0005B1E00BF1069C007C00F012460406040FF
:1095C000002801D1002BF3D100BF0120106100BFA2
:1095D00030BD000000B401400002004006480069B0
:1095E0000421084304490861084600690121084331
:1095F000014908617047000000E000E010B5044632
:1096000003E07D20C00000F005F82046641E00281D
:10961000F7D110BDFEB507460026134840690090FB
:10962000124913480068FBF763FA784301900CF085
:10963000D7FD0D48856911E00B488469AC420DD017
:10964000AC4202D2281B861903E00098001B401987
:10965000861925460198864200D300E0ECE700BF5A
:109660000DF00CFCFEBD000000E000E040420F00E9
:1096700074000020014600BF0868002804D00122C1
:1096800092070868904201D1012000E000200028E4
:1096900001D100BFFEE700BF80200D4A926A02435D
:1096A0000B4B9A6200BF0006094A4032D26A02435D
:1096B000074B4033DA6200BF08681A46D26A1B06BD
:1096C0009A430243024B4033DA6200BF01207047E5
:1096D00000020040FEB504460D46002002905C49A1
:1096E0005C480068FBF704FAC8214843019000BFBA
:1096F000012C23D0022C21D0042C1FD0082C1DD0EB
:10970000102C1BD0202C19D0402C17D0802C15D019
:10971000FF200130844211D0400084420ED040002E
:1097200084420BD04000844208D04000844205D0DF
:109730004000844202D04000844201D1012000E078
:109740000020002801D100BFFEE700BF00BF28684D
:10975000002808D02868012805D02868022802D0EF
:109760002868032801D1012000E00020002801D151
:1097700000BFFEE700BF00BF6868002808D0686827
:10978000012805D06868022802D06868032801D142
:10979000012000E00020002801D100BFFEE700BF4B
:1097A00000BFA868012802D0A868002801D10120C4
:1097B00000E00020002801D100BFFEE700BF2746DF
:1097C000002602E07F08701CC6B2012FFAD1730098
:1097D000286898400146B0001F4B1A581F48904710
:1097E000A868012808D100BF1C488068A1B20843BE
:1097F0001A49886000BF03E02146184800F0B7F915
:10980000F017000F801900118000154900960B58C1
:10981000214612486A6898470020029003E000BF82
:109820000298401C0290019902988842F7D3214681
:109830000A4800F096F91E20002805DBC206D20E69
:1098400001219140074A116000BF0120FEBD0000C8
:1098500040420F007400002024750100000D0040FC
:109860006075010080E200E00348806B4008400022
:10987000014988637047000000A801400348C06B9D
:10988000C007C00F012148404840704700A8014070
:10989000012101627047416902229143416141699E
:1098A0000122114341617047416949084900416102
:1098B000416902221143416170470146086A07224B
:1098C0005204104070470146086A0122920210407B
:1098D000800A70470146086AFF2201321040000AE0
:1098E00070470146086AC007C00F0122504050402F
:1098F00070470146086A012252021040400A704730
:109900000146086A02221040400870470021C943FE
:1099100081617047F8B505460C460026012700BF57
:109920003B48854201D1012000E00020002801D100
:1099300000BFFEE700BF00BF002C04D935488442B9
:1099400001D8012000E00020002801D100BFFEE77F
:1099500000BF202000F0A8FFA007800F002801D042
:109960000020F8BD2846FFF7A8FF0121C90488425E
:1099700001D10020F5E70120800500F09DFF0021C6
:10998000284600F0E5F82846FFF785FF09F0A8F81B
:10999000009072B62049284600F0E1F81F49284699
:1099A00000F0DDF8009809F01FF92846FFF770FF76
:1099B0001B4820601EE0761C1A4886420ED82846B6
:1099C000FFF788FF002809D12846FFF792FF0028FB
:1099D00004D12846FFF777FF002801D000270AE0CE
:1099E0002846FFF77EFF002804D02846FFF750FFE7
:1099F000012700E0DFE700BF2846FFF787FF0120CF
:109A0000800500F039FF202000F02EFF3846A8E73F
:109A100000100040FFFF030096969696EAEAEAEAF5
:109A2000CDAB3412FFFF0000F7B584B006460C46FC
:109A300000BF4348864201D1012000E000200028F9
:109A400001D100BFFEE700BF00BF002C05D90120F7
:109A50004002844201D8012000E00020002801D10A
:109A600000BFFEE700BF6502E805C00D002802D078
:109A7000002007B0F0BD202000F016FF0120800577
:109A800000F01AFF3046FFF70FFF09F029F80390A6
:109A900072B62C49304600F062F82B49304600F08F
:109AA0005EF8039809F0A0F8002738E00020029043
:109AB0003046FFF7F9FE0698006828602D1D0698CD
:109AC000001D069024E00298401C02901F49029855
:109AD00088420ED83046FFF7FDFE002809D13046F7
