:020000040000FA
:1040000068470020354200003D4200003F4200006A
:1040100000000000000000000000000000000000A0
:10402000000000000000000000000000D3E40000D9
:104030000000000000000000BB41000071F1000022
:10404000474200004742000061E100004742000093
:104050009DC8000047420000474200004742000060
:10406000474200004742000047420000474200002C
:10407000474200004742000047420000474200001C
:10408000474200004742000047420000474200000C
:10409000E5C80000474200004742000047420000D8
:1040A00055800000474200004742000047420000A0
:1040B000474200004742000089B4000009C90000DF
:1040C00000F002F800F04FF80CA030C808382418AF
:1040D0002D18A246671EAB4654465D46AC4201D140
:1040E00000F041F87E460F3E0FCCB6460126334223
:1040F00000D0FB1AA246AB46334318471C1A0100F6
:104100003C1A01000023002400250026103A01D3A8
:1041100078C1FBD8520700D330C100D50B6070477F
:1041200010B5642902D100F0F1F910BD782902D14F
:1041300000F04EFA10BD002010BD1FB50098019987
:1041400001F07BFC01F016FE0400002000210FF0BE
:1041500033FD401C6060002000210FF017FDE0607F
:104160001FBD10B510BD02F04EFB1146FFF7E5FF75
:104170000DF086FD02F0FEFD03B4FFF7F2FF03BC75
:1041800002F05EFE084B19680868203080F3098849
:10419000022080F31488BFF36F8F3FBCAE4608BC8B
:1041A00004BC62B6184700001C000020EFF310802A
:1041B00072B6704780F310887047EFF309800E4B9A
:1041C0001A6820381060F0C044464D4656465F4697
:1041D000F0C008B572B60EF079FF62B60CBC11687B
:1041E00008681030F0C8A046A946B246BB4680F326
:1041F00009882038F0C818471C00002070B5054613
:104200000C46164602E00FCC0FC5103E102EFAD217
:10421000082E02D303CC03C5083E042E07D301CCDD
:1042200001C5361F03E021782970641C6D1C761EC1
:10423000F9D270BD0748804707480047FEE7FEE710
:10424000FEE7FEE7FEE7FEE704480549054A064BA0
:104250007047000025F30000C140000068330020D3
:1042600068470020683700206837002070B5064690
:1042700001F0C6FB056830460B30C408E400B442C8
:1042800001D8002070BD68682A46002818D001684F
:10429000A14211D30B46214608318B4208D3436813
:1042A00001194B6003681B1B0B605160046001E047
:1042B00041685160001D70BD024640680028E6D18B
:1042C0002146284601F0A4FB0028DCD170BD70B562
:1042D0000446051F01F094FB0068002C1AD04468C6
:1042E00001E020466468002C01D0AC42F9D301689B
:1042F0000A18AA4204D12A6805468918016000E01C
:10430000456028684119A14205D16168696021684A
:104310004018286070BD6C6070BD10B5202A04DBA9
:104320000146203A9140002010BD914020239C1A64
:104330000346E3401943904010BD10B5202A04DB2A
:104340000846203AD040002110BD0B462024D3401F
:10435000D040A21A91400843194610BD434351432F
:1043600030B55C18010C130C0D4692B25D4380B25F
:1043700051432C19054655430A0C09044D19624155
:104380005843010C00044019514130BDFEB50546AB
:1043900010460C46184373D0AE468C460020AD1A2A
:1043A00001469C4167D36646002701243D46B61A64
:1043B0009D4102D313463A462124654676462F0492
:1043C000360C3E432D0CB61A9D4104D3150C1B042C
:1043D0002B4312041034654676462F06360A3E43B8
:1043E0002D0AB61A9D4104D3150E1B022B4312024F
:1043F0000834654676462F0736093E432D09B61A1E
:104400009D4104D3150F1B012B431201241D65464A
:104410007646AF07B6083E43AD08B61A9D4104D3B1
:10442000950F9B002B439200A41C65467646EF0730
:1044300076083E436D08B61A9D411AD392185B4127
:10444000641C16E00018764665464941B71A9D413E
:104450000191009009D36046B11A98418E46844676
:10446000009801990025401C6941DD0752082A4344
:104470005B08641EE6D57246634603B0F0BDFFE7F5
:1044800000200146C046C0462A462346F5E7000004
:104490000FB41CB5084B06AA7B44694600900598EA
:1044A00001F067FB04460020694601F075FB2046D9
:1044B0001CBC08BC04B01847FD16000070B50446CB
:1044C00085690068C10601D5302600E02026C007B6
:1044D00007D070BD62683046A1689047206A401CD2
:1044E00020626D1EF6D570BD70B5044685690078F2
:1044F000C00707D170BD6268A16820209047206A7C
:10450000401C20626D1EF6D570BD0000F7B5002579
:1045100075291068009914A611D0C046C04600281D
:1045200002DA404211A608E0009909688A0701D51D
:104530000FA602E0490704D50EA6012501E0C046FA
:10454000C046009F0024243704E001F0C9FB30314D
:104550003955641C0028F8D12B4632462146009874
:1045600001F0AAFAFEBD0000000000002D000000CE
:104570002B00000020000000F8B50F460188090557
:1045800002D5224C7C4402E0204C7C440E3405468B
:104590000021243508E016071209360FA65D6E5477
:1045A0001E0732431B09491C16461E43F3D12246FF
:1045B00004780023240705D5702F06D0002901D0E8
:1045C0000223113201F078FAF8BD01231032F9E725
:1045D00070B504460D4621461068C046C04600230B
:1045E000024629462046FFF7C7FF70BDD21DD308FB
:1045F000DB000CCBC0E730B40368202412682343EF
:1046000003600823C36130BC0023B5E70014010038
:10461000F3B50446002081B020622046E168884757
:10462000002872D0252802D06268A168ABE0594FFB
:1046300000267F442046E16888472028054608DB9D
:10464000312D06D2781920380078002801D0064391
:10465000F0E7B00701D5042086430020E06107465B
:10466000A0612A2D0AD028460CF046FC002827D04D
:10467000B8000019303D0090856119E00298BA0039
:10468000121902C8916102902046E1688847012F03
:10469000054617D1E06900281FDA202086431CE078
:1046A00000980A2180694843009940193038886190
:1046B0002046E168884705460CF01EFC0028EFD133
:1046C000012F0AD02E2D08D12046E16888470546E3
:1046D000202006437F1C022FC3DBA069002803DAD9
:1046E0004042A06101200643F00701D0102086431C
:1046F0006C2D0BD0682D09D04C2D3CD06A2D38D0B4
:10470000742D38D07A2D36D016E040E0E1682F467F
:1047100020468847B842054609D16C2F29D0012090
:104720008002E168064320468847054604E06C2F76
:104730001DD0FF2001300643002D28D028464138E7
:10474000192803D80120C0020643203520462660E0
:104750002946029A1646FFF7E3FC002810D00128EC
:104760000BD0F61DF008C0000830029055E740203D
:10477000E1E78020D5E70020D3E7361D02964CE71D
:1047800062682846A1689047206A401C44E7206A76
:10479000FEBD00007A1301000FB400B58DB010A962
:1047A00009900B900020C04300910A9000200C90CB
:1047B000074878440690074878446A4607900F995E
:1047C00009A801F003FA0DB008BC04B018470000B6
:1047D0003B14000055140000FFB51D460027FF43A1
:1047E00083B05C68002001909E68A96904987F1CD2
:1047F00088470090296A88470028F6D10098401C15
:104800000CD0032040028443002E19DD600614D52D
:1048100000982B2809D02D280FD103E00020C04399
:1048200007B0F0BD012080020443A96904987F1CF1
:104830008847761E002E009002DD0098302803D0B5
:104840000598002825D035E00120A96940020443DD
:10485000761E04987F1C8847002E009003DD782880
:1048600005D0582803D00598002810D022E00598DC
:10487000002801D010281DD10120A96940028443DD
:10488000761E04987F1C88470090102002E00820C4
:1048900000E00A2005900DE00121059A49020C4331
:1048A0000199761E514308180190A96904987F1C4C
:1048B00088470090002E05DD0599009801F071F9F8
:1048C0000028E9DAE96904988847A00502D40120A4
:1048D000C043A5E7E00722D1600611D56005019825
:1048E00000D5404229680A1D2A600968220501D5C1
:1048F000087014E0220701D5088010E008600EE07F
:104900002868011D29600068210502D50199017000
:1049100005E02107019901D5018000E001603846DA
:104920007EE730B505460B462A461C781078521CA7
:104930005B1C002801D0A042F7D0002C03D0002837
:1049400002D06D1CEFE7284630BD000030B5441C96
:1049500003E00178401C00290DD08107F9D10B4BF1
:10496000DD0104C8D11A91432940FAD0001B0A0680
:1049700003D0C01E30BD001B30BD0A0401D0801E14
:1049800030BD0902FCD0401E30BD00000101010114
:10499000F8B5042A2CD3830712D00B78491C037076
:1049A000401C521E83070BD00B78491C0370401C1F
:1049B000521E830704D00B78491C0370401C521E02
:1049C0008B079B0F05D0C91ADF002023DE1B08C907
:1049D0000AE0FFF713FCF8BD1D4608C9FD401C4660
:1049E000B4402C4310C0121F042AF5D2F308C91A90
:1049F000521EF0D40B78491C0370401C521EEAD49E
:104A00000B78491C0370401C012AE4D4097801701A
:104A1000F8BDD2B210B513029A1813049A1800F018
:104A20000EF810BD01E004C0091F0429FBD28B075A
:104A300001D50280801CC90700D002707047002990
:104A40000BD0C30702D00270401C491E022904D3B8
:104A5000830702D50280801C891EE3E70022EEE76F
:104A60000022DFE7024670B50A4392072AD11E4DA5
:104A7000EE0104C808C9541B9443344017D0D0B287
:104A8000D9B2401A2106014310D190B299B2401A0E
:104A9000210401430AD110021902000A090A401A2E
:104AA0002102014302D1100E190E401A70BD9A4224
:104AB000DFD010BA19BA884201D9012070BD002098
:104AC000C04370BD02780B78401C491C002A09D0F5
:104AD0009A4207D102780B78401C491C002A01D069
:104AE0009A42EFD0D01A70BD0101010100220309E2
:104AF0008B422CD3030A8B4211D300239C464EE0F9
:104B000003460B433CD4002243088B4231D30309B4
:104B10008B421CD3030A8B4201D394463FE0C30966
:104B20008B4201D3CB01C01A524183098B4201D37E
:104B30008B01C01A524143098B4201D34B01C01A69
:104B4000524103098B4201D30B01C01A5241C308E1
:104B50008B4201D3CB00C01A524183088B4201D350
:104B60008B00C01A524143088B4201D34B00C01A3C
:104B70005241411A00D201465241104670475DE051
:104B8000CA0F00D04942031000D3404253400022D4
:104B90009C4603098B422DD3030A8B4212D3FC227D
:104BA000890112BA030A8B420CD3890192118B42FC
:104BB00008D3890192118B4204D389013AD0921112
:104BC00000E08909C3098B4201D3CB01C01A5241CD
:104BD00083098B4201D38B01C01A524143098B4296
:104BE00001D34B01C01A524103098B4201D30B017F
:104BF000C01A5241C3088B4201D3CB00C01A5241A4
:104C000083088B4201D38B00C01A5241D9D243088A
:104C10008B4201D34B00C01A5241411A00D20146C7
:104C2000634652415B10104601D34042002B00D531
:104C30004942704763465B1000D3404201B50020F3
:104C4000C046C04602BD7047704770470246C80F55
:104C5000C00781434B0030B54B405B009B0D20D01B
:104C60001923DB06C91801231B05994220DB032405
:104C7000A40704251346AB400BD3002B04D1EB064D
:104C800013409B00E34204D401246407002312195B
:104C90005941FF231B0599420BD2C9000143500F14
:104CA00009E0CB0204D501430803024305D00548BF
:104CB00030BDFF21C905084330BD0846072109055D
:104CC000884330BD0000C07FF0B50C46871A9C4178
:104CD0000D46861A9D4103D2C01BA141D2196341E2
:104CE0000D0D1F0DC94EEC1BAE435CD07F057F0D33
:104CF0000026002F51D02D05AC46A943DD0201232B
:104D0000ED0A1B051D4320231B1B24D41746E74037
:104D1000381871412F46E740CC199D40281831467C
:104D200061410C0D27D161449A4013D50023401CEA
:104D3000594152000ED14008400001224B0052055B
:104D4000D34207D305204007C14201D5B04900E056
:104D5000B0493046F0BD6B00002A00D001229A18FD
:104D60001F23203C1B1B01D5002302E0E54028182F
:104D700071410C0DD7D0012424050919C407CD07B2
:104D800040084908E40F28436144002CD5D0002492
:104D9000401C61419A40D0D1CDE76A05520DD9D16E
:104DA000C90FC907D5E79C4D4E00002801D001244A
:104DB00000E0002434195F00002A01D0012600E041
:104DC0000026BE19954FAC420CD8AE420AD8B44268
:104DD00006D001256D05EC42BCD010461946F0BD49
:104DE0009942FCD000203946F0BDF0B51FB40C4606
:104DF0000F46811A9F412546861A9D4106D20125FC
:104E0000ED076F40401ABC4152187B41210D1E0D29
:104E10008D1BAC467D4D8D437ED075056D0D7CD0D0
:104E20000D05AE46AC431B031B0B794D52429D4111
:104E3000202366469B1B14D31746F74038180026DC
:104E40000090744160462F460741E41900989D4048
:104E50002818664116D4714671189A4025D5012349
:104E600020E093182A466A415200002B00D0521CC1
:104E70001E23203E9B1B002B61DD3541EE172818B9
:104E80006641E8D5001876415B1C9A4000D3401C6F
:104E90004B05F3181524E34010D3002B52D0714674
:104EA0007118D30FC01802D3491C05B0F0BD0123FF
:104EB000DB079A42F9D140084000F6E7012252058B
:104EC000B21801D1002853D00123CC0ADB02994348
:104ED000891E002A08D1020C03D0020C00041039EC
:104EE00002E00246002020390023550B05D11202B2
:104EF0000823550B01D152010D23550C01D112018C
:104F00001B1DD50C01D192009B1C150D01D1520027
:104F10005B1C2025EE1A01E02CE022E00546F5405E
:104F200015439840CA1AE10769181305C918002AE1
:104F3000BBDA032040070818C10FC9070FE071460C
:104F40006118B2E7F10740080843711071444A0044
:104F50000CD001235B059A42A7D2C90FC9070020D4
:104F6000A3E74905490D26D1002001E00028F4D12E
:104F700000219AE7284D6600002801D0012100E0B9
:104F8000002171185F00002A01D0012600E00026F0
:104F9000BE19224FA94210D8AE420ED8B14208D055
:104FA00001256D05E94206D01946A8024140104688
:104FB0007BE79C4201D0214677E70020394674E721
:104FC00010B50C465C4005D50124E4076340FFF7AB
:104FD0000CFF10BDFFF778FE10BD30B40C465C40EE
:104FE00004D50124E407634030BC6DE630BCFCE628
:104FF00070B50124E40761400D465D4002D4FFF71F
:1050000063FE70BD6340FFF7F0FE70BDFF07000058
:105010000000F0FF0000F07F0000E0FF0000F87FDC
:10502000F0B5F94D0C091E092C402E402F468BB0CF
:10503000A7437DD0B543FCD0002E7AD0002CFCD005
:105040000D465D40ED0F2543AC1BFF25AD046419F3
:105050000894C502440DC9022143500DDC020443EB
:105060000120C00701430443D2020191200C110C1E
:1050700000958C46010423468B430A91614609043E
:10508000E24D8A430991010A7D4449198039097822
:1050900005464D4301266D18F605751B6943C90C7D
:1050A000640B891C4C436418B5012C1B250C2E0481
:1050B000B4434C434D43210C691889090591009D67
:1050C000E90701D00121C90704912C46019967081D
:1050D000CD072F434C08059DE10B4D432D0C294670
:1050E0006646754302950D4645432E46029D7D1B3F
:1050F000B44100950D465D4301942C0C2F040D46E0
:105100005543AE462D0C3D43029503947546049CD1
:105110002D04641B049406D2029C039D641C00268B
:1051200075410395029401AC70CC009F7D1B01E09A
:105130003EE162E1B44109040095079101940599AB
:10514000A4086143090C0C464443650BE7040C4674
:1051500066467443A646640B3C430395029474462A
:10516000049DE4042C1B049406D2029C039D641C41
:10517000002675410395029401AC70CC009F7D1B05
:10518000B44101940C465C430095650FE7000C4662
:105190005443A646640F3C43039502947446049D11
:1051A000E4002C1B049406D2029C039D641C002680
:1051B00075410395029401AC70CC009F7D1BB441F6
:1051C000AE09AF06049DC900AD092F43049DA40696
:1051D000AD060495079D344369180791059DE10BC1
:1051E0004D432D0C29466646754302950D464543B1
:1051F0002E46029D7D1BB44100950D465D430194F2
:105200002C0C2F040D465543AE462D0C3D43029504
:1052100003947546049C2D04641B049406D2029CDE
:10522000039D641C002675410395029401AC70CC6B
:10523000009F7D1BB44101948C050694079C890A4C
:10524000611800950791019C0599A4086143090C18
:105250000D464543680BEF040D46644665436C0BF1
:105260003C43049FED047D1BAC4602D20025641C28
:105270006841009E019D371B8541084658430195B2
:105280000C46460FC5005443600F28436546E400B2
:105290002C1B02D20025401C6E41019D3F1AB541D6
:1052A0002846BD09800628438446A009BF064E0251
:1052B0000699A40676180743079D002068410A99BD
:1052C000079019430020099B00906046FF19134383
:1052D0004041E20F64003A43A4460446D71A8C4189
:1052E000A04203D90120009020463A46C70F9418E7
:1052F00040416246D20F2243644664000494009CFD
:10530000BE466400D71AA446044602978C417746ED
:10531000002F01D1A04204D96046401C8446029A65
:105320002046C40FA64694184041049A0546D20F61
:10533000224364466400D31A8D417146002901D18D
:10534000A84202D928461A46641C104301220028AC
:1053500000D0164361020020079B891904465C4176
:105360000223002C02DB491813466441089DCE0A33
:105370002D145D194B056705E10A2C050D190899D7
:105380003E43C9076940002B08D0934006D3002252
:10539000761C5141002B01D1760876001C4A002D65
:1053A00043DB154241D0AA433FD030460BB0F0BD9D
:1053B00006180D464D41174C7642AC411AD395184C
:1053C0001C465C41134A6D42A24113D3012252058F
:1053D0004C00D4420AD15C00D4420BD04B4002D5E1
:1053E00092021143E2E749004908DFE75940C90F3B
:1053F000C90718E000200849D8E7054801420DD147
:105400000342F7D0F2E700000000FF073509010072
:105410000000F07F0000E0FF0000F87F11485940D5
:105420000143C01241400020C0E70123089A9B06B7
:105430009A4205DC032252078918C90FC907B5E74C
:10544000052252078918074A1143D2125140ADE78D
:1054500070B515461C4602460B4628462146FFF706
:10546000DFFD70BDFFFFFF7F30B50346CA02400D70
:105470001043164D164C0A1502D02043002A06DBB5
:10548000AA1A002A12DDD040FF2A0BDC30BD5205DB
:10549000520D01D140004008AA1A07D4D040404222
:1054A000FF2A01DD002030BD0028FCDD4A00002B72
:1054B00001D0012000E00020101801225205D04246
:1054C000F0D8C817C043604030BD00001E04000083
:1054D000000000800346CA02400D10B510430A15B3
:1054E00004D00124E4072043002A05DB0A4CA21A59
:1054F00004D4D040FF2A00DD002010BD4A00002B5C
:1055000001D0012000E00020101801225205D042F5
:10551000F2D8C817C04310BD1E0400001F22030CA0
:1055200002D10F22000402D0030E03D004E00020B9
:10553000014670470002083A030F01D10001121F13
:10554000830F01D18000921E002801DB4000521E13
:10555000120551184205C012411810467047C10F7C
:10556000C90700D04042012292071143D6E701212A
:105570008907D3E7F0B58B4C0F09254689B0BD43A9
:105580007BD01D092646AE43FAD00E465E4027402A
:10559000F60F3E43254071D024012142FBD0FF2469
:1055A000AD19A4042D1B039501252D05DB02DB0A93
:1055B000C9022B43C90A29431E010901040F130F15
:1055C000050121431701880B820391432D098C4665
:1055D000A90B1E438A039543B30B9A0396433F09D5
:1055E000BA0B9403A74302962E467E430497B64611
:1055F0004E19D7190C460196544305977E43371B25
:105600007646BF1B3601B646BE0B36190096764667
:10561000BC043719009C01D3641C00946400002F63
:1056200001D001263443029E049F754366467E43A3
:105630000496760034196E0034190094029C019E81
:105640001C196643751BAE46069465464519059CB4
:1056500005956C43594375460891691A0191049E5A
:1056600001465143A41B0491611A009C0791E10675
:1056700005D061090122114302E072E06EE0610988
:10568000089D00272C0A2D066918049D7C412A0AD2
:105690002D066918019D6241AC0DAD026D18544193
:1056A000079A910D920255196141029A6446584336
:1056B0005443069B059A5A43121A131B9A0E9B01D8
:1056C0005B187A41010B0005C3185141220A2006DC
:1056D00044195A419A4200D2491C01204002814299
:1056E00003D315230226F64302E014230326F643D0
:1056F0002020C51AA9401746AF40DA400A43204689
:105700000399D8400914731819055118039A38439E
:10571000D2075140AC4009D00122944006D3002268
:10572000401C5141002C01D1400840001E4A9342C8
:1057300012D3012203989206904207DB052040070E
:1057400009181A480143C012414004E003204007F1
:105750000818C10FC907002009B0F0BD0020F107EB
:10576000FAE705180C464C4111486D42A04115D38B
:1057700094181A465A410E48644290410ED30120B3
:105780004A004005824209D35A00824206D359405A
:10579000C90F084AC90700201143DDE70020064968
:1057A000DAE700000000FF07FE070000FFFFFF7FB1
:1057B0000000E0FF0000F07F0000F87F0121C90534
:1057C0000123411842001B06D3185B0E0AD0C110FA
:1057D0000722D206891840075242D14201D5520011
:1057E00089187047090208D50146002A03D0C10F65
:1057F000C9070020704710467047420202D00020BF
:1058000002497047072109050143F4E70000F87FCA
:10581000F0B5FF252D04C609C209FF2704462E4016
:105820000137CB093E4348402A402B400746002A17
:105830006BD0002B69D0AA4267D0AB4265D000285C
:1058400000DA32460125ED0529432C4309022002E6
:10585000090AD21A4B0C7F24E31A434C000A7C44F9
:10586000E35C7D242404121914145B00A2188842FE
:1058700001D3521C00E0400049420C465C43241115
:105880005C43DB016415E318040A5C43C502200D88
:105890000C4644436419250A5D432303EC0C0D4672
:1058A000654300030019EB184C42A34201D35B1877
:1058B000401CD4052018002B07D05B00C91804D366
:1058C000401C002901D1400840003F2189048A4240
:1058D00009D3002A08DC1106090F04D00321490767
:1058E0004018C00FC007F0BD012241001206891800
:1058F0007F2252069142F6D205214907C84201D5BE
:105900009010F0BDFF20C005F0BD002F00DA324638
:105910001648AA4207D2AB4205D21902090E17D087
:10592000F80FC007F0BDFF2563002D06AB42F9D884
:105930004900A942F6D8AB4201D1A942F2D0A9420E
:1059400001D1002101E061004908D0050843F0BD04
:105950001102090EFBD0FF200243D005F0BD0A461C
:105960000146104654E70000DF0101000000C07F3F
:105970000102C21504D00123DB071943002A0ADB08
:105980009E239A1A02D40846D0407047FF22410055
:105990001206914201D900207047C017C0437047DA
:1059A0001F22030C02D10F2200041CD0030E01D1D0
:1059B0000002083A030F01D10001121F830F01D129
:1059C0008000921E002801DB4000521ED2055118B3
:1059D000021251181922904004D3491C002801D109
:1059E0004908490008467047C10FC90700D0404226
:1059F000012292071143D3E701218907D0E7000074
:105A00000048704710330020704770477047704758
:105A100038B504460A4600206946C046C0460028FC
:105A200005D002462046009900F0ACF9012038BDAF
:105A300010B5012000F0C0FE10BDF8B5C046C0464C
:105A4000054600200C461020C0460646A819A04274
:105A50000DD9324669460020C046C046070001D134
:105A600000F0AAFE0098A04200D00546C419FFF736
:105A7000C7FFF61D07460560F008C0004619284616
:105A800000F008F8B44204D031463868A21B00F098
:105A900079F9F8BD002101604160806070471020F5
:105AA000704710B500F06AF9006810BD10B50446E3
:105AB00000F064F9046010BDFFB504460D4681B0E6
:105AC000243000902168880604D51022E0699143B3
:105AD000216000E00120A84201DD471B00E0002713
:105AE0000498A1697A191018081AA0612078C006D4
:105AF00002D42046FEF7E2FC002608E00398626824
:105B0000A168805D9047206A401C761C2062049842
:105B10008642F3DB2078C0060AD52046FEF7CEFC8D
:105B200006E06268A16830209047206A401C20622D
:105B300038467F1E0028F4DC07E000986268A16800
:105B4000405D9047206A401C206228466D1E002858
:105B5000F3DC2046FEF7C8FC2078000602D50220C0
:105B600005B0F0BD0120FBE701694A1C026108781D
:105B7000704700B58FB0029100210591054901934E
:105B800079440391114604906846FEF741FD0FB039
:105B900000BD0000E5FFFFFF0A681070521C0A609C
:105BA00070473A2800D23038202302469A43412ACF
:105BB00001D310463738884201D30020C0437047D4
:105BC00002685118137801601846704710B5D1600B
:105BD00005497944516105497944116200211161F7
:105BE000114600F0F3F810BDEBFFFFFFDD010000F0
:105BF0004268002A08D001680B78491C002B03D0AA
:105C0000521E06C0184670470121C160881E7047A9
:105C10004268002A0BD0C3680168002B07D1836853
:105C20008B4204D0491E521C06C000207047002041
:105C3000C04370470FB4002300B589B00CA9009190
:105C40000B99CB60224B7B44224A7A440792042270
:105C500006930192204A0292204A7A446B460892A7
:105C6000024600200EF05EF909B008BC04B01847E7
:105C700070B5064615460C46324686B00020C04335
:105C800001900020049004A8009102916946FFF75A
:105C9000D1FF024604982118002D05D0002801D01C
:105CA000084600E020462860049800280DD0002A0D
:105CB00002DD0098884208D03246081B69460190F0
:105CC00004A800940294FFF7B5FF06B070BD000071
:105CD000A7FFFFFFC3FFFFFFFFFFFF7F5B01000088
:105CE00001468008081A02091018020A1018020C4E
:105CF0001018C008820012185200891A01E0401CD6
:105D00000A390A29FBD2704710B5FF231B0644004D
:105D10009C421DD84C009C421AD80346124A0B43A1
:105D200007D4401A02D3EFF3008010BDEFF30080D8
:105D300010BD081A06D2EFF3008001219043C90775
:105D4000084302E0EFF30080904380F3008810BD29
:105D50000D231B041A4204D01146002000F032FD2E
:105D600010BD00F047FD10BD0000009000487047D6
:105D7000083300200048704728330020004870474F
:105D80000833002010B50346406801E00346406830
:105D9000002801D08842F9D31868C3188B4206D076
:105DA000CB1CD808C000001D411A521A0146081D1C
:105DB0000A60FEF78CFA10BD10B5044600F042FDF3
:105DC0000068005DC007C00F10BD0000F3B50C46B1
:105DD0008FB000200C90012000260E9008460C3059
:105DE00003906269039801219047051E2ED0252D4E
:105DF0002DD0216A8847002818D0626903980121B4
:105E00009047216A88470028F7D16269411E0398AC
:105E1000904700E0761CA1690F988847216A88475F
:105E20000028F7D1E1690F988847DAE7A1690F9850
:105E30008847A842074601D1761CD2E7E1690F984E
:105E400088477F1C02D10C98002877D075E16269E1
:105E5000039800273D46394690472A280CD16269AD
:105E6000039801219047012506E00A214F433F187E
:105E7000303FEBD41020054362690398012190471D
:105E8000014630390A2903D2B1498F42DEDCECE702
:105E9000E90600D4AF4F6C280AD04C2810D06828EF
:105EA00024D06A282ED074280CD07A280AD00DE08D
:105EB00062690398012190476C2823D004211CE0DB
:105EC000202005436269039801219047A760652857
:105ED00065604FD026DC582839D01ADC452849D0D7
:105EE00012DC252834D04128B0D143E06269039800
:105EF00001219047682802D008210D43E6E70120E0
:105F0000C002DEE70220DCE7462833D047289DD1D7
:105F100030E05B2870D061282CD063286CD06428D6
:105F200094D161E06F284FD009DC662822D0672821
:105F300020D0692826D06E2888D12EE0F9E070287C
:105F40004DD073286FD075284ED078280DD154E0ED
:105F5000A1690F9888472528054600D16CE7E169BB
:105F60000F9888476D1C00D16DE7E6E00A224CE0EF
:105F70000A2252E0012023466A460F99C0430DF0E1
:105F8000D1FFCFE040212846234608436060A807A0
:105F900001D5002239E000223FE0E80700D020E7E9
:105FA0002068011D21600068290501D5067018E7E9
:105FB000290701D5068014E7A90703D5F117066064
:105FC00041600EE706600CE740212846234608435F
:105FD0006060A80701D5082217E008221DE05E498D
:105FE00028460840606016E04021284623460843C2
:105FF0006060A807BCD5B9E715E0402128460843F2
:106000006060A80707D52346102201200F99C043DE
:10601000C046C04686E01022234601200F99C043A7
:10602000FEF7DAFB7EE0002163280B460191009128
:1060300002910D9102D05B2808D03CE02079C00687
:1060400001D40120A0600120009034E0E06801212B
:106050000D906269039890475E2807D10120019056
:10606000E06801210D906269039890472169002939
:1060700006D10B4604AA8F00491C0829D351FADB2C
:1060800000285AD02169002927D00298401C02908C
:1060900062690398012190475D28F1D10198002899
:1060A00008D0002004AB8100401C5A58D243082875
:1060B0005A50F8DB04AB2069002820791DD0400736
:1060C00026D5029A00980D9B00922246029001204C
:1060D0000F99C043C046C04624E0C117C90E091835
:1060E0004A114909930004AA9A184901411A1368F0
:1060F0000120884003431360CAE74007224617483F
:106100000F9902D5C046C0460CE0C046C04609E023
:106110000298224600990D9B009002910F480F991A
:10612000C046C04600280ADA401C06D10E98002856
:1061300003D00020C04311B0F0BD0C98FBE7E90785
:1061400002D10C99491C0C91361800200E9048E69B
:10615000CCCCCC0CFFFFFF7FF1F7FFFFFEFFFFFF72
:10616000F7B516468AB0334878446C4603467C330C
:10617000C06F5A689B680DC42E487844763003ACD3
:106180000DC80DC43720C001081837211B30FEF799
:10619000B7FC05460C46803D1B3C02D564420120FD
:1061A00000E000200027099010E0E0070CD00C2050
:1061B00020497843794432464C39411868460123D6
:1061C00000F054FA6B4607C364107F1C002CECD11E
:1061D000184F7F442E3F16E0E80712D02001C01967
:1061E0000EC80691089307920068F04201D19819F1
:1061F00008903246012306A903A800F037FA03AB42
:1062000007C36D10641C002DE6D10998002806D044
:1062100032466946012303A800F07EFA05E0012317
:106220003246694603A800F021FA0A9B07C30DB065
:10623000F0BD000018F90000034640000A4610B502
:10624000400D0BD00121C9070F24A40200191C0323
:1062500064082143540D2143D20207E000210120AC
:10626000F2E7D40F490021435200401E0029F8DA1A
:10627000DB0FDB07184310BDFFB50D46144685B094
:10628000486851680AF056FD00910190A868A1681D
:106290000AF050FD02910390A86861680AF04AFD77
:1062A000029A12188242029201D2012000E00020DC
:1062B000019A0B18D2180028019202D08A4202D902
:1062C00003E08A4201D2012000E000200099081872
:1062D00000906868A1680AF02DFD029A12188242A7
:1062E000029201D2012000E00020019A0B18D2187E
:1062F0000028019202D08A4202D903E08A4201D2E8
:10630000012000E00020009908180090286821680A
:1063100040004900400849084018FA49471814E06D
:1063200001994000C90F084300900198029940006C
:10633000C90F08430190029803994000C90F084310
:106340000290039840007F1E039000980028E7DA2F
:106350000898002801D0EC4E00E00026B74201DA90
:10636000012000E00020002804902AD0F71BF80646
:10637000C00E15D0029B2021091A039A8B401A43A4
:106380000392029A019BC2408B401A430292019AE7
:10639000009BC2408B4000991A430192C14000917A
:1063A0007B110DD06F460320C11A03D50021820056
:1063B000B95003E08A008100BA587A50401EF3D5E4
:1063C000374603980299002800D00120014308981D
:1063D0000291002808460CD0002800D00120019925
:1063E000019A490508430121D20AC902D202019249
:1063F00000E001210E9B0122D207012B02D0002BCD
:1064000003D013E0002807D120E0904204D8904246
:106410000CD1019B0B4209D0019B5918019105D168
:106420000099491C009101D17F1C009200280DD0D9
:10643000102108460020C0460498002806D00F9876
:10644000002803D0082108460020C046286821689B
:10645000019B009A4840C10F0598C90739430EC0F7
:1064600009B0F0BDFFB587B0099A0898089953683C
:1064700092684068896896460022039317469446BE
:10648000089A12685300099A5B0812685200520871
:106490009A1A9E4BD4180A9A002A01D0352200E09D
:1064A000402206920022012315460492DB07059341
:1064B00024E0002D05D175460346039E4D1BB341D4
:1064C00009D375466646039B491B049D9841059B6D
:1064D0007519AC465F4163463B4308D0059B049E5B
:1064E000DD0776082E435B080496059301E0521EF3
:1064F000641EC50FED0749184041521C069B9A4285
:10650000D7DB002D04D17546039A6B1A824101D264
:1065100003200CE0039A0B466B404240134303D028
:10652000014303D0012002E0022000E00020614688
:1065300001910021009702910A99002905D0614636
:1065400040020143704B019102E08007002302905A
:106550009C4201DA012000E0002007003AD01A1B1B
:10656000D006C00E15D0029D2021019C091AC540FD
:106570008C402543029C8C4000D001242543019C83
:106580000295009DC4408D4000992C430194C14068
:10659000009154111DD06D460221002202290CD118
:1065A0000320001B07E0002804DB8600AE59002E04
:1065B00000D00122401C0328F5DB081B02D588000F
:1065C0002A5004E08000285810438A00A850491E31
:1065D000E3D51C460A98002802980CD0002800D069
:1065E00001200199019A490508430121D20AC902F3
:1065F000D202019200E00121109B0122D207012B5F
:1066000002D0002B03D013E0002807D11FE09042F6
:1066100004D890420CD1019B0B4209D0019B591820
:10662000019105D10099491C009101D1641C00928F
:1066300000280CD0102108460020C046002F06D0AC
:106640001198002803D0082108460020C046089869
:106650000999019A009B006809684840C10F079892
:10666000C907214382600AC00BB0F0BD00B585B0F8
:10667000019300920A460146002302A8FFF7FCFDA1
:1066800002A807C805B000BDFFB50A461F4685B081
:106690000799019301230091014602A8FFF7ECFD41
:1066A00002990398049ECA0F4900D20700920F2254
:1066B000490892028C1A0021002800DB0C46450094
:1066C00013486D08844214D3079A002A04DA441E42
:1066D0000026104DF64302E004460D460E461021FA
:1066E00008460020C046002F03D0042108460020A1
:1066F000C0462005E90A0843009908436905F20AE3
:106700001143ADE602C0FFFF013C0000FF3F000067
:10671000FF070000FFFFFF7F00B585B001930092E7
:106720000A460146002302A8FFF79CFE02A807C8FC
:10673000A8E7FFB50A461F4685B0079901930123D4
:106740000091014602A8FFF78DFE02990398049E6E
:10675000CA0F4900D20700920F22490892028C1AF0
:106760000021002800DB0C46450011486D088442DA
:1067700014D3079A002A04DA441E00260D4DF6436E
:1067800002E004460D460E46102108460020C04691
:10679000002F03D0042108460020C0462005E90A46
:1067A0000843009908436905F20A114358E60000BE
:1067B000FF070000FFFFFF7F10B500F0E9FA00F0CF
:1067C000E1FA10BDC80212D54803400F002804D0DA
:1067D000C803C043012188407047EFF300800001E7
:1067E000000903210907084380F30088704700204F
:1067F0007047000010B5024800F0F2FA10BD00002A
:106800000000C07F70477546FFF7B0FAAE4605003E
:1068100069465346C008C000854618B020B5FDF74C
:1068200013FD60BC00274908B6460026C0C5C0C598
:10683000C0C5C0C5C0C5C0C5C0C5C0C5403D490074
:106840008D46704710B5FFF795FA001D10BD00BFCB
:1068500069D30000FFB58BB00878FF2806D0491C2B
:106860002D2805D000230020009009E000200EE034
:106870000123F8E7009A0A2462438018491C00901B
:106880000878FF28F6D1002B02D0009840420090F3
:10689000002503952C460D9800782D2801D02B2833
:1068A00015D10D99491C2D280D9102D0002003907F
:1068B0000DE00120FBE7401C214600270A223B4651
:1068C0000D902846FDF74AFD35183C464C410D9881
:1068D0000678FF2EEFD1002108460020C04603991C
:1068E000002902D08100401840080002860F012EC6
:1068F00001DD0026F6430E990098471828462043EC
:106900000BD0FF20F530C7421ADA0398C1070B9865
:10691000002E41600ADD012009E00398C1070B98B1
:1069200041600B99002008600FB0F0BD00200B996A
:106930000860FFF723FA02210160182108461AE0D7
:10694000FF20F530874219DD002E02DAFC4878443A
:1069500001E0FC48784406C80B9806C00B980399E0
:106960004068C90708430B994860FFF707FA0221FE
:106970000160142108460020C046D5E700210846E2
:106980000020C04639000A9001D5724200E032462C
:10699000002900DA794207A8FFF7E2FB07AB07CB33
:1069A00004AB07C3E848009000200146214304D10E
:1069B0002C460546E44920390091210C0904014385
:1069C00006D1290C24040C4300992D0410390091A0
:1069D000210E0906014306D1290E24020C43009919
:1069E0002D0208390091210F0907014306D1290F13
:1069F00024010C4300992D01091F0091A10F890763
:106A0000014306D1A90FA4000C430099AD00891ED3
:106A10000091E10FC907084304D100986D19644142
:106A2000401E0090002F0295019406DD3246684614
:106A3000012304A9FFF728FE05E00123324668463A
:106A400004A9FFF776FE044603980D46002802D0FD
:106A50000120C0074440002108460020C0460A9992
:106A6000BA4E48400007800F07D160004008284315
:106A700003D06000400DB04214D1FFF77FF902212E
:106A800001606000400DB0420CD1B148784406C8A6
:106A90000B9806C00B98E10FC907406808430B9993
:106AA000486041E70B9844600B9805603CE7FFB5F0
:106AB0001F4695B0002000250C909E685C68ED4351
:106AC0001390FFF757F9C0680168405C1490B969EA
:106AD00016986D1C88470A90396A88470028F6D1B5
:106AE0000A98401C0AD00D20C0018443002E12DDFC
:106AF0000A982B2809D02D280DD103E00020C0438F
:106B000019B0F0BD012080020443B96916986D1CCC
:106B10008847761E0A90600504A901D52D2000E063
:106B20002B206A46491C107410A8002E0D910B9062
:106B30003BDD0A98692805D0492803D06E2801D08A
:106B40004E281DD13B46039002200296179A1699B3
:106B5000C043009501940DF0F5F9C11CD0D10FE0B0
:106B6000B96916986D1C88470A900120761E40026C
:106B70000443179805601398401C002E139014DDF1
:106B80000A983028ECD0782801D058280DD11398D5
:106B900001280AD13B460296179A1699001F0095C4
:106BA00001940DF0C7F9C11CAAD114990A98884222
:106BB00046D18020044308E00C981799401E0C90A1
:106BC000012040020443681C0860B9696D1C1698D6
:106BD000761E884730280A90EED031E0149988421A
:106BE00005D1200603D480200443761E1EE00A98B7
:106BF0000AF082F9002826D0012008A940020443A7
:106C00000D980331761E88420BD20A980D993038C0
:106C100008700D98401C0D90200607D50C98401E5A
:106C200003E0200602D40C98401C0C90A00502D56D
:106C30001799681C0860B96916986D1C88470A90F6
:106C4000002ECBDC59E0002E57DD0A98652801D0D4
:106C5000452852D1A00550D50320B96900028443CC
:106C60006D1C1698761E8847002E0A900CDD2B2886
:106C700004D02D2808D1FF2001300443B9691698AB
:106C80006D1C8847761E0A90E00501D52D2100E095
:106C90002B210B9801700B98401C0B90009025E065
:106CA000012012A9400204430B980131761E88424C
:106CB0000ED20A980B9930380006000E087003D1E6
:106CC00000990B9888420AD90B98401C0B9006E05B
:106CD000E00501D51F4801E01E4840420C90B9690B
:106CE00016986D1C88470A9017980560002E04DDE1
:106CF0000A980AF001F90028D2D1F9691698884754
:106D00000D99FF2004AA08700B99087000200E90BE
:106D10000F900C9B10A90EA8FFF79CFDA00502D4B4
:106D20000120C043ECE62420044215D0E0071FD127
:106D300038680F9A0E99031D3B60006806C017E083
:106D4000EEF10000E0F100003E400000FF0700000F
:106D5000A8F00000F1D8FFFF0EA968460AF028F855
:106D6000E00705D13868009A011D396000680260AB
:106D70002846C5E610B50446C046C0462046FDF785
:106D8000FBF910BD10B5002801D000F059F810BD76
:106D900010B5012805D0002103A000F057F801200C
:106DA00010BD09A1F8E7000053494752544D454D25
:106DB0003A204F7574206F662068656170206D659C
:106DC0006D6F7279000000003A2048656170206D97
:106DD000656D6F727920636F72727570746564008F
:106DE00010B50C461107090F092904D00A290AD049
:106DF00008290CD104E011460820FFF7E3FC06E067
:106E0000510606D501E0510601D50120C0072146F3
:106E100010BDD10607D501010909CC084907000EAC
:106E20000006044309E0410F20024907000A01431C
:106E3000200E00061D22D14101430846E7E700006D
:106E400001491820ABBEFEE72600020070B50546DA
:106E50000C460A2000E06D1C00F012F8002D06D050
:106E600028780028F7D102E0641C00F009F8002C13
:106E700002D020780028F7D10A2000F001F870BD78
:106E800008B5694608700320ABBE08BDFFB51F46B4
:106E900089B0139812994005C00FC00705900020D3
:106EA000079005460446461E049002903C20491C6B
:106EB00012910690B9690A98884703901498401E69
:106EC00014901498002841DD03982E2816D0102124
:106ED000FEF767FE002834DB012104910799014386
:106EE0001AD0069900290CDB069AC117FDF715FA8E
:106EF000054306980C43001F069006E0012002900F
:106F00000EE0002801D001200543012007900298DF
:106F1000002805D1361D03E00298002800D0361F56
:106F20001298401C1290B9690A98884703901498E7
:106F3000401E149004980028C3D00B991298086042
:106F4000BFE70398702808D0502806D0F9690A983E
:106F500088470498002815D051E0002003900120B4
:106F60000290049800280AD01298401C1290B96927
:106F70000A9888471499491E0029149106DCF9697A
:106F80000A9888470120C0430DB0F0BD2B2804D0DB
:106F90002D280DD10020C04302901298401C129061
:106FA000B9690A9888471499491E00291491E6DDA9
:106FB000411CE4D00A21FEF7F4FD0028DFDB039931
:106FC0000A225143081803901298401C1290B96984
:106FD0000A9888470A21FEF7E4FD14990B9A491E86
:106FE0001491129911601499002901DD0028E6DA44
:106FF000F9690A98884702990398484386191398B3
:107000002421084004902846204304D0A10F89077A
:10701000090002D006E005989BE0A90FA4000C43EC
:10702000AD00B61EE10FC907080002D16D19644119
:10703000761E0498002803D00B2002905D4803E0E0
:10704000282002907D20C0438642039007DA811BEE
:10705000029808184128029001DD41200290029A0E
:1070600001200021521EFDF758F9024628400B4628
:107070002140084301D0012000E0002007900020BB
:10708000521EC04343412A4023401A4301D00120ED
:1070900000E0002007990690014352D000210846E5
:1070A0000020C0460321059A89050840002A05D022
:1070B00082008018C20F1018401008408015012867
:1070C00002DD0020C04301E0012815D0401C38D06B
:1070D0000798002835D0069800280DD1029A012083
:1070E0000021FDF71AF928402140084301D0012072
:1070F00000E00020002824D0029A01200021FDF7A2
:107100000CF9034640198C4661412A1A8C410FD371
:107110000298402807DD0498039E002801D0343EE1
:1071200002E0173E00E0761C01240025E40708E099
:107130005B1E62460024E4436241DD43D4430540C4
:107140000C4003980121081AB04206DA1A49059842
:1071500008430190002000900EE060006205010BE2
:10716000E80A1043059A009068460A4313490A4307
:107170003146019209F08BFE049800280AD013983A
:10718000C00714D13868019A0099031D3B6000685C
:1071900006C00CE002A8694609F00AFE1398C00771
:1071A00005D13868029A011D3960006802601298A2
:1071B000EAE6000002FCFFFF0000F07F0000F03F65
:1071C000FFB51D4687B01198484A109C129E400595
:1071D0001399C00F761EC00702430192002200924D
:1071E000FF22D2051043202291434929059003D064
:1071F00017464E2928D04FE03DA002AA0BC8012710
:107200000BC2A9690898641C8847761E014607D4FA
:1072100002A8C05D002803D02022914381420AD0F9
:10722000E96908988847032F36D0082F34D0012009
:10723000C0430BB0F0BD7F1C032F01D0082FE0D15D
:107240000999601C0860DCE7A9690898641C8847F4
:10725000761E2DD4B84341282AD1A9690898641C08
:107260008847761E24D4B8434E2821D1A9690898AE
:10727000641C884701990122D204114301910599A8
:10728000D200114305910999761E0C6001D428287B
:1072900006D0E969089888471198C00712D023E002
:1072A000A9690898641C8847761E01D4002803DA6F
:1072B000E96908988847BAE72928F1D10998641C38
:1072C0000460E9E711982421084207D02868019A50
:1072D0000099031D2B60006806C005E02868059929
:1072E000021D2A60006801602046A2E70000F07FCE
:1072F000494E46494E49545900000000F8B5224C09
:107300004E00069DA6420AD8A64201D1002806D109
:107310005E00A64203D8A6420AD1002A08D00D2456
:10732000240425422CD029460020FFF74BFAF8BD53
:107330000C461C430CD4994202D0EFF30080F8BDF8
:10734000904202D0EFF30080F8BDEFF30080F8BD6B
:1073500009242407E5008B4206D0EFF30080A04308
:10736000591A06D2284304E0101A05D3EFF300801F
:10737000A04380F30088F8BDEFF30080A043F1E75D
:10738000009500F033F8F8BD0000E0FF70B5054649
:107390004800440D124B0020002C0AD0634008D056
:1073A0009A4206DA6642B24203DD120540195141A3
:1073B00070BD002C08D0002B09D0C90FC907002AC6
:1073C000F6DB084A114370BDC90FC90770BD2846D6
:1073D0000A03104302D00020034970BD284670BD47
:1073E000FF0700000000F07F0000F87F10B50020CC
:1073F0000249029AFFF7F4FC10BD00000000F87F7C
:1074000070B58C180578401C6B075B0F01D10378B1
:10741000401C2A1106D10278401C03E00678401C6B
:107420000E70491C5B1EF9D12B0705D40023521E98
:107430000DD40B70491CFAE70378401CCB1A921C40
:1074400003E01D780D70491C5B1C521EF9D5A1424A
:10745000D8D3002070BDF0B58DB006460C46174657
:107460001D46E10F09194910A94202DD00200DB0A7
:10747000F0BD002009900A900B900C90012109A802
:1074800009F042FD00200590069007900890012128
:1074900005A809F039FD09960A94059706950999FA
:1074A00008460A9A0BF040FC05A80FC803936B46E8
:1074B00007C309A80FC80AF0C0F804900498D6E7DB
:1074C00010B513481349086019200968C8631021D2
:1074D00010480068016401210E48006841640621DB
:1074E0000C480068C16430210A48006801655921D0
:1074F0000848006841650122114607480AF078F9FA
:10750000044909688864054802490968C88010BDB3
:10751000D00100207800002020200000FF3F000064
:10752000FFB58DB0179F169C2646641C641C781E00
:107530004000FE49401840782246641C0D9988544A
:10754000781E4000F949085C2246641C0D99885455
:107550002246641C0D991898885400200A900B90BC
:107560003B0009F0FFFB321A1A1B1C1D1E1F204F87
:107570007E7F8081828384939495C5C6C7C8C9CA1B
:10758000CBCCCDCEF1FFEEEDECEBEAE9E8E7E6E5BA
:10759000E4E3E2E1E0DFDEDDDC1A78E277E276E2E6
:1075A00075E274E273E2E249C869FEF707F9012364
:1075B0000822059104900AA906A805F08DFF002075
:1075C0000290059904980191009006A80FC801F057
:1075D00021FF08A9087A2246641C0D99885408A93D
:1075E000487A2246641C0D99885408A9887A224654
:1075F000641C0D99885408A8C17A2246641C0D9811
:10760000815444E2CA49086AFEF7D8F801230822E7
:10761000059104900AA906A805F05EFF00200290DB
:10762000059904980191009006A80FC801F0F2FE98
:1076300008A9087A2246641C0D99885408A9487A3A
:107640002246641C0D99885408A9887A2246641C35
:107650000D99885408A8C17A2346641C0D9AD15408
:1076600015E214E213E212E211E210E20FE2B04876
:10767000008B0004000E2246641C0D998854AC480F
:10768000017E2346641C0D9AD15400E2FFE1FEE125
:1076900020202246641C0D998854A6480068007872
:1076A0002246641C0D998854A2480068007922463D
:1076B000641C0D9988549F480068007A2246641C17
:1076C0000D9988549B480068007C2246641C0D99E3
:1076D000885498480068007D2246641C0D9988549F
:1076E00094480068017E2346641C0D9AD154CEE173
:1076F000CDE1CCE1CBE1CAE1C9E1C8E1C7E1C6E136
:10770000C5E18B48408900122246641C0D998854BB
:107710008748817A2046641C0D9A1154B7E1A1E094
:107720009FE08FE08DE086E084E07BE079E077E029
:107730006FE03FE03DE035E033E022E020E01EE096
:1077400017E015E00EE0FFE7794880890012224635
:10775000641C0D9988547648017B2046641C0D9A60
:10776000115494E10B202246641C0D9988548EE13B
:107770008DE101202246641C0D99885487E186E141
:1077800085E16D480068C08800122246641C0D998E
:1077900088546948006881792246641C0D98815498
:1077A00075E174E1624880792246641C0D99885421
:1077B0006DE16CE16048006840782246641C0D99D8
:1077C00088545D48006880782246641C0D9988546E
:1077D00059480068C0782246641C0D998854564860
:1077E000006800792246641C0D998854FF202246C7
:1077F000641C0D9988542246641C0D9988542246B5
:10780000641C0D998854FF212046641C0D9A115464
:107810003DE1474880782246641C0D99885436E142
:1078200035E134E14448006800792246641C0D9932
:1078300088542CE12BE100202246641C0D998854C9
:1078400025E124E13A48408D00122246641C0D993E
:1078500088543748408DC1B22246641C0D9881542B
:1078600015E114E13248008800122146641C0D9B8A
:1078700058542F4802782046641C0D9B1A542C48FB
:1078800082782046641C0D9B1A54294802792046B0
:10789000641C0D9B1A54264882792046641C0D9B5B
:1078A0001A542348827A2046641C0D9B1A5420489F
:1078B000027B2046641C0D9B1A541D48808C0012CC
:1078C0002146641C0D9B58541948808CC2B2204636
:1078D000641C0D9B1A54184800680A30FDF736F8EE
:1078E00008900D9A10191449089A09680A31FDF791
:1078F0004FF8114800680A30FDF728F804190C49C0
:10790000C86909F023FF0546E817000E4019001268
:107910000002281AC2B208952046641C0D9B1A5416
:10792000E817000E40190004020E07E02C020020A8
:107930009C020020E80200207800002008952046E4
:10794000641C0D9B1A545949086A09F0FFFE05464C
:10795000E817000E401900120002281AC2B208955A
:107960002046641C0D9B1A54E817000E40190004B1
:10797000020E08952046641C0D9B1A5400200990A5
:107980004B480068008D8000B83081B2042209A8FD
:1079900001F08BFE0998000E2146641C0D9B585483
:1079A00009980002020E2046641C0D9B1A54099887
:1079B0000004020E2046641C0D9B1A540998C2B2A2
:1079C0002046641C0D9B1A5439480068C088001278
:1079D0002146641C0D9B5854354800688279204626
:1079E000641C0D9B1A5431482030C2792046641C17
:1079F0000D9B1A542D48008B0004020E2046641C77
:107A00000D9B1A542948027E2146641C0D9B5A5432
:107A1000808C642801DA992200E055222046641CFB
:107A20000D9B1A540B222046641C0D9B1A542022D5
:107A30002046641C0D9B1A541E480068027820469C
:107A4000641C0D9B1A541B48006802792046641C74
:107A50000D9B1A5417480068027A2046641C0D9B3F
:107A60001A5414480068027C2046641C0D9B1A546A
:107A700010480068027D2046641C0D9B1A540D4876
:107A80000068027E2046641C0D9B1A5400BF00BF94
:107A9000A01B0004010E0D988155A01BC1B2701CE3
:107AA0000D9A1154204611B0F0BD00009C02002038
:107AB00078000020E80200201CB58D480023012238
:107AC000FF21F53100908BA00BF0E4FF8D49086099
:107AD00000208D4908708D480068C388022218462E
:107AE00000210AF04FFF002802D006F073FE01E0EB
:107AF00000F040FE0322002101200BF0BBFB844973
:107B0000086000200190F1E000235A1E19468048C9
:107B100000680BF0CDFB01287ED17B480078C007C0
:107B2000C00F002846D07B484188774802787948C2
:107B3000FD3804F00DF8002805D077480188FF389B
:107B4000013804F07DFF01F0C3FA7448416C002055
:107B5000884700F073FA724800897249884223D03E
:107B60006848006800280FD0664800680BF0FCFFEA
:107B7000002809D008216846017105214171684833
:107B800001896846C18008E0072168460171052126
:107B90004171634801896846C180019808F0BAFBC9
:107BA0000020C0435E4908815748007840084000E3
:107BB000554908705448007804210840002822D014
:107BC00051480078884350490870574805F098FF9D
:107BD000002800D18AE000205449087050480089EC
:107BE000504988420FD00421684601710521417136
:107BF0004B4801896846C180019808F08BFB002042
:107C0000C0434749088140480078082108400028BF
:107C100068D009F09FFF00E067E000280BD001204A
:107C200007F0F4F805F0ECFBFF20F5300BF0CAF993
:107C3000002007F0EBF834480078082188433249E7
:107C4000087032480068C3880222184600210AF0F2
:107C500099FE002802D100F08DFD43E02B4800681A
:107C6000C3880922184600210AF08CFE002839D06A
:107C700026480068C3880A22184600210AF082FEBE
:107C800000281AD02648818820480068407A0A22B5
:107C90005043814204DA7D20C000214908810CE074
:107CA0001F48818819480068007A0A22504381429F
:107CB00003DD0020C0431A49088119480089194989
:107CC00088420FD003216846017105214171144893
:107CD00001896846C180019808F01CFB0020C04360
:107CE0000F49088100200849087000BF0CE7000018
:107CF000E9140100436C6F736555617274546173CC
:107D00006B0000001C0300202003002078000020EE
:107D1000280300208C3000208C2F002078010020C8
:107D20009C020020FFFF0000519300002C03002064
:107D30000FB4F0B59FB00746299D05A809F0C8FE0D
:107D40006D1C3868461C3446002004907A683868F8
:107D5000022360A101900AF05CF8002801D0012004
:107D600004903AE005A809F0EBFE00282AD020781C
:107D70007B2802D020785B2804D1217805A80AF05E
:107D800045FD28E0049800280BD120782C2802D04B
:107D9000607800281FD16D1E002D1CD0661C344653
:107DA0001BE020462038C07F222802D120782C28D2
:107DB00002D0607800280ED16D1E002D0BD0661CFD
:107DC00034460AE020787D2802D020785D2802D150
:107DD00005A80AF09BF8641C00BF002D02DD207886
:107DE0000028BFD120462038C07F039000212046C4
:107DF0002038C17726992598FCF730FE3046FCF7ED
:107E0000A5FD0190269A259800903146019B09F026
:107E1000B7FB214620390398C8773046FCF796FD1A
:107E2000029000201BE02599095C002916D02599B5
:107E3000095C5B2912D02599095C20290ED025996F
:107E4000095C0D290AD02599095C0A2906D02599D3
:107E5000095C222902D025990E1803E0401C0299E2
:107E60008842E0DB00BF0299481E1BE02599095CAF
:107E7000002916D02599095C5D2912D02599095C45
:107E800020290ED02599095C0D290AD02599095C75
:107E90000A2906D02599095C222902D025990C18B7
:107EA00002E0401E0028E1DC00BF002060700025D9
:107EB00003E0705D259948556D1C3046FCF746FD82
:107EC000A842F6D80020259948551FB0F0BC08BC40
:107ED00004B01847220000000FB47CB504460B9D87
:107EE00007982168884203D17CBC08BC04B01847BD
:107EF0005B20079908700798401C07900898401E5F
:107F0000089001950A980090E669204607A90EC9D5
:107F1000B047012309A1089A079809F02DFA07989C
:107F2000401E07900898401C08900798FCF70EFD2B
:107F3000002207990A5400BFD6E700005D00000048
:107F400010B5044604A12068FCF78CFD002801D17F
:107F5000012010BD0020FCE75B5D0000F0B59BB088
:107F600005462869401C002802D028691BB0F0BDD6
:107F700001A809F0ADFD00272868461C3446002002
:107F80000090022327A16A68286809F042FF0028B0
:107F900001D00120009036E001A809F0D1FD0028B1
:107FA00026D020787B2802D020785B2804D1217845
:107FB00001A80AF02BFC24E00098002809D12078C1
:107FC0002C2802D0607800281BD17F1C661C344608
:107FD00019E020462038C07F222802D120782C28A2
:107FE00002D0607800280CD17F1C661C34460AE061
:107FF00020787D2802D020785D2802D101A809F0E0
:1080000085FF641C00BF20780028C5D12846A969D7
:108010008847002801D0002000E038462861286900
:10802000A4E700002200000010B504F0A9FE0248F9
:1080300001F0E6FD10BD000000B4014000BF04489F
:108040000068400840000249086000BF7047000017
:1080500000B4014010B500BF08480069C007C00F58
:10806000012148404840002806D000BF01200349B4
:10807000086100BF01F042F810BD000000B40140EB
:1080800000B585B014216846FCF7EAFC402000905A
:1080900000200190012002900020039069460448CE
:1080A00002F024F94021024802F086FA05B000BD32
:1080B000000C004000B585B014216846FCF7D0FCE8
:1080C000402000900120019000200290039069461A
:1080D000044802F00BF94021024802F0EAF905B029
:1080E00000BD0000000C00401FB582B0089C039842
:1080F000042805DD002C03D10020014606B010BD88
:108100000398082804DD002C02D000200146F5E782
:10811000039902980AF032FE002004E00299095CFB
:108120006A461154401C03998142F7DC002C02D0AE
:1081300001990098E2E70098FDF740FBDEE770B593
:1081400005460026102D0CD006DC022D0BD0042D88
:108150000FD0082D11D10EE0202D06D0402D0CD1CE
:1081600005E0012409E0022407E0042405E00624D8
:1081700003E0032401E0052400BF00BF294660207E
:1081800000F044FC0A262AE0642001F0E3FD00F040
:10819000A7F9A04201D1012070BD402D0BD1642070
:1081A00001F0D8FD6A2000F0F3FB08210840002808
:1081B00001D00120F0E7082D0BD1642001F0CAFDA9
:1081C0006D2000F0E5FBC007C00F002801D00120A2
:1081D000E2E7701EC6B2002E01D10020DCE7002EBF
:1081E000D2D10020D8E7FEB500200190002600245F
:1081F000662000F0CDFB0090202100980840400947
:1082000000906D2000F0C4FB05466A2000F0C0FB22
:1082100007460098002803D0E843C5B2F843C7B228
:1082200080202840002801D02020064340202840FC
:10823000002801D00120064320202840002801D03A
:108240000120064310202840002802D010200643B9
:10825000044308202840002802D008200643044395
:1082600004202840002802D00420064304430220B2
:108270002840002802D0022006430443E807C00F2C
:10828000002802D001200643044320203840002863
:1082900005D002210198084301908020044310205A
:1082A0003840002805D00121019808430190402062
:1082B000044308203840002805D0042101980843D1
:1082C0000190202004436A20019900F09FFB314671
:1082D0006B2000F09BFB0098002801D0E043C4B263
:1082E0002046FEBD10B56E2000F052FB0446022170
:1082F0006C2000F08BFB204610BD10B56E2000F006
:1083000047FB044601216C2000F080FB204610BD95
:1083100010B504462146652000F078FB10BD70B50D
:1083200004460D46E406E40E662000F031FB4009E9
:10833000400104432146662000F068FBED06ED0E87
:10834000672000F025FB40094001054329466720CE
:1083500000F05CFB70BDF8B505460E4617460024DC
:1083600006E0315D6219D0B200F050FB601CC4B26F
:10837000BC42F6DB0120F8BD10B50446214668205A
:1083800000F044FB10BD70B505460D2000F000FB69
:108390000446002D06D080200443402004432020C2
:1083A00004430BE0802120468843044640212046B8
:1083B00088430446202120468843044621460D2058
:1083C00000F024FB70BD10B5692000F0E1FA04460E
:1083D000640864000421204688430446214669203D
:1083E00000F014FB10BD10B5692000F0D1FA04466E
:1083F00001200443042004432146692000F006FBC9
:1084000010BD000000B589B0142104A8FCF728FBBA
:10841000FF200130049000200590012006900020EC
:108420000790089004A92D4801F060FF0120C002C8
:10843000049001200590069000200790089004A960
:10844000264801F053FF0121C902244802F0C6F872
:1084500040200490002005900690079004A91F4832
:10846000403001F043FF3A200490012005900020A5
:108470000690079004A91948403001F037FF3821D1
:108480001648403002F027F802211448403002F02C
:10849000A5F80120049000200590012006900020FE
:1084A0000790089004A90D48403001F01FFF0320F9
:1084B000019001200290039001A9000301F0AAFCA1
:1084C0000120000305498031C86000BF01200090F1
:1084D0001E21684602F0B8FC09B000BD800C0040C7
:1084E00010B5612000F054FA0007000F10BD10B560
:1084F000702000F04DFA803810BD10B50820FFF74D
:108500001EFE10BD10B51020FFF719FE10BD10B5EE
:108510000220FFF714FE10BD10B54020FFF70FFE3C
:1085200010BD10B500F064FA142001F007FCFFF74D
:10853000EEFF612000F02CFA0446102004432021B5
:108540002046884304462146612000F05FFA6220FD
:1085500000F01EFA0446202004432146622000F069
:1085600055FAFFF740FE10BD10B500F057FA00F0C5
:108570006BFA10BD70B5482000F00AFA0546AA2132
:10858000482000F043FA482000F002FA0446294649
:10859000482000F03BFAAA2C01D1012070BD002038
:1085A000FCE7000010B501220821194802F039F853
:1085B0000121C902164801F08EFF322001F0BEFBF6
:1085C00001221102124802F02CF8012280211048E9
:1085D00002F027F8FF2101310D4801F07CFF8021D6
:1085E0000B4801F078FF00F047FB082108484038AD
:1085F00001F071FF00F012FA01221103044802F0A9
:1086000010F801210903024801F065FF10BD0000C8
:10861000800C004010B501220821064802F001F844
:108620000121C902034801F0D9FFC82001F086FBEF
:1086300010BD0000800C004010B50446FFF767FF36
:108640000A2000F0B0F9204600F0B4F9FFF7BBFEB5
:10865000FFF7C9FDFFF746FEFFF74FFF10BD000013
:1086600038B500253D4881783D4800680079814251
:1086700000D067E039480E38817B3948006880783F
:1086800081425ED13548417835480068C0788142E2
:1086900057D132488178324800680079814250D100
:1086A0002E48C07801284CD12C4840790A2848D15E
:1086B00000202C490870002400BF05E02749095C10
:1086C0000919CCB2411CC8B21028F7DB2348007C42
:1086D000A04235D121480079234908801F4880797C
:1086E00088701E48007A01021C48C07908181E498B
:1086F00088801A48807A01021848407A08181A4976
:10870000C8801648C07A552802D17D20C00000E0FC
:108710000020154908811148007B48810F48407BA3
:1087200088810E48807B08610C48C07B88730125D6
:108730000E4800900E4808220023016E1846884714
:1087400000BF00BF002004E0002204490A54411C7D
:10875000C8B22028F8DB284638BD0000E6320020E9
:1087600078000020E50200209C020020B1F7000004
:108770008800002010B5FFF715FF4B20C00001F066
:10878000DDFA10BD70B50121072006F067F800245E
:108790000025FFF73FFFC82001F0D0FA05F050FC9C
:1087A000FFF7E8FE002803D10A2001F0C7FA02E033
:1087B0000A2001F0C3FA714800680479002C0DD139
:1087C0006E4800680079F021084000110A214843F2
:1087D0006A49096809790907090F4518002C0FDD56
:1087E000202C0DDC654800680079F021084000115C
:1087F0000A2148436149096809790907090F4518A1
:10880000202C11DD402C0FDC5C4800680079F02141
:10881000084000110A2148435849096809790907A5
:10882000090F40180546143D402C11DD602C0FDC6B
:10883000524800680079F021084000110A2148439D
:108840004E49096809790907090F40180546283D6E
:10885000602C11DD802C0FDC484800680079F02185
:10886000084000110A214843444909680979090769
:10887000090F401805463C3D802C11DD992C0FDC7A
:108880003E4800680079F021084000110A21484361
:108890003A49096809790907090F40180546503D0A
:1088A0002B0008F05FFA150C1014181C2024282C3B
:1088B0003034383C4044484C5054585C60000020F0
:1088C000FFF7BAFE53E00420FFF7B6FE4FE00820A2
:1088D000FFF7B2FE4BE00C20FFF7AEFE47E01020A2
:1088E000FFF7AAFE43E01420FFF7A6FE3FE01820A2
:1088F000FFF7A2FE3BE01C20FFF79EFE37E02020A2
:10890000FFF79AFE33E02420FFF796FE2FE02820A1
:10891000FFF792FE2BE02C20FFF78EFE27E03020A1
:10892000FFF78AFE23E03420FFF786FE1FE03820A1
:10893000FFF782FE1BE03C20FFF77EFE17E04020A1
:10894000FFF77AFE13E04420FFF776FE0FE04820A1
:10895000FFF772FE0BE04C20FFF76EFE07E05020A1
:10896000FFF76AFE03E00020FFF766FE00BF00BFCE
:108970000021072005F072FF70BD00007800002084
:1089800070B504460D462946204600F0E5F870BD56
:1089900038B50446FF2100916946204600F080F872
:1089A0006846007838BD10B504462146272000F0FF
:1089B0002DF810BD10B504462146632000F026F8BE
:1089C00010BD70B504464520FFF7E2FF0546702153
:1089D0002846884305462009084005432946452086
:1089E00000F014F8E5B22946462000F00FF870BDFB
:1089F00010B5FF217F2000F009F810BD70B50446C6
:108A00000D462946204600F0D3F970BD70B50446E6
:108A10000D462946204600F071F970BD00B585B0BD
:108A200014216846FCF71CF8012080020090002009
:108A30000190029003906946024801F057FC05B08E
:108A400000BD0000800C004010B5012280211348B9
:108A500001F0DAFD8021114801F0B4FD012211027C
:108A60000E4801F0D1FDFF2101310C4801F027FD36
:108A700000F002F908210948403801F0A3FD012265
:108A80001103064801F0C0FD01210903034801F06C
:108A900099FD162001F05EF910BD0000800C004029
:108AA00070B504460D4600F0E7F80821294801F0AA
:108AB00089FD012211022748403001F0A5FDFF2168
:108AC00001312448403001F0FAFC01221103214811
:108AD000403001F099FD012109031E48403001F0AA
:108AE00071FD012280211B48403001F08DFD802165
:108AF0001848403001F0E3FC162001F02BF9162055
:108B000001F028F980212143084600F0CBF800F05D
:108B10009FF800F071F82870FF2101310D484030B6
:108B200001F0CDFC162001F015F9162001F012F924
:108B300080210848403001F045FD0821054801F03A
:108B400041FD00F085F8012109030248403001F0A1
:108B500039FD70BD400C004070B505460E4601223F
:108B60001103244801F050FD01210903214801F0BF
:108B700029FD012280211F4801F046FD80211D486A
:108B800001F020FD012211021A4801F03DFDFF21F4
:108B90000131184801F093FC00F05AF800241EE05F
:108BA00001210903134801F08AFC162001F0D2F8D4
:108BB000162001F0CFF800F01FF82855FF210131F1
:108BC0000C4801F07CFC5F2001F0C4F8012109038E
:108BD000084801F0F7FCBE2001F0BCF8641CB44268
:108BE000DED300F035F801210903024801F0EAFC68
:108BF00070BD0000800C004070B5FF24002521E00E
:108C0000FF210131114801F05AFC162001F0A2F8B1
:108C10006006040EFF2101310C4801F0D3FC00BFB7
:108C20000A484038C06980B208210840002802D0B4
:108C30000120044301E064086400162001F08AF872
:108C4000681CC5B2082DDBDB204670BD800C0040DF
:108C500000B585B014216846FBF702FF082000909C
:108C600000200190029003906946024801F03EFB0B
:108C700005B000BD400C004000B585B01421684629
:108C8000FBF7EEFE082000900120019000200290EA
:108C900003906946024801F029FB05B000BD0000C1
:108CA000400C004070B50446002522E0FF21013150
:108CB000114801F004FC80202040002805D0082144
:108CC0000D48403801F07EFC04E008210A48403895
:108CD00001F0F5FB162001F03DF86006040EFF21BF
:108CE0000131054801F06EFC162001F033F8681CD4
:108CF000C5B2082DDADB70BD800C004070B50446AB
:108D00000D46FFF7B9FF0821284801F05BFC01225E
:108D100011022648403001F077FCFF210131234841
:108D2000403001F0CCFB012211032048403001F01B
:108D30006BFC012109031D48403001F043FC012276
:108D400080211A48403001F05FFC802117484030F4
:108D500001F0B5FB162000F0FDFF162000F0FAFF31
:108D60006006400EFFF79EFF2846FFF79BFFFF219E
:108D700001310E48403001F0A2FB162000F0EAFF5E
:108D8000162000F0E7FF80210848403001F01AFC6F
:108D90000821064801F016FCFFF75AFF01210903DC
:108DA0000248403001F00EFC70BD0000400C004055
:108DB00070B505460E4601221103244801F024FC3B
:108DC00001210903214801F0FDFB012280211F48F8
:108DD00001F01AFC80211D4801F0F4FB0122110270
:108DE0001A4801F011FCFF210131184801F067FB1E
:108DF000FFF742FF00241EE001210903134801F0A0
:108E00005EFB162000F0A6FF162000F0A3FF285DF1
:108E1000FFF748FFFF2101310C4801F050FB5F20B4
:108E200000F098FF01210903084801F0CBFBBE20A8
:108E300000F090FF641CB442DED3FFF709FF01216C
:108E40000903024801F0BEFB70BD0000800C004029
:108E5000F7B5074615460421052003F06FFB0021F6
:108E6000012003F084FB80210A2003F088FB00240A
:108E700005E0395D092003F07AFB601CC4B201985B
:108E80008442F6DB0321012003F071FBFF2400BFC5
:108E9000052003F066FB0646601EC4B2002C03D01A
:108EA000042030400028F3D0222003F05AFB287021
:108EB000212003F056FB6870FEBD30B503460C461A
:108EC0000020214604E05D5C2D18E8B24D1CE9B29B
:108ED0009142F8DB30BD7047F0B589B004460D46CD
:108EE00016461F463FA207CA059204910390E11758
:108EF000090F091909117D22D20051430094E2178C
:108F0000120F121912111201A21A64235A4389185E
:108F1000EA17120F521912110A235A4389182846C8
:108F2000EA17120F121812111201AA1A89180295C3
:108F300001940891F217120F921912115A433046F8
:108F4000F3171B0F1B181B111B01F31AD218D2B2F7
:108F50000792FA17120FD21912110A235A433846F0
:108F6000FB171B0F1B181B111B01FB1AD218D2B2C7
:108F700006920798022819D108988007800F0028C8
:108F800005D164210898FBF7B1FD002906D1FF2126
:108F900091310898FBF7AAFD002906D16846407B6D
:108FA000401CC1B26846417300E000BF07980C281E
:108FB00002DD002009B0F0BD06981F2801DD002069
:108FC000F8E70798012809DB0798401E03A9095C08
:108FD0000698814202DB0698012801DA0020E9E7C1
:108FE0000120E7E71F1C1F1E1F1E1F1F1E1F1E1F25
:108FF00010B50A2000F0A2FE00BF0748C06980B289
:10900000012189020840002801D1012010BD1E2045
:1090100000F094FE0020F9E7800C004010B503F04A
:1090200027FE0A480068C38800221846114609F046
:10903000A9FC002803D0012003F026FE04E0002054
:1090400003F022FE02F0AEF810BD00007800002010
:10905000F0B5034618110A2778431F073F0FC019C0
:10906000C4B208110A2778430F073F0FC019C5B2D1
:1090700010110A27784317073F0FC019C6B2002CFA
:1090800002D011DD182C0FDA002D02D00ADD3C2DA4
:1090900008DA002E02D003DD3C2E01DA0120F0BDFB
:1090A0000020FCE70020FAE70020F8E710B50024D4
:1090B00000BF05E00020A100044A5050601CC4B26B
:1090C000082CF7DB03F016FD10BD000098320020DD
:1090D00010B504484188FD38FBF7C0FC0021014869
:1090E000418010BD8C300020024610464843400AA3
:1090F000704710B507F082FC10BD000010B50024C9
:1091000046E06001244940184078002800D13EE044
:10911000600121494018C368816860011E4A8018B7
:1091200002694069891A83410CD260011A494018CA
:109130008268C0680021521C48416101164BC91861
:109140008A60C860600114494018C3688268600181
:10915000411808694969101A8B4104D30120610143
:109160000D4A505403E0002061010B4A5054600145
:109170000949085C012809D160014018806900286C
:1091800004D06101044A89188869804700BF641CC3
:10919000022CB6DB10BD00007801002000207047D3
:1091A000F8B53D49086A3D490AF0F2FD05D33A4851
:1091B000016A3B480AF0ECFD00D2F8BD002500260C
:1091C0000027002463E03449086AFCF7D1FB0090D3
:1091D000344800682A30427B324800682030817A67
:1091E000009808F099FB05462E4909682A314A7B08
:1091F0002C4909682031897AA3000091294909681E
:109200002A31C85C009908F087FB064625480068AB
:109210002A30427B234800682030817AA30021480D
:1092200000682A3018184078009008F075FB07464F
:109230001D4928460AF082FD00D1BEE72946304686
:109240000AF0A6FD21D2394628460AF0A1FD1CD815
:10925000A100144800682A30081840880E49088187
:1092600008460089114988420ED0114800680090D4
:109270000948008969464880009807F04BF80020AB
:10928000C0430549088100BF03E0601CC4B2042C40
:1092900099DB00BF00BF90E79C0200200000A040C7
:1092A0000000964278000020000080BFFFFF000011
:1092B000745901007D21C900884203DD0021C943A2
:1092C000024A118101490881704700009C02002078
:1092D00008B503F063F903F0A5FF002000900448EF
:1092E000FF22E1320023016C1846884708BD0000C8
:1092F000280100207FB5089D1348281800280BD0AE
:109300001249401800280DD0FF38113800280AD023
:109310004018002813D10CE068460FC807F0CEF8BB
:1093200004460CE00BE068460FC8FFF737FF044621
:1093300005E068460FC805F062F8044600BF00BFAC
:10934000204604B070BD0000E16F7FFFF0FEFEFF1D
:109350000FB41FB56846C07EFF282DD006A800793F
:10936000FF2829D106A84079FF2825D106A88079B1
:10937000FF2821D12648006840786946C97E884286
:109380001AD023480068817806A80079814213D159
:109390001F480068C17806A8407981420CD11C485A
:1093A0000068017906A88079814205D1002004B0C7
:1093B00010BC08BC04B018476846807E002804D062
:1093C00001280ED002281DD110E00123072207A991
:1093D0000331684604F080F868460FC803F0C0FB0C
:1093E00012E06946088BFFF765FF0DE001230722B5
:1093F00009A90231684604F06FF868460FC805F005
:109400003DFA01E00020D2E700BF0120CFE70000D5
:1094100078000020FFB585B00F9E0E9D00200290C1
:109420001098002809D00698082801DA09B0F0BD84
:1094300001960095082002900AE00698042800DAB8
:10944000F4E728463146FBF701FC00900420029027
:1094500000240AE0E200009F019803903846039937
:10946000FAF76BFF05990855641C02988442F1DBFA
:109470000299059809F082FC00BFD7E770B5054650
:109480000E460448281AC4B221463246284600F047
:1094900051F970BDD0010020F8B507465820009062
:1094A000164E002000F02CF831460978884201D190
:1094B000002F17D0012409E0315DE0B200F09EF8E2
:1094C0000546002D01D02846F8BD641C0098844252
:1094D000F2DB3178002000F091F80546002D0BD02A
:1094E0002846F1E7012404E0E0B200F009F8305525
:1094F000641C00988442F7DB0020E5E7D0010020DF
:1095000038B505460020009017490870002406E091
:10951000284600F02BF869460855601CC4B2022C9E
:10952000F6DB684601784078814202D168460078CF
:1095300038BD284600F01AF86946887068460178F8
:109540008078814202D168460078F1E76846417828
:109550008078814202D168464078E9E701200249DB
:1095600008705520E4E700002802002070B504468A
:10957000A02502F027FF284602F094FE02F0E2FD4B
:10958000002806D102F068FF012000F0D7FB55202B
:1095900070BD012000F0DEFB204602F083FE02F0E9
:1095A000D1FD002806D102F057FF012000F0C6FBD4
:1095B0005520EDE7012000F0CDFB02F003FFA125CF
:1095C000284602F06FFE02F0BDFD002806D102F031
:1095D00043FF012000F0B2FB5520D9E7012000F045
:1095E000B9FB02F029FE064602F090FE02F034FFBD
:1095F000012000F0A3FB3046CAE7000070B5064624
:109600000C4600200C49087000250DE0214630462C
:1096100000F014F83046FFF773FFA04202D106486D
:10962000007870BD681CC5B2032DEFDB0120024934
:10963000087008460078F4E72802002070B5054657
:109640000C46A02602F0BEFE304602F02BFE02F0D1
:1096500079FD002806D102F0FFFE012000F06EFB2C
:10966000552070BD284602F01DFE02F06BFD00285B
:1096700006D102F0F1FE012000F060FB5520F0E77A
:10968000204602F00FFE02F05DFD002806D102F038
:10969000E3FE012000F052FB5520E2E702F0DCFE81
:1096A000012000F04BFB0020DBE7F8B505460E4635
:1096B0001746002405E03119C8B2FFF721FF2855ED
:1096C000641CBC42F7DB0020F8BD000000B585B08B
:1096D00014216846FBF7C4F9012000030090002024
:1096E000019001200290002003906946024800F09A
:1096F000FDFD05B000BD0000000C004000B585B0C8
:1097000014216846FBF7ACF901200003009001200A
:1097100001900290002003906946054800F0E6FDA4
:1097200001210903024800F04AFF05B000BD000016
:10973000000C0040F7B506460F4600240AE0315DF4
:109740003A19D0B2FFF75AFF0546002D01D028463E
:10975000FEBD641C02988442F1DB0020F8E7012181
:109760000160704710B50146012200BF486800281B
:1097700015D013064868984211D05306486898429D
:109780000DD003231B064868984208D0930648680A
:10979000984204D005231B064868984201D1012055
:1097A00000E00020002801D100BFFEE700BF00BF9D
:1097B000086800280DD001231B040868984208D0CF
:1097C0005B000868984204D003231B040868984291
:1097D00001D1012000E00020002801D100BFFEE7F8
:1097E00000BFFF200130134BDB6A0343114CE362DF
:1097F00000BF00030F4B40331B6B03430D4C403441
:10980000236300BF486823461B6B07242406A34339
:109810000343084C4034236300BF086823461B6B96
:1098200003242404A3430343024C4034236300BFB6
:10983000104610BD0002004081684908490081605F
:10984000704742690B031B0B9A4342617047816862
:1098500001221143816070478168022211438160B7
:10986000704742690B031B0B1A43426170470000AB
:1098700070B502460124002300BFDA48824201D1BC
:10988000012000E00020002801D100BFFEE700BF5A
:1098900000BF0868002804D001256D020868A842AE
:1098A00001D1012000E00020002801D100BFFEE727
:1098B00000BF00BF4868002804D00125ED024868B9
:1098C000A84201D1012000E00020002801D100BF02
:1098D000FEE700BF00BFC868002802D0C86804289F
:1098E00001D1012000E00020002801D100BFFEE7E7
:1098F00000BF00BF086900280DD001252D030869AD
:10990000A84208D06D000869A84204D003252D03A1
:109910000869A84201D1012000E00020002801D1FF
:1099200000BFFEE700BF00BF2020405C002803D03E
:109930002020405C012801D1012000E00020002807
:1099400001D100BFFEE700BF00BF486A002821D058
:1099500001256D04486AA8421CD06D00486AA842DF
:1099600018D003256D04486AA84213D00125ED04E0
:10997000486AA8420ED005256D04486AA84209D05D
:109980000325AD04486AA84204D007256D04486A3F
:10999000A84201D1012000E00020002801D100BF31
:1099A000FEE700BF00BF886A002826D001252D05EC
:1099B000886AA84221D06D00886AA8421DD003257C
:1099C0002D05886AA84218D00125AD05886AA842ED
:1099D00013D005252D05886AA8420ED003256D05F4
:1099E000886AA84209D007252D05886AA84204D0B4
:1099F0000125ED05886AA84201D1012000E0002080
:109A0000002801D100BFFEE700BF4020764DAD6ABF
:109A10000543754EB56200BF00BF74480068B515B8
:109A20002843724D286000BF00BF70481838006896
:109A3000C007C00F01256840684000280FD100BF53
:109A400001206A4D183D686000BF00BF28460068CD
:109A500001252843654D183D286000BF00BF00BFA9
:109A600062481838006802252843604D183D286078
:109A700000BF05E07D208002834200D30BE05B1C29
:109A800000BF5A4818384068C007C00F0125684019
:109A900068400028EED000BF00BF9068400840003A
:109AA000906000BF00BF9068C007C00F01256840EC
:109AB000684000287ED10868D56801267602B54343
:109AC0000543D56000BF4868D568B600B543054377
:109AD000D56000BF087A002806D000BFD068751096
