:020000040000FA
:10000000904100201902000021020000230200009C
:1000100000000000000000000000000000000000E0
:100020000000000000000000000000003156000049
:1000300000000000000000009F010000656100005A
:100040002B0200002B020000495400002B0200008C
:10005000494A00002B0200002B0200002B02000086
:100060002B0200002B0200002B0200002B020000DC
:100070002B0200002B0200002B0200002B020000CC
:10008000194C00002B0200002B0200002B02000084
:10009000114B00002B0200002B0200002B0200007D
:1000A0007D2100002B0200002B0200002B0200002B
:1000B0002B0200002B020000BD4100004D4B000050
:1000C00000F002F800F041F80CA030C808382418FD
:1000D0002D18A246671EAB4654465D46AC4201D180
:1000E00000F033F87E460F3E0FCCB6460126334271
:1000F00000D0FB1AA246AB463343184798A4000031
:10010000B8A400000023002400250026103A01D3E3
:1001100078C1FBD8520700D330C100D50B607047BF
:1001200010B5782902D100F079F910BD002010BD7A
:100130001FB501F035FB04000020002108F032FE5D
:10014000401C60601FBD10B510BD01F02FFD1146B1
:10015000FFF7EEFF07F0BEF901F050FD03B4FFF723
:10016000F2FF03BC01F0C6FD084B19680868203097
:1001700080F30988022080F31488BFF36F8F3FBC9F
:10018000AE4608BC04BC62B6184700001C00002044
:10019000EFF3108072B6704780F310887047EFF36A
:1001A00009800E4B1A6820381060F0C044464D4656
:1001B00056465F46F0C008B572B608F05BF962B605
:1001C0000CBC116808681030F0C8A046A946B246B9
:1001D000BB4680F309882038F0C818471C0000206F
:1001E00070B505460C46164602E00FCC0FC5103E12
:1001F000102EFAD2082E02D303CC03C5083E042EDB
:1002000007D301CC01C5361F03E021782970641C97
:100210006D1C761EF9D270BD07488047074800471D
:10022000FEE7FEE7FEE7FEE7FEE7FEE704480549D6
:10023000054A064B7047000019630000C10000002A
:100240009028002090410020902900209029002033
:1002500010B5202A04DB0846203AD040002110BD0A
:100260000B462024D340D040A21A9140084319469F
:1002700010BD4343514330B55C18010C130C0D46BF
:1002800092B25D4380B251432C19054655430A0C86
:1002900009044D1962415843010C000440195141B1
:1002A00030BDFEB5054610460C46184373D0AE4629
:1002B0008C460020AD1A01469C4167D36646002754
:1002C00001243D46B61A9D4102D313463A462124E5
:1002D000654676462F04360C3E432D0CB61A9D41DA
:1002E00004D3150C1B042B431204103465467646C8
:1002F0002F06360A3E432D0AB61A9D4104D3150E29
:100300001B022B4312020834654676462F07360936
:100310003E432D09B61A9D4104D3150F1B012B43F3
:100320001201241D65467646AF07B6083E43AD0868
:10033000B61A9D4104D3950F9B002B439200A41C39
:1003400065467646EF0776083E436D08B61A9D412E
:100350001AD392185B41641C16E000187646654675
:100360004941B71A9D410191009009D36046B11AE5
:1003700098418E468446009801990025401C6941A9
:10038000DD0752082A435B08641EE6D572466346C1
:1003900003B0F0BDFFE700200146C046C0462A4634
:1003A0002346F5E70FB41CB5074B06AA7B44694604
:1003B0000090059801F019F90020694601F028F92C
:1003C0001CBC08BC04B018476112000070B504469C
:1003D00085690068C10601D5302600E02026C007E7
:1003E00007D070BD62683046A1689047206A401C03
:1003F00020626D1EF6D570BD70B504468569007823
:10040000C00707D170BD6268A16820209047206AAC
:10041000401C20626D1EF6D570BD000070B504460C
:100420000D4621461068C046C0462188090502D500
:100430000F4A7A4402E00E4A7A440E3223460021E3
:10044000243305E006070009360F965D5E54491C0B
:100450000028F7D120780023000705D5702D03D0A0
:10046000002901D002231132204601F061F870BD4D
:10047000A2A00000F3B50446002081B0206220460F
:10048000E1688847002872D0252802D06268A168F8
:10049000ABE0594F00267F442046E168884720287A
:1004A000054608DB312D06D278192038007800285F
:1004B00001D00643F0E7B00701D5042086430020B1
:1004C000E0610746A0612A2D0AD0284606F00AFE00
:1004D000002827D0B8000019303D0090856119E050
:1004E0000298BA00121902C8916102902046E16890
:1004F0008847012F054617D1E06900281FDA202020
:1005000086431CE000980A218069484300994019FD
:10051000303888612046E1688847054606F0E2FDEC
:100520000028EFD1012F0AD02E2D08D12046E168F6
:1005300088470546202006437F1C022FC3DBA069A5
:10054000002803DA4042A06101200643F00701D0F1
:10055000102086436C2D0BD0682D09D04C2D3CD03B
:100560006A2D38D0742D38D07A2D36D016E040E080
:10057000E1682F4620468847B842054609D16C2FCE
:1005800029D001208002E1680643204688470546BD
:1005900004E06C2F1DD0FF2001300643002D28D031
:1005A00028464138192803D80120C00206432035C7
:1005B000204626602946029A1646FFF7B1FD00281C
:1005C00010D001280BD0F61DF008C00008300290B2
:1005D00055E74020E1E78020D5E70020D3E7361D2E
:1005E00002964CE762682846A1689047206A401C42
:1005F00044E7206AFEBD000066A000000FB400B50D
:100600008DB010A909900B900020C04300910A9072
:1006100000200C90074878440690074878446A46C2
:1006200007900F9909A801F00DF80DB008BC04B0AF
:10063000184700004F10000069100000FFB51D466C
:100640000027FF4383B05C68002001909E68A96981
:1006500004987F1C88470090296A88470028F6D1B3
:100660000098401C0CD0032040028443002E19DD6A
:10067000600614D500982B2809D02D280FD103E04F
:100680000020C04307B0F0BD012080020443A969E7
:1006900004987F1C8847761E002E009002DD00988B
:1006A000302803D00598002825D035E00120A9691D
:1006B00040020443761E04987F1C8847002E009059
:1006C00003DD782805D0582803D00598002810D0DD
:1006D00022E00598002801D010281DD10120A96929
:1006E00040028443761E04987F1C884700901020A7
:1006F00002E0082000E00A2005900DE00121059AA3
:1007000049020C430199761E514308180190A969CA
:1007100004987F1C88470090002E05DD05990098FD
:1007200000F07BFF0028E9DAE96904988847A00512
:1007300002D40120C043A5E7E00722D1600611D50D
:100740006005019800D5404229680A1D2A600968A1
:10075000220501D5087014E0220701D5088010E0B9
:1007600008600EE02868011D29600068210502D597
:100770000199017005E02107019901D5018000E090
:10078000016038467EE7000030B5441C03E0017884
:10079000401C00290DD08107F9D10B4BDD0104C8A5
:1007A000D11A91432940FAD0001B0A0603D0C01E7B
:1007B00030BD001B30BD0A0401D0801E30BD0902CF
:1007C000FCD0401E30BD000001010101F8B5042A33
:1007D0002CD3830712D00B78491C0370401C521E87
:1007E00083070BD00B78491C0370401C521E8307F3
:1007F00004D00B78491C0370401C521E8B079B0FC2
:1008000005D0C91ADF002023DE1B08C90AE0FFF764
:10081000E7FCF8BD1D4608C9FD401C46B4402C430A
:1008200010C0121F042AF5D2F308C91A521EF0D4C0
:100830000B78491C0370401C521EEAD40B78491CEB
:100840000370401C012AE4D409780170F8BD01E06E
:1008500004C0091F0429FBD28B0701D50280801C2C
:10086000C90700D00270704700290BD0C30702D01F
:100870000270401C491E022904D3830702D502805E
:10088000801C891EE3E70022EEE70022DFE700225A
:1008900003098B422CD3030A8B4211D300239C46BD
:1008A0004EE003460B433CD4002243088B4231D335
:1008B00003098B421CD3030A8B4201D394463FE0C9
:1008C000C3098B4201D3CB01C01A524183098B4229
:1008D00001D38B01C01A524143098B4201D34B0112
:1008E000C01A524103098B4201D30B01C01A524175
:1008F000C3088B4201D3CB00C01A524183088B42FC
:1009000001D38B00C01A524143088B4201D34B00E4
:10091000C01A5241411A00D2014652411046704756
:100920005DE0CA0F00D04942031000D3404253405B
:1009300000229C4603098B422DD3030A8B4212D31B
:10094000FC22890112BA030A8B420CD3890192114D
:100950008B4208D3890192118B4204D389013AD08A
:10096000921100E08909C3098B4201D3CB01C01A5F
:10097000524183098B4201D38B01C01A5241430972
:100980008B4201D34B01C01A524103098B4201D360
:100990000B01C01A5241C3088B4201D3CB00C01ACD
:1009A000524183088B4201D38B00C01A5241D9D2E5
:1009B00043088B4201D34B00C01A5241411A00D266
:1009C0000146634652415B10104601D34042002B62
:1009D00000D54942704763465B1000D3404201B5E1
:1009E0000020C046C04602BD7047704770470000F7
:1009F0000246C80FC00781434B0030B54B405B0037
:100A00009B0D20D01923DB06C91801231B05994231
:100A100020DB0324A40704251346AB400BD3002B93
:100A200004D1EB0613409B00E34204D40124640785
:100A3000002312195941FF231B0599420BD2C9000B
:100A40000143500F09E0CB0204D5014308030243E0
:100A500005D0054830BDFF21C905084330BD084613
:100A600007210905884330BD0000C07FF0B50C4662
:100A7000871A9C410D46861A9D4103D2C01BA14195
:100A8000D21963410D0D1F0DC94EEC1BAE435CD056
:100A90007F057F0D0026002F51D02D05AC46A943C0
:100AA000DD020123ED0A1B051D4320231B1B24D45B
:100AB0001746E740381871412F46E740CC199D4052
:100AC0002818314661410C0D27D161449A4013D555
:100AD0000023401C594152000ED140084000012221
:100AE0004B005205D34207D305204007C14201D530
:100AF000B04900E0B0493046F0BD6B00002A00D09C
:100B000001229A181F23203C1B1B01D5002302E061
:100B1000E540281871410C0DD7D00124240509198E
:100B2000C407CD0740084908E40F28436144002C5E
:100B3000D5D00024401C61419A40D0D1CDE76A0550
:100B4000520DD9D1C90FC907D5E79C4D4E000028D9
:100B500001D0012400E0002434195F00002A01D0F4
:100B6000012600E00026BE19954FAC420CD8AE42DB
:100B70000AD8B44206D001256D05EC42BCD010461F
:100B80001946F0BD9942FCD000203946F0BDF0B5C1
:100B90001FB40C460F46811A9F412546861A9D4177
:100BA00006D20125ED076F40401ABC4152187B4127
:100BB000210D1E0D8D1BAC467D4D8D437ED07505E0
:100BC0006D0D7CD00D05AE46AC431B031B0B794D60
:100BD00052429D41202366469B1B14D31746F74083
:100BE000381800260090744160462F460741E419EA
:100BF00000989D402818664116D4714671189A4095
:100C000025D5012320E093182A466A415200002B83
:100C100000D0521C1E23203E9B1B002B61DD354162
:100C2000EE1728186641E8D5001876415B1C9A40FB
:100C300000D3401C4B05F3181524E34010D3002BC0
:100C400052D071467118D30FC01802D3491C05B099
:100C5000F0BD0123DB079A42F9D140084000F6E7D6
:100C600001225205B21801D1002853D00123CC0A29
:100C7000DB029943891E002A08D1020C03D0020C22
:100C80000004103902E00246002020390023550BF1
:100C900005D112020823550B01D152010D23550C29
:100CA00001D112011B1DD50C01D192009B1C150D09
:100CB00001D152005B1C2025EE1A01E02CE022E05D
:100CC0000546F54015439840CA1AE107691813050F
:100CD000C918002ABBDA032040070818C10FC9074A
:100CE0000FE071466118B2E7F10740080843711040
:100CF00071444A000CD001235B059A42A7D2C90F68
:100D0000C9070020A3E74905490D26D1002001E0CD
:100D10000028F4D100219AE7284D6600002801D070
:100D2000012100E0002171185F00002A01D0012696
:100D300000E00026BE19224FA94210D8AE420ED8BC
:100D4000B14208D001256D05E94206D01946A80236
:100D5000414010467BE79C4201D0214677E70020C6
:100D6000394674E710B50C465C4005D50124E4070C
:100D70006340FFF70CFF10BDFFF778FE10BD30B4E5
:100D80000C465C4004D50124E407634030BC6DE6AA
:100D900030BCFCE670B50124E40761400D465D40BF
:100DA00002D4FFF763FE70BD6340FFF7F0FE70BD35
:100DB000FF0700000000F0FF0000F07F0000E0FFF0
:100DC0000000F87FF0B5F94D0C091E092C402E40AB
:100DD0002F468BB0A7437DD0B543FCD0002E7AD0F0
:100DE000002CFCD00D465D40ED0F2543AC1BFF25CC
:100DF000AD0464190894C502440DC9022143500D85
:100E0000DC0204430120C00701430443D2020191E4
:100E1000200C110C00958C46010423468B430A914B
:100E200061460904E24D8A430991010A7D4449194A
:100E30008039097805464D4301266D18F605751B66
:100E40006943C90C640B891C4C436418B5012C1B05
:100E5000250C2E04B4434C434D43210C69188909D9
:100E60000591009DE90701D00121C90704912C4695
:100E700001996708CD072F434C08059DE10B4D43B1
:100E80002D0C29466646754302950D4645432E4670
:100E9000029D7D1BB44100950D465D4301942C0CD1
:100EA0002F040D465543AE462D0C3D430295039449
:100EB0007546049C2D04641B049406D2029C039D79
:100EC000641C002675410395029401AC70CC009F10
:100ED0007D1B01E03EE162E1B44109040095079108
:100EE00001940599A4086143090C0C464443650B21
:100EF000E7040C4666467443A646640B3C430395E0
:100F000002947446049DE4042C1B049406D2029CB3
:100F1000039D641C002675410395029401AC70CCBE
:100F2000009F7D1BB44101940C465C430095650F06
:100F3000E7000C465443A646640F3C4303950294D5
:100F40007446049DE4002C1B049406D2029C039D6D
:100F5000641C002675410395029401AC70CC009F7F
:100F60007D1BB441AE09AF06049DC900AD092F43F6
:100F7000049DA406AD060495079D344369180791A6
:100F8000059DE10B4D432D0C2946664675430295A0
:100F90000D4645432E46029D7D1BB44100950D46EE
:100FA0005D4301942C0C2F040D465543AE462D0C89
:100FB0003D43029503947546049C2D04641B0494E0
:100FC00006D2029C039D641C002675410395029481
:100FD00001AC70CC009F7D1BB44101948C0506943C
:100FE000079C890A611800950791019C0599A4083E
:100FF0006143090C0D464543680BEF040D466446FA
:1010000065436C0B3C43049FED047D1BAC4602D250
:101010000025641C6841009E019D371B85410846E0
:10102000584301950C46460FC5005443600F2843B2
:101030006546E4002C1B02D20025401C6E41019D38
:101040003F1AB5412846BD09800628438446A009B9
:10105000BF064E020699A40676180743079D002096
:1010600068410A99079019430020099B0090604647
:10107000FF1913434041E20F64003A43A44604467B
:10108000D71A8C41A04203D90120009020463A464D
:10109000C70F941840416246D20F22436446640051
:1010A0000494009CBE466400D71AA44604460297E6
:1010B0008C417746002F01D1A04204D96046401CE4
:1010C0008446029A2046C40FA64694184041049ACA
:1010D0000546D20F224364466400D31A8D417146FF
:1010E000002901D1A84202D928461A46641C10439F
:1010F0000122002800D0164361020020079B8919B5
:1011000004465C410223002C02DB4918134664416B
:10111000089DCE0A2D145D194B056705E10A2C05C3
:101120000D1908993E43C9076940002B08D0934028
:1011300006D30022761C5141002B01D1760876009F
:101140001C4A002D43DB154241D0AA433FD0304614
:101150000BB0F0BD06180D464D41174C7642AC4120
:101160001AD395181C465C41134A6D42A24113D311
:10117000012252054C00D4420AD15C00D4420BD06B
:101180004B4002D592021143E2E749004908DFE7EC
:101190005940C90FC90718E000200849D8E7054899
:1011A00001420DD10342F7D0F2E700000000FF0733
:1011B000E19600000000F07F0000E0FF0000F87FF3
:1011C000114859400143C01241400020C0E70123AB
:1011D000089A9B069A4205DC032252078918C90F18
:1011E000C907B5E7052252078918074A1143D212E9
:1011F0005140ADE770B515461C4602460B462846E1
:101200002146FFF7DFFD70BDFFFFFF7F1F22030CAC
:1012100002D10F22000402D0030E03D004E000200C
:10122000014670470002083A030F01D10001121F66
:10123000830F01D18000921E002801DB4000521E66
:10124000120551184205C012411810467047C10FCF
:10125000C90700D04042012292071143D6E701217D
:101260008907D3E7F0B58B4C0F09254689B0BD43FC
:101270007BD01D092646AE43FAD00E465E4027407D
:10128000F60F3E43254071D024012142FBD0FF24BC
:10129000AD19A4042D1B039501252D05DB02DB0AE6
:1012A000C9022B43C90A29431E010901040F130F68
:1012B000050121431701880B820391432D098C46B8
:1012C000A90B1E438A039543B30B9A0396433F0928
:1012D000BA0B9403A74302962E467E430497B64664
:1012E0004E19D7190C460196544305977E43371B78
:1012F0007646BF1B3601B646BE0B361900967646BB
:10130000BC043719009C01D3641C00946400002FB6
:1013100001D001263443029E049F754366467E43F6
:101320000496760034196E0034190094029C019ED4
:101330001C196643751BAE46069465464519059C07
:1013400005956C43594375460891691A0191049EAD
:1013500001465143A41B0491611A009C0791E106C8
:1013600005D061090122114302E072E06EE06109DB
:10137000089D00272C0A2D066918049D7C412A0A25
:101380002D066918019D6241AC0DAD026D185441E6
:10139000079A910D920255196141029A6446584389
:1013A0005443069B059A5A43121A131B9A0E9B012B
:1013B0005B187A41010B0005C3185141220A20062F
:1013C00044195A419A4200D2491C012040028142EC
:1013D00003D315230226F64302E014230326F64323
:1013E0002020C51AA9401746AF40DA400A432046DC
:1013F0000399D8400914731819055118039A3843F2
:10140000D2075140AC4009D00122944006D30022BB
:10141000401C5141002C01D1400840001E4A93421B
:1014200012D3012203989206904207DB0520400761
:1014300009181A480143C012414004E00320400744
:101440000818C10FC907002009B0F0BD0020F1073E
:10145000FAE705180C464C4111486D42A04115D3DE
:1014600094181A465A410E48644290410ED3012006
:101470004A004005824209D35A00824206D35940AD
:10148000C90F084AC90700201143DDE700200649BB
:10149000DAE700000000FF07FE070000FFFFFF7F04
:1014A0000000E0FF0000F07F0000F87F0121C90587
:1014B0000123411842001B06D3185B0E0AD0C1104D
:1014C0000722D206891840075242D14201D5520064
:1014D00089187047090208D50146002A03D0C10FB8
:1014E000C9070020704710467047420202D0002012
:1014F00002497047072109050143F4E70000F87F1E
:101500000102C21504D00123DB071943002A0ADBBC
:101510009E239A1A02D40846D0407047FF22410009
:101520001206914201D900207047C017C04370478E
:10153000FFB504460D4681B024300090216888062E
:1015400004D51022E0699143216000E00120A84207
:1015500001DD471B00E000270498A1697A191018E3
:10156000081AA0612078C00602D42046FEF72EFF9C
:10157000002608E003986268A168805D9047206AB1
:10158000401C761C206204988642F3DB2078C0065B
:101590000AD52046FEF71AFF06E06268A1683020EF
:1015A0009047206A401C206238467F1E0028F4DCE9
:1015B00007E000986268A168405D9047206A401C7F
:1015C000206228466D1E0028F3DC2046FEF714FF3B
:1015D0002078000602D5022005B0F0BD0120FBE70F
:1015E00001694A1C02610878704700B58FB002910A
:1015F0000021059105490193794403911146049016
:101600006846FEF737FF0FB000BD0000E5FFFFFFA3
:101610000A681070521C0A6070473A2800D23038AD
:10162000202302469A43412A01D310463738884284
:1016300001D30020C043704702685118137801603D
:101640001846704710B5D160054979445161054984
:101650007944116200211161114600F0AFF810BD0C
:10166000EBFFFFFF550100004268002A08D0016827
:101670000B78491C002B03D0521E06C01846704739
:101680000121C160881E70474268002A0BD0C368E0
:101690000168002B07D183688B4204D0491E521C7D
:1016A00006C0002070470020C0437047F8B5224CA8
:1016B0004E00069DA6420AD8A64201D1002806D1B6
:1016C0005E00A64203D8A6420AD1002A08D00D2403
:1016D000240425422CD02946002000F039FAF8BD18
:1016E0000C461C430CD4994202D0EFF30080F8BDA5
:1016F000904202D0EFF30080F8BDEFF30080F8BD18
:1017000009242407E5008B4206D0EFF30080A043B4
:10171000591A06D2284304E0101A05D3EFF30080CB
:10172000A04380F30088F8BDEFF30080A043F1E709
:10173000009500F025FAF8BD0000E0FF10B5FF238A
:101740001B0644009C421DD84C009C421AD80346FC
:10175000124A0B4307D4401A02D3EFF3008010BDA6
:10176000EFF3008010BD081A06D2EFF300800121CC
:101770009043C907084302E0EFF30080904380F3F1
:10178000008810BD0D231B041A4204D0114600200E
:1017900000F0DEF910BD00F0FDF910BD0000009072
:1017A000004870475028002010B5044600F01EFA8B
:1017B0000068005DC007C00F10BD0000F3B50C4607
:1017C0008FB000200C90012000260E9008460C30AF
:1017D00003906269039801219047051E2ED0252DA4
:1017E0002DD0216A8847002818D06269039801210A
:1017F0009047216A88470028F7D16269411E039803
:10180000904700E0761CA1690F988847216A8847B5
:101810000028F7D1E1690F988847DAE7A1690F98A6
:101820008847A842074601D1761CD2E7E1690F98A4
:1018300088477F1C02D10C98002877D075E1626937
:10184000039800273D46394690472A280CD1626903
:10185000039801219047012506E00A214F433F18D4
:10186000303FEBD410200543626903980121904773
:10187000014630390A2903D2B1498F42DEDCECE758
:10188000E90600D4AF4F6C280AD04C2810D0682845
:1018900024D06A282ED074280CD07A280AD00DE0E3
:1018A00062690398012190476C2823D004211CE031
:1018B000202005436269039801219047A7606528AD
:1018C00065604FD026DC582839D01ADC452849D02D
:1018D00012DC252834D04128B0D143E06269039856
:1018E00001219047682802D008210D43E6E7012036
:1018F000C002DEE70220DCE7462833D047289DD12E
:1019000030E05B2870D061282CD063286CD064282C
:1019100094D161E06F284FD009DC662822D0672877
:1019200020D0692826D06E2888D12EE0F9E07028D2
:101930004DD073286FD075284ED078280DD154E043
:10194000A1690F9888472528054600D16CE7E16911
:101950000F9888476D1C00D16DE7E6E00A224CE045
:101960000A2252E0012023466A460F99C043C0462E
:10197000C046CFE040212846234608436060A807C0
:1019800001D5002239E000223FE0E80700D020E73F
:101990002068011D21600068290501D5067018E73F
:1019A000290701D5068014E7A90703D5F1170660BA
:1019B00041600EE706600CE74021284623460843B5
:1019C0006060A80701D5082217E008221DE05E49E3
:1019D00028460840606016E0402128462346084318
:1019E0006060A807BCD5B9E715E040212846084348
:1019F0006060A80707D52346102201200F99C04335
:101A0000C046C04686E01022234601200F99C043FD
:101A1000FEF714FE7EE0002163280B460191009141
:101A200002910D9102D05B2808D03CE02079C006DD
:101A300001D40120A0600120009034E0E068012181
:101A40000D906269039890475E2807D101200190AC
:101A5000E06801210D90626903989047216900298F
:101A600006D10B4604AA8F00491C0829D351FADB82
:101A700000285AD02169002927D00298401C0290E2
:101A800062690398012190475D28F1D101980028EF
:101A900008D0002004AB8100401C5A58D2430828CB
:101AA0005A50F8DB04AB2069002820791DD040078C
:101AB00026D5029A00980D9B0092224602900120A2
:101AC0000F99C043C046C04624E0C117C90E09188B
:101AD0004A114909930004AA9A184901411A136846
:101AE0000120884003431360CAE740072246174895
:101AF0000F9902D5C046C0460CE0C046C04609E07A
:101B00000298224600990D9B009002910F480F9970
:101B1000C046C04600280ADA401C06D10E980028AC
:101B200003D00020C04311B0F0BD0C98FBE7E907DB
:101B300002D10C99491C0C91361800200E9048E6F1
:101B4000CCCCCC0CFFFFFF7FF1F7FFFFFEFFFFFFC8
:101B5000C80212D54803400F002804D0C803C04370
:101B6000012188407047EFF3008000010009032144
:101B70000907084380F30088704700207047000081
:101B800010B500200249029A00F084F810BD000050
:101B90000000F87F10B5024800F07CF810BD00008E
:101BA0000000C07F00487047302800207546FFF7CE
:101BB000F9FFAE46050069465346C008C000854699
:101BC00018B020B5FEF732FB60BC00274908B646C6
:101BD0000026C0C5C0C5C0C5C0C5C0C5C0C5C0C53C
:101BE000C0C5403D49008D467047000010B5FFF765
:101BF000D7FD001D10BD00BFAD71000010B504463B
:101C0000C046C0462046FEF7A9FA10BD024670B590
:101C10000A4392072AD11E4DEE0104C808C9541B7D
:101C20009443344017D0D0B2D9B2401A21060143B0
:101C300010D190B299B2401A210401430AD1100286
:101C40001902000A090A401A2102014302D1100EAA
:101C5000190E401A70BD9A42DFD010BA19BA8842E4
:101C600001D9012070BD0020C04370BD02780B78FF
:101C7000401C491C002A09D09A4207D102780B78EF
:101C8000401C491C002A01D09A42EFD0D01A70BDE6
:101C90000101010110B50C461107090F092904D0F3
:101CA0000A290AD008290CD104E011460820FFF7C0
:101CB0004FFF06E0510606D501E0510601D501208F
:101CC000C007214610BDD10607D501010909CC087E
:101CD0004907000E0006044309E0410F20024907AE
:101CE000000A0143200E00061D22D141014308468F
:101CF000E7E7000001491820ABBEFEE7260002001E
:101D0000704730B58C180278401C13071B0F01D1A7
:101D10000378401C120906D10278401C03E00578C4
:101D2000401C0D70491C5B1EF9D101E00B70491C71
:101D3000521EFBD1A142E6D3002030BD10B51148A0
:101D40001149086019200968486110210E4800688F
:101D5000816101210C480068C16106210A480068C0
:101D600041623021084800688162592106480068B4
:101D7000C16201221146054805F0F9FA02490968D5
:101D8000086210BD9C010020780000202020000087
:101D9000FFB58DB016ACD0CC2546641C641C701EFB
:101DA0004000E249401841782046641C0D9A1154C5
:101DB000701E4000DD49095C2046641C0D9A1154D8
:101DC0002046641C0D990F5400200A900B9033009C
:101DD00005F06EF9311A1A1B1C1D1E1F202122232B
:101DE0002425262728373839696A6B6C6D6E6F7029
:101DF0007172808E94C3C9CACBCCCDCECFFEFDFC10
:101E0000FBFAF9F8F7F61A0082E181E180E17FE15F
:101E10007EE17DE17CE17BE17AE179E178E177E1E6
:101E200076E175E1C24800880004010E2046641C7A
:101E30000D9A1154BE4801782046641C0D9A115425
:101E400066E165E164E120212046641C0D9A11548D
:101E5000B848006801782046641C0D9A1154B548B2
:101E6000006801792046641C0D9A1154B14800683D
:101E7000017A2046641C0D9A1154AE480068017C1A
:101E80002046641C0D9A1154AA480068017D204622
:101E9000641C0D9A1154A7480068017E2046641CFA
:101EA0000D9A115434E133E132E131E130E12FE1B7
:101EB0002EE12DE12CE12BE19F48408800122146C4
:101EC000641C0D9A50549C4881782046641C0D9ADD
:101ED00011541DE19848808800122146641C0D9A17
:101EE0005054954801792046641C0D9A11540FE115
:101EF0000B212046641C0D9A115409E18F4800689B
:101F0000FFF7D4FA01230822059104900AA906A834
:101F100003F048FA0020029005990498019100907E
:101F200006A80FC800F07CFB08A8017A2046641CB4
:101F30000D9A115408A8417A2046641C0D9A115438
:101F400008A8817A2046641C0D9A115408A8C17A09
:101F50002046641C0D9A1154DAE001212046641CCD
:101F60000D9A1154D4E0D3E0D2E0D1E0D0E0CFE03C
:101F7000CEE000212046641C0D9A11542046641CBA
:101F80000D9A11546E480068C1782046641C0D9A61
:101F900011546B48006801792046641C0D9A115455
:101FA000FF212046641C0D9A11542046641C0D9A92
:101FB00011542046641C0D9A11542046641C08E0FC
:101FC00086E078E06FE068E045E03CE03AE00AE077
:101FD00002E00D9A11549BE0574801782046641C9A
:101FE0000D9A115494E055480068FFF75FFA0123F9
:101FF0000822059104900AA906A803F0D3F900204D
:102000000290059904980191009006A80FC800F06D
:1020100007FB08A8017A2046641C0D9A115408A8F1
:10202000417A2046641C0D9A115408A8817A2046F2
:10203000641C0D9A115408A8C17A2046641C0D9A9C
:10204000115465E064E03E48006841792046641C14
:102050000D9A11545CE03A4800688068000E2146F1
:10206000641C0D9A50543648006880680002010EC6
:102070002046641C0D9A1154314800680089000400
:10208000010E2046641C0D9A11542D480068017AF7
:102090002046641C0D9A11543AE000212046641C2D
:1020A0000D9A115434E026480068017B2046641CD8
:1020B0000D9A11542CE0204881792046641C0D9A19
:1020C0001154204801782046641C0D9A11541FE0D9
:1020D000012F0ED11C4800880004010E2046641C0C
:1020E0000D9A1154184801782046641C0D9A115419
:1020F0000DE0164800880004010E2046641C0D9A6D
:102100001154124801782046641C0D9A115400BFE6
:1021100000BF601B0004000E0D994855601BC1B242
:10212000681C0D9A1154204611B0F0BDD801002052
:102130003C02002054020020CC010020400200207C
:102140007800002050020020480200204C020020AD
:1021500010B502F033FF024800F032FE10BD00005F
:1021600000B4014000BF0448006840084000024934
:10217000086000BF7047000000B4014010B500BF08
:1021800008480069C007C00F0121484048400028A6
:1021900006D000BF01200349086100BF00F0B0F97C
:1021A00010BD000000B4014000B585B014216846A0
:1021B000FEF76BFB40200090002001900120029070
:1021C000002003906946044801F004F840210248C9
:1021D00001F04FF905B000BD000C004000B585B01E
:1021E00014216846FEF751FB402000900120019029
:1021F0000020029003906946044800F0EBFF402164
:10220000024801F0C2F805B000BD0000000C00401B
:102210001FB582B0089C0398042805DD002C03D16B
:102220000020014606B010BD0398082804DD002CEC
:1022300002D000200146F5E70399029805F0C5FF9A
:10224000002004E00299095C6A461154401C03997D
:102250008142F7DC002C02D001990098E2E7009857
:10226000FFF724F9DEE730B503460C46002021468F
:1022700004E05D5C2D18E8B24D1CE9B29142F8DB38
:1022800030BD000010B5114800681021415E1048B3
:10229000814209D100200D490968088202210B48BA
:1022A0000068103000F0F0F9084801681220085E5C
:1022B0000749884209D1002004490968488202215F
:1022C00002480068123000F0DFF910BD78000020ED
:1022D000FFFF0000F0B589B004460D4616461F46C4
:1022E0003FA207CA059204910390E117090F09194B
:1022F00009117D22D20051430094E217120F1219E6
:1023000012111201A21A64235A438918EA17120FF4
:10231000521912110A235A4389182846EA17120F34
:10232000121812111201AA1A891802950194089123
:10233000F217120F921912115A433046F3171B0F5E
:102340001B181B111B01F31AD218D2B20792FA17ED
:10235000120FD21912110A235A433846FB171B0FCA
:102360001B181B111B01FB1AD218D2B20692079838
:10237000022819D108988007800F002805D1642110
:102380000898FEF784FA002906D1FF2191310898B8
:10239000FEF77DFA002906D16846407B401CC1B299
:1023A0006846417300E000BF07980C2802DD00205A
:1023B00009B0F0BD06981F2801DD0020F8E7079856
:1023C000012809DB0798401E03A9095C0698814291
:1023D00002DB0698012801DA0020E9E70120E7E79F
:1023E0001F1C1F1E1F1E1F1F1E1F1E1FF0B5034692
:1023F00018110A2778431F073F0FC019C4B20811EC
:102400000A2778430F073F0FC019C5B210110A27DA
:10241000784317073F0FC019C6B2002C02D011DD58
:10242000182C0FDA002D02D00ADD3C2D08DA002E20
:1024300002D003DD3C2E01DA0120F0BD0020FCE7D4
:102440000020FAE70020F8E710B504484188FD387D
:10245000FEF719FA00210148418010BDA025002097
:1024600010B504484188FD38FEF70DFA00210148F7
:10247000418010BDA627002010B504F00BFD10BD53
:1024800010B5002436E060011C494018407800284F
:1024900000D12EE06001194940188368C1686001CD
:1024A000164A821810695269181A91410DD26001BA
:1024B000124940188368C06800215A1C48416101D4
:1024C0000E4BC9188A60C86003E0012061010B4A05
:1024D000505460010949085C012809D16001401885
:1024E0008069002804D06101044A891888698047FE
:1024F00000BF641C032CC6DB10BD00008800002058
:1025000010B5002436E060011C49401840780028CE
:1025100000D12EE06001194940188368C16860014C
:10252000164A821810695269181A91410DD2600139
:10253000124940188368C06800215A1C4841610153
:102540000E4BC9188A60C86003E0012061010B4A84
:10255000505460010949085C012809D16001401804
:102560008069002804D06101044A8918886980477D
:1025700000BF641C022CC6DB10BD0000F800002068
:102580000020704708B50C4802F0ACFB0B4802F085
:10259000A9FB02F0B5FE02F02FFEFFF7D9FDFFF711
:1025A000E1FD0020009006480F22D2010023016CBB
:1025B0001846884708BD000000040140008401401F
:1025C000480100207FB5089D1348281800280BD02B
:1025D0001249401800280DD0FF38113800280AD0C1
:1025E0004018002813D10CE068460FC804F012FB15
:1025F00004460CE00BE068460FC8FFF7C1FF044635
:1026000005E068460FC803F011F8044600BF00BF9C
:10261000204604B070BD0000E16F7FFFF0FEFEFFBA
:10262000FFB585B00F9E0E9D0020029010980028E7
:1026300009D00698082801DA09B0F0BD0196009586
:10264000082002900AE00698042800DAF4E72846F9
:102650003146FEF7CDF900900420029000240AE0F4
:10266000E200009F0198039038460399FDF7F0FDC2
:1026700005990855641C02988442F1DB029905987B
:1026800005F0A3FD00BFD7E770B505460E46044828
:10269000281AC4B221463246284600F02BF970BDF4
:1026A0009C010020F8B5074630200090164E00200F
:1026B00000F02CF831460978884201D1002F17D05C
:1026C000012409E0315DE0B200F08EF80546002DEE
:1026D00001D02846F8BD641C00988442F2DB3178B2
:1026E000002000F081F80546002D0BD02846F1E7C8
:1026F000012404E0E0B200F009F83055641C0098B1
:102700008442F7DB0020E5E79C01002038B5054650
:102710000020009017490870002406E0284600F0C9
:102720002BF869460855601CC4B2022CF6DB6846DB
:1027300001784078814202D16846007838BD284649
:1027400000F01AF8694688706846017880788142FE
:1027500002D168460078F1E7684641788078814286
:1027600002D168464078E9E7012002490870552007
:10277000E4E70000D401002070B50446A02502F073
:102780001DF9284602F0CAF802F076F8002801D1B7
:10279000552070BD012000F0BDFB204602F0BEF8C0
:1027A00002F06AF8002801D15520F2E7012000F07C
:1027B000B1FB02F003F9A125284602F0AFF802F0C0
:1027C0005BF8002801D15520E3E7012000F0A2FBCF
:1027D00002F074F8064602F0D1F802F015F9022072
:1027E00000F08CFB3046D4E770B506460C4600205E
:1027F0000C49087000250DE02146304600F014F821
:102800003046FFF783FFA04202D10648007870BD32
:10281000681CC5B2032DEFDB012002490870084691
:102820000078F4E7D401002070B505460C46A026D8
:1028300002F0C4F8304602F071F802F01DF80028EA
:1028400001D1552070BD284602F068F802F014F856
:10285000002801D15520F5E7204602F05FF802F08C
:102860000BF8002801D15520ECE702F0CDF8052047
:1028700000F044FB0020E5E7F8B505460E46174694
:10288000002405E03119C8B2FFF740FF2855641C49
:10289000BC42F7DB0020F8BD00B585B014216846C6
:1028A000FDF7F3FF0120009000200190012002902D
:1028B000002003906946024800F08CFC05B000BD82
:1028C000800C004000B585B014216846FDF7DDFF9F
:1028D0000120009001900290002003906946044876
:1028E00000F078FC0121024800F0C6FD05B000BDF3
:1028F000800C0040F7B506460F4600240AE0315D23
:102900003A19D0B2FFF770FF0546002D01D02846D6
:10291000FEBD641C02988442F1DB0020F8E701212F
:102920000160704710B50146012200BF48680028C9
:1029300015D013064868984211D05306486898424B
:102940000DD003231B064868984208D093064868B8
:10295000984204D005231B064868984201D1012003
:1029600000E00020002801D100BFFEE700BF00BF4B
:10297000086800280DD001231B040868984208D07D
:102980005B000868984204D003231B04086898423F
:1029900001D1012000E00020002801D100BFFEE7A6
:1029A00000BFFF200130134BDB6A0343114CE3628D
:1029B00000BF00030F4B40331B6B03430D4C4034EF
:1029C000236300BF486823461B6B07242406A343E8
:1029D0000343084C4034236300BF086823461B6B45
:1029E00003242404A3430343024C4034236300BF65
:1029F000104610BD0002004081684908490081600E
:102A0000704742690B031B0B9A4342617047816810
:102A10000122114381607047816802221143816065
:102A2000704742690B031B0B1A4342617047000059
:102A300070B502460124002300BFDA48824201D16A
:102A4000012000E00020002801D100BFFEE700BF08
:102A500000BF0868002804D001256D020868A8425C
:102A600001D1012000E00020002801D100BFFEE7D5
:102A700000BF00BF4868002804D00125ED02486867
:102A8000A84201D1012000E00020002801D100BFB0
:102A9000FEE700BF00BFC868002802D0C86804284D
:102AA00001D1012000E00020002801D100BFFEE795
:102AB00000BF00BF086900280DD001252D0308695B
:102AC000A84208D06D000869A84204D003252D0350
:102AD0000869A84201D1012000E00020002801D1AE
:102AE00000BFFEE700BF00BF2020405C002803D0ED
:102AF0002020405C012801D1012000E000200028B6
:102B000001D100BFFEE700BF00BF486A002821D006
:102B100001256D04486AA8421CD06D00486AA8428D
:102B200018D003256D04486AA84213D00125ED048E
:102B3000486AA8420ED005256D04486AA84209D00B
:102B40000325AD04486AA84204D007256D04486AED
:102B5000A84201D1012000E00020002801D100BFDF
:102B6000FEE700BF00BF886A002826D001252D059A
:102B7000886AA84221D06D00886AA8421DD003252A
:102B80002D05886AA84218D00125AD05886AA8429B
:102B900013D005252D05886AA8420ED003256D05A2
:102BA000886AA84209D007252D05886AA84204D062
:102BB0000125ED05886AA84201D1012000E000202E
:102BC000002801D100BFFEE700BF4020764DAD6A6E
:102BD0000543754EB56200BF00BF74480068B51567
:102BE0002843724D286000BF00BF70481838006845
:102BF000C007C00F01256840684000280FD100BF02
:102C000001206A4D183D686000BF00BF284600687B
:102C100001252843654D183D286000BF00BF00BF57
:102C200062481838006802252843604D183D286026
:102C300000BF05E07D208002834200D30BE05B1CD7
:102C400000BF5A4818384068C007C00F01256840C7
:102C500068400028EED000BF00BF906840084000E8
:102C6000906000BF00BF9068C007C00F012568409A
:102C7000684000287ED10868D56801267602B543F1
:102C80000543D56000BF4868D568B600B543054325
:102C9000D56000BF087A002806D000BFD068751044
:102CA0002843D06000BF07E000BFD0680125AD0217
:102CB000A843D06000BF00BF487A002807D000BFFB
:102CC000D068FF2501352843D06000BF07E000BF72
:102CD000D068FF250135A843D06000BF00BFC86899
:102CE000D5680426B5430543D56000BF002095682C
:102CF000F601B5430543956000BF00BF95687610A7
:102D0000B5430543956000BF0869D56803263603BF
:102D1000B5430543D56000BF4869D568F026B54383
:102D20000543D56000BF0B20000215693601B5438D
:102D30000543156100BF886915692D092D010543FB
:102D4000156100BFC8691569F026B54305431561D3
:102D500000BF2020405C002819D0486AD5680726AB
:102D60007604B5430543D56000BF886AD5680F2651
:102D7000360500E013E0B5430543D56000BF00BF52
:102D8000D06801252D042843D06000BF08E000BFB3
:102D9000D06801252D04A843D06000BF00E00024C6
:102DA000204670BD00AC01400002004024A8014054
:102DB00001460868C007C00F0122504050407047CC
:102DC00001680122114301607047000030B50246DE
:102DD0007D235B0100BF3F48824201D1012000E01A
:102DE0000020002801D100BFFEE700BF00BFC86877
:102DF000002808D0C868012805D0C868022802D079
:102E0000C868032801D1012000E00020002801D17A
:102E100000BFFEE700BF00BF8868012802D08868B5
:102E2000002801D1012000E00020002801D100BFCE
:102E3000FEE700BF0120284C646B0443264D6C6301
:102E400000BFC868244C4034246BA408A400044389
:102E5000214D40352C6300BF10202C46246B0443C9
:102E60002C6300BF0868946A906200BF00BF1068BE
:102E70000224A043106000BF4868D46AD06200BF3B
:102E80008868012806D100BF1068802420431060A4
:102E900000BF06E000BF10688024A043106000BFA0
:102EA00000BF00BF506901242043506100BF00E013
:102EB0005B1E00BF1069C007C00F01246040604066
:102EC000002801D1002BF3D100BF0120106100BF09
:102ED00030BD000000B40140000200400648006917
:102EE0000421084304490861084600690121084398
:102EF000014908617047000000E000E010B5044699
:102F000003E07D20C00000F005F82046641E002884
:102F1000F7D110BDFEB50746002613484069009062
:102F2000124913480068FDF7B2FC7843019005F0A0
:102F300099FA0D48856911E00B488469AC420DD0BF
:102F4000AC4202D2281B861903E00098001B4019EE
:102F5000861925460198864200D300E0ECE700BFC1
:102F600005F006FEFEBD000000E000E040420F005C
:102F700074000020014600BF0868002804D0012228
:102F800092070868904201D1012000E0002000284B
:102F900001D100BFFEE700BF80200D4A926A0243C4
:102FA0000B4B9A6200BF0006094A4032D26A0243C4
:102FB000074B4033DA6200BF08681A46D26A1B0624
:102FC0009A430243024B4033DA6200BF012070474C
:102FD00000020040FEB504460D46002002905C4908
:102FE0005C480068FDF753FCC8214843019000BFCE
:102FF000012C23D0022C21D0042C1FD0082C1DD052
:10300000102C1BD0202C19D0402C17D0802C15D080
:10301000FF200130844211D0400084420ED0400095
:1030200084420BD04000844208D04000844205D046
:103030004000844202D04000844201D1012000E0DF
:103040000020002801D100BFFEE700BF00BF2868B4
:10305000002808D02868012805D02868022802D056
:103060002868032801D1012000E00020002801D1B8
:1030700000BFFEE700BF00BF6868002808D068688E
:10308000012805D06868022802D06868032801D1A9
:10309000012000E00020002801D100BFFEE700BFB2
:1030A00000BFA868012802D0A868002801D101202B
:1030B00000E00020002801D100BFFEE700BF274646
:1030C000002602E07F08701CC6B2012FFAD17300FF
:1030D000286898400146B0001F4B1A581F48904777
:1030E000A868012808D100BF1C488068A1B2084325
:1030F0001A49886000BF03E02146184800F04BF8E9
:10310000F017000F801900118000154900960B5828
:10311000214612486A6898470020029003E000BFE9
:103120000298401C0290019902988842F7D32146E8
:103130000A4800F02DF81E20002805DBC206D20E3A
:1031400001219140074A116000BF0120FEBD00002F
:1031500040420F00740000203C900000000D004031
:103160007890000080E200E00348806B4008400057
:10317000014988637047000000A801400348C06B04
:10318000C007C00F012148404840704700A80140D7
:103190008AB2C260704782688BB29A43826070477D
:1031A000826A8BB29A438262704702688BB29A43FA
:1031B0000260704782688BB29A43826070474268AF
:1031C0008BB29A4342607047026A8BB29A430262A2
:1031D00070470000F8B506460C460027002500BFE2
:1031E000654886420BD064484030864207D062482A
:1031F0008030864203D06048C030864201D1012031
:1032000000E00020002801D100BFFEE700BF00BFA2
:103210002068002805D959492068884201D8012032
:1032200000E00020002801D100BFFEE700BF00BF82
:103230006068032808D06068002805D0606801280D
:1032400002D06068022801D1012000E0002000289F
:1032500001D100BFFEE700BF00BFA068012802D077
:10326000A068002801D1012000E00020002801D141
:1032700000BFFEE700BF00BFE068002802D0E068A2
:10328000012801D1012000E00020002801D100BF69
:10329000FEE700BF80203A49896A0143384A9162BB
:1032A00000BF62E00121B940206808400546002DBA
:1032B0005AD06068032812D129463046FFF775FFBF
:1032C00029463046FFF77BFF29463046FFF772FF5D
:1032D00000BFB06AA9B20843B06200BF2EE0294621
:1032E0003046FFF75DFF6068002806D100BF3068F8
:1032F000A9B20843306000BF03E029463046FFF71B
:1033000054FFA068002804D129463046FFF752FF39
:1033100006E000BFB068A9B20843B06000BF00BFBC
:10332000E068002806D000BF7068A9B2084370604A
:1033300000BF03E029463046FFF741FF60680228DE
:103340000DD12069012806D100BF306AA9B2084317
:10335000306200BF03E029463046FFF735FF2946BB
:103360003046626800F094F87F1C2068F84000281E
:1033700098D10120F8BD0000000C0040FFFF0000C4
:10338000000200408AB2826170478AB2826170474F
:103390008AB2826170478AB2826170478AB2826162
:1033A00070478AB2826170470268920892000A43AD
:1033B0000260704702680C239A430A430260704718
:1033C000026803231B059A430A43026070470268A0
:1033D00003239B059A430A43026070470268032354
:1033E0001B069A430A4302607047026803239B0648
:1033F0009A430A4302607047026803231B079A43FB
:103400000A4302607047026830239A430A4302600D
:1034100070470268C0239A430A43026070470268FB
:1034200003231B029A430A43026070470268032386
:103430009B029A430A4302607047026803231B03FE
:103440009A430A4302607047026803239B039A432E
:103450000A4302607047026803231B049A430A432D
:1034600002607047026803239B049A430A43026088
:1034700070478AB2426170478AB2426170478AB22D
:10348000426170478AB2426170478AB242617047B6
:1034900030B5C3680C464C4365006419A3430C4621
:1034A0004C4354432343C36030BD30B543680C469E
:1034B0004C4365006419A3430C464C4354432343D7
:1034C000436030BDF0B5024600230125002400BF53
:1034D0003C48824201D1012000E00020002801D1B7
:1034E00000BFFEE700BF00BF374E4868B04201D2C0
:1034F000012000E00020002801D100BFFEE700BF4E
:1035000000BF0868002814D00868012811D0086896
:1035100002280ED0086803280BD00868042808D0B9
:103520000868052805D00868062802D0086807281A
:1035300001D1012000E00020002801D100BFFEE7FA
:1035400000BF2020214EB66A0643204FBE6200BF56
:1035500000BF1F48106000BF08685668F608F600F4
:103560000643566000BF00BF90680005000D04468A
:10357000486800281CD0002C0DD100BF00BF906807
:103580000005000D012813D018465B1CFF26F536F8
:10359000B042F3D30CE000BF00BF90680005000DFF
:1035A000002805D018465B1CFF26F536B042F3D341
:1035B0004868D668360B36030643D66000BF2846F7
:1035C000F0BD000000140140FF0F000000020040A9
:1035D0005A5A341210B5FFF781FC10BD0168012260
:1035E000120611430160704770B505460C4601266E
:1035F00000BF8C48854201D1012000E00020002856
:1036000001D100BFFEE700BF00BF206800280DD039
:10361000FF2101312068884208D049002068884293
:1036200004D0032109022068884201D1012000E072
:103630000020002801D100BFFEE700BF00BF606886
:10364000002804D0012189036068884201D101204B
:1036500000E00020002801D100BFFEE700BF00BF4E
:10366000A068002821D001218902A06888421CD0CE
:103670004900A068884218D003218902A0688842C6
:1036800013D001210903A06888420ED005218902C8
:10369000A068884209D00321C902A068884204D0EA
:1036A00007218902A068884201D1012000E00020A2
:1036B000002801D100BFFEE700BF00BF206900283D
:1036C00008D02069012805D02069022802D020698D
:1036D000032801D1012000E00020002801D100BF13
:1036E000FEE700BF00BFE069002805D0E0692028A0
:1036F00002D0E069402801D1012000E0002000282C
:1037000001D100BFFEE700BF00BF6069002802D002
:103710006069042801D1012000E00020002801D1C7
:1037200000BFFEE700BF00BFA069002802D0A0696B
:10373000802801D1012000E00020002801D100BF35
:10374000FEE700BF374885421ED101203649896A0D
:103750000143354A916200BF2069022814D09014B9
:1037600031494031096B01432F4A4032116300BF98
:1037700020681146096B03221202914301432A4A31
:103780004032116300BF00BF6068296801229203C4
:1037900091430143296000BFA06829680722920273
:1037A00091430143296000BF206929688908890085
:1037B0000143296000BF2069002806D0012811D0EC
:1037C000022814D003281FD119E001218903606861
:1037D000884206D12846A16900F028F82846FFF75C
:1037E000FDFE11E02846E16900F026F80CE02846CD
:1037F000A16900F01BF82846FFF7F0FE04E0284618
:10380000E16900F019F800BF00BF6069296804226F
:1038100091430143296000BFE068E968E86000BFA8
:10382000304670BD00340140000200400268802331
:103830009A430A4302607047026860239A430A432E
:10384000026070470121816070474168FF220132A8
:103850001143416070470000F8B505460C4600274B
:10386000002600BF9248854202D09248854201D18D
:10387000012000E00020002801D100BFFEE700BFCA
:1038800000BF2068002805D02068012802D02068E9
:10389000022801D1012000E00020002801D100BF52
:1038A000FEE700BF00BF606805280ED060680428EE
:1038B0000BD06068032808D06068022805D06068D3
:1038C000012802D06068002801D1012000E000201A
:1038D000002801D100BFFEE700BF00BFA068C028DC
:1038E00008D0A068002805D0A068402802D0A068B1
:1038F000802801D1012000E00020002801D100BF74
:10390000FEE700BF00BFE068002804D0FF210131BE
:10391000E068884201D1012000E00020002801D1A8
:1039200000BFFEE700BF00BF2069002805D0206966
:10393000102802D02069202801D1012000E00020B9
:10394000002801D100BFFEE700BF00BF606900286A
:1039500008D06069022805D06069012802D060693A
:10396000032801D1012000E00020002801D100BF80
:10397000FEE700BF4E48854219D10120C00300F088
:1039800093F9A80400F088F9217808064A49C96A21
:103990000322120691430143474AD16200BF01212D
:1039A0004906206888421CD100F086F919E0012000
:1039B000800400F079F90120400700F06DF92178CA
:1039C00088063D49C96A03229206914301433A4A57
:1039D000D16200BF0121C9062068884201D100F0F0
:1039E0006BF9207DC007C00F00280DD000BF00BFBD
:1039F000286801210843286000BF00BF28680840EC
:103A0000484048400028F2D0022160690840002860
:103A10000CD000BF00BF286802210843286000BF07
:103A200000BF2868084040080028F3D06068E968B3
:103A3000C908C9000143E96000BFE0682968FF22A6
:103A4000013291430143296000BFA0682968C02268
:103A500091430143296000BF2069296830229143C6
:103A60000143296000BF6068030003F021FB0604E6
:103A700006080A0D1012114E0DE0114E0BE0114E0A
:103A800009E00E4EC03E06E00E4E761F03E00E4EDD
:103A900001E00A4E00BF00BF00BFE8680B490840C4
:103AA00031040843E86000BF01273846F8BD000034
:103AB0000004014000840140400200405205000023
:103AC000FB1E0000DB16000042080000FFFF00E0C4
:103AD00001468868FF2201321040000A7047014603
:103AE0008868022210404008704701468868C00775
:103AF000C00F012250405040704701464868FF22E5
:103B000001321040000A70474269520A52020A43C9
:103B10004261704770B505460C462868032801D9F4
:103B2000032028602046002805DBC206D20E0121B2
:103B30009140094A116000BF2046296801F0F6FB58
:103B40002046002806DBC206D20E01219140024A1F
:103B5000803A116000BF70BD80E100E030B50246E0
:103B6000002300BF4A48824201D1012000E000202A
:103B7000002801D100BFFEE700BF00BFC8680028D1
:103B800004D00124E404C868A04201D1012000E06F
:103B90000020002801D100BFFEE700BF00BF087869
:103BA000002802D00878012801D1012000E000207F
:103BB000002801D100BFFEE700BF00BF012464025E
:103BC0004868A04202D04868002801D1012000E0E6
:103BD0000020002801D100BFFEE700BF00BF8868B9
:103BE000002808D00124A4028868A04203D0640001
:103BF0008868A04201D1012000E00020002801D106
:103C000000BFFEE700BF00BF0869002808D00869B0
:103C1000012805D00869022802D00869032801D1CB
:103C2000012000E00020002801D100BFFEE700BF16
:103C300008695468A408A4000443546000BF88685D
:103C400014680325AD02AC430443146000BF087838
:103C5000012807D100BF1068FF2401342043106001
:103C600000BF07E000BF1068FF240134A0431060CC
:103C700000BF00BF0020074C206148681468012580
:103C80006D02AC430443146000BF0123184630BDED
:103C90000001004000ED00E00249C96A0143014A09
:103CA000D1627047400200400249096B0143014A5A
:103CB00011637047000200400348406A0121084335
:103CC0000149486270470000400200400449096B06
:103CD0000722120691430143014A11637047000015
:103CE000400200400349896B090A09020143014A65
:103CF0009163704700020040024600BF1C481060FC
:103D000000BF8869D368DB09DB010343D36000BFD0
:103D100048691369DB09DB010343136100BF0869CC
:103D200053699B099B010343536100BF88689369F2
:103D30009B099B010343936100BFC868D369DB08FB
:103D4000DB000343D36100BF4868136A5B095B0172
:103D50000343136200BF0868536A1B0A1B02034334
:103D6000536200BF00BF0348106000BF01207047CE
:103D7000ACACACAC5A5A5A5A024600BFD0684006A6
:103D8000400E886100BF10694006400E486100BFC8
:103D900050698006800E086100BF90698006800E21
:103DA000886000BFD0694007400FC86000BF106A3C
:103DB000C006C00E486000BF506AC0B20860012053
:103DC0007047000030B504460D4600BF0B488442E2
:103DD00001D1012000E00020002801D100BFFEE752
:103DE00000BF04200649896A0143054A916200BF69
:103DF00029462046FFF780FF012030BD001001401A
:103E0000000200400168FF220132914301607047C7
:103E10000168FF22013211430160704701684908BF
:103E20004900016070470168012211430160704739
:103E300000B585B014216846FCF727FDFF2001304E
:103E40000090002001900290039069462248FFF7FD
:103E5000C1F903204002009001200190002002904F
:103E6000039069461C48FFF7B5F9032149021A4837
:103E7000FFF791FA18200090012001900020029095
:103E80000390694614484030FFF7A4F918211248FE
:103E90004030FFF780FA202000900020019002902F
:103EA000039069460C484030FFF794F90B2040021C
:103EB000009001200190029000200390694606487E
:103EC0004030FFF787F90B21490203484030FFF7E4
:103ED000D6FA05B000BD0000000C004010B500F09F
:103EE00065F80446204610BD10B510211048FFF7B4
:103EF000C6FA012149020E48FFF74DFA0121890255
:103F00000B48FFF748FA0121490209484038FFF7FA
:103F100042FA10210648FFF73EFA08210448FFF74D
:103F20003AFA0121890202484038FFF734FA10BDFD
:103F3000400C004010B5012189020848FFF79FFAA4
:103F40001420FEF7DBFF00F05DF80548006800F084
:103F500091F810210148FFF792FA10BD400C004083
:103F60004402002070B5002410210F48FFF713FA17
:103F7000002515E008210C48FFF781FA640000BF16
:103F800009484038C06980B2FF210131084000284B
:103F900000D0641C08210448FFF7FDF9681CC5B275
:103FA000102DE7DB204670BD400C004070B50024AA
:103FB00010210F48FFF7EFF9002515E008210C4804
:103FC000FFF75DFA640000BF09484038C06980B25D
:103FD000FF2101310840002800D0641C082104485A
:103FE000FFF7D9F9681CC5B2202DE7DB204670BD6C
:103FF000400C004010B50024FFF7B4FF04462046F3
:1040000010BD000010B5012149020F48FFF737FA33
:104010006420FEF77FFF10210B484030FFF72FFA96
:104020000220FEF777FF102107484030FFF7B3F971
:1040300008210520000300F08FF8102102484030CD
:10404000FFF71DFA10BD0000000C0040F8B5044653
:104050000D4616461F462002401900901021009878
:1040600000F07AF83002C01900901021009800F09A
:1040700073F8F8BD10B5044610213548FFF7FFF975
:104080000120FEF747FF10213148FFF784F968232C
:104090008722F3218020FFF7D9FF10212C48FFF75A
:1040A000EEF90120FEF736FF10212948FFF773F9DA
:1040B0000023442221218120FFF7C8FF102124483A
:1040C000FFF7DDF90120FEF725FF10212048FFF75B
:1040D00062F910211F4800F03FF8204600F066F812
:1040E00010211B48FFF7CBF90120FEF713FF102129
:1040F0001748FFF750F900231A4610218320FFF7D5
:10410000A5FF10211248FFF7BAF90120FEF702FFC0
:1041100010210F48FFF73FF900231A462021842081
:10412000FFF794FF10210A48FFF7A9F90120FEF7D5
:10413000F1FE10210648FFF72EF900231A46482108
:104140008520FFF783FF10210148FFF798F910BD84
:10415000400C0040E082000070B504460D4610217E
:104160001148FFF718F900261BE008210E48FFF759
:1041700086F9012189020C484038FFF70CF901202B
:10418000C0032040002805D001218902064840389C
:10419000FFF775F9640008210348FFF7FCF8701C6D
:1041A000C6B2AE42E1DB70BD400C004010B5044623
:1041B00010212046FFF7D0FF10BD000010B51020E1
:1041C0000849C9680140814201D1012100E0002174
:1041D000002905D010200349C86000BF01F04EFD42
:1041E00010BD0000000D0040F8B506460027032072
:1041F0000006FFF76BFD00BF2048C068012108439F
:104200001E49C86000BF1E491E48FEF7FAFB012187
:1042100049041C48FEF705FC1A48FEF780FB1948C4
:10422000FEF7F5FB1748FEF7F7FB00BF1548FEF752
:10423000BFFD04467F1C1448874201D0002CF5D0F6
:10424000012C17D10F48FEF76AFB00BF0D488069AB
:1042500080B230600B48FEF7CFFB61040948FEF7DF
:10426000D0FB00BF0548C068A0430449C86000BF38
:10427000002500E001252846F8BD00000CA80140FB
:10428000FFFF0F0000AC0140FF010000F0B58BB054
:104290000024282101A8FCF7F8FA002700210D4688
:1042A0000E461A48FFF7BFFD18481830FFF7B0FD5B
:1042B0001748FEF7ACFB1420FEF720FE00BF0EE00F
:1042C0000120800200F0AAF8A10001AA5050A0002D
:1042D00001A90858002145194E41601CC4B20A2C9E
:1042E000EEDB0A22002328463146FBF7DAFF0546BB
:1042F0002F460648FFF792FD04481830FFF782FD6D
:104300000348FEF779FB38460BB0F0BD0CA801401E
:1043100000AC0140F0B58BB00024282101A8FCF7C7
:10432000B4FA002700210D460E461A48FFF77BFD20
:1043300018481830FFF76CFD1748FEF768FB14208B
:10434000FEF7DCFD00BF0DE0012000F067F8A100E2
:1043500001AA5050A00001A90858002145194E415A
:10436000601CC4B20A2CEFDB0A2200232846314627
:10437000FBF797FF05462F460648FFF74FFD054818
:104380001830FFF73FFD0448FEF736FB78000BB00E
:10439000F0BD00000CA8014000AC0140F3B581B0B5
:1043A0000E46002703200006FFF790FC1849194825
:1043B000FEF727FB17480199FEF733FB1548FEF778
:1043C000AEFA1448FEF723FB1248FEF725FB00BFA8
:1043D0001048FEF7EDFC04467F1C0F48874201D0D1
:1043E000002CF5D0012C10D10A48FEF798FA00BF36
:1043F0000848806980B230600648FEF7FDFA05483B
:104400000199FEF7FEFA002500E001252846FEBDD1
:10441000FFFF0F0000AC0140FF010000F1B58AB0C2
:10442000002008900790069008A8FFF7DDFEC0B2B4
:10443000059006A90A98FFF7B1FFC0B2049008984A
:10444000002821D0059800281ED1049800281BD1EF
:104450000F49069802F014FE0E4A148900250646FC
:104460000F4622462B46FBF704FF019100900A49B4
:10447000089802F005FE02460B460391029001994E
:104480000098FBF70EFF079007980BB0F0BD0000F7
:10449000B80B000000FBFF1FFF0F0000F7B5B6B020
:1044A0000F460020329033903490359036983290F9
:1044B0003397002112E03698405C682807D18F427C
:1044C00004DD369840183290781A339008E0781E50
:1044D000884202D1002039B0F0BD491CB942EADB64
:1044E00000BF3298807A31903198002803DB3399ED
:1044F0003198814201DA0020EDE73298007868288F
:1045000003D132984078442801D00020E3E7319964
:10451000CAB200213298FDF7A6FE329A3199515C59
:10452000884201D00020D6E732988078FF280BD14E
:104530003298C078FF2807D132980079FF2803D13C
:1045400032984079FF280FD0C1480068C07832996E
:104550000979884206D1BE480068007932994979C4
:10456000884201D00020B6E7002030902F9004222E
:10457000B7480168491C2FA8FCF728F9002438988F
:10458000002804D03898012801D00020A3E700209B
:104590002B902C902D902E9001212BA802F0AAFD9B
:1045A000389800280AD10123FF22AA4901A800F067
:1045B000F9FE01A80FC82BAD0FC509E00123FF22AA
:1045C000A54905A800F0EEFE05A80FC82BAD0FC544
:1045D0002C992B98FCF757F968212046641C2B9ADC
:1045E000115444212046641C2B9A1154FF2120466B
:1045F000641C2B9A11542046641C2B9A115420469B
:10460000641C2B9A11542046641C2B9A11540021CF
:104610002046641C2B9A115411212046641C2B9AAD
:1046200011542046641C2B9A1154641C641C32984B
:10463000C17A002002F0D0FA0546329A517B107BF5
:1046400002F0CAFA2904090C090408430546834804
:10465000854202D0824885420FD182212046641CC7
:104660002B9A115493212046641C2B9A11544F21EC
:104670002046641C2B9A11540EE080212046641CB5
:104680002B9A115490212046641C2B9A11541F21FF
:104690002046641C2B9A115400202A9080210AA8DD
:1046A000FCF7F3F8329A917A507A02F095FA099071
:1046B00000266C4885420CD1012380220AA905A856
:1046C00000F070FE009505A80FC8FDF77BFF0020E5
:1046D00001E70E20089090E080210AA8FCF7D5F8A9
:1046E000089A521C329B995C089A985C02F074FA02
:1046F0002A902A98802803DC33992A98814201DA8B
:104700000020E8E6329A089811182A9A521D0AA841
:10471000FCF75CF8012380220AA904A800F042FEFD
:10472000009504A80FC8FDF74DFF3099084330905D
:104730004A48854202D04A48854217D12A98401DEE
:10474000089909180998814210DD0123042204A860
:104750002B9900F027FE0120202100940191029066
:1047600004A80FC8FDF714FB04463AE03E48854212
:1047700016D10123042204A82B9900F013FE304621
:1047800012303299085C0A4631461131515C00946E
:104790000191029004A80FC8FDF7FAFA044620E040
:1047A00000212046641C2B9A115406212046641CCB
:1047B0002B9A11542D4841782046641C2B9A115491
:1047C0002A481E38817F2046641C2B9A11542021D0
:1047D0002046641C2B9A115400212046641C2B9AFD
:1047E000115433460F33329AD15C5B1ED05C02F019
:1047F000F3F9861930460E300890099908988842D6
:1048000000DA69E72004000E2B9948722B998C720C
:1048100021462B9802F050FE2B9908551621601C5A
:1048200004462B9A11543898002805D1601C044680
:1048300081B20F48018004E0601C044681B20D483B
:1048400001803098012801D1FDF72CFF012042E6BC
:1048500078000020A0230020A62500203F928100A0
:104860001F9080004F9382002F918100160200203C
:10487000A0240020A626002010B5FEF70DF8022186
:104880000D48FEF7F9FD0420FEF744FB00BF0A487F
:10489000C069C007C00F002801D0002400E0012437
:1048A00002210548FEF774FD0420FEF733FBFEF7F6
:1048B00009F8204610BD0000800C004070B50024AF
:1048C000FDF7EAFF02211448FEF762FD0420FEF71F
:1048D00021FB00251AE002210F48FEF7CDFD042040
:1048E000FEF718FB6006040E00BF0B48C069C00746
:1048F000C00F002802D00120044301E0FE20044044
:1049000002210548FEF744FD681CC5B2082DE2DB14
:10491000FDF7D8FF204670BD800C004070B50446FE
:10492000FDF7D0FF002521E080202040002804D0A2
:1049300001211148FEF7A0FD03E001210E48FEF71A
:1049400027FD0420FEF7E6FA02210B48FEF794FD4E
:104950000420FEF7DFFA02210748FEF719FD0420C4
:10496000FEF7D8FA6006040E681CC5B2082DDBDB22
:104970000420FEF7CFFA70BD800C004010B5FDF7A3
:10498000A1FF01210C48FEF777FD0420FEF7C2FAD3
:1049900002210948FEF7FCFC0420FEF7BBFA0221C5
:1049A0000548FEF769FD0420FEF7B4FA022102482B
:1049B000FEF7EEFC10BD0000800C004010B5FDF7C6
:1049C00081FF0420FEF7A6FA01210E48FEF754FDF0
:1049D0000420FEF79FFA02210A48FEF74DFD04204D
:1049E000FEF798FA01210748FEF7D2FC0420FEF7F3
:1049F00091FA02210348FEF7CBFC0420FEF78AFA65
:104A000010BD0000800C004010B5FDF75BFF0121D8
:104A10000C48FEF7BDFC0420FEF77CFA0221094891
:104A2000FEF72AFD0420FEF775FA01210548FEF77E
:104A3000AFFC0420FEF76EFA01210248FEF71CFDD0
:104A400010BD0000800C004008B5FEF78DFB00BFD4
:104A500002200B49C86300BF0A480078401C09497E
:104A600008705520FFF73EF900F04AFC0648009018
:104A70000648FF222D320023016E0220884708BD20
:104A800000A801407C000020757200008800002012
:104A900010B5002436E060011C4940184078002819
:104AA00000D12EE06001194940188368C168600197
:104AB000164A821810695269181A91410DD2600184
:104AC000124940188368C06800215A1C484161019E
:104AD0000E4BC9188A60C86003E0012061010B4ACF
:104AE000505460010949085C012809D1600140184F
:104AF0008069002804D06101044A891888698047C8
:104B000000BF641C022CC6DB10BD00004801002061
:104B100010B500BF0A4840690421084080080028F9
:104B20000CD000BF04200649486100BFFFF7B0FF6A
:104B300000BF04480449086000BF00BF10BD00006A
:104B4000003401405A5A34120014014008B5134889
:104B5000FEF7D3FF01281ED11048FEF7B9FF012848
:104B600019D100BF0D480069C1B20D48417140889C
:104B7000FF2802DBFDF768FC08BD00F029FC0849AE
:104B8000487901F06BF90748009007480322002399
:104B9000016C1846884700BFEEE7000000040140A2
:104BA000A0250020AD4B0000F800002010B50548FE
:104BB000416C0020884704484088002801DD00F04F
:104BC000FDF810BDF8000020A025002070B50646B5
:104BD0000C46002C03D10F48FEF734FE70BD0025B3
:104BE0000AE000BF0B48FEF77AFF0028FAD0715D9B
:104BF0000848FEF789FF6D1CA542F2DB00BF05489F
:104C0000FEF773FF0028FAD00248FEF71BFE00BF34
:104C1000E4E700000004014008B51348FEF76DFF0B
:104C200001281ED11048FEF753FF012819D100BFFB
:104C30000D480069C1B20D4841714088FF2802DB70
:104C4000FDF70EFC08BD00F0C3FB0849487901F0F0
:104C500011F907480090074803220023016C012046
:104C6000884700BFEEE7000000840140A62700202F
:104C7000794C0000F800002010B50548416C012077
:104C8000884704484088002801DD00F0B9F810BDCD
:104C9000F8000020A627002070B506460C46002C20
:104CA00003D10F48FEF7CEFD70BD00250AE000BF1E
:104CB0000B48FEF714FF0028FAD0715D0848FEF794
:104CC00023FF6D1CA542F2DB00BF0548FEF70DFF78
:104CD0000028FAD00248FEF7B5FD00BFE4E7000067
:104CE0000084014010B58CB00446182106A8FBF7DB
:104CF000CCFD142101A8FBF7C8FD002000902C4832
:104D0000844220D1401401900220029000200390A0
:104D100001200490059001A92648FEF75BFA0120C6
:104D20008003019002200290002003900490012053
:104D3000059001A91F48FEF74DFA012000901F21A0
:104D40006846FEF7E7FE1C48844221D1042001900A
:104D5000022002900020039001200490059001A9F8
:104D600014488030FEF736FA0820019002200290A5
:104D70000020039004900120059001A90D48803087
:104D8000FEF728FA0120009010216846FEF7C2FEC7
:104D900000200690079040200890002009900A907B
:104DA00003200B9006A92046FEF756FD0CB010BD5F
:104DB00000040140000C00400084014008B50020C0
:104DC000009069460A48006803F055FD09480068EC
:104DD00003F03EFF002806D10098002803D00120F0
:104DE00000070549486000200449087008BD00001C
:104DF000AC020020A802002000ED00E0A402002088
:104E000008B50020009069460A48006803F033FDA9
:104E10000948006803F01CFF002806D1009800280C
:104E200003D00120000705494860012004490870AB
:104E300008BD0000AC020020A802002000ED00E048
:104E4000A4020020FF20264908700322002101202F
:104E500003F068FB2349086041E000235A1E19460D
:104E60002048006803F07CFB012838D11C480078FA
:104E7000002815D11C484188194802781A48FD3885
:104E8000FFF70CFB002809D0FF20F53003F06EFA85
:104E900016480188FF380138FFF798FEFDF7D4FA6D
:104EA0000F480078012815D1114841880C48027834
:104EB0000F48FD38FFF7F2FA002809D0FF20F5303F
:104EC00003F054FA0B480188FF380138FFF7E4FE7D
:104ED000FDF7C6FAFF2002490870FDF743F9BCE769
:104EE000A4020020AC020020A0250020A024002065
:104EF000A6270020A62600201CB501200004009053
:104F00000320000601906846FDF70CFD1CBD000063
:104F100000B591B0012040020C9003200D900020BC
:104F20000E900F9010900CA92248FEF753F98020A4
:104F30000C9003200D9000200E900F9010900CA963
:104F40001C48FEF747F90120C0030C9003200D9088
:104F500000200E900F9010900CA916488038FEF794
:104F600039F90020019002900121684601734173D4
:104F700000200490059006900790A020089008A8B3
:104F8000017188040A9000010B9001A90A48FDF7FD
:104F90004FFD01210848FDF744FDFF21013106487E
:104FA000FDF73FFD012189020348FDF73AFD11B0ED
:104FB00000BD0000800C004000AC014000B585B091
:104FC00012480190FF20F43002900120039000204D
:104FD000049001A90E48FDF7F9FE00BF01200C491D
:104FE000086100BF00BF0846C068012108430849A6
:104FF000C86000BF0846FDF7E3FE012000901821BD
:105000006846FEF787FD05B000BD00007F02000086
:1050100000B4014010B500F053F900202F49496A4F
:10502000C908C90001432D4A516200BF00BF1046A4
:10503000406A0F21090288430521090240181146E0
:10504000486200BFAA20896B090A090201439163E3
:1050500000BF0020114609690F2212049143014349
:105060001E4A116100BF00BF1046006901210843BC
:105070001146086100BF0020C968C908C900014382
:10508000D16000BF00BF1146C968072212029143D8
:105090000143124AD16000BF00BF1146C968072210
:1050A0001204914301430D4AD16000BF00BF114675
:1050B000C9680722D20491430143084AD16000BF66
:1050C00004201146896A0143916200BF00BF114666
:1050D000896A8143916200BF10BD00000002004058
:1050E00010B500F0D9F8FEF7A3FE00F0C9FCFFF7F9
:1050F00003FFFFF70DFF6420FDF700FFFDF7BCF98C
:10510000FDF740FA10BD08B5012080070090684601
:10511000FDF730FF08BD000000B589B00420049001
:10512000002005900120069000200790089004A917
:105130000D48FEF74FF80220019000200290012058
:10514000039001A91020FDF745FF10200649C0314A
:10515000C86000BF012000901E216846FEF7DAFCFF
:10516000FFF7D1FF09B000BD400C004000B585B08D
:1051700014216846FBF789FB174800900120019035
:1051800002900020039069461448FEF723F8124964
:105190001248FEF7F7F8694610484030FEF71AF853
:1051A0000D490E484030FEF7EDF869460B48803057
:1051B000FEF710F8084909488030FEF7E3F8694621
:1051C0000648C030FEF706F803490448C030FEF731
:1051D000D9F805B000BD00007FFE0000000C0040C3
:1051E0001CB5052000900020019069460148FEF79B
:1051F00069F91CBD0014014000B589B0FF200130E1
:105200000190002002900390134804900020059024
:1052100006900790089001A91048FEF7E5F900BF35
:1052200004200E49486100BF00BF08460069042100
:1052300008430A49086100BF012000901421684614
:10524000FEF768FC00BF0548806901210843034957
:10525000886100BF09B000BDFF1F0000003401409D
:1052600010B500BFFF2001300349886000BF084629
:10527000FEF7EBFA10BD00000004014010B500BFBE
:10528000FF2001300349886000BF0846FEF7DDFAC1
:1052900010BD00000084014000B585B0012040022F
:1052A00001900020039002900120049000206946A4
:1052B00008700248FEF752FC05B000BD0001004036
:1052C00000B585B00120400200900320019000202D
:1052D00002900390049069460848FDF77BFF012087
:1052E000800200900320019000200290039004901F
:1052F00069460248FDF76EFF05B000BDC00C0040D6
:1053000010B5074807490860084601680648FEF7D7
:1053100059FD7D20C000FDF7F1FD00F0E1F810BD62
:10532000B0010020540200200010014010B50028F8
:1053300019DB1A4A03231B02D21883089B00D25898
:105340008307DC0EFF23A3409A438B071B0E8407C1
:10535000E40EA3401A43114B032424021B198408B2
:10536000A4001A5118E00E4A03071B0F083B9B08C4
:105370009B00D2588307DC0EFF23A3409A438B0780
:105380001B0E8407E40EA3401A43054B0407240FA9
:10539000083CA408A4001A5110BD000000E100E080
:1053A0001CED00E0FFB504460D46164600200090B7
:1053B0000190029003900121684601F09BFE019646
:1053C00000950293684687C887C4103CFFBD000063
:1053D00010B505480078FF2804D1FCF7B9FEFE207F
:1053E0000149087010BD0000A402002070B58EB005
:1053F0000646002521E007A91248FEF7BDFC6946D4
:105400001048FEF7B9FC00240AE0A00007A90858DC
:10541000A1006A465158884200D003E0601CC4B223
:10542000072CF2DB00BF072C05D11C2207A9304650
:10543000FAF7D6FE03E0681CC5B2032DDBDB00BF24
:105440000EB070BD0010014010B500BF204840688C
:1054500008210840C008002839D000BF1C488068D7
:105460000840C008002832D000BF082018498860D2
:1054700000BF18480068FFF7B9FFFDF701F81648AC
:10548000C1688847134800688069002818D111480E
:1054900000684069002812D10E48006800690028A1
:1054A0000DD10C4B1B689A680A4B1B685968094B55
:1054B0001B68186801F05BFF06490968C86000BFF7
:1054C00006480078012802D100200449087010BD68
:1054D00000100140540200205C020020580200200D
:1054E00008B504200A49896A0143094A916200BF4C
:1054F00000BF08484068082108430649486000BFCB
:105500000120009002216846FEF704FB08BD000060
:1055100000020040001001403EB50446A2696169E6
:1055200020696B4607C320460FC801F07EFE0028A5
:1055300000D13EBD01200B490870002503E0012089
:10554000FDF7DCFC6D1C7D20C000854203DA0548B8
:1055500000780028F3D121460348FEF7CDFB00BFB9
:10556000E7E70000580200200010014008B5154888
:10557000002301221449009014A003F0A9FB044663
:10558000002C0AD003F01EFA0546002003462A46E6
:1055900001210090204603F0D1FB032200210120CD
:1055A00002F0C0FF0D4908600BE000235A1E1946A7
:1055B0000A48006802F0D4FF012802D10020FDF75C
:1055C00071F8F2E7E155000060EA0000526561649D
:1055D000454570726F6D5F54696D65008C020020E7
:1055E00010B5044608480088401C074908803C2143
:1055F00005480088FBF755F9002904D102F074FD35
:1056000000200149088010BD9002002070B50546B9
:10561000054801461439401AC4B221461C222846C6
:10562000FDF72AF970BD0000B0010020002070478E
:10563000704770B50546012000F0BAFA04466406CA
:10564000640E2046284304462146012000F0C8FA93
:1056500070BD000010B5012000F090F89F211120CE
:1056600000F0BEFAFF21242000F0BAFA0021402009
:1056700000F0B6FA0021412000F0B2FA052000F057
:105680007DF80248C1680020884710BDCC27002063
:1056900010B5002000F072F88020FFF7CAFF01204B
:1056A00000F06CF80021402000F09AFA002141201F
:1056B00000F096FA00F08AF8072000F08DF90B2030
:1056C00000F0A8F9022000F017F8012000F066F8B9
:1056D000072000F08FF9002000F01FF8FF2000F0F5
:1056E0006EF8044800F0A9F9012000F026F8FFF751
:1056F000B1FF10BDFF03000070B504461D2000F08F
:1057000057FA05462846F121084061000843C5B212
:1057100029461D2000F064FA70BD70B504461D20B6
:1057200000F046FA05462846FE210840204305467B
:1057300029461D2000F054FA70BD70B5044626209D
:1057400000F036FA05462846F7210840E1000843F4
:10575000C5B22946262000F043FA70BD70B5044654
:10576000312000F025FA05462846F821084020435C
:1057700005462946312000F033FA70BD70B5054664
:10578000012000F015FA0446F82004402046284382
:1057900004462146012000F023FA70BD70B504468E
:1057A0001E2000F005FA05462846FB210840A1000E
:1057B0000843C5B229461E2000F012FA70BD10B58C
:1057C00004462146222000F00BFA10BD10B500243B
:1057D0007E48006844797E480078002801D0E41CA7
:1057E00000E000BF230001F063FC1A0E161E252DF9
:1057F000353D444C545C636B737B828A929AA1A9B9
:10580000B1B9C0C8D0D86C207249087080204870E7
:1058100000208870C9E06C206E490870C020487074
:1058200000208870C1E06D206A490870002048702F
:105830008870BAE06D2067490870402048700020E9
:105840008870B2E06D2063490870802048700020A5
:105850008870AAE06D205F490870C0204870002061
:105860008870A2E06E205B49087000204870887044
:105870009BE06E20574908704020487000208870D7
:1058800093E06E2053490870802048700020887093
:105890008BE06E204F490870C0204870002088704F
:1058A00083E06F204B4908700020487088707CE0CE
:1058B0006F2048490870402048700020887074E0CC
:1058C0006F204449087080204870002088706CE088
:1058D0006F2040490870C02048700020887064E044
:1058E00070203C4908700020487088705DE070208E
:1058F00038490870402048700020887055E07020BA
:105900003449087080204870002088704DE0702075
:1059100030490870C02048700020887045E0712030
:105920002C4908700020487088703EE07120294999
:105930000870402048700020887036E071202549AA
:10594000087080204870002088702EE07120214966
:105950000870C02048700020887026E072201D4921
:1059600008700020487088701FE072201949087084
:10597000402048700020887017E072201549087098
:1059800080204870002088700FE072201149087054
:10599000C02048700020887007E06C200D49087016
:1059A000802048700020887000BF00BF094801783F
:1059B000062000F015F907484178072000F010F99B
:1059C00004488178082000F00BF910BD7800002011
:1059D000800200208102002010B5044687214D205E
:1059E00000F0FEF80248015D092000F0F9F810BD52
:1059F000D0A4000070B504461D2000F0D9F805467B
:105A00002807000F21010843C5B229461D2000F0D8
:105A1000E7F870BD70B504460320FFF79FFE1E2017
:105A200000F0C6F805462807000F21010843C5B25B
:105A300029461E2000F0D4F870BD38B504461E205B
:105A400000F0B6F8694608701F2000F0B1F8014672
:105A5000684641700078FC210840210AFC229143ED
:105A60000843C1B268460170447001781E2000F0FE
:105A7000B7F8684641781F2000F0B2F838BD000042
:105A800000B585B014216846FAF7FFFE01200090AA
:105A9000002001900290039069461148FDF79AFB9F
:105AA0009E20009001200190002002900390694602
:105AB0000B48FDF78FFB1E200949886100BF80203D
:105AC000486100BF042000900020019002900390E4
:105AD000694603484030FDF77DFB05B000BD00007E
