:020000040000FA
:10000000703C0020190200002102000023020000C1
:1000100000000000000000000000000000000000E0
:100020000000000000000000000000001957000060
:1000300000000000000000009F0100003962000085
:100040002B0200002B020000215500002B020000B3
:10005000454A00002B0200002B0200002B0200008A
:100060002B0200002B0200002B0200002B020000DC
:100070002B0200002B0200002B0200002B020000CC
:10008000A94B00002B0200002B0200002B020000F5
:100090008D4A00002B0200002B0200002B02000002
:1000A000992100002B0200002B0200002B0200000F
:1000B0002B0200002B020000B9410000DD4A0000C5
:1000C00000F002F800F041F80CA030C808382418FD
:1000D0002D18A246671EAB4654465D46AC4201D180
:1000E00000F033F87E460F3E0FCCB6460126334271
:1000F00000D0FB1AA246AB4633431847BCA8000009
:10010000DCA800000023002400250026103A01D3BB
:1001100078C1FBD8520700D330C100D50B607047BF
:1001200010B5782902D100F079F910BD002010BD7A
:100130001FB501F035FB04000020002109F044F850
:10014000401C60601FBD10B510BD01F02FFD1146B1
:10015000FFF7EEFF07F0A4FA01F050FD03B4FFF73C
:10016000F2FF03BC01F0C6FD084B19680868203097
:1001700080F30988022080F31488BFF36F8F3FBC9F
:10018000AE4608BC04BC62B6184700001C00002044
:10019000EFF3108072B6704780F310887047EFF36A
:1001A00009800E4B1A6820381060F0C044464D4656
:1001B00056465F46F0C008B572B608F06BFB62B6F3
:1001C0000CBC116808681030F0C8A046A946B246B9
:1001D000BB4680F309882038F0C818471C0000206F
:1001E00070B505460C46164602E00FCC0FC5103E12
:1001F000102EFAD2082E02D303CC03C5083E042EDB
:1002000007D301CC01C5361F03E021782970641C97
:100210006D1C761EF9D270BD07488047074800471D
:10022000FEE7FEE7FEE7FEE7FEE7FEE704480549D6
:10023000054A064B70470000ED630000C100000056
:1002400070280020703C0020702C0020702C0020B2
:1002500010B5202A04DB0846203AD040002110BD0A
:100260000B462024D340D040A21A9140084319469F
:1002700010BD4343514330B55C18010C130C0D46BF
:1002800092B25D4380B251432C19054655430A0C86
:1002900009044D1962415843010C000440195141B1
:1002A00030BDFEB5054610460C46184373D0AE4629
:1002B0008C460020AD1A01469C4167D36646002754
:1002C00001243D46B61A9D4102D313463A462124E5
:1002D000654676462F04360C3E432D0CB61A9D41DA
:1002E00004D3150C1B042B431204103465467646C8
:1002F0002F06360A3E432D0AB61A9D4104D3150E29
:100300001B022B4312020834654676462F07360936
:100310003E432D09B61A9D4104D3150F1B012B43F3
:100320001201241D65467646AF07B6083E43AD0868
:10033000B61A9D4104D3950F9B002B439200A41C39
:1003400065467646EF0776083E436D08B61A9D412E
:100350001AD392185B41641C16E000187646654675
:100360004941B71A9D410191009009D36046B11AE5
:1003700098418E468446009801990025401C6941A9
:10038000DD0752082A435B08641EE6D572466346C1
:1003900003B0F0BDFFE700200146C046C0462A4634
:1003A0002346F5E70FB41CB5074B06AA7B44694604
:1003B0000090059801F019F90020694601F028F92C
:1003C0001CBC08BC04B018476112000070B504469C
:1003D00085690068C10601D5302600E02026C007E7
:1003E00007D070BD62683046A1689047206A401C03
:1003F00020626D1EF6D570BD70B504468569007823
:10040000C00707D170BD6268A16820209047206AAC
:10041000401C20626D1EF6D570BD000070B504460C
:100420000D4621461068C046C0462188090502D500
:100430000F4A7A4402E00E4A7A440E3223460021E3
:10044000243305E006070009360F965D5E54491C0B
:100450000028F7D120780023000705D5702D03D0A0
:10046000002901D002231132204601F061F870BD4D
:10047000C6A40000F3B50446002081B020622046E7
:10048000E1688847002872D0252802D06268A168F8
:10049000ABE0594F00267F442046E168884720287A
:1004A000054608DB312D06D278192038007800285F
:1004B00001D00643F0E7B00701D5042086430020B1
:1004C000E0610746A0612A2D0AD0284606F0C8FE42
:1004D000002827D0B8000019303D0090856119E050
:1004E0000298BA00121902C8916102902046E16890
:1004F0008847012F054617D1E06900281FDA202020
:1005000086431CE000980A218069484300994019FD
:10051000303888612046E1688847054606F0A0FE2D
:100520000028EFD1012F0AD02E2D08D12046E168F6
:1005300088470546202006437F1C022FC3DBA069A5
:10054000002803DA4042A06101200643F00701D0F1
:10055000102086436C2D0BD0682D09D04C2D3CD03B
:100560006A2D38D0742D38D07A2D36D016E040E080
:10057000E1682F4620468847B842054609D16C2FCE
:1005800029D001208002E1680643204688470546BD
:1005900004E06C2F1DD0FF2001300643002D28D031
:1005A00028464138192803D80120C00206432035C7
:1005B000204626602946029A1646FFF7B1FD00281C
:1005C00010D001280BD0F61DF008C00008300290B2
:1005D00055E74020E1E78020D5E70020D3E7361D2E
:1005E00002964CE762682846A1689047206A401C42
:1005F00044E7206AFEBD00008AA400000FB400B5E5
:100600008DB010A909900B900020C04300910A9072
:1006100000200C90074878440690074878446A46C2
:1006200007900F9909A801F00DF80DB008BC04B0AF
:10063000184700004F10000069100000FFB51D466C
:100640000027FF4383B05C68002001909E68A96981
:1006500004987F1C88470090296A88470028F6D1B3
:100660000098401C0CD0032040028443002E19DD6A
:10067000600614D500982B2809D02D280FD103E04F
:100680000020C04307B0F0BD012080020443A969E7
:1006900004987F1C8847761E002E009002DD00988B
:1006A000302803D00598002825D035E00120A9691D
:1006B00040020443761E04987F1C8847002E009059
:1006C00003DD782805D0582803D00598002810D0DD
:1006D00022E00598002801D010281DD10120A96929
:1006E00040028443761E04987F1C884700901020A7
:1006F00002E0082000E00A2005900DE00121059AA3
:1007000049020C430199761E514308180190A969CA
:1007100004987F1C88470090002E05DD05990098FD
:1007200000F07BFF0028E9DAE96904988847A00512
:1007300002D40120C043A5E7E00722D1600611D50D
:100740006005019800D5404229680A1D2A600968A1
:10075000220501D5087014E0220701D5088010E0B9
:1007600008600EE02868011D29600068210502D597
:100770000199017005E02107019901D5018000E090
:10078000016038467EE7000030B5441C03E0017884
:10079000401C00290DD08107F9D10B4BDD0104C8A5
:1007A000D11A91432940FAD0001B0A0603D0C01E7B
:1007B00030BD001B30BD0A0401D0801E30BD0902CF
:1007C000FCD0401E30BD000001010101F8B5042A33
:1007D0002CD3830712D00B78491C0370401C521E87
:1007E00083070BD00B78491C0370401C521E8307F3
:1007F00004D00B78491C0370401C521E8B079B0FC2
:1008000005D0C91ADF002023DE1B08C90AE0FFF764
:10081000E7FCF8BD1D4608C9FD401C46B4402C430A
:1008200010C0121F042AF5D2F308C91A521EF0D4C0
:100830000B78491C0370401C521EEAD40B78491CEB
:100840000370401C012AE4D409780170F8BD01E06E
:1008500004C0091F0429FBD28B0701D50280801C2C
:10086000C90700D00270704700290BD0C30702D01F
:100870000270401C491E022904D3830702D502805E
:10088000801C891EE3E70022EEE70022DFE700225A
:1008900003098B422CD3030A8B4211D300239C46BD
:1008A0004EE003460B433CD4002243088B4231D335
:1008B00003098B421CD3030A8B4201D394463FE0C9
:1008C000C3098B4201D3CB01C01A524183098B4229
:1008D00001D38B01C01A524143098B4201D34B0112
:1008E000C01A524103098B4201D30B01C01A524175
:1008F000C3088B4201D3CB00C01A524183088B42FC
:1009000001D38B00C01A524143088B4201D34B00E4
:10091000C01A5241411A00D2014652411046704756
:100920005DE0CA0F00D04942031000D3404253405B
:1009300000229C4603098B422DD3030A8B4212D31B
:10094000FC22890112BA030A8B420CD3890192114D
:100950008B4208D3890192118B4204D389013AD08A
:10096000921100E08909C3098B4201D3CB01C01A5F
:10097000524183098B4201D38B01C01A5241430972
:100980008B4201D34B01C01A524103098B4201D360
:100990000B01C01A5241C3088B4201D3CB00C01ACD
:1009A000524183088B4201D38B00C01A5241D9D2E5
:1009B00043088B4201D34B00C01A5241411A00D266
:1009C0000146634652415B10104601D34042002B62
:1009D00000D54942704763465B1000D3404201B5E1
:1009E0000020C046C04602BD7047704770470000F7
:1009F0000246C80FC00781434B0030B54B405B0037
:100A00009B0D20D01923DB06C91801231B05994231
:100A100020DB0324A40704251346AB400BD3002B93
:100A200004D1EB0613409B00E34204D40124640785
:100A3000002312195941FF231B0599420BD2C9000B
:100A40000143500F09E0CB0204D5014308030243E0
:100A500005D0054830BDFF21C905084330BD084613
:100A600007210905884330BD0000C07FF0B50C4662
:100A7000871A9C410D46861A9D4103D2C01BA14195
:100A8000D21963410D0D1F0DC94EEC1BAE435CD056
:100A90007F057F0D0026002F51D02D05AC46A943C0
:100AA000DD020123ED0A1B051D4320231B1B24D45B
:100AB0001746E740381871412F46E740CC199D4052
:100AC0002818314661410C0D27D161449A4013D555
:100AD0000023401C594152000ED140084000012221
:100AE0004B005205D34207D305204007C14201D530
:100AF000B04900E0B0493046F0BD6B00002A00D09C
:100B000001229A181F23203C1B1B01D5002302E061
:100B1000E540281871410C0DD7D00124240509198E
:100B2000C407CD0740084908E40F28436144002C5E
:100B3000D5D00024401C61419A40D0D1CDE76A0550
:100B4000520DD9D1C90FC907D5E79C4D4E000028D9
:100B500001D0012400E0002434195F00002A01D0F4
:100B6000012600E00026BE19954FAC420CD8AE42DB
:100B70000AD8B44206D001256D05EC42BCD010461F
:100B80001946F0BD9942FCD000203946F0BDF0B5C1
:100B90001FB40C460F46811A9F412546861A9D4177
:100BA00006D20125ED076F40401ABC4152187B4127
:100BB000210D1E0D8D1BAC467D4D8D437ED07505E0
:100BC0006D0D7CD00D05AE46AC431B031B0B794D60
:100BD00052429D41202366469B1B14D31746F74083
:100BE000381800260090744160462F460741E419EA
:100BF00000989D402818664116D4714671189A4095
:100C000025D5012320E093182A466A415200002B83
:100C100000D0521C1E23203E9B1B002B61DD354162
:100C2000EE1728186641E8D5001876415B1C9A40FB
:100C300000D3401C4B05F3181524E34010D3002BC0
:100C400052D071467118D30FC01802D3491C05B099
:100C5000F0BD0123DB079A42F9D140084000F6E7D6
:100C600001225205B21801D1002853D00123CC0A29
:100C7000DB029943891E002A08D1020C03D0020C22
:100C80000004103902E00246002020390023550BF1
:100C900005D112020823550B01D152010D23550C29
:100CA00001D112011B1DD50C01D192009B1C150D09
:100CB00001D152005B1C2025EE1A01E02CE022E05D
:100CC0000546F54015439840CA1AE107691813050F
:100CD000C918002ABBDA032040070818C10FC9074A
:100CE0000FE071466118B2E7F10740080843711040
:100CF00071444A000CD001235B059A42A7D2C90F68
:100D0000C9070020A3E74905490D26D1002001E0CD
:100D10000028F4D100219AE7284D6600002801D070
:100D2000012100E0002171185F00002A01D0012696
:100D300000E00026BE19224FA94210D8AE420ED8BC
:100D4000B14208D001256D05E94206D01946A80236
:100D5000414010467BE79C4201D0214677E70020C6
:100D6000394674E710B50C465C4005D50124E4070C
:100D70006340FFF70CFF10BDFFF778FE10BD30B4E5
:100D80000C465C4004D50124E407634030BC6DE6AA
:100D900030BCFCE670B50124E40761400D465D40BF
:100DA00002D4FFF763FE70BD6340FFF7F0FE70BD35
:100DB000FF0700000000F0FF0000F07F0000E0FFF0
:100DC0000000F87FF0B5F94D0C091E092C402E40AB
:100DD0002F468BB0A7437DD0B543FCD0002E7AD0F0
:100DE000002CFCD00D465D40ED0F2543AC1BFF25CC
:100DF000AD0464190894C502440DC9022143500D85
:100E0000DC0204430120C00701430443D2020191E4
:100E1000200C110C00958C46010423468B430A914B
:100E200061460904E24D8A430991010A7D4449194A
:100E30008039097805464D4301266D18F605751B66
:100E40006943C90C640B891C4C436418B5012C1B05
:100E5000250C2E04B4434C434D43210C69188909D9
:100E60000591009DE90701D00121C90704912C4695
:100E700001996708CD072F434C08059DE10B4D43B1
:100E80002D0C29466646754302950D4645432E4670
:100E9000029D7D1BB44100950D465D4301942C0CD1
:100EA0002F040D465543AE462D0C3D430295039449
:100EB0007546049C2D04641B049406D2029C039D79
:100EC000641C002675410395029401AC70CC009F10
:100ED0007D1B01E03EE162E1B44109040095079108
:100EE00001940599A4086143090C0C464443650B21
:100EF000E7040C4666467443A646640B3C430395E0
:100F000002947446049DE4042C1B049406D2029CB3
:100F1000039D641C002675410395029401AC70CCBE
:100F2000009F7D1BB44101940C465C430095650F06
:100F3000E7000C465443A646640F3C4303950294D5
:100F40007446049DE4002C1B049406D2029C039D6D
:100F5000641C002675410395029401AC70CC009F7F
:100F60007D1BB441AE09AF06049DC900AD092F43F6
:100F7000049DA406AD060495079D344369180791A6
:100F8000059DE10B4D432D0C2946664675430295A0
:100F90000D4645432E46029D7D1BB44100950D46EE
:100FA0005D4301942C0C2F040D465543AE462D0C89
:100FB0003D43029503947546049C2D04641B0494E0
:100FC00006D2029C039D641C002675410395029481
:100FD00001AC70CC009F7D1BB44101948C0506943C
:100FE000079C890A611800950791019C0599A4083E
:100FF0006143090C0D464543680BEF040D466446FA
:1010000065436C0B3C43049FED047D1BAC4602D250
:101010000025641C6841009E019D371B85410846E0
:10102000584301950C46460FC5005443600F2843B2
:101030006546E4002C1B02D20025401C6E41019D38
:101040003F1AB5412846BD09800628438446A009B9
:10105000BF064E020699A40676180743079D002096
:1010600068410A99079019430020099B0090604647
:10107000FF1913434041E20F64003A43A44604467B
:10108000D71A8C41A04203D90120009020463A464D
:10109000C70F941840416246D20F22436446640051
:1010A0000494009CBE466400D71AA44604460297E6
:1010B0008C417746002F01D1A04204D96046401CE4
:1010C0008446029A2046C40FA64694184041049ACA
:1010D0000546D20F224364466400D31A8D417146FF
:1010E000002901D1A84202D928461A46641C10439F
:1010F0000122002800D0164361020020079B8919B5
:1011000004465C410223002C02DB4918134664416B
:10111000089DCE0A2D145D194B056705E10A2C05C3
:101120000D1908993E43C9076940002B08D0934028
:1011300006D30022761C5141002B01D1760876009F
:101140001C4A002D43DB154241D0AA433FD0304614
:101150000BB0F0BD06180D464D41174C7642AC4120
:101160001AD395181C465C41134A6D42A24113D311
:10117000012252054C00D4420AD15C00D4420BD06B
:101180004B4002D592021143E2E749004908DFE7EC
:101190005940C90FC90718E000200849D8E7054899
:1011A00001420DD10342F7D0F2E700000000FF0733
:1011B000059B00000000F07F0000E0FF0000F87FCA
:1011C000114859400143C01241400020C0E70123AB
:1011D000089A9B069A4205DC032252078918C90F18
:1011E000C907B5E7052252078918074A1143D212E9
:1011F0005140ADE770B515461C4602460B462846E1
:101200002146FFF7DFFD70BDFFFFFF7F1F22030CAC
:1012100002D10F22000402D0030E03D004E000200C
:10122000014670470002083A030F01D10001121F66
:10123000830F01D18000921E002801DB4000521E66
:10124000120551184205C012411810467047C10FCF
:10125000C90700D04042012292071143D6E701217D
:101260008907D3E7F0B58B4C0F09254689B0BD43FC
:101270007BD01D092646AE43FAD00E465E4027407D
:10128000F60F3E43254071D024012142FBD0FF24BC
:10129000AD19A4042D1B039501252D05DB02DB0AE6
:1012A000C9022B43C90A29431E010901040F130F68
:1012B000050121431701880B820391432D098C46B8
:1012C000A90B1E438A039543B30B9A0396433F0928
:1012D000BA0B9403A74302962E467E430497B64664
:1012E0004E19D7190C460196544305977E43371B78
:1012F0007646BF1B3601B646BE0B361900967646BB
:10130000BC043719009C01D3641C00946400002FB6
:1013100001D001263443029E049F754366467E43F6
:101320000496760034196E0034190094029C019ED4
:101330001C196643751BAE46069465464519059C07
:1013400005956C43594375460891691A0191049EAD
:1013500001465143A41B0491611A009C0791E106C8
:1013600005D061090122114302E072E06EE06109DB
:10137000089D00272C0A2D066918049D7C412A0A25
:101380002D066918019D6241AC0DAD026D185441E6
:10139000079A910D920255196141029A6446584389
:1013A0005443069B059A5A43121A131B9A0E9B012B
:1013B0005B187A41010B0005C3185141220A20062F
:1013C00044195A419A4200D2491C012040028142EC
:1013D00003D315230226F64302E014230326F64323
:1013E0002020C51AA9401746AF40DA400A432046DC
:1013F0000399D8400914731819055118039A3843F2
:10140000D2075140AC4009D00122944006D30022BB
:10141000401C5141002C01D1400840001E4A93421B
:1014200012D3012203989206904207DB0520400761
:1014300009181A480143C012414004E00320400744
:101440000818C10FC907002009B0F0BD0020F1073E
:10145000FAE705180C464C4111486D42A04115D3DE
:1014600094181A465A410E48644290410ED3012006
:101470004A004005824209D35A00824206D35940AD
:10148000C90F084AC90700201143DDE700200649BB
:10149000DAE700000000FF07FE070000FFFFFF7F04
:1014A0000000E0FF0000F07F0000F87F0121C90587
:1014B0000123411842001B06D3185B0E0AD0C1104D
:1014C0000722D206891840075242D14201D5520064
:1014D00089187047090208D50146002A03D0C10FB8
:1014E000C9070020704710467047420202D0002012
:1014F00002497047072109050143F4E70000F87F1E
:101500000102C21504D00123DB071943002A0ADBBC
:101510009E239A1A02D40846D0407047FF22410009
:101520001206914201D900207047C017C04370478E
:10153000FFB504460D4681B024300090216888062E
:1015400004D51022E0699143216000E00120A84207
:1015500001DD471B00E000270498A1697A191018E3
:10156000081AA0612078C00602D42046FEF72EFF9C
:10157000002608E003986268A168805D9047206AB1
:10158000401C761C206204988642F3DB2078C0065B
:101590000AD52046FEF71AFF06E06268A1683020EF
:1015A0009047206A401C206238467F1E0028F4DCE9
:1015B00007E000986268A168405D9047206A401C7F
:1015C000206228466D1E0028F3DC2046FEF714FF3B
:1015D0002078000602D5022005B0F0BD0120FBE70F
:1015E00001694A1C02610878704700B58FB002910A
:1015F0000021059105490193794403911146049016
:101600006846FEF737FF0FB000BD0000E5FFFFFFA3
:101610000A681070521C0A6070473A2800D23038AD
:10162000202302469A43412A01D310463738884284
:1016300001D30020C043704702685118137801603D
:101640001846704710B5D160054979445161054984
:101650007944116200211161114600F0AFF810BD0C
:10166000EBFFFFFF550100004268002A08D0016827
:101670000B78491C002B03D0521E06C01846704739
:101680000121C160881E70474268002A0BD0C368E0
:101690000168002B07D183688B4204D0491E521C7D
:1016A00006C0002070470020C0437047F8B5224CA8
:1016B0004E00069DA6420AD8A64201D1002806D1B6
:1016C0005E00A64203D8A6420AD1002A08D00D2403
:1016D000240425422CD02946002000F039FAF8BD18
:1016E0000C461C430CD4994202D0EFF30080F8BDA5
:1016F000904202D0EFF30080F8BDEFF30080F8BD18
:1017000009242407E5008B4206D0EFF30080A043B4
:10171000591A06D2284304E0101A05D3EFF30080CB
:10172000A04380F30088F8BDEFF30080A043F1E709
:10173000009500F025FAF8BD0000E0FF10B5FF238A
:101740001B0644009C421DD84C009C421AD80346FC
:10175000124A0B4307D4401A02D3EFF3008010BDA6
:10176000EFF3008010BD081A06D2EFF300800121CC
:101770009043C907084302E0EFF30080904380F3F1
:10178000008810BD0D231B041A4204D0114600200E
:1017900000F0DEF910BD00F0FDF910BD0000009072
:1017A000004870473028002010B5044600F01EFAAB
:1017B0000068005DC007C00F10BD0000F3B50C4607
:1017C0008FB000200C90012000260E9008460C30AF
:1017D00003906269039801219047051E2ED0252DA4
:1017E0002DD0216A8847002818D06269039801210A
:1017F0009047216A88470028F7D16269411E039803
:10180000904700E0761CA1690F988847216A8847B5
:101810000028F7D1E1690F988847DAE7A1690F98A6
:101820008847A842074601D1761CD2E7E1690F98A4
:1018300088477F1C02D10C98002877D075E1626937
:10184000039800273D46394690472A280CD1626903
:10185000039801219047012506E00A214F433F18D4
:10186000303FEBD410200543626903980121904773
:10187000014630390A2903D2B1498F42DEDCECE758
:10188000E90600D4AF4F6C280AD04C2810D0682845
:1018900024D06A282ED074280CD07A280AD00DE0E3
:1018A00062690398012190476C2823D004211CE031
:1018B000202005436269039801219047A7606528AD
:1018C00065604FD026DC582839D01ADC452849D02D
:1018D00012DC252834D04128B0D143E06269039856
:1018E00001219047682802D008210D43E6E7012036
:1018F000C002DEE70220DCE7462833D047289DD12E
:1019000030E05B2870D061282CD063286CD064282C
:1019100094D161E06F284FD009DC662822D0672877
:1019200020D0692826D06E2888D12EE0F9E07028D2
:101930004DD073286FD075284ED078280DD154E043
:10194000A1690F9888472528054600D16CE7E16911
:101950000F9888476D1C00D16DE7E6E00A224CE045
:101960000A2252E0012023466A460F99C043C0462E
:10197000C046CFE040212846234608436060A807C0
:1019800001D5002239E000223FE0E80700D020E73F
:101990002068011D21600068290501D5067018E73F
:1019A000290701D5068014E7A90703D5F1170660BA
:1019B00041600EE706600CE74021284623460843B5
:1019C0006060A80701D5082217E008221DE05E49E3
:1019D00028460840606016E0402128462346084318
:1019E0006060A807BCD5B9E715E040212846084348
:1019F0006060A80707D52346102201200F99C04335
:101A0000C046C04686E01022234601200F99C043FD
:101A1000FEF714FE7EE0002163280B460191009141
:101A200002910D9102D05B2808D03CE02079C006DD
:101A300001D40120A0600120009034E0E068012181
:101A40000D906269039890475E2807D101200190AC
:101A5000E06801210D90626903989047216900298F
:101A600006D10B4604AA8F00491C0829D351FADB82
:101A700000285AD02169002927D00298401C0290E2
:101A800062690398012190475D28F1D101980028EF
:101A900008D0002004AB8100401C5A58D2430828CB
:101AA0005A50F8DB04AB2069002820791DD040078C
:101AB00026D5029A00980D9B0092224602900120A2
:101AC0000F99C043C046C04624E0C117C90E09188B
:101AD0004A114909930004AA9A184901411A136846
:101AE0000120884003431360CAE740072246174895
:101AF0000F9902D5C046C0460CE0C046C04609E07A
:101B00000298224600990D9B009002910F480F9970
:101B1000C046C04600280ADA401C06D10E980028AC
:101B200003D00020C04311B0F0BD0C98FBE7E907DB
:101B300002D10C99491C0C91361800200E9048E6F1
:101B4000CCCCCC0CFFFFFF7FF1F7FFFFFEFFFFFFC8
:101B5000C80212D54803400F002804D0C803C04370
:101B6000012188407047EFF3008000010009032144
:101B70000907084380F30088704700207047000081
:101B800010B500200249029A00F084F810BD000050
:101B90000000F87F10B5024800F07CF810BD00008E
:101BA0000000C07F00487047102800207546FFF7EE
:101BB000F9FFAE46050069465346C008C000854699
:101BC00018B020B5FEF732FB60BC00274908B646C6
:101BD0000026C0C5C0C5C0C5C0C5C0C5C0C5C0C53C
:101BE000C0C5403D49008D467047000010B5FFF765
:101BF000D7FD001D10BD00BFD175000010B5044613
:101C0000C046C0462046FEF7A9FA10BD024670B590
:101C10000A4392072AD11E4DEE0104C808C9541B7D
:101C20009443344017D0D0B2D9B2401A21060143B0
:101C300010D190B299B2401A210401430AD1100286
:101C40001902000A090A401A2102014302D1100EAA
:101C5000190E401A70BD9A42DFD010BA19BA8842E4
:101C600001D9012070BD0020C04370BD02780B78FF
:101C7000401C491C002A09D09A4207D102780B78EF
:101C8000401C491C002A01D09A42EFD0D01A70BDE6
:101C90000101010110B50C461107090F092904D0F3
:101CA0000A290AD008290CD104E011460820FFF7C0
:101CB0004FFF06E0510606D501E0510601D501208F
:101CC000C007214610BDD10607D501010909CC087E
:101CD0004907000E0006044309E0410F20024907AE
:101CE000000A0143200E00061D22D141014308468F
:101CF000E7E7000001491820ABBEFEE7260002001E
:101D0000704770B58C180578401C6B075B0F01D1CC
:101D10000378401C2A1106D10278401C03E00678A3
:101D2000401C0E70491C5B1EF9D12B0705D4002303
:101D3000521E0DD40B70491CFAE70378401CCB1AD5
:101D4000921C03E01D780D70491C5B1C521EF9D5D6
:101D5000A142D8D3002070BD10B5114811490860C8
:101D600019200968486110210E480068816101212D
:101D70000C480068C16106210A48006841623021B0
:101D8000084800688162592106480068C162012242
:101D90001146054805F0D1FB02490968086210BDEB
:101DA0007C0100207800002020200000FFB58DB0CD
:101DB00016ACD0CC2546641C641C701E4000E24961
:101DC000401841782046641C0D9A1154701E400042
:101DD000DD49095C2046641C0D9A11542046641CA0
:101DE0000D990F5400200A900B90330005F01EFA55
:101DF000311A1A1B1C1D1E1F2021222324252627D1
:101E000028373839696A6B6C6D6E6F707172808EAD
:101E100094C3C9CACBCCCDCECFFEFDFCFBFAF9F8FA
:101E2000F7F61A0082E181E180E17FE17EE17DE168
:101E30007CE17BE17AE179E178E177E176E175E1D6
:101E4000C24800880004010E2046641C0D9A1154FB
:101E5000BE4801782046641C0D9A115466E165E184
:101E600064E120212046641C0D9A1154B848006892
:101E700001782046641C0D9A1154B5480068017918
:101E80002046641C0D9A1154B1480068017A20461E
:101E9000641C0D9A1154AE480068017C2046641CF5
:101EA0000D9A1154AA480068017D2046641C0D9AC1
:101EB0001154A7480068017E2046641C0D9A1154F5
:101EC00034E133E132E131E130E12FE12EE12DE186
:101ED0002CE12BE19F48408800122146641C0D9A9A
:101EE00050549C4881782046641C0D9A11541DE181
:101EF0009848808800122146641C0D9A50549548D9
:101F000001792046641C0D9A11540FE10B212046E3
:101F1000641C0D9A115409E18F480068FFF7C6FA56
:101F200001230822059104900AA906A803F0A6FA45
:101F300000200290059904980191009006A80FC80E
:101F400000F046FB08A8017A2046641C0D9A115443
:101F500008A8417A2046641C0D9A115408A8817A79
:101F60002046641C0D9A115408A8C17A2046641CAE
:101F70000D9A1154DAE001212046641C0D9A115487
:101F8000D4E0D3E0D2E0D1E0D0E0CFE0CEE0002159
:101F90002046641C0D9A11542046641C0D9A11545D
:101FA0006E480068C1782046641C0D9A11546B4835
:101FB000006801792046641C0D9A1154FF212046C7
:101FC000641C0D9A11542046641C0D9A115420462D
:101FD000641C0D9A11542046641C08E086E078E0E9
:101FE0006FE068E045E03CE03AE00AE002E00D9A8C
:101FF00011549BE0574801782046641C0D9A1154F7
:1020000094E055480068FFF751FA01230822059132
:1020100004900AA906A803F031FA0020029005995D
:1020200004980191009006A80FC800F0D1FA08A802
:10203000017A2046641C0D9A115408A8417A204662
:10204000641C0D9A115408A8817A2046641C0D9ACC
:10205000115408A8C17A2046641C0D9A115465E0F9
:1020600064E03E48006841792046641C0D9A115492
:102070005CE03A4800688068000E2146641C0D9AB6
:1020800050543648006880680002010E2046641CE7
:102090000D9A11543148006800890004010E204651
:1020A000641C0D9A11542D480068017A2046641C66
:1020B0000D9A11543AE000212046641C0D9A1154E7
:1020C00034E026480068017B2046641C0D9A1154B8
:1020D0002CE0204881792046641C0D9A1154204838
:1020E00001782046641C0D9A11541FE0012F0ED177
:1020F0001C4800880004010E2046641C0D9A1154EF
:10210000184801782046641C0D9A11540DE01648B9
:1021100000880004010E2046641C0D9A11541248D8
:1021200001782046641C0D9A115400BF00BF601B4B
:102130000004000E0D994855601BC1B2681C0D9A31
:102140001154204611B0F0BDB80100201C0200203F
:1021500034020020AC010020200200207800002082
:1021600030020020280200202C02002010B502F0CE
:1021700011FF024800F01CFE10BD000000B4014039
:1021800000BF04480068400840000249086000BFE2
:102190007047000000B4014010B500BF0848006956
:1021A000C007C00F012148404840002806D000BFAA
:1021B00001200349086100BF00F070F910BD000064
:1021C00000B4014000B585B014216846FEF75DFB00
:1021D00040200090002001900120029000200390F8
:1021E0006946044800F0EEFF4021024801F039F949
:1021F00005B000BD000C004000B585B01421684654
:10220000FEF743FB40200090012001900020029047
:1022100003906946044800F0D5FF4021024801F0D0
:10222000A9F805B000BD0000000C00401FB582B049
:10223000089C0398042805DD002C03D100200146EA
:1022400006B010BD0398082804DD002C02D0002041
:102250000146F5E70399029806F083F9002004E0AF
:102260000299095C6A461154401C03998142F7DCCB
:10227000002C02D001990098E2E70098FFF716F9C8
:10228000DEE730B503460C460020214604E05D5CE5
:102290002D18E8B24D1CE9B29142F8DB30BD0000C8
:1022A00010B5114800681021415E1048814209D1E3
:1022B00000200D490968088202210B48006810308F
:1022C00000F0BAF9084801681220085E0749884200
:1022D00009D10020044909684882022102480068A7
:1022E000123000F0A9F910BD78000020FFFF0000B7
:1022F000F0B589B004460D4616461F463FA207CAF0
:10230000059204910390E117090F091909117D2223
:10231000D20051430094E217120F12191211120148
:10232000A21A64235A438918EA17120F521912117C
:102330000A235A4389182846EA17120F1218121155
:102340001201AA1A8918029501940891F217120F26
:10235000921912115A433046F3171B0F1B181B1109
:102360001B01F31AD218D2B20792FA17120FD21920
:1023700012110A235A433846FB171B0F1B181B1157
:102380001B01FB1AD218D2B206920798022819D163
:1023900008988007800F002805D164210898FEF76F
:1023A00076FA002906D1FF2191310898FEF76FFADD
:1023B000002906D16846407B401CC1B26846417383
:1023C00000E000BF07980C2802DD002009B0F0BD36
:1023D00006981F2801DD0020F8E70798012809DB8F
:1023E0000798401E03A9095C0698814202DB069803
:1023F000012801DA0020E9E70120E7E71F1C1F1E82
:102400001F1E1F1F1E1F1E1FF0B5034618110A278F
:1024100078431F073F0FC019C4B208110A27784339
:102420000F073F0FC019C5B210110A2778431707CD
:102430003F0FC019C6B2002C02D011DD182C0FDAE4
:10244000002D02D00ADD3C2D08DA002E02D003DD7B
:102450003C2E01DA0120F0BD0020FCE70020FAE765
:102460000020F8E710B504484188FD38FEF70BFA64
:1024700000210148418010BD8025002010B504488E
:102480004188FD38FEF7FFF900210148418010BD69
:102490008627002010B504F06DFD10BD10B5002496
:1024A00046E06001244940184078002800D13EE011
:1024B000600121494018C368816860011E4A801884
:1024C00002694069891A83410CD260011A49401897
:1024D0008268C0680021521C48416101164BC9182E
:1024E0008A60C860600114494018C368826860014E
:1024F000411808694969101A8B4104D30120610110
:102500000D4A505403E0002061010B4A5054600111
:102510000949085C012809D1600140188069002838
:1025200004D06101044A89188869804700BF641C8F
:10253000022CB6DB10BD00002801002000207047EF
:1025400008B5094802F096FB084802F093FB02F038
:102550009FFE0020009006480F22D2010023016C4C
:102560001846884708BD000000040140008401406F
:10257000D80000207FB5089D1348281800280BD0EC
:102580001249401800280DD0FF38113800280AD011
:102590004018002813D10CE068460FC804F0AAFBCD
:1025A00004460CE00BE068460FC8FFF7C7FF04467F
:1025B00005E068460FC803F0ADF8044600BF00BF51
:1025C000204604B070BD0000E16F7FFFF0FEFEFF0B
:1025D000FFB585B00F9E0E9D002002901098002838
:1025E00009D00698082801DA09B0F0BD01960095D7
:1025F000082002900AE00698042800DAF4E728464A
:102600003146FEF7F5F900900420029000240AE01C
:10261000E200009F0198039038460399FDF718FEE9
:1026200005990855641C02988442F1DB02990598CB
:1026300005F097FF00BFD7E770B505460E46044882
:10264000281AC4B221463246284600F04BF970BD24
:102650007C010020F8B5074630200090164E00207F
:1026600000F02CF831460978884201D1002F17D0AC
:10267000012409E0315DE0B200F09EF80546002D2E
:1026800001D02846F8BD641C00988442F2DB317802
:10269000002000F091F80546002D0BD02846F1E708
:1026A000012404E0E0B200F009F83055641C009801
:1026B0008442F7DB0020E5E77C01002038B50546C1
:1026C0000020009017490870002406E0284600F01A
:1026D0002BF869460855601CC4B2022CF6DB68462C
:1026E00001784078814202D16846007838BD28469A
:1026F00000F01AF86946887068460178807881424F
:1027000002D168460078F1E76846417880788142D6
:1027100002D168464078E9E7012002490870552057
:10272000E4E70000B401002070B50446A02502F0E3
:1027300043F9284602F0F0F802F09CF8002806D190
:1027400002F060F9012000F0D1FB552070BD01209E
:1027500000F0D8FB204602F0DFF802F08BF80028EA
:1027600006D102F04FF9012000F0C0FB5520EDE743
:10277000012000F0C7FB02F01FF9A125284602F056
:10278000CBF802F077F8002806D102F03BF90120DF
:1027900000F0ACFB5520D9E7012000F0B3FB02F0BC
:1027A0008BF8064602F0E8F802F02CF9012000F060
:1027B0009DFB3046CAE7000070B506460C46002077
:1027C0000C49087000250DE02146304600F014F851
:1027D0003046FFF773FFA04202D10648007870BD73
:1027E000681CC5B2032DEFDB0120024908700846C2
:1027F0000078F4E7B401002070B505460C46A02629
:1028000002F0DAF8304602F087F802F033F80028D8
:1028100006D102F0F7F8012000F068FB552070BDEA
:10282000284602F079F802F025F8002806D102F0D7
:10283000E9F8012000F05AFB5520F0E7204602F0AD
:102840006BF802F017F8002806D102F0DBF801203F
:1028500000F04CFB5520E2E702F0D4F8012000F034
:1028600045FB0020DBE7F8B505460E461746002479
:1028700005E03119C8B2FFF721FF2855641CBC429E
:10288000F7DB0020F8BD000000B585B014216846D4
:10289000FDF7FBFF01200090002001900120029035
:1028A000002003906946024800F08CFC05B000BD92
:1028B000800C004000B585B014216846FDF7E5FFA7
:1028C0000120009001900290002003906946044886
:1028D00000F078FC0121024800F0C6FD05B000BD03
:1028E000800C0040F7B506460F4600240AE0315D33
:1028F0003A19D0B2FFF760FF0546002D01D02846F7
:10290000FEBD641C02988442F1DB0020F8E701213F
:102910000160704710B50146012200BF48680028D9
:1029200015D013064868984211D05306486898425B
:102930000DD003231B064868984208D093064868C8
:10294000984204D005231B064868984201D1012013
:1029500000E00020002801D100BFFEE700BF00BF5B
:10296000086800280DD001231B040868984208D08D
:102970005B000868984204D003231B04086898424F
:1029800001D1012000E00020002801D100BFFEE7B6
:1029900000BFFF200130134BDB6A0343114CE3629D
:1029A00000BF00030F4B40331B6B03430D4C4034FF
:1029B000236300BF486823461B6B07242406A343F8
:1029C0000343084C4034236300BF086823461B6B55
:1029D00003242404A3430343024C4034236300BF75
:1029E000104610BD0002004081684908490081601E
:1029F000704742690B031B0B9A4342617047816821
:102A00000122114381607047816802221143816075
:102A1000704742690B031B0B1A4342617047000069
:102A200070B502460124002300BFDA48824201D17A
:102A3000012000E00020002801D100BFFEE700BF18
:102A400000BF0868002804D001256D020868A8426C
:102A500001D1012000E00020002801D100BFFEE7E5
:102A600000BF00BF4868002804D00125ED02486877
:102A7000A84201D1012000E00020002801D100BFC0
:102A8000FEE700BF00BFC868002802D0C86804285D
:102A900001D1012000E00020002801D100BFFEE7A5
:102AA00000BF00BF086900280DD001252D0308696B
:102AB000A84208D06D000869A84204D003252D0360
:102AC0000869A84201D1012000E00020002801D1BE
:102AD00000BFFEE700BF00BF2020405C002803D0FD
:102AE0002020405C012801D1012000E000200028C6
:102AF00001D100BFFEE700BF00BF486A002821D017
:102B000001256D04486AA8421CD06D00486AA8429D
:102B100018D003256D04486AA84213D00125ED049E
:102B2000486AA8420ED005256D04486AA84209D01B
:102B30000325AD04486AA84204D007256D04486AFD
:102B4000A84201D1012000E00020002801D100BFEF
:102B5000FEE700BF00BF886A002826D001252D05AA
:102B6000886AA84221D06D00886AA8421DD003253A
:102B70002D05886AA84218D00125AD05886AA842AB
:102B800013D005252D05886AA8420ED003256D05B2
:102B9000886AA84209D007252D05886AA84204D072
:102BA0000125ED05886AA84201D1012000E000203E
:102BB000002801D100BFFEE700BF4020764DAD6A7E
:102BC0000543754EB56200BF00BF74480068B51577
:102BD0002843724D286000BF00BF70481838006855
:102BE000C007C00F01256840684000280FD100BF12
:102BF00001206A4D183D686000BF00BF284600688C
:102C000001252843654D183D286000BF00BF00BF67
:102C100062481838006802252843604D183D286036
:102C200000BF05E07D208002834200D30BE05B1CE7
:102C300000BF5A4818384068C007C00F01256840D7
:102C400068400028EED000BF00BF906840084000F8
:102C5000906000BF00BF9068C007C00F01256840AA
:102C6000684000287ED10868D56801267602B54301
:102C70000543D56000BF4868D568B600B543054335
:102C8000D56000BF087A002806D000BFD068751054
:102C90002843D06000BF07E000BFD0680125AD0227
:102CA000A843D06000BF00BF487A002807D000BF0B
:102CB000D068FF2501352843D06000BF07E000BF82
:102CC000D068FF250135A843D06000BF00BFC868A9
:102CD000D5680426B5430543D56000BF002095683C
:102CE000F601B5430543956000BF00BF95687610B7
:102CF000B5430543956000BF0869D56803263603D0
:102D0000B5430543D56000BF4869D568F026B54393
:102D10000543D56000BF0B20000215693601B5439D
:102D20000543156100BF886915692D092D0105430B
:102D3000156100BFC8691569F026B54305431561E3
:102D400000BF2020405C002819D0486AD5680726BB
:102D50007604B5430543D56000BF886AD5680F2661
:102D6000360500E013E0B5430543D56000BF00BF62
:102D7000D06801252D042843D06000BF08E000BFC3
:102D8000D06801252D04A843D06000BF00E00024D6
:102D9000204670BD00AC01400002004024A8014064
:102DA00001460868C007C00F0122504050407047DC
:102DB00001680122114301607047000030B50246EE
:102DC0007D235B0100BF3F48824201D1012000E02A
:102DD0000020002801D100BFFEE700BF00BFC86887
:102DE000002808D0C868012805D0C868022802D089
:102DF000C868032801D1012000E00020002801D18B
:102E000000BFFEE700BF00BF8868012802D08868C5
:102E1000002801D1012000E00020002801D100BFDE
:102E2000FEE700BF0120284C646B0443264D6C6311
:102E300000BFC868244C4034246BA408A400044399
:102E4000214D40352C6300BF10202C46246B0443D9
:102E50002C6300BF0868946A906200BF00BF1068CE
:102E60000224A043106000BF4868D46AD06200BF4B
:102E70008868012806D100BF1068802420431060B4
:102E800000BF06E000BF10688024A043106000BFB0
:102E900000BF00BF506901242043506100BF00E023
:102EA0005B1E00BF1069C007C00F01246040604076
:102EB000002801D1002BF3D100BF0120106100BF19
:102EC00030BD000000B40140000200400648006927
:102ED00004210843044908610846006901210843A8
:102EE000014908617047000000E000E010B50446A9
:102EF00003E07D20C00000F005F82046641E002895
:102F0000F7D110BDFEB50746002613484069009072
:102F1000124913480068FDF7BAFC7843019005F0A8
:102F2000B1FC0D48856911E00B488469AC420DD0B5
:102F3000AC4202D2281B861903E00098001B4019FE
:102F4000861925460198864200D300E0ECE700BFD1
:102F500006F020F8FEBD000000E000E040420F0057
:102F600074000020014600BF0868002804D0012238
:102F700092070868904201D1012000E0002000285B
:102F800001D100BFFEE700BF80200D4A926A0243D4
:102F90000B4B9A6200BF0006094A4032D26A0243D4
:102FA000074B4033DA6200BF08681A46D26A1B0634
:102FB0009A430243024B4033DA6200BF012070475C
:102FC00000020040FEB504460D46002002905C4918
:102FD0005C480068FDF75BFCC8214843019000BFD6
:102FE000012C23D0022C21D0042C1FD0082C1DD062
:102FF000102C1BD0202C19D0402C17D0802C15D091
:10300000FF200130844211D0400084420ED04000A5
:1030100084420BD04000844208D04000844205D056
:103020004000844202D04000844201D1012000E0EF
:103030000020002801D100BFFEE700BF00BF2868C4
:10304000002808D02868012805D02868022802D066
:103050002868032801D1012000E00020002801D1C8
:1030600000BFFEE700BF00BF6868002808D068689E
:10307000012805D06868022802D06868032801D1B9
:10308000012000E00020002801D100BFFEE700BFC2
:1030900000BFA868012802D0A868002801D101203B
:1030A00000E00020002801D100BFFEE700BF274656
:1030B000002602E07F08701CC6B2012FFAD173000F
:1030C000286898400146B0001F4B1A581F48904787
:1030D000A868012808D100BF1C488068A1B2084335
:1030E0001A49886000BF03E02146184800F04BF8F9
:1030F000F017000F801900118000154900960B5839
:10310000214612486A6898470020029003E000BFF9
:103110000298401C0290019902988842F7D32146F8
:103120000A4800F02DF81E20002805DBC206D20E4A
:1031300001219140074A116000BF0120FEBD00003F
:1031400040420F007400002060940000000D004019
:103150009C94000080E200E00348806B400840003F
:10316000014988637047000000A801400348C06B14
:10317000C007C00F012148404840704700A80140E7
:103180008AB2C260704782688BB29A43826070478D
:10319000826A8BB29A438262704702688BB29A430A
:1031A0000260704782688BB29A43826070474268BF
:1031B0008BB29A4342607047026A8BB29A430262B2
:1031C00070470000F8B506460C460027002500BFF2
:1031D000654886420BD064484030864207D062483A
:1031E0008030864203D06048C030864201D1012041
:1031F00000E00020002801D100BFFEE700BF00BFB3
:103200002068002805D959492068884201D8012042
:1032100000E00020002801D100BFFEE700BF00BF92
:103220006068032808D06068002805D0606801281D
:1032300002D06068022801D1012000E000200028AF
:1032400001D100BFFEE700BF00BFA068012802D087
:10325000A068002801D1012000E00020002801D151
:1032600000BFFEE700BF00BFE068002802D0E068B2
:10327000012801D1012000E00020002801D100BF79
:10328000FEE700BF80203A49896A0143384A9162CB
:1032900000BF62E00121B940206808400546002DCA
:1032A0005AD06068032812D129463046FFF775FFCF
:1032B00029463046FFF77BFF29463046FFF772FF6D
:1032C00000BFB06AA9B20843B06200BF2EE0294631
:1032D0003046FFF75DFF6068002806D100BF306808
:1032E000A9B20843306000BF03E029463046FFF72B
:1032F00054FFA068002804D129463046FFF752FF4A
:1033000006E000BFB068A9B20843B06000BF00BFCC
:10331000E068002806D000BF7068A9B2084370605A
:1033200000BF03E029463046FFF741FF60680228EE
:103330000DD12069012806D100BF306AA9B2084327
:10334000306200BF03E029463046FFF735FF2946CB
:103350003046626800F094F87F1C2068F84000282E
:1033600098D10120F8BD0000000C0040FFFF0000D4
:10337000000200408AB2826170478AB2826170475F
:103380008AB2826170478AB2826170478AB2826172
:1033900070470268920892000A4302607047026810
:1033A0000C239A430A4302607047026803231B05FB
:1033B0009A430A4302607047026803239B059A43BD
:1033C0000A4302607047026803231B069A430A43BC
:1033D00002607047026803239B069A430A43026017
:1033E0007047026803231B079A430A430260704731
:1033F000026830239A430A43026070470268C02380
:103400009A430A4302607047026803231B029A43EF
:103410000A4302607047026803239B029A430A43EF
:1034200002607047026803231B039A430A43026049
:103430007047026803239B039A430A430260704764
:10344000026803231B049A430A4302607047026820
:1034500003239B049A430A43026070478AB2426185
:1034600070478AB2426170478AB2426170478AB23D
:10347000426170478AB2426170478AB242617047C6
:1034800030B5C3680C464C4365006419A3430C4631
:103490004C4354432343C36030BD30B543680C46AE
:1034A0004C4365006419A3430C464C4354432343E7
:1034B000436030BDF0B5024600230125002400BF63
:1034C0003C48824201D1012000E00020002801D1C7
:1034D00000BFFEE700BF00BF374E4868B04201D2D0
:1034E000012000E00020002801D100BFFEE700BF5E
:1034F00000BF0868002814D00868012811D00868A7
:1035000002280ED0086803280BD00868042808D0C9
:103510000868052805D00868062802D0086807282A
:1035200001D1012000E00020002801D100BFFEE70A
:1035300000BF2020214EB66A0643204FBE6200BF66
:1035400000BF1F48106000BF08685668F608F60004
:103550000643566000BF00BF90680005000D04469A
:10356000486800281CD0002C0DD100BF00BF906817
:103570000005000D012813D018465B1CFF26F53608
:10358000B042F3D30CE000BF00BF90680005000D0F
:10359000002805D018465B1CFF26F536B042F3D351
:1035A0004868D668360B36030643D66000BF284607
:1035B000F0BD000000140140FF0F000000020040B9
:1035C0005A5A341210B5FFF781FC10BD81690122EF
:1035D00011438161704701680122120611430160A5
:1035E0007047000070B505460C46012600BF8C48A8
:1035F000854201D1012000E00020002801D100BF58
:10360000FEE700BF00BF206800280DD0FF21013178
:103610002068884208D049002068884204D00321ED
:1036200009022068884201D1012000E00020002822
:1036300001D100BFFEE700BF00BF6068002804D0D2
:10364000012189036068884201D1012000E0002047
:10365000002801D100BFFEE700BF00BFA06800281E
:1036600021D001218902A06888421CD04900A068AD
:10367000884218D003218902A068884213D0012112
:103680000903A06888420ED005218902A0688842FB
:1036900009D00321C902A068884204D00721890209
:1036A000A068884201D1012000E00020002801D15B
:1036B00000BFFEE700BF00BF2069002808D02069D6
:1036C000012805D02069022802D02069032801D1F1
:1036D000012000E00020002801D100BFFEE700BF6C
:1036E00000BFE069002805D0E069202802D0E06929
:1036F000402801D1012000E00020002801D100BFB6
:10370000FEE700BF00BF6069002802D0606904289E
:1037100001D1012000E00020002801D100BFFEE718
:1037200000BF00BFA069002802D0A069802801D195
:10373000012000E00020002801D100BFFEE700BF0B
:10374000374885421ED101203649896A0143354AEE
:10375000916200BF2069022814D090143149403191
:10376000096B01432F4A4032116300BF20681146A4
:10377000096B03221202914301432A4A403211632A
:1037800000BF00BF60682968012292039143014392
:10379000296000BFA0682968072292029143014373
:1037A000296000BF206929688908890001432960D0
:1037B00000BF2069002806D0012811D0022814D0AB
:1037C00003281FD119E0012189036068884206D1CE
:1037D0002846A16900F028F82846FFF7FCFE11E012
:1037E0002846E16900F026F80CE02846A16900F0BF
:1037F0001BF82846FFF7EFFE04E02846E16900F0D9
:1038000019F800BF00BF6069296804229143014391
:10381000296000BFE068E968E86000BF304670BD1D
:103820000034014000020040026880239A430A43AA
:1038300002607047026860239A430A43026070473F
:103840000121816070474168FF22013211434160CC
:1038500070470000F8B505460C460027002600BF5B
:103860009248854202D09248854201D1012000E071
:103870000020002801D100BFFEE700BF00BF206884
:10388000002805D02068012802D02068022801D134
:10389000012000E00020002801D100BFFEE700BFAA
:1038A00000BF606805280ED0606804280BD06068EF
:1038B000032808D06068022805D06068012802D07B
:1038C0006068002801D1012000E00020002801D11B
:1038D00000BFFEE700BF00BFA068C02808D0A068F6
:1038E000002805D0A068402802D0A068802801D117
:1038F000012000E00020002801D100BFFEE700BF4A
:1039000000BFE068002804D0FF210131E068884250
:1039100001D1012000E00020002801D100BFFEE716
:1039200000BF00BF2069002805D02069102802D000
:103930002069202801D1012000E00020002801D1C9
:1039400000BFFEE700BF00BF6069002808D06069C3
:10395000022805D06069012802D06069032801D1DE
:10396000012000E00020002801D100BFFEE700BFD9
:103970004E48854219D10120C00300F093F9A804F4
:1039800000F088F9217808064A49C96A032212061C
:1039900091430143474AD16200BF01214906206893
:1039A00088421CD100F086F919E00120800400F063
:1039B00079F90120400700F06DF9217888063D492A
:1039C000C96A03229206914301433A4AD16200BF79
:1039D0000121C9062068884201D100F06BF9207DE1
:1039E000C007C00F00280DD000BF00BF286801210C
:1039F0000843286000BF00BF28680840484048408E
:103A00000028F2D002216069084000280CD000BFD5
:103A100000BF286802210843286000BF00BF286853
:103A2000084040080028F3D06068E968C908C90068
:103A30000143E96000BFE0682968FF220132914339
:103A40000143296000BFA0682968C0229143014357
:103A5000296000BF20692968302291430143296011
:103A600000BF6068030003F0E1FB060406080A0DCE
:103A70001012114E0DE0114E0BE0114E09E00E4EEA
:103A8000C03E06E00E4E761F03E00E4E01E00A4EE9
:103A900000BF00BF00BFE8680B490840310408437D
:103AA000E86000BF01273846F8BD0000000401406F
:103AB000008401404002004052050000FB1E00004F
:103AC000DB16000042080000FFFF00E001468868A6
:103AD000FF2201321040000A704701468868022226
:103AE00010404008704701468868C007C00F012297
:103AF00050405040704701464868FF220132104054
:103B0000000A70474269520A52020A4342617047F2
:103B100070B505460C462868032801D903202860A3
:103B20002046002805DBC206D20E01219140094A39
:103B3000116000BF2046296801F064FC204600287F
:103B400006DBC206D20E01219140024A803A116082
:103B500000BF70BD80E100E030B50246002300BF29
:103B60004A48824201D1012000E00020002801D112
:103B700000BFFEE700BF00BFC868002804D00124D2
:103B8000E404C868A04201D1012000E00020002820
:103B900001D100BFFEE700BF00BF0878002802D0B7
:103BA0000878012801D1012000E00020002801D17F
:103BB00000BFFEE700BF00BF012464024868A042C6
:103BC00002D04868002801D1012000E00020002830
:103BD00001D100BFFEE700BF00BF8868002808D001
:103BE0000124A4028868A04203D064008868A0422F
:103BF00001D1012000E00020002801D100BFFEE734
:103C000000BF00BF0869002808D00869012805D056
:103C10000869022802D00869032801D1012000E0C8
:103C20000020002801D100BFFEE700BF08695468EA
:103C3000A408A4000443546000BF886814680325E6
:103C4000AD02AC430443146000BF0878012807D1DB
:103C500000BF1068FF2401342043106000BF07E05C
:103C600000BF1068FF240134A043106000BF00BFF4
:103C70000020074C20614868146801256D02AC43A0
:103C80000443146000BF0123184630BD000100400A
:103C900000ED00E00249C96A0143014AD162704760
:103CA000400200400249096B0143014A1163704719
:103CB000000200400348406A01210843014948626C
:103CC00070470000400200400449096B07221206B9
:103CD00091430143014A11637047000040020040D4
:103CE0000349896B090A09020143014A916370473C
:103CF00000020040024600BF1C48106000BF8869F7
:103D0000D368DB09DB010343D36000BF4869136953
:103D1000DB09DB010343136100BF086953699B0999
:103D20009B010343536100BF886893699B099B0112
:103D30000343936100BFC868D369DB08DB0003431A
:103D4000D36100BF4868136A5B095B0103431362D8
:103D500000BF0868536A1B0A1B020343536200BF7B
:103D600000BF0348106000BF01207047ACACACAC92
:103D70005A5A5A5A024600BFD0684006400E88611F
:103D800000BF10694006400E486100BF50698006C0
:103D9000800E086100BF90698006800E886000BFB9
:103DA000D0694007400FC86000BF106AC006C00E4F
:103DB000486000BF506AC0B2086001207047000030
:103DC00030B504460D4600BF0B48844201D10120A6
:103DD00000E00020002801D100BFFEE700BF042062
:103DE0000649896A0143054A916200BF2946204677
:103DF000FFF780FF012030BD0010014000020040AD
:103E00000168FF2201329143016070470168FF227F
:103E1000013211430160704701684908490001609F
:103E200070470168012211430160704700B585B0F9
:103E300014216846FCF729FDFF2001300090002086
:103E400001900290039069462248FFF7BBF90320D6
:103E500040020090012001900020029003906946EA
:103E60001C48FFF7AFF9032149021A48FFF788FA07
:103E700018200090012001900020029003906946D4
:103E800014484030FFF79EF9182112484030FFF7E0
:103E900077FA20200090002001900290039069465C
:103EA0000C484030FFF78EF90B20400200900120B3
:103EB0000190029000200390694606484030FFF7C9
:103EC00081F90B21490203484030FFF759FA05B048
:103ED00000BD0000000C004010B500F065F804467D
:103EE000204610BD10B510211048FFF7C0FA01217F
:103EF00049020E48FFF744FA012189020B48FFF7F7
:103F00003FFA0121490209484038FFF739FA1021E8
:103F10000648FFF735FA08210448FFF731FA012176
:103F2000890202484038FFF72BFA10BD400C0040D0
:103F300010B5012189020848FFF799FA1420FEF70D
:103F4000D5FF00F05DF80548006800F091F81021F9
:103F50000148FFF78CFA10BD400C004024020020FD
:103F600070B5002410210F48FFF70AFA002515E06C
:103F700008210C48FFF77BFA640000BF094840386D
:103F8000C06980B2FF2101310840002800D0641CC4
:103F900008210448FFF7F4F9681CC5B2102DE7DBCF
:103FA000204670BD400C004070B5002410210F4821
:103FB000FFF7E6F9002515E008210C48FFF757FA4E
:103FC000640000BF09484038C06980B2FF21013158
:103FD0000840002800D0641C08210448FFF7D0F9ED
:103FE000681CC5B2202DE7DB204670BD400C0040A8
:103FF00010B50024FFF7B4FF0446204610BD0000B2
:1040000010B5012149020F48FFF731FA6420FEF78D
:1040100079FF10210B484030FFF729FA0220FEF704
:1040200071FF102107484030FFF7AAF90821052049
:10403000000300F08FF8102102484030FFF717FA14
:1040400010BD0000000C0040F8B504460D461646B1
:104050001F462002401900901021009800F07AF8C5
:104060003002C01900901021009800F073F8F8BDDC
:1040700010B5044610213548FFF7F9F90120FEF785
:1040800041FF10213148FFF77BF968238722F32194
:104090008020FFF7D9FF10212C48FFF7E8F9012015
:1040A000FEF730FF10212948FFF76AF90023442268
:1040B00021218120FFF7C8FF10212448FFF7D7F9FD
:1040C0000120FEF71FFF10212048FFF759F91021AA
:1040D0001F4800F03FF8204600F066F810211B480A
:1040E000FFF7C5F90120FEF70DFF10211748FFF774
:1040F00047F900231A4610218320FFF7A5FF10215E
:104100001248FFF7B4F90120FEF7FCFE10210F481A
:10411000FFF736F900231A4620218420FFF794FF89
:1041200010210A48FFF7A3F90120FEF7EBFE10214A
:104130000648FFF725F900231A4648218520FFF796
:1041400083FF10210148FFF792F910BD400C004099
:10415000E082000070B504460D4610211148FFF7BB
:104160000FF900261BE008210E48FFF780F9012116
:1041700089020C484038FFF703F90120C0032040B2
:10418000002805D00121890206484038FFF76FF961
:10419000640008210348FFF7F3F8701CC6B2AE4272
:1041A000E1DB70BD400C004010B5044610212046F4
:1041B000FFF7D0FF10BD000010B510200849C968F6
:1041C0000140814201D1012100E00021002905D0F8
:1041D00010200349C86000BF01F0DCFD10BD0000E5
:1041E000000D0040F8B50646002703200006FFF743
:1041F0006BFD00BF2048C068012108431E49C8600C
:1042000000BF1E491E48FEF7F4FB012149041C486B
:10421000FEF7FFFB1A48FEF77AFB1948FEF7EFFBA3
:104220001748FEF7F1FB00BF1548FEF7B9FD04463D
:104230007F1C1448874201D0002CF5D0012C17D1E7
:104240000F48FEF764FB00BF0D48806980B2306004
:104250000B48FEF7C9FB61040948FEF7CAFB00BF23
:104260000548C068A0430449C86000BF002500E0BD
:1042700001252846F8BD00000CA80140FFFF0F00F3
:1042800000AC0140FF010000F0B58BB000242821F4
:1042900001A8FCF7FAFA002700210D460E461A483D
:1042A000FFF7BFFD18481830FFF7B0FD1748FEF7BD
:1042B000A6FB1420FEF71AFE00BF0EE001208002CC
:1042C00000F0AAF8A10001AA5050A00001A90858C6
:1042D000002145194E41601CC4B20A2CEEDB0A22B3
:1042E000002328463146FBF7DCFF05462F460648EB
:1042F000FFF792FD04481830FFF782FD0348FEF7F0
:1043000073FB38460BB0F0BD0CA8014000AC014077
:10431000F0B58BB00024282101A8FCF7B6FA0027DD
:1043200000210D460E461A48FFF77BFD184818304D
:10433000FFF76CFD1748FEF762FB1420FEF7D6FD71
:1043400000BF0DE0012000F067F8A10001AA505065
:10435000A00001A90858002145194E41601CC4B2B3
:104360000A2CEFDB0A22002328463146FBF799FF8F
:1043700005462F460648FFF74FFD05481830FFF762
:104380003FFD0448FEF730FB78000BB0F0BD0000A5
:104390000CA8014000AC0140F3B581B00E460027E7
:1043A00003200006FFF790FC18491948FEF721FB8F
:1043B00017480199FEF72DFB1548FEF7A8FA144897
:1043C000FEF71DFB1248FEF71FFB00BF1048FEF76B
:1043D000E7FC04467F1C0F48874201D0002CF5D033
:1043E000012C10D10A48FEF792FA00BF08488069F4
:1043F00080B230600648FEF7F7FA05480199FEF7EB
:10440000F8FA002500E001252846FEBDFFFF0F0059
:1044100000AC0140FF010000F1B58AB00020089017
:104420000790069008A8FFF7DDFEC0B2059006A928
:104430000A98FFF7B1FFC0B204900898002821D075
:10444000059800281ED1049800281BD10F49069812
:1044500002F0D4FE0E4A1489002506460F46224675
:104460002B46FBF706FF019100900A49089802F0DD
:10447000C5FE02460B460391029001990098FBF796
:1044800010FF079007980BB0F0BD0000B80B0000BC
:1044900000FBFF1FFF0F0000F7B5B6B00F4600206E
:1044A0003290339034903590369832903397002183
:1044B00012E03698405C682807D18F4204DD3698B8
:1044C00040183290781A339008E0781E884202D162
:1044D000002039B0F0BD491CB942EADB00BF329878
:1044E000807A31903198002803DB339931988142EA
:1044F00001DA0020EDE732980078682803D132987D
:104500004078442801D00020E3E732988078FF28E3
:104510000BD13298C078FF2807D132980079FF2854
:1045200003D132984079FF280FD0C8480068C0787E
:1045300032990979884206D1C448006800793299D5
:104540004979884201D00020C3E73199CAB20021DD
:104550003298FDF796FE329A3199515C884201D02B
:104560000020B6E7002030902F900422B748016861
:10457000491C2FA8FCF72AF900243898002804D0F9
:104580003898012801D00020A3E700202B902C9020
:104590002D902E9001212BA802F06AFE3898002859
:1045A0000AD10123FF22AA4901A800F067FF01A850
:1045B0000FC82BAD0FC509E00123FF22A54905A8AF
:1045C00000F05CFF05A80FC82BAD0FC52C992B98E8
:1045D000FCF759F968212046641C2B9A1154442198
:1045E0002046641C2B9A1154FF212046641C2B9AF0
:1045F00011542046641C2B9A11542046641C2B9A9B
:1046000011542046641C2B9A115400212046641C2E
:104610002B9A115411212046641C2B9A11542046C8
:10462000641C2B9A1154641C641C3298C17A0020BB
:1046300002F03EFB0546329A517B107B02F038FBBC
:104640002904090C0904084305468348854202D021
:10465000824885420FD182212046641C2B9A115436
:1046600093212046641C2B9A11544F212046641C30
:104670002B9A11540EE080212046641C2B9A115471
:1046800090212046641C2B9A11541F212046641C43
:104690002B9A115400202A9080210AA8FCF7F5F8E3
:1046A000329A917A507A02F003FB099000266C4806
:1046B00085420CD1012380220AA905A800F0DEFE64
:1046C000009505A80FC8FDF755FF002001E70E2053
:1046D000089090E080210AA8FCF7D7F8089A521CAD
:1046E000329B995C089A985C02F0E2FA2A902A9828
:1046F000802803DC33992A98814201DA0020E8E619
:10470000329A089811182A9A521D0AA8FCF75EF8E6
:10471000012380220AA904A800F0B0FE009504A895
:104720000FC8FDF727FF3099084330904A4885426B
:1047300002D04A48854217D12A98401D0899091885
:104740000998814210DD0123042204A82B9900F06E
:1047500095FE0120202100940191029004A80FC829
:10476000FDF724FB04463AE03E48854216D101237A
:10477000042204A82B9900F081FE304612303299B1
:10478000085C0A4631461131515C00940191029057
:1047900004A80FC8FDF70AFB044620E000212046CC
:1047A000641C2B9A115406212046641C2B9A115428
:1047B0002D4841782046641C2B9A11542A481E38F3
:1047C000817F2046641C2B9A115420212046641CB2
:1047D0002B9A115400212046641C2B9A1154334605
:1047E0000F33329AD15C5B1ED05C02F061FA8619FD
:1047F00030460E30089009990898884200DA69E737
:104800002004000E2B9948722B998C7221462B980C
:1048100002F038FF2B9908551621601C04462B9A8C
:1048200011543898002805D1601C044681B20F4805
:10483000018004E0601C044681B20D48018030987C
:10484000012801D1FDF706FF012042E67800002093
:1048500080230020862500203F9281001F90800049
:104860004F9382002F918100F601002080240020C8
:104870008626002010B5FEF707F802210D48FEF746
:10488000F3FD0420FEF73EFB00BF0A48C069C007E5
:10489000C00F002801D0002400E0012402210548B7
:1048A000FEF76BFD0420FEF72DFBFEF703F8204614
:1048B00010BD0000800C004070B50024FDF7E4FF3F
:1048C00002211448FEF759FD0420FEF71BFB0025CA
:1048D0001AE002210F48FEF7C7FD0420FEF712FB85
:1048E0006006040E00BF0B48C069C007C00F002857
:1048F00002D00120044301E0FE20044002210548CB
:10490000FEF73BFD681CC5B2082DE2DBFDF7D2FFC8
:10491000204670BD800C004070B50446FDF7CAFF0C
:10492000002521E080202040002804D001211148EA
:10493000FEF79AFD03E001210E48FEF71EFD04205C
:10494000FEF7E0FA02210B48FEF78EFD0420FEF789
:10495000D9FA02210748FEF710FD0420FEF7D2FA2B
:104960006006040E681CC5B2082DDBDB0420FEF7D0
:10497000C9FA70BD800C004010B5FDF79BFF012106
:104980000C48FEF771FD0420FEF7BCFA022109482D
:10499000FEF7F3FC0420FEF7B5FA02210548FEF706
:1049A00063FD0420FEF7AEFA02210248FEF7E5FCA3
:1049B00010BD0000800C004010B5FDF77BFF042007
:1049C000FEF7A0FA01210E48FEF74EFD0420FEF787
:1049D00099FA02210A48FEF747FD0420FEF792FAF1
:1049E00001210748FEF7C9FC0420FEF78BFA0221DB
:1049F0000348FEF7C2FC0420FEF784FA10BD000055
:104A0000800C004010B5FDF755FF01210C48FEF762
:104A1000B4FC0420FEF776FA02210948FEF724FDD3
:104A20000420FEF76FFA01210548FEF7A6FC0420DA
:104A3000FEF768FA01210248FEF716FD10BD0000DE
:104A4000800C004008B5FEF787FB00BF02200B4931
:104A5000C86300BF0A480078401C09490870552007
:104A6000FFF73EF900F014FC064800900648FF22CC
:104A70002D320023016C1846884708BD00A801406C
:104A80007C000020F17300008800002000BF074870
:104A90004069042108408008002805D000BF042098
:104AA0000249486100BF00BF704700000034014068
:104AB00010B500F06FFB0248FEF788FD10BD000046
:104AC0000034014000BF04488069400840000249AA
:104AD000886100BF704700000034014008B51348EA
:104AE000FFF709F801281ED11048FEF7EFFF012853
:104AF00019D100BF0D480069C1B20D48417140880D
:104B0000FF2802DBFDF7AEFC08BD00F0CDFC084934
:104B1000487901F02FFA0748009007480322002344
:104B2000016C1846884700BFEEE700000004014012
:104B3000802500203D4B00002801002010B50548CD
:104B4000416C0020884704484088002801DD00F0BF
:104B5000FDF810BD280100208025002070B5064614
:104B60000C46002C03D10F48FEF76AFE70BD0025ED
:104B70000AE000BF0B48FEF7B0FF0028FAD0715DD5
:104B80000848FEF7BFFF6D1CA542F2DB00BF0548D9
:104B9000FEF7A9FF0028FAD00248FEF751FE00BF39
:104BA000E4E700000004014008B51348FEF7A3FF46
:104BB00001281ED11048FEF789FF012819D100BF36
:104BC0000D480069C1B20D4841714088FF2802DBE1
:104BD000FDF754FC08BD00F067FC0849487901F076
:104BE000D5F907480090074803220023016C0120F3
:104BF000884700BFEEE700000084014086270020C0
:104C0000094C00002801002010B50548416C012026
:104C1000884704484088002801DD00F0B9F810BD3D
:104C2000280100208627002070B506460C46002C7F
:104C300003D10F48FEF704FE70BD00250AE000BF57
:104C40000B48FEF74AFF0028FAD0715D0848FEF7CE
:104C500059FF6D1CA542F2DB00BF0548FEF743FF7C
:104C60000028FAD00248FEF7EBFD00BFE4E70000A1
:104C70000084014010B58CB00446182106A8FBF74B
:104C800004FE142101A8FBF700FE002000902C4830
:104C9000844220D140140190022002900020039011
:104CA00001200490059001A92648FEF78BFA012007
:104CB00080030190022002900020039004900120C4
:104CC000059001A91F48FEF77DFA012000901F21E1
:104CD0006846FEF71DFF1C48844221D10420019044
:104CE000022002900020039001200490059001A969
:104CF00014488030FEF766FA0820019002200290E6
:104D00000020039004900120059001A90D488030F7
:104D1000FEF758FA0120009010216846FEF7F8FED1
:104D200000200690079040200890002009900A90EB
:104D300003200B9006A92046FEF78CFD0CB010BD99
:104D400000040140000C00400084014008B5002030
:104D5000009069460A48006803F09DFF0948006812
:104D600004F088F9002806D10098002803D001201B
:104D700000070549486000200449087008BD00008C
:104D80008C0200208802002000ED00E08402002058
:104D900008B50020009069460A48006803F07BFFD0
:104DA0000948006804F066F9002806D10098002838
:104DB00003D001200007054948600120044908701C
:104DC00008BD00008C0200208802002000ED00E0F9
:104DD00084020020FF2027490870032200210120BF
:104DE00003F0B0FD2449086043E000235A1E194631
:104DF0002148006803F0C4FD01283AD11D4800781D
:104E0000002817D11D4841881A4802781B48FD38F0
:104E1000FFF742FB002809D0FF20F53003F0AEFC7D
:104E200017480188FF380138FFF798FEFDF71AFB95
:104E3000FDF7A6F90F480078012817D111484188DD
:104E40000C4802780F48FD38FFF726FB002809D0F0
:104E5000FF20F53003F092FC0B480188FF38013841
:104E6000FFF7E2FEFDF70AFBFDF78AF9FF20014993
:104E70000870BAE7840200208C0200208025002000
:104E80008024002086270020862600201CB50120D3
:104E9000000400900320000601906846FDF73AFDEB
:104EA0001CBD000000B591B040200C9001200D9079
:104EB00000200E900F900CA93448FEF783F9402192
:104EC0003248FEF7CEFA012080030C9001200D90AD
:104ED00000200E900F900CA92C484030FEF772F97C
:104EE0000121890329484030FEF744FA012040029D
:104EF0000C9003200D9000200E900F9010900CA9A4
:104F000022488030FEF75EF980200C9003200D903F
:104F100000200E900F9010900CA91C488030FEF7D6
:104F200051F90120C0030C9003200D9000200E9039
:104F30000F9010900CA91548FEF744F9002001903D
:104F4000029001216846017341730020049005908E
:104F500006900790A020089008A8017188040A9084
:104F600000010B9001A90A48FDF75AFD01210848EC
:104F7000FDF74FFDFF2101310548FDF74AFD0121F5
:104F800089020348FDF745FD11B000BD000C00404B
:104F900000AC014000B585B000200190FF204730F3
:104FA000029001200390049001A90D48FDF706FF2F
:104FB00000BF01200A49086100BF00BF0846C06861
:104FC000012108430649C86000BF02200090182153
:104FD0006846FEF79DFD0248FDF7EAFE05B000BDFC
:104FE00000B4014010B500F033F900202F49496AA0
:104FF000C908C90001432D4A516200BF00BF1046D5
:10500000406A0F2109028843052109024018114610
:10501000486200BFAA20896B090A09020143916313
:1050200000BF0020114609690F2212049143014379
:105030001E4A116100BF00BF1046006901210843EC
:105040001146086100BF0020C968C908C9000143B2
:10505000D16000BF00BF1146C96807221202914308
:105060000143124AD16000BF00BF1146C968072240
:105070001204914301430D4AD16000BF00BF1146A5
:10508000C9680722D20491430143084AD16000BF96
:1050900004201146896A0143916200BF00BF114696
:1050A000896A8143916200BF10BD00000002004088
:1050B00010B500F0B9F8FFF7E9FEFFF7F3FEFEF7D1
:1050C000B5FE00F045F8FDF73BFA10BD08B501202C
:1050D000800700906846FDF745FF08BD00B585B024
:1050E00014216846FBF7D1FB17480090012001907E
:1050F00002900020039069461448FEF763F81249B5
:105100001248FEF7ABF9694610484030FEF75AF8EE
:105110000D490E484030FEF7A1F969460B48803032
:10512000FEF750F8084909488030FEF797F96946BC
:105130000648C030FEF746F803490448C030FEF781
:105140008DF905B000BD00007FFE0000000C00409E
:1051500000B585B00320009001200190029000204E
:105160000390049069460448FEF72CF80321024896
:10517000FEF77AF905B000BD800C00401CB5052093
:1051800000900020019069460148FEF793F91CBD8C
:105190000014014000B589B0FF20013001900020CB
:1051A000029003900120C003049000200590069017
:1051B0000790089001A90D48FEF714FA00BF0420DB
:1051C0000A49486100BF00BF08460069042108433E
:1051D0000649086100BF0220009014216846FEF7CE
:1051E00097FC0248FEF7F2F909B000BD0034014017
:1051F00010B500BFFF2001300349886000BF08469A
:10520000FEF721FB10BD00000004014010B500BFF7
:10521000FF2001300349886000BF0846FEF713FBFA
:1052200010BD00000084014000B585B0012040029F
:105230000190002003900290012004900020694614
:1052400008700248FEF788FC05B000BD0001004070
:1052500000B585B00120400200900320019000209D
:1052600002900390049069460848FDF7ABFF0120C7
:10527000800200900320019000200290039004908F
:1052800069460248FDF79EFF05B000BDC00C004016
:1052900010B5074807490860084601680648FEF748
:1052A0008FFD7D20C000FDF721FE00F087F910BDC5
:1052B00090010020340200200010014010B50024AD
:1052C00046E06001244940184078002800D13EE0C3
:1052D000600121494018C368816860011E4A801836
:1052E00002694069891A83410CD260011A49401849
:1052F0008268C0680021521C48416101164BC918E0
:105300008A60C860600114494018C36882686001FF
:10531000411808694969101A8B4104D301206101C1
:105320000D4A505403E0002061010B4A50546001C3
:105330000949085C012809D16001401880690028EA
:1053400004D06101044A89188869804700BF641C41
:10535000022CB6DB10BD000088000020002805DB11
:10536000C206D20E01219140014A1160704700002F
:1053700080E100E0002805DBC206D20E0121914049
:10538000014A11607047000000E100E010B50028FC
:1053900019DB1A4A03231B02D21883089B00D25838
:1053A0008307DC0EFF23A3409A438B071B0E840761
:1053B000E40EA3401A43114B032424021B19840852
:1053C000A4001A5118E00E4A03071B0F083B9B0864
:1053D0009B00D2588307DC0EFF23A3409A438B0720
:1053E0001B0E8407E40EA3401A43054B0407240F49
:1053F000083CA408A4001A5110BD000000E100E020
:105400001CED00E010B5002819DB1A4A03231B022B
:10541000D21883089B00D2588307DC0EFF23A340D9
:105420009A438B071B0E8407E40EA3401A43114BCB
:10543000032424021B198408A4001A5118E00E4A00
:1054400003071B0F083B9B089B00D2588307DC0E09
:10545000FF23A3409A438B071B0E8407E40EA3404F
:105460001A43054B0407240F083CA408A4001A5152
:1054700010BD000000E100E01CED00E0FFB50446B7
:105480000D461646002000900190029003900121E5
:10549000684601F0EDFE019600950293684687C8C4
:1054A00087C4103CFFBD000010B505480078FF28F8
:1054B00004D1FCF75BFEFE200149087010BD00001E
:1054C0008402002070B58EB00646002521E007A9B1
:1054D0001248FEF74FFC69461048FEF74BFC0024CB
:1054E0000AE0A00007A90858A1006A46515888425E
:1054F00000D003E0601CC4B2072CF2DB00BF072C15
:1055000005D11C2207A93046FAF76AFE03E0681CA1
:10551000C5B2032DDBDB00BF0EB070BD0010014033
:1055200010B500BF2148406808210840C008002885
:105530003BD000BF1D4880680840C008002834D018
:1055400000BF08201949886000BF19480068FFF7AC
:10555000B9FF00F027FD1748C16888471448006864
:10556000806900281AD1FFF7A9FE11480068406938
:10557000002812D10E480068006900280DD10C4B9C
:105580001B689A680A4B1B685968094B1B681868A6
:1055900001F0D3FF06490968C86000BF06480078DB
:1055A000012802D100200449087010BD00100140FC
:1055B000340200203C0200203802002008B50420FC
:1055C0000A49896A0143094A916200BF00BF08483D
:1055D0004068082108430649486000BF0120009048
:1055E00002216846FEF794FA08BD00000002004060
:1055F000001001403EB50446A2692169606902922B
:105600000091019020460FC801F0CDFE002800D186
:105610003EBD01200D490870002503E00120FDF783
:1056200065FC6D1C7D20C000854203DA07480078C8
:105630000028F3D1204607C801F07FFFE060214633
:105640000348FEF757FB00BFE2E7000038020020E6
:105650000010014008B515480023012214490090AC
:1056600014A003F047FD0446002C0AD003F0BAFB57
:105670000546002003462A4601210090204603F0FB
:105680006FFD03220021012003F05CF90D49086041
:105690000BE000235A1E19460A48006803F070F90F
:1056A000012802D10020FCF7D5FFF2E7C95600001F
:1056B00060EA000052656164454570726F6D5F5429
:1056C000696D65006C02002010B50446084800882A
:1056D000401C074908803C2105480088FBF7E1F899
:1056E000002904D102F0CAFE00200149088010BD43
:1056F0007002002070B50546054801461439401A6D
:10570000C4B221461C222846FDF7ADF870BD00004A
:105710009001002000207047704770B505460120B9
:1057200000F0D2FA04466406640E2046284304467C
:105730002146012000F0E0FA70BD000010B5012004
:1057400000F090F89F21112000F0D6FAFF212420CC
:1057500000F0D2FA0021402000F0CEFA00214120D2
:1057600000F0CAFA052000F07DF80248C168002068
:10577000884710BDAC27002010B5002000F072F85B
:105780008020FFF7CAFF012000F06CF800214020C4
:1057900000F0B2FA0021412000F0AEFA00F08AF8E1
:1057A000072000F08DF90B2000F0A8F9022000F08E
:1057B00017F8012000F066F8072000F08FF90020AC
:1057C00000F01FF8FF2000F06EF8044800F0A9F97F
:1057D000012000F026F8FFF7B1FF10BDFF03000025
:1057E00070B504461D2000F06FFA05462846F121E9
:1057F000084061000843C5B229461D2000F07CFA2C
:1058000070BD70B504461D2000F05EFA05462846BE
:10581000FE2108402043054629461D2000F06CFA71
:1058200070BD70B50446262000F04EFA05462846A5
:10583000F7210840E1000843C5B22946262000F0C0
:105840005BFA70BD70B50446312000F03DFA0546A4
:105850002846F8210840204305462946312000F01B
:105860004BFA70BD70B50546012000F02DFA0446D4
:10587000F82004402046284304462146012000F039
:105880003BFA70BD70B504461E2000F01DFA0546B7
:105890002846FB210840A1000843C5B229461E2026
:1058A00000F02AFA70BD10B504462146222000F00F
:1058B00023FA10BD10B500247E48006844797E4864
:1058C0000078002801D0E41C00E000BF230001F0B4
:1058D000ADFC1A0E161E252D353D444C545C636BF1
:1058E000737B828A929AA1A9B1B9C0C8D0D86C2022
:1058F000724908708020487000208870C9E06C20D0
:105900006E490870C020487000208870C1E06D208A
:105910006A490870002048708870BAE06D206749B5
:1059200008704020487000208870B2E06D20634904
:1059300008708020487000208870AAE06D205F49C0
:105940000870C020487000208870A2E06E205B497B
:1059500008700020487088709BE06E2057490870DE
:10596000402048700020887093E06E2053490870F2
:1059700080204870002088708BE06E204F490870AE
:10598000C02048700020887083E06F204B49087069
:105990000020487088707CE06F20484908704020E3
:1059A00048700020887074E06F204449087080209F
:1059B0004870002088706CE06F2040490870C0205B
:1059C00048700020887064E070203C490870002016
:1059D000487088705DE07020384908704020487039
:1059E0000020887055E0702034490870802048708D
:1059F000002088704DE0702030490870C020487049
:105A00000020887045E071202C4908700020487003
:105A100088703EE0712029490870402048700020BD
:105A2000887036E071202549087080204870002079
:105A300088702EE0712021490870C0204870002035
:105A4000887026E072201D49087000204870887018
:105A50001FE07220194908704020487000208870AB
:105A600017E0722015490870802048700020887067
:105A70000FE0722011490870C02048700020887023
:105A800007E06C200D490870802048700020887065
:105A900000BF00BF09480178062000F02DF9074833
:105AA0004178072000F028F904488178082000F0A8
:105AB00023F910BD78000020600200206102002060
:105AC00010B5044687214D2000F016F90248015D0B
:105AD000092000F011F910BDF4A8000070B50446CB
