:020000040000FA
:10000000885C002019020000210200002302000089
:1000100000000000000000000000000000000000E0
:10002000000000000000000000000000015300007C
:1000300000000000000000009F010000ED540000DF
:100040002B0200002B020000195100002B020000BF
:100050006D4600002B0200002B0200002B02000066
:100060002B0200002B0200002B0200002B020000DC
:100070002B0200002B0200002B0200002B020000CC
:100080003D4800002B0200002B0200002B02000064
:10009000354700002B0200002B0200002B0200005D
:1000A000611D00002B0200002B0200002B0200004B
:1000B0002B0200002B020000A13D00007147000050
:1000C00000F002F800F041F80CA030C808382418FD
:1000D0002D18A246671EAB4654465D46AC4201D180
:1000E00000F033F87E460F3E0FCCB6460126334271
:1000F00000D0FB1AA246AB4633431847D495000004
:10010000F49500000023002400250026103A01D3B6
:1001100078C1FBD8520700D330C100D50B607047BF
:1001200010B5782902D100F079F910BD002010BD7A
:100130001FB501F029F904000020002107F016FF87
:10014000401C60601FBD10B510BD01F019FB1146C9
:10015000FFF7EEFF06F0C6FA01F03AFB03B4FFF733
:10016000F2FF03BC01F0B0FB084B196808682030AF
:1001700080F30988022080F31488BFF36F8F3FBC9F
:10018000AE4608BC04BC62B6184700001C00002044
:10019000EFF3108072B6704780F310887047EFF36A
:1001A00009800E4B1A6820381060F0C044464D4656
:1001B00056465F46F0C008B572B607F03FFA62B621
:1001C0000CBC116808681030F0C8A046A946B246B9
:1001D000BB4680F309882038F0C818471C0000206F
:1001E00070B505460C46164602E00FCC0FC5103E12
:1001F000102EFAD2082E02D303CC03C5083E042EDB
:1002000007D301CC01C5361F03E021782970641C97
:100210006D1C761EF9D270BD07488047074800471D
:10022000FEE7FEE7FEE7FEE7FEE7FEE704480549D6
:10023000054A064B70470000A1560000C1000000AF
:1002400088380020885C00208848002088480020EA
:1002500010B5202A04DB0846203AD040002110BD0A
:100260000B462024D340D040A21A9140084319469F
:1002700010BD4343514330B55C18010C130C0D46BF
:1002800092B25D4380B251432C19054655430A0C86
:1002900009044D1962415843010C000440195141B1
:1002A00030BDFEB5054610460C46184373D0AE4629
:1002B0008C460020AD1A01469C4167D36646002754
:1002C00001243D46B61A9D4102D313463A462124E5
:1002D000654676462F04360C3E432D0CB61A9D41DA
:1002E00004D3150C1B042B431204103465467646C8
:1002F0002F06360A3E432D0AB61A9D4104D3150E29
:100300001B022B4312020834654676462F07360936
:100310003E432D09B61A9D4104D3150F1B012B43F3
:100320001201241D65467646AF07B6083E43AD0868
:10033000B61A9D4104D3950F9B002B439200A41C39
:1003400065467646EF0776083E436D08B61A9D412E
:100350001AD392185B41641C16E000187646654675
:100360004941B71A9D410191009009D36046B11AE5
:1003700098418E468446009801990025401C6941A9
:10038000DD0752082A435B08641EE6D572466346C1
:1003900003B0F0BDFFE700200146C046C0462A4634
:1003A0002346F5E70FB41CB5074B06AA7B44694604
:1003B0000090059800F00DFF0020694600F01CFF3A
:1003C0001CBC08BC04B01847490E000070B50446B8
:1003D00085690068C10601D5302600E02026C007E7
:1003E00007D070BD62683046A1689047206A401C03
:1003F00020626D1EF6D570BD70B504468569007823
:10040000C00707D170BD6268A16820209047206AAC
:10041000401C20626D1EF6D570BD000070B504460C
:100420000D4621461068C046C0462188090502D500
:100430000F4A7A4402E00E4A7A440E3223460021E3
:10044000243305E006070009360F965D5E54491C0B
:100450000028F7D120780023000705D5702D03D0A0
:10046000002901D002231132204600F054FE70BD55
:100470005E920000F3B50446002081B02062204661
:10048000E1688847002872D0252802D06268A168F8
:10049000ABE0594F00267F442046E168884720287A
:1004A000054608DB312D06D278192038007800285F
:1004B00001D00643F0E7B00701D5042086430020B1
:1004C000E0610746A0612A2D0AD0284605F032FFD8
:1004D000002827D0B8000019303D0090856119E050
:1004E0000298BA00121902C8916102902046E16890
:1004F0008847012F054617D1E06900281FDA202020
:1005000086431CE000980A218069484300994019FD
:10051000303888612046E1688847054605F00AFFC3
:100520000028EFD1012F0AD02E2D08D12046E168F6
:1005300088470546202006437F1C022FC3DBA069A5
:10054000002803DA4042A06101200643F00701D0F1
:10055000102086436C2D0BD0682D09D04C2D3CD03B
:100560006A2D38D0742D38D07A2D36D016E040E080
:10057000E1682F4620468847B842054609D16C2FCE
:1005800029D001208002E1680643204688470546BD
:1005900004E06C2F1DD0FF2001300643002D28D031
:1005A00028464138192803D80120C00206432035C7
:1005B000204626602946029A1646FFF7B1FD00281C
:1005C00010D001280BD0F61DF008C00008300290B2
:1005D00055E74020E1E78020D5E70020D3E7361D2E
:1005E00002964CE762682846A1689047206A401C42
:1005F00044E7206AFEBD0000229200000FB400B55F
:100600008DB010A909900B900020C04300910A9072
:1006100000200C90074878440690074878446A46C2
:1006200007900F9909A800F001FE0DB008BC04B0B6
:1006300018470000370C0000510C0000FFB51D46A4
:100640000027FF4383B05C68002001909E68A96981
:1006500004987F1C88470090296A88470028F6D1B3
:100660000098401C0CD0032040028443002E19DD6A
:10067000600614D500982B2809D02D280FD103E04F
:100680000020C04307B0F0BD012080020443A969E7
:1006900004987F1C8847761E002E009002DD00988B
:1006A000302803D00598002825D035E00120A9691D
:1006B00040020443761E04987F1C8847002E009059
:1006C00003DD782805D0582803D00598002810D0DD
:1006D00022E00598002801D010281DD10120A96929
:1006E00040028443761E04987F1C884700901020A7
:1006F00002E0082000E00A2005900DE00121059AA3
:1007000049020C430199761E514308180190A969CA
:1007100004987F1C88470090002E05DD05990098FD
:1007200000F06FFD0028E9DAE96904988847A00520
:1007300002D40120C043A5E7E00722D1600611D50D
:100740006005019800D5404229680A1D2A600968A1
:10075000220501D5087014E0220701D5088010E0B9
:1007600008600EE02868011D29600068210502D597
:100770000199017005E02107019901D5018000E090
:10078000016038467EE7000030B5441C03E0017884
:10079000401C00290DD08107F9D10B4BDD0104C8A5
:1007A000D11A91432940FAD0001B0A0603D0C01E7B
:1007B00030BD001B30BD0A0401D0801E30BD0902CF
:1007C000FCD0401E30BD000001010101F8B5042A33
:1007D0002CD3830712D00B78491C0370401C521E87
:1007E00083070BD00B78491C0370401C521E8307F3
:1007F00004D00B78491C0370401C521E8B079B0FC2
:1008000005D0C91ADF002023DE1B08C90AE0FFF764
:10081000E7FCF8BD1D4608C9FD401C46B4402C430A
:1008200010C0121F042AF5D2F308C91A521EF0D4C0
:100830000B78491C0370401C521EEAD40B78491CEB
:100840000370401C012AE4D409780170F8BD01E06E
:1008500004C0091F0429FBD28B0701D50280801C2C
:10086000C90700D00270704700290BD0C30702D01F
:100870000270401C491E022904D3830702D502805E
:10088000801C891EE3E70022EEE70022DFE700225A
:1008900003098B422CD3030A8B4211D300239C46BD
:1008A0004EE003460B433CD4002243088B4231D335
:1008B00003098B421CD3030A8B4201D394463FE0C9
:1008C000C3098B4201D3CB01C01A524183098B4229
:1008D00001D38B01C01A524143098B4201D34B0112
:1008E000C01A524103098B4201D30B01C01A524175
:1008F000C3088B4201D3CB00C01A524183088B42FC
:1009000001D38B00C01A524143088B4201D34B00E4
:10091000C01A5241411A00D2014652411046704756
:100920005DE0CA0F00D04942031000D3404253405B
:1009300000229C4603098B422DD3030A8B4212D31B
:10094000FC22890112BA030A8B420CD3890192114D
:100950008B4208D3890192118B4204D389013AD08A
:10096000921100E08909C3098B4201D3CB01C01A5F
:10097000524183098B4201D38B01C01A5241430972
:100980008B4201D34B01C01A524103098B4201D360
:100990000B01C01A5241C3088B4201D3CB00C01ACD
:1009A000524183088B4201D38B00C01A5241D9D2E5
:1009B00043088B4201D34B00C01A5241411A00D266
:1009C0000146634652415B10104601D34042002B62
:1009D00000D54942704763465B1000D3404201B5E1
:1009E0000020C046C04602BD7047704770470000F7
:1009F0000246C80FC00781434B0030B54B405B0037
:100A00009B0D20D01923DB06C91801231B05994231
:100A100020DB0324A40704251346AB400BD3002B93
:100A200004D1EB0613409B00E34204D40124640785
:100A3000002312195941FF231B0599420BD2C9000B
:100A40000143500F09E0CB0204D5014308030243E0
:100A500005D0054830BDFF21C905084330BD084613
:100A600007210905884330BD0000C07FF0B50C4662
:100A7000871A9C410D46861A9D4103D2C01BA14195
:100A8000D21963410D0D1F0DC94EEC1BAE435CD056
:100A90007F057F0D0026002F51D02D05AC46A943C0
:100AA000DD020123ED0A1B051D4320231B1B24D45B
:100AB0001746E740381871412F46E740CC199D4052
:100AC0002818314661410C0D27D161449A4013D555
:100AD0000023401C594152000ED140084000012221
:100AE0004B005205D34207D305204007C14201D530
:100AF000B04900E0B0493046F0BD6B00002A00D09C
:100B000001229A181F23203C1B1B01D5002302E061
:100B1000E540281871410C0DD7D00124240509198E
:100B2000C407CD0740084908E40F28436144002C5E
:100B3000D5D00024401C61419A40D0D1CDE76A0550
:100B4000520DD9D1C90FC907D5E79C4D4E000028D9
:100B500001D0012400E0002434195F00002A01D0F4
:100B6000012600E00026BE19954FAC420CD8AE42DB
:100B70000AD8B44206D001256D05EC42BCD010461F
:100B80001946F0BD9942FCD000203946F0BDF0B5C1
:100B90001FB40C460F46811A9F412546861A9D4177
:100BA00006D20125ED076F40401ABC4152187B4127
:100BB000210D1E0D8D1BAC467D4D8D437ED07505E0
:100BC0006D0D7CD00D05AE46AC431B031B0B794D60
:100BD00052429D41202366469B1B14D31746F74083
:100BE000381800260090744160462F460741E419EA
:100BF00000989D402818664116D4714671189A4095
:100C000025D5012320E093182A466A415200002B83
:100C100000D0521C1E23203E9B1B002B61DD354162
:100C2000EE1728186641E8D5001876415B1C9A40FB
:100C300000D3401C4B05F3181524E34010D3002BC0
:100C400052D071467118D30FC01802D3491C05B099
:100C5000F0BD0123DB079A42F9D140084000F6E7D6
:100C600001225205B21801D1002853D00123CC0A29
:100C7000DB029943891E002A08D1020C03D0020C22
:100C80000004103902E00246002020390023550BF1
:100C900005D112020823550B01D152010D23550C29
:100CA00001D112011B1DD50C01D192009B1C150D09
:100CB00001D152005B1C2025EE1A01E02CE022E05D
:100CC0000546F54015439840CA1AE107691813050F
:100CD000C918002ABBDA032040070818C10FC9074A
:100CE0000FE071466118B2E7F10740080843711040
:100CF00071444A000CD001235B059A42A7D2C90F68
:100D0000C9070020A3E74905490D26D1002001E0CD
:100D10000028F4D100219AE7284D6600002801D070
:100D2000012100E0002171185F00002A01D0012696
:100D300000E00026BE19224FA94210D8AE420ED8BC
:100D4000B14208D001256D05E94206D01946A80236
:100D5000414010467BE79C4201D0214677E70020C6
:100D6000394674E710B50C465C4005D50124E4070C
:100D70006340FFF70CFF10BDFFF778FE10BD30B4E5
:100D80000C465C4004D50124E407634030BC6DE6AA
:100D900030BCFCE670B50124E40761400D465D40BF
:100DA00002D4FFF763FE70BD6340FFF7F0FE70BD35
:100DB000FF0700000000F0FF0000F07F0000E0FFF0
:100DC0000000F87F1F22030C02D10F22000402D082
:100DD000030E03D004E00020014670470002083AE9
:100DE000030F01D10001121F830F01D18000921E59
:100DF000002801DB4000521E120551184205C012A6
:100E0000411810467047C10FC90700D04042012267
:100E100092071143D6E701218907D3E7F0B58B4C40
:100E20000F09254689B0BD437BD01D092646AE4338
:100E3000FAD00E465E402740F60F3E43254071D063
:100E400024012142FBD0FF24AD19A4042D1B0395DE
:100E500001252D05DB02DB0AC9022B43C90A294300
:100E60001E010901040F130F050121431701880B0F
:100E7000820391432D098C46A90B1E438A03954397
:100E8000B30B9A0396433F09BA0B9403A743029608
:100E90002E467E430497B6464E19D7190C46019646
:100EA000544305977E43371B7646BF1B3601B64633
:100EB000BE0B361900967646BC043719009C01D348
:100EC000641C00946400002F01D001263443029E6C
:100ED000049F754366467E430496760034196E007F
:100EE00034190094029C019E1C196643751BAE4682
:100EF000069465464519059C05956C43594375460E
:100F00000891691A0191049E01465143A41B049162
:100F1000611A009C0791E10605D061090122114385
:100F200002E072E06EE06109089D00272C0A2D06A0
:100F30006918049D7C412A0A2D066918019D6241A9
:100F4000AC0DAD026D185441079A910D92025519DE
:100F50006141029A644658435443069B059A5A439A
:100F6000121A131B9A0E9B015B187A41010B0005A4
:100F7000C3185141220A200644195A419A4200D20C
:100F8000491C01204002814203D315230226F64367
:100F900002E014230326F6432020C51AA940174671
:100FA000AF40DA400A4320460399D8400914731829
:100FB00019055118039A3843D2075140AC4009D063
:100FC0000122944006D30022401C5141002C01D143
:100FD000400840001E4A934212D301220398920611
:100FE000904207DB0520400709181A480143C01248
:100FF000414004E0032040070818C10FC907002042
:1010000009B0F0BD0020F107FAE705180C464C4185
:1010100011486D42A04115D394181A465A410E4802
:10102000644290410ED301204A004005824209D318
:101030005A00824206D35940C90F084AC907002006
:101040001143DDE700200649DAE700000000FF0752
:10105000FE070000FFFFFF7F0000E0FF0000F07FC1
:101060000000F87F0121C9050123411842001B0639
:10107000D3185B0E0AD0C1100722D2068918400788
:101080005242D14201D5520089187047090208D551
:101090000146002A03D0C10FC9070020704710463F
:1010A0007047420202D0002002497047072109051B
:1010B0000143F4E70000F87F1F22030C02D10F2246
:1010C00000041CD0030E01D10002083A030F01D125
:1010D0000001121F830F01D18000921E002801DB46
:1010E0004000521ED2055118021251181922904088
:1010F00004D3491C002801D149084900084670471B
:10110000C10FC90700D04042012292071143D3E723
:1011100001218907D0E7FFB504460D4681B0243090
:1011200000902168880604D51022E069914321606F
:1011300000E00120A84201DD471B00E000270498E1
:10114000A1697A191018081AA0612078C00602D483
:101150002046FFF73BF9002608E003986268A16883
:10116000805D9047206A401C761C2062049886426D
:10117000F3DB2078C0060AD52046FFF727F906E002
:101180006268A16830209047206A401C206238467F
:101190007F1E0028F4DC07E000986268A168405DCB
:1011A0009047206A401C206228466D1E0028F3DC10
:1011B0002046FFF721F92078000602D5022005B06D
:1011C000F0BD0120FBE7000001694A1C02610878BC
:1011D000704700B58FB00291002105910549019338
:1011E00079440391114604906846FFF743F90FB024
:1011F00000BD0000E5FFFFFF0A681070521C0A6086
:1012000070473A2800D23038202302469A43412AB8
:1012100001D310463738884201D30020C0437047BD
:1012200002685118137801601846704710B5D160F4
:1012300005497944516105497944116200211161E0
:10124000114600F0AFF810BDEBFFFFFF55010000A5
:101250004268002A08D001680B78491C002B03D093
:10126000521E06C0184670470121C160881E704793
:101270004268002A0BD0C3680168002B07D183683D
:101280008B4204D0491E521C06C00020704700202B
:10129000C0437047F8B5224C4E00069DA6420AD8BE
:1012A000A64201D1002806D15E00A64203D8A6427C
:1012B0000AD1002A08D00D24240425422CD0294626
:1012C000002000F02FFAF8BD0C461C430CD49942C4
:1012D00002D0EFF30080F8BD904202D0EFF300801F
:1012E000F8BDEFF30080F8BD09242407E5008B4228
:1012F00006D0EFF30080A043591A06D2284304E039
:10130000101A05D3EFF30080A04380F30088F8BDE6
:10131000EFF30080A043F1E7009500F01BFAF8BD61
:101320000000E0FF10B5FF231B0644009C421DD8BF
:101330004C009C421AD80346124A0B4307D4401A69
:1013400002D3EFF3008010BDEFF3008010BD081A48
:1013500006D2EFF3008001219043C907084302E061
:10136000EFF30080904380F3008810BD0D231B0431
:101370001A4204D01146002000F0D4F910BD00F04C
:10138000F3F910BD00000090004870474438002079
:1013900010B5044600F014FA0068005DC007C00FE5
:1013A00010BD0000F3B50C468FB000200C9001205A
:1013B00000260E9008460C300390626903980121C4
:1013C0009047051E2ED0252D2DD0216A8847002854
:1013D00018D06269039801219047216A8847002844
:1013E000F7D16269411E0398904700E0761CA1691D
:1013F0000F988847216A88470028F7D1E1690F983C
:101400008847DAE7A1690F988847A842074601D1C3
:10141000761CD2E7E1690F9888477F1C02D10C98AF
:10142000002877D06BE16269039800273D46394672
:1014300090472A280CD16269039801219047012521
:1014400006E00A214F433F18303FEBD410200543FC
:101450006269039801219047014630390A2903D275
:10146000AC498F42DEDCECE7E90600D4AA4F6C28D9
:101470000AD04C2810D0682824D06A282ED074288E
:101480000CD07A280AD00DE06269039801219047B8
:101490006C2823D004211CE02020054362690398B6
:1014A00001219047A760652865604FD026DC582849
:1014B00039D01ADC452849D012DC252834D04128FF
:1014C000B0D143E06269039801219047682802D0B7
:1014D00008210D43E6E70120C002DEE70220DCE739
:1014E000462833D047289DD130E05B2870D0612852
:1014F0002CD063286CD0642894D161E06F284FD041
:1015000009DC662822D0672820D0692826D06E28DA
:1015100017D12EE0EFE070284DD073286FD07528DA
:101520004ED078280DD154E0A1690F98884725281E
:10153000054600D16CE7E1690F9888476D1C00D122
:101540006DE7DCE00A224CE00A2252E0012023464B
:101550006A460F99C043C046C046C5E040212846B0
:10156000234608436060A80701D5002239E0002225
:101570003FE0E80700D020E72068011D21600068F7
:10158000290501D5067018E7290701D5068014E75B
:10159000A90703D5F117066041600EE706600CE766
:1015A00040212846234608436060A80701D5082249
:1015B00017E008221DE0594928460840606016E0FF
:1015C00040212846234608436060A807BCD5B9E7F8
:1015D00015E04021284608436060A80707D5234648
:1015E000102201200F99C043C046C0467CE0102263
:1015F000234601200F99C043FFF720F874E0002133
:1016000063280B460191009102910D9102D05B2855
:1016100007D03BE0E80601D40120A0600120009043
:1016200034E0E06801210D906269039890475E28DC
:1016300007D101200190E06801210D9062690398B3
:1016400090472169002906D10B4604AA8F00491C46
:101650000829D351FADB002851D02169002926D06E
:101660000298401C029062690398012190475D280E
:10167000F1D10198002808D0002004AB8100401C63
:101680005A58D24308285A50F8DB04AB2069002886
:1016900020791CD04007029A00980D9B00922246A8
:1016A00002901F480F991DD5C046C0461CE0C117C7
:1016B000C90E09184A114909930004AA9A18490148
:1016C000411A13680120884003431360CBE74007A9
:1016D000224613480F9902D5C046C04604E0C046D2
:1016E000C04601E0C046C04600280ADA401C06D1C8
:1016F0000E98002803D00020C04311B0F0BD0C9814
:10170000FBE7E90702D10C99491C0C91361800201F
:101710000E9052E6CCCCCC0CFFFFFF7FF1F7FFFF21
:10172000FEFFFFFFC80212D54803400F002804D077
:10173000C803C043012188407047EFF300800001D7
:10174000000903210907084380F30088704700203F
:101750007047000010B500200249029A00F084F89A
:1017600010BD00000000F87F10B5024800F07CF8C2
:1017700010BD00000000C07F0048704724380020E2
:101780007546FFF7F9FFAE46050069465346C008A7
:10179000C000854618B020B5FEF748FD60BC0027A4
:1017A0004908B6460026C0C5C0C5C0C5C0C5C0C52D
:1017B000C0C5C0C5C0C5403D49008D46704700004A
:1017C00010B5FFF7E1FD001D10BD00BFA1670000CF
:1017D00010B50446C046C0462046FEF7BFFC10BD0B
:1017E000024670B50A4392072AD11E4DEE0104C885
:1017F00008C9541B9443344017D0D0B2D9B2401A10
:101800002106014310D190B299B2401A210401433C
:101810000AD110021902000A090A401A21020143E2
:1018200002D1100E190E401A70BD9A42DFD010BAC4
:1018300019BA884201D9012070BD0020C04370BD93
:1018400002780B78401C491C002A09D09A4207D123
:1018500002780B78401C491C002A01D09A42EFD034
:10186000D01A70BD0101010110B50C461107090F16
:10187000092904D00A290AD008290CD104E011460C
:101880000820FFF74FFF06E0510606D501E051069C
:1018900001D50120C007214610BDD10607D50101A1
:1018A0000909CC084907000E0006044309E0410F6E
:1018B00020024907000A0143200E00061D22D141E3
:1018C00001430846E7E7000001491820ABBEFEE7E8
:1018D00026000200704770B58C180578401C6B0715
:1018E0005B0F01D10378401C2A1106D10278401CFD
:1018F00003E00678401C0E70491C5B1EF9D12B07D3
:1019000005D40023521E0DD40B70491CFAE703784E
:10191000401CCB1A921C03E01D780D70491C5B1C07
:10192000521EF9D5A142D8D3002070BD10B5114880
:101930001149086019200968486110210E480068A3
:10194000816101210C480068C16106210A480068D4
:1019500041623021084800688162592106480068C8
:10196000C16201221146054804F008FE02490968D7
:10197000086210BD9C01002078000020202000009B
:10198000FFB58DB016ACD0CC2546641C641C701E0F
:101990004000E049401841782046641C0D9A1154DB
:1019A000701E4000DB49095C2046641C0D9A1154EE
:1019B0002046641C0D990F5400200A900B903300B0
:1019C00004F09EFC311A1A1B1C1D1E1F202122230D
:1019D0002425262728373839696A6B6C6D6E6F703D
:1019E0007172808E94C3C9CACBCCCDCECFFEFDFC24
:1019F000FBFAF9F8F7F61A007DE17CE17BE17AE188
:101A000079E178E177E176E175E174E173E172E122
:101A100071E170E1C04800880004010E2046641C9A
:101A20000D9A1154BC4801782046641C0D9A11543B
:101A300061E160E15FE120212046641C0D9A1154B0
:101A4000B648006801782046641C0D9A1154B348CA
:101A5000006801792046641C0D9A1154AF48006853
:101A6000017A2046641C0D9A1154AC480068017C30
:101A70002046641C0D9A1154A8480068017D204638
:101A8000641C0D9A1154A5480068017E2046641C10
:101A90000D9A11542FE12EE12DE12CE12BE12AE1E9
:101AA00029E128E127E126E19D48408800122146EE
:101AB000641C0D9A50549A4881782046641C0D9AF3
:101AC000115418E19648808800122146641C0D9A32
:101AD0005054934801792046641C0D9A11540AE130
:101AE0000B212046641C0D9A115404E18D480068B6
:101AF000FFF7B8FA01230822059104900AA906A865
:101B000003F060FA0020029005990498019100907A
:101B100006A80FC800F076FB08A8017A2046641CCE
:101B20000D9A115408A8417A2046641C0D9A11544C
:101B300008A8817A2046641C0D9A115408A8C17A1D
:101B40002046641C0D9A1154D5E001212046641CE6
:101B50000D9A1154CFE0CEE0CDE0CCE0CBE0CAE06E
:101B6000C9E000212046641C0D9A11542046641CD3
:101B70000D9A11546C480068C1782046641C0D9A77
:101B800011546948006801792046641C0D9A11546B
:101B9000FF212046641C0D9A11542046641C0D9AA6
:101BA00011542046641C0D9A11542046641C08E010
:101BB00092E085E07CE075E052E049E03AE00AE03E
:101BC00002E00D9A115496E0554801782046641CB5
:101BD0000D9A11548FE053480068FFF743FA012330
:101BE0000822059104900AA906A803F0EBF9002049
:101BF0000290059904980191009006A80FC800F082
:101C000001FB08A8017A2046641C0D9A115408A80B
:101C1000417A2046641C0D9A115408A8817A204606
:101C2000641C0D9A115408A8C17A2046641C0D9AB0
:101C3000115460E03A48C08800122146641C0D9A95
:101C40005054374881792046641C0D9A115452E053
:101C50003548006841792046641C0D9A11544AE0C9
:101C6000314800688068000E2146641C0D9A50546B
:101C70002D48006880680002010E2046641C0D9A01
:101C800011542948006800890004010E2046641C94
:101C90000D9A115424480068017A2046641C0D9A5C
:101CA000115428E000212046641C0D9A115422E0B2
:101CB0001D480068017B2046641C0D9A11541AE0EF
:101CC00000212046641C0D9A1154184801782046C2
:101CD000641C0D9A11540EE0154800880004010E92
:101CE0002046641C0D9A1154114801782046641C4A
:101CF0000D9A115400BF00BF601B0004000E0D9927
:101D00004855601BC1B2681C0D9A1154204611B091
:101D1000F0BD0000D8010020400200204C0200204D
:101D2000CC01002044020020780000206C0200203A
:101D30006402002010B502F053FF024800F038FEA4
:101D400010BD000000B4014000BF04480068400816
:101D500040000249086000BF7047000000B4014025
:101D600010B500BF08480069C007C00F01214840F6
:101D70004840002806D000BF01200349086100BF89
:101D800000F0B0F910BD000000B4014000B585B00E
:101D900014216846FEF779FD402000900020019054
:101DA00001200290002003906946044801F00AF8DF
:101DB0004021024801F052F905B000BD000C00407E
:101DC00000B585B014216846FEF75FFD4020009005
:101DD000012001900020029003906946044800F021
:101DE000F1FF4021024801F0C8F805B000BD000035
:101DF000000C00401FB582B0089C0398042805DD44
:101E0000002C03D10020014606B010BD039808281D
:101E100004DD002C02D000200146F5E7039902986A
:101E200005F0B7FA002004E00299095C6A461154F3
:101E3000401C03998142F7DC002C02D001990098E4
:101E4000E2E70098FFF70EF9DEE730B503460C46EF
:101E50000020214604E05D5C2D18E8B24D1CE9B27B
:101E60009142F8DB30BD000010B511480068102128
:101E7000415E1048814209D100200D49096808825D
:101E800002210B480068103000F0F0F908480168A2
:101E90001220085E0749884209D1002004490968D8
:101EA0004882022102480068123000F0DFF910BDBC
:101EB00078000020FFFF0000F0B589B004460D4611
:101EC00016461F463FA207CA059204910390E117E8
:101ED000090F091909117D22D20051430094E2171C
:101EE000120F121912111201A21A64235A438918EF
:101EF000EA17120F521912110A235A438918284659
:101F0000EA17120F121812111201AA1A8918029553
:101F100001940891F217120F921912115A43304688
:101F2000F3171B0F1B181B111B01F31AD218D2B287
:101F30000792FA17120FD21912110A235A43384680
:101F4000FB171B0F1B181B111B01FB1AD218D2B257
:101F500006920798022819D108988007800F002858
:101F600005D164210898FEF792FC002906D1FF21D3
:101F700091310898FEF78BFC002906D16846407B1A
:101F8000401CC1B26846417300E000BF07980C28AE
:101F900002DD002009B0F0BD06981F2801DD0020F9
:101FA000F8E70798012809DB0798401E03A9095C98
:101FB0000698814202DB0698012801DA0020E9E751
:101FC0000120E7E71F1C1F1E1F1E1F1F1E1F1E1FB5
:101FD000F0B5034618110A2778431F073F0FC019B1
:101FE000C4B208110A2778430F073F0FC019C5B2C2
:101FF00010110A27784317073F0FC019C6B2002CEB
:1020000002D011DD182C0FDA002D02D00ADD3C2D94
:1020100008DA002E02D003DD3C2E01DA0120F0BDEB
:102020000020FCE70020FAE70020F8E710B504489C
:102030004188FD38FEF727FC00210148418010BD92
:102040009435002010B504484188FD38FEF71BFC8C
:1020500000210148418010BD9A37002010B504F0DE
:1020600041F810BD10B5002436E060011C4940184D
:102070004078002800D12EE060011949401883689B
:10208000C1686001164A821810695269181A914194
:102090000DD26001124940188368C06800215A1CA3
:1020A000484161010E4BC9188A60C86003E00120F5
:1020B00061010B4A505460010949085C012809D1AB
:1020C000600140188069002804D06101044A891821
:1020D0008869804700BF641C032CC6DB10BD00006C
:1020E0008800002010B5002436E060011C4940182B
:1020F0004078002800D12EE060011949401883681B
:10210000C1686001164A821810695269181A914113
:102110000DD26001124940188368C06800215A1C22
:10212000484161010E4BC9188A60C86003E0012074
:1021300061010B4A505460010949085C012809D12A
:10214000600140188069002804D06101044A8918A0
:102150008869804700BF641C022CC6DB10BD0000EC
:10216000F80000200020704708B50C4802F0CCFBB6
:102170000B4802F0C9FB02F0D3FE02F04DFEFFF760
:10218000D9FDFFF7E1FD0020009006480F22D201A3
:102190000023016C1846884708BD00000004014078
:1021A00000840140480100207FB5089D134828188D
:1021B00000280BD01249401800280DD0FF381138E4
:1021C00000280AD04018002813D10CE068460FC838
:1021D00003F066FE04460CE00BE068460FC8FFF70C
:1021E000C1FF044605E068460FC803F087F80446BF
:1021F00000BF00BF204604B070BD0000E16F7FFF4C
:10220000F0FEFEFFFFB585B00F9E0E9D00200290F0
:102210001098002809D00698082801DA09B0F0BD06
:1022200001960095082002900AE00698042800DA3A
:10223000F4E728463146FEF7DBFB009004200290CD
:1022400000240AE0E200009F0198039038460399B9
:10225000FDF7FEFF05990855641C02988442F1DBE6
:102260000299059805F095F800BFD7E770B50546C7
:102270000E460448281AC4B221463246284600F0C9
:1022800031F970BD9C010020F8B507463020009060
:10229000164E002000F02CF831460978884201D112
:1022A000002F17D0012409E0315DE0B200F08EF874
:1022B0000546002D01D02846F8BD641C00988442D4
:1022C000F2DB3178002000F081F80546002D0BD0BC
:1022D0002846F1E7012404E0E0B200F009F83055A7
:1022E000641C00988442F7DB0020E5E79C01002095
:1022F00038B505460020009017490870002406E014
:10230000284600F02BF869460855601CC4B2022C20
:10231000F6DB684601784078814202D16846007851
:1023200038BD284600F01AF869468870684601787A
:102330008078814202D168460078F1E768464178AA
:102340008078814202D168464078E9E7012002495D
:1023500008705520E4E70000D401002070B5044661
:10236000A02502F03DF9284602F0EAF802F096F8BE
:10237000002801D1552070BD012000F0C3FB20468C
:1023800002F0DEF802F08AF8002801D15520F2E7C9
:10239000012000F0B7FB02F023F9A125284602F046
:1023A000CFF802F07BF8002801D15520E3E70120A7
:1023B00000F0A8FB02F094F8064602F0F1F802F0F3
:1023C00035F9022000F092FB3046D4E770B506469E
:1023D0000C4600200C49087000250DE021463046CF
:1023E00000F014F83046FFF783FFA04202D1064800
:1023F000007870BD681CC5B2032DEFDB01200249D7
:10240000087008460078F4E7D401002070B505464E
:102410000C46A02602F0E4F8304602F091F802F0F3
:102420003DF8002801D1552070BD284602F088F8FB
:1024300002F034F8002801D15520F5E7204602F0DB
:102440007FF802F02BF8002801D15520ECE702F0CC
:10245000EDF8052000F04AFB0020E5E7F8B5054659
:102460000E461746002405E03119C8B2FFF740FFB9
:102470002855641CBC42F7DB0020F8BD00B585B0D0
:1024800014216846FEF701FA0120000300900020A5
:10249000019001200290002003906946024800F05C
:1024A00091FC05B000BD0000000C004000B585B0F7
:1024B00014216846FEF7E9F901200003009001208D
:1024C00001900290002003906946054800F07AFCD4
:1024D00001210903024800F0C4FD05B000BD000061
:1024E000000C0040F7B506460F4600240AE0315DB7
:1024F0003A19D0B2FFF76AFF0546002D01D02846F1
:10250000FEBD641C02988442F1DB0020F8E7012143
:102510000160704710B50146012200BF48680028DD
:1025200015D013064868984211D05306486898425F
:102530000DD003231B064868984208D093064868CC
:10254000984204D005231B064868984201D1012017
:1025500000E00020002801D100BFFEE700BF00BF5F
:10256000086800280DD001231B040868984208D091
:102570005B000868984204D003231B040868984253
:1025800001D1012000E00020002801D100BFFEE7BA
:1025900000BFFF200130134BDB6A0343114CE362A1
:1025A00000BF00030F4B40331B6B03430D4C403403
:1025B000236300BF486823461B6B07242406A343FC
:1025C0000343084C4034236300BF086823461B6B59
:1025D00003242404A3430343024C4034236300BF79
:1025E000104610BD00020040816849084900816022
:1025F000704742690B031B0B9A4342617047816825
:102600000122114381607047816802221143816079
:10261000704742690B031B0B1A434261704700006D
:1026200070B502460124002300BFDA48824201D17E
:10263000012000E00020002801D100BFFEE700BF1C
:1026400000BF0868002804D001256D020868A84270
:1026500001D1012000E00020002801D100BFFEE7E9
:1026600000BF00BF4868002804D00125ED0248687B
:10267000A84201D1012000E00020002801D100BFC4
:10268000FEE700BF00BFC868002802D0C868042861
:1026900001D1012000E00020002801D100BFFEE7A9
:1026A00000BF00BF086900280DD001252D0308696F
:1026B000A84208D06D000869A84204D003252D0364
:1026C0000869A84201D1012000E00020002801D1C2
:1026D00000BFFEE700BF00BF2020405C002803D001
:1026E0002020405C012801D1012000E000200028CA
:1026F00001D100BFFEE700BF00BF486A002821D01B
:1027000001256D04486AA8421CD06D00486AA842A1
:1027100018D003256D04486AA84213D00125ED04A2
:10272000486AA8420ED005256D04486AA84209D01F
:102730000325AD04486AA84204D007256D04486A01
:10274000A84201D1012000E00020002801D100BFF3
:10275000FEE700BF00BF886A002826D001252D05AE
:10276000886AA84221D06D00886AA8421DD003253E
:102770002D05886AA84218D00125AD05886AA842AF
:1027800013D005252D05886AA8420ED003256D05B6
:10279000886AA84209D007252D05886AA84204D076
:1027A0000125ED05886AA84201D1012000E0002042
:1027B000002801D100BFFEE700BF4020764DAD6A82
:1027C0000543754EB56200BF00BF74480068B5157B
:1027D0002843724D286000BF00BF70481838006859
:1027E000C007C00F01256840684000280FD100BF16
:1027F00001206A4D183D686000BF00BF2846006890
:1028000001252843654D183D286000BF00BF00BF6B
:1028100062481838006802252843604D183D28603A
:1028200000BF05E07D208002834200D30BE05B1CEB
:1028300000BF5A4818384068C007C00F01256840DB
:1028400068400028EED000BF00BF906840084000FC
:10285000906000BF00BF9068C007C00F01256840AE
:10286000684000287ED10868D56801267602B54305
:102870000543D56000BF4868D568B600B543054339
:10288000D56000BF087A002806D000BFD068751058
:102890002843D06000BF07E000BFD0680125AD022B
:1028A000A843D06000BF00BF487A002807D000BF0F
:1028B000D068FF2501352843D06000BF07E000BF86
:1028C000D068FF250135A843D06000BF00BFC868AD
:1028D000D5680426B5430543D56000BF0020956840
:1028E000F601B5430543956000BF00BF95687610BB
:1028F000B5430543956000BF0869D56803263603D4
:10290000B5430543D56000BF4869D568F026B54397
:102910000543D56000BF0B20000215693601B543A1
:102920000543156100BF886915692D092D0105430F
:10293000156100BFC8691569F026B54305431561E7
:1029400000BF2020405C002819D0486AD5680726BF
:102950007604B5430543D56000BF886AD5680F2665
:10296000360500E013E0B5430543D56000BF00BF66
:10297000D06801252D042843D06000BF08E000BFC7
:10298000D06801252D04A843D06000BF00E00024DA
:10299000204670BD00AC01400002004024A8014068
:1029A00001460868C007C00F0122504050407047E0
:1029B00001680122114301607047000030B50246F2
:1029C0007D235B0100BF3F48824201D1012000E02E
:1029D0000020002801D100BFFEE700BF00BFC8688B
:1029E000002808D0C868012805D0C868022802D08D
:1029F000C868032801D1012000E00020002801D18F
:102A000000BFFEE700BF00BF8868012802D08868C9
:102A1000002801D1012000E00020002801D100BFE2
:102A2000FEE700BF0120284C646B0443264D6C6315
:102A300000BFC868244C4034246BA408A40004439D
:102A4000214D40352C6300BF10202C46246B0443DD
:102A50002C6300BF0868946A906200BF00BF1068D2
:102A60000224A043106000BF4868D46AD06200BF4F
:102A70008868012806D100BF1068802420431060B8
:102A800000BF06E000BF10688024A043106000BFB4
:102A900000BF00BF506901242043506100BF00E027
:102AA0005B1E00BF1069C007C00F0124604060407A
:102AB000002801D1002BF3D100BF0120106100BF1D
:102AC00030BD000000B4014000020040064800692B
:102AD00004210843044908610846006901210843AC
:102AE000014908617047000000E000E010B50446AD
:102AF00003E07D20C00000F005F82046641E002899
:102B0000F7D110BDFEB50746002613484069009076
:102B1000124913480068FDF7BAFE7843019004F0AB
:102B200085FD0D48856911E00B488469AC420DD0E4
:102B3000AC4202D2281B861903E00098001B401902
:102B4000861925460198864200D300E0ECE700BFD5
:102B500005F0F2F8FEBD000000E000E040420F008A
:102B600074000020014600BF0868002804D001223C
:102B700092070868904201D1012000E0002000285F
:102B800001D100BFFEE700BF80200D4A926A0243D8
:102B90000B4B9A6200BF0006094A4032D26A0243D8
:102BA000074B4033DA6200BF08681A46D26A1B0638
:102BB0009A430243024B4033DA6200BF0120704760
:102BC00000020040FEB504460D46002002905C491C
:102BD0005C480068FDF75BFEC8214843019000BFD8
:102BE000012C23D0022C21D0042C1FD0082C1DD066
:102BF000102C1BD0202C19D0402C17D0802C15D095
:102C0000FF200130844211D0400084420ED04000A9
:102C100084420BD04000844208D04000844205D05A
:102C20004000844202D04000844201D1012000E0F3
:102C30000020002801D100BFFEE700BF00BF2868C8
:102C4000002808D02868012805D02868022802D06A
:102C50002868032801D1012000E00020002801D1CC
:102C600000BFFEE700BF00BF6868002808D06868A2
:102C7000012805D06868022802D06868032801D1BD
:102C8000012000E00020002801D100BFFEE700BFC6
:102C900000BFA868012802D0A868002801D101203F
:102CA00000E00020002801D100BFFEE700BF27465A
:102CB000002602E07F08701CC6B2012FFAD1730013
:102CC000286898400146B0001F4B1A581F4890478B
:102CD000A868012808D100BF1C488068A1B2084339
:102CE0001A49886000BF03E02146184800F04BF8FD
:102CF000F017000F801900118000154900960B583D
:102D0000214612486A6898470020029003E000BFFD
:102D10000298401C0290019902988842F7D32146FC
:102D20000A4800F02DF81E20002805DBC206D20E4E
:102D300001219140074A116000BF0120FEBD000043
:102D400040420F007400002004820000000D00408B
:102D50004082000080E200E00348806B40084000B1
:102D6000014988637047000000A801400348C06B18
:102D7000C007C00F012148404840704700A80140EB
:102D80008AB2C260704782688BB29A438260704791
:102D9000826A8BB29A438262704702688BB29A430E
:102DA0000260704782688BB29A43826070474268C3
:102DB0008BB29A4342607047026A8BB29A430262B6
:102DC00070470000F8B506460C460027002500BFF6
:102DD000654886420BD064484030864207D062483E
:102DE0008030864203D06048C030864201D1012045
:102DF00000E00020002801D100BFFEE700BF00BFB7
:102E00002068002805D959492068884201D8012046
:102E100000E00020002801D100BFFEE700BF00BF96
:102E20006068032808D06068002805D06068012821
:102E300002D06068022801D1012000E000200028B3
:102E400001D100BFFEE700BF00BFA068012802D08B
:102E5000A068002801D1012000E00020002801D155
:102E600000BFFEE700BF00BFE068002802D0E068B6
:102E7000012801D1012000E00020002801D100BF7D
:102E8000FEE700BF80203A49896A0143384A9162CF
:102E900000BF62E00121B940206808400546002DCE
:102EA0005AD06068032812D129463046FFF775FFD3
:102EB00029463046FFF77BFF29463046FFF772FF71
:102EC00000BFB06AA9B20843B06200BF2EE0294635
:102ED0003046FFF75DFF6068002806D100BF30680C
:102EE000A9B20843306000BF03E029463046FFF72F
:102EF00054FFA068002804D129463046FFF752FF4E
:102F000006E000BFB068A9B20843B06000BF00BFD0
:102F1000E068002806D000BF7068A9B2084370605E
:102F200000BF03E029463046FFF741FF60680228F2
:102F30000DD12069012806D100BF306AA9B208432B
:102F4000306200BF03E029463046FFF735FF2946CF
:102F50003046626800F08EF87F1C2068F840002838
:102F600098D10120F8BD0000000C0040FFFF0000D8
:102F7000000200408AB2826170478AB28261704763
:102F80008AB2826170478AB2826170478AB2826176
:102F900070470268920892000A4302607047026814
:102FA0000C239A430A4302607047026803231B05FF
:102FB0009A430A4302607047026803239B059A43C1
:102FC0000A4302607047026803231B069A430A43C0
:102FD00002607047026803239B069A430A4302601B
:102FE0007047026803231B079A430A430260704735
:102FF000026830239A430A43026070470268C02384
:103000009A430A4302607047026803231B029A43F3
:103010000A4302607047026803239B029A430A43F3
:1030200002607047026803231B039A430A4302604D
:103030007047026803239B039A430A430260704768
:10304000026803231B049A430A4302607047026824
:1030500003239B049A430A43026070478AB2426189
:1030600070478AB2426170478AB2426170478AB241
:103070004261704730B5C3680C464C436500641923
:10308000A3430C464C4354432343C36030BD30B587
:1030900043680C464C4365006419A3430C464C43FB
:1030A00054432343436030BDF0B50246002301255D
:1030B000002400BF3C48824201D1012000E00020F2
:1030C000002801D100BFFEE700BF00BF374E4868AF
:1030D000B04201D2012000E00020002801D100BF51
:1030E000FEE700BF00BF0868002814D00868012868
:1030F00011D0086802280ED0086803280BD0086891
:10310000042808D00868052805D00868062802D0D9
:103110000868072801D1012000E00020002801D123
:1031200000BFFEE700BF2020214EB66A0643204FB5
:10313000BE6200BF00BF1F48106000BF086856682D
:10314000F608F6000643566000BF00BF9068000511
:10315000000D0446486800281CD0002C0DD100BF8B
:1031600000BF90680005000D012813D018465B1CB5
:10317000FF26F536B042F3D30CE000BF00BF9068E5
:103180000005000D002805D018465B1CFF26F5360B
:10319000B042F3D34868D668360B36030643D66090
:1031A00000BF2846F0BD000000140140FF0F0000E2
:1031B000000200405A5A341210B5FFF787FC10BDC8
:1031C00001680122120611430160704770B505467F
:1031D0000C46012600BF8C48854201D1012000E049
:1031E0000020002801D100BFFEE700BF00BF20681B
:1031F00000280DD0FF2101312068884208D0490005
:103200002068884204D0032109022068884201D145
:10321000012000E00020002801D100BFFEE700BF30
:1032200000BF6068002804D00121890360688842DB
:1032300001D1012000E00020002801D100BFFEE7FD
:1032400000BF00BFA068002821D001218902A0682A
:1032500088421CD04900A068884218D00321890206
:10326000A068884213D001210903A06888420ED0CB
:1032700005218902A068884209D00321C902A068FB
:10328000884204D007218902A068884201D1012028
:1032900000E00020002801D100BFFEE700BF00BF12
:1032A0002069002808D02069012805D0206902285B
:1032B00002D02069032801D1012000E0002000286D
:1032C00001D100BFFEE700BF00BFE069002805D0C4
:1032D000E069202802D0E069402801D1012000E007
:1032E0000020002801D100BFFEE700BF00BF6069D9
:1032F000002802D06069042801D1012000E00020EC
:10330000002801D100BFFEE700BF00BFA069002870
:1033100002D0A069802801D1012000E0002000280F
:1033200001D100BFFEE700BF374885421ED1012012
:103330003649896A0143354A916200BF20690228F3
:1033400014D0901431494031096B01432F4A403267
:10335000116300BF20681146096B032212029143DA
:1033600001432A4A4032116300BF00BF60682968E8
:103370000122920391430143296000BFA06829689C
:103380000722920291430143296000BF2069296806
:10339000890889000143296000BF2069002806D000
:1033A000012811D0022814D003281FD119E00121CF
:1033B00089036068884206D12846A16900F028F890
:1033C0002846FFF7FDFE11E02846E16900F026F8E7
:1033D0000CE02846A16900F01BF82846FFF7F0FE34
:1033E00004E02846E16900F019F800BF00BF6069F9
:1033F0002968042291430143296000BFE068E9681D
:10340000E86000BF304670BD00340140000200405B
:10341000026880239A430A4302607047026860236F
:103420009A430A43026070470121816070474168F6
:10343000FF2201321143416070470000F8B5054694
:103440000C460027002600BF9248854202D09248D1
:10345000854201D1012000E00020002801D100BFF9
:10346000FEE700BF00BF2068002805D020680128C3
:1034700002D02068022801D1012000E000200028AD
:1034800001D100BFFEE700BF00BF606805280ED075
:10349000606804280BD06068032808D060680228A0
:1034A00005D06068012802D06068002801D10120A1
:1034B00000E00020002801D100BFFEE700BF00BFF0
:1034C000A068C02808D0A068002805D0A0684028BF
:1034D00002D0A068802801D1012000E0002000284F
:1034E00001D100BFFEE700BF00BFE068002804D0A4
:1034F000FF210131E068884201D1012000E0002075
:10350000002801D100BFFEE700BF00BF20690028EE
:1035100005D02069102802D02069202801D101207F
:1035200000E00020002801D100BFFEE700BF00BF7F
:103530006069002808D06069022805D06069012808
:1035400002D06069032801D1012000E0002000289A
:1035500001D100BFFEE700BF4E48854219D10120CE
:10356000C00300F093F9A80400F088F92178080658
:103570004A49C96A0322120691430143474AD1626C
:1035800000BF01214906206888421CD100F086F95D
:1035900019E00120800400F079F90120400700F0D3
:1035A0006DF9217888063D49C96A03229206914344
:1035B00001433A4AD16200BF0121C906206888420E
:1035C00001D100F06BF9207DC007C00F00280DD09D
:1035D00000BF00BF286801210843286000BF00BF6A
:1035E00028680840484048400028F2D0022160691D
:1035F000084000280CD000BF00BF28680221084303
:10360000286000BF00BF2868084040080028F3D0A9
:103610006068E968C908C9000143E96000BFE06863
:103620002968FF22013291430143296000BFA0684D
:103630002968C02291430143296000BF206929689D
:10364000302291430143296000BF6068030002F00B
:1036500057FE060406080A0D1012114E0DE0114E19
:103660000BE0114E09E00E4EC03E06E00E4E761FF6
:1036700003E00E4E01E00A4E00BF00BF00BFE86845
:103680000B49084031040843E86000BF0127384671
:10369000F8BD0000000401400084014040020040E9
:1036A00052050000FB1E0000DB160000420800006F
:1036B000FFFF00E001468868FF2201321040000A47
:1036C0007047014688680222104040087047014652
:1036D0008868C007C00F0122504050407047014623
:1036E0004868FF2201321040000A70474269520ABE
:1036F00052020A434261704770B505460C4628687D
:10370000032801D9032028602046002805DBC206D3
:10371000D20E01219140094A116000BF204629685C
:1037200001F014FC2046002806DBC206D20E01215F
:103730009140024A803A116000BF70BD80E100E014
:1037400030B50246002300BF4A48824201D1012021
:1037500000E00020002801D100BFFEE700BF00BF4D
:10376000C868002804D00124E404C868A04201D13C
:10377000012000E00020002801D100BFFEE700BFCB
:1037800000BF0878002802D00878012801D1012064
:1037900000E00020002801D100BFFEE700BF00BF0D
:1037A000012464024868A04202D04868002801D180
:1037B000012000E00020002801D100BFFEE700BF8B
:1037C00000BF8868002808D00124A4028868A042AD
:1037D00003D064008868A04201D1012000E00020ED
:1037E000002801D100BFFEE700BF00BF0869002824
:1037F00008D00869012805D00869022802D00869A4
:10380000032801D1012000E00020002801D100BFE1
:10381000FEE700BF08695468A408A400044354608C
:1038200000BF886814680325AD02AC4304431460EC
:1038300000BF0878012807D100BF1068FF240134B9
:103840002043106000BF07E000BF1068FF24013470
:10385000A043106000BF00BF0020074C20614868F3
:10386000146801256D02AC430443146000BF0123BA
:10387000184630BD0001004000ED00E00249C96A71
:103880000143014AD1627047400200400249096B7E
:103890000143014A11637047000200400348406A37
:1038A000012108430149486270470000400200407E
:1038B0000449096B0722120691430143014A11632F
:1038C00070470000400200400349896B090A090261
:1038D0000143014A9163704700020040024600BF65
:1038E0001C48106000BF8869D368DB09DB01034313
:1038F000D36000BF48691369DB09DB01034313612F
:1039000000BF086953699B099B010343536100BFD2
:10391000886893699B099B010343936100BFC86852
:10392000D369DB08DB000343D36100BF4868136A37
:103930005B095B010343136200BF0868536A1B0AFB
:103940001B020343536200BF00BF0348106000BF67
:1039500001207047ACACACAC5A5A5A5A024600BF70
:10396000D0684006400E886100BF10694006400ED6
:10397000486100BF50698006800E086100BF9069F1
:103980008006800E886000BFD0694007400FC86085
:1039900000BF106AC006C00E486000BF506AC0B2C7
:1039A000086001207047000030B504460D4600BF96
:1039B0000B48844201D1012000E00020002801D101
:1039C00000BFFEE700BF04200649896A0143054A9B
:1039D000916200BF29462046FFF780FF012030BDDD
:1039E00000100140000200400168FF2201329143B3
:1039F000016070470168FF22013211430160704786
:103A000001684908490001607047016801221143BB
:103A10000160704700B585B014216846FCF735FF9A
:103A2000FF20013000900020019002900390694631
:103A30002248FFF7C7F903204002009001200190BF
:103A400000200290039069461C48FFF7BBF9032150
:103A500049021A48FFF797FA1820009001200190B8
:103A6000002002900390694614484030FFF7AAF9FD
:103A7000182112484030FFF786FA202000900020DD
:103A800001900290039069460C484030FFF79AF984
:103A90000B20400200900120019002900020039032
:103AA000694606484030FFF78DF90B21490203486B
:103AB0004030FFF7D9FA05B000BD0000000C00400F
:103AC00010B500F065F80446204610BD10B5102171
:103AD0001048FFF7C9FA012149020E48FFF753FACF
:103AE000012189020B48FFF74EFA012149020948DA
:103AF0004038FFF748FA10210648FFF744FA08213A
:103B00000448FFF740FA0121890202484038FFF7D4
:103B10003AFA10BD400C004010B501218902084856
:103B2000FFF7A2FA1420FEF7E1FF00F05DF8054868
:103B3000006800F091F810210148FFF795FA10BDD8
:103B4000400C00404802002070B5002410210F48AE
:103B5000FFF719FA002515E008210C48FFF784FA51
:103B6000640000BF09484038C06980B2FF210131BC
:103B70000840002800D0641C08210448FFF703FA1D
:103B8000681CC5B2102DE7DB204670BD400C00401C
:103B900070B5002410210F48FFF7F5F9002515E056
:103BA00008210C48FFF760FA640000BF094840385C
:103BB000C06980B2FF2101310840002800D0641C98
:103BC00008210448FFF7DFF9681CC5B2202DE7DBA8
:103BD000204670BD400C004010B50024FFF7B4FF34
:103BE0000446204610BD000010B5012149020F48CF
:103BF000FFF73AFA6420FEF785FF10210B484030AA
:103C0000FFF732FA0220FEF77DFF1021074840300F
:103C1000FFF7B9F908210520000300F08FF8102103
:103C200002484030FFF720FA10BD0000000C0040B1
:103C3000F8B504460D4616461F462002401900906E
:103C40001021009800F07AF83002C019009010217D
:103C5000009800F073F8F8BD10B5044610213548FF
:103C6000FFF702FA0120FEF74DFF10213148FFF760
:103C70008AF968238722F3218020FFF7D9FF1021DA
:103C80002C48FFF7F1F90120FEF73CFF10212948ED
:103C9000FFF779F90023442221218120FFF7C8FF93
:103CA00010212448FFF7E0F90120FEF72BFF102137
:103CB0002048FFF768F910211F4800F03FF8204620
:103CC00000F066F810211B48FFF7CEF90120FEF73F
:103CD00019FF10211748FFF756F900231A46102143
:103CE0008320FFF7A5FF10211248FFF7BDF901203F
:103CF000FEF708FF10210F48FFF745F900231A4689
:103D000020218420FFF794FF10210A48FFF7ACF927
:103D10000120FEF7F7FE10210648FFF734F90023D3
:103D20001A4648218520FFF783FF10210148FFF73D
:103D30009BF910BD400C0040E082000070B50446C5
:103D40000D4610211148FFF71EF900261BE008213F
:103D50000E48FFF789F9012189020C484038FFF726
:103D600012F90120C0032040002805D0012189025A
:103D700006484038FFF778F9640008210348FFF748
:103D800002F9701CC6B2AE42E1DB70BD400C0040CF
:103D900010B5044610212046FFF7D0FF10BD0000EB
:103DA00010B510200849C9680140814201D10121A4
:103DB00000E00021002905D010200349C86000BFA1
:103DC00001F0E0FA10BD0000000D0040F8B5064615
:103DD000002703200006FFF76BFD00BF2048C068E6
:103DE000012108431E49C86000BF1E491E48FEF756
:103DF00000FC012149041C48FEF70BFC1A48FEF7A1
:103E000086FB1948FEF7FBFB1748FEF7FDFB00BFDA
:103E10001548FEF7C5FD04467F1C1448874201D0B3
:103E2000002CF5D0012C17D10F48FEF770FB00BF16
:103E30000D48806980B230600B48FEF7D5FB610405
:103E40000948FEF7D6FB00BF0548C068A0430449F7
:103E5000C86000BF002500E001252846F8BD00002D
:103E60000CA80140FFFF0F0000AC0140FF01000063
:103E7000F0B58BB00024282101A8FCF706FD00272F
:103E800000210D460E461A48FFF7BFFD18481830AE
:103E9000FFF7B0FD1748FEF7B2FB1420FEF726FE31
:103EA00000BF0EE00120800200F0B0F8A10001AADE
:103EB0005050A00001A90858002145194E41601C2E
:103EC000C4B20A2CEEDB0A22002328463146FCF756
:103ED000E8F905462F460648FFF792FD04481830DA
:103EE000FFF782FD0348FEF77FFB38460BB0F0BDBD
:103EF0000CA8014000AC0140F0B58BB00024282193
:103F000001A8FCF7C2FC002700210D460E461C4804
:103F1000FFF77BFD1A481830FFF76CFD1948FEF7D4
:103F20006EFB1420FEF7E2FD00BF0DE0012000F063
:103F30006DF8A10001AA5050A00001A90858002165
:103F400045194E41601CC4B20A2CEFDB0A22002343
:103F500028463146FCF7A5F905462F460848FFF7E5
:103F60004FFD07481830FFF73FFD0648FEF73CFBC2
:103F7000780005490860084600680BB0F0BD0000F5
:103F80000CA8014000AC014070020020F3B581B0E4
:103F90000E46002701208006FFF78AFC18491948C1
:103FA000FEF727FB17480199FEF733FB1548FEF78C
:103FB000AEFA1448FEF723FB1248FEF725FB00BFBC
:103FC0001048FEF7EDFC04467F1C0F48874201D0E5
:103FD000002CF5D0012C10D10A48FEF798FA00BF4A
:103FE0000848806980B230600648FEF7FDFA05484F
:103FF0000199FEF7FEFA002500E001252846FEBDE6
:10400000FFFF0F0000AC0140FF010000F1B58AB0D6
:10401000002008900790069008A8FFF7D7FEC0B2CE
:10402000059006A90A98FFF7B1FFC0B2049008985E
:10403000002821D0059800281ED1049800281BD103
:104040000F49069802F044F90E4A148900250646E5
:104050000F4622462B46FCF70CF9019100900A49C5
:10406000089802F035F902460B4603910290019937
:104070000098FCF716F9079007980BB0F0BD000008
:10408000B80B000000FBFF1FFF0F0000F7B5B6B034
:104090000F4600203290339034903590369832900D
:1040A0003397002112E03698405C682807D18F4290
:1040B00004DD369840183290781A339008E0781E64
:1040C000884202D1002039B0F0BD491CB942EADB78
:1040D00000BF3298807A31903198002803DB339901
:1040E0003198814201DA0020EDE7329800786828A3
:1040F00003D132984078442801D00020E3E7319979
:10410000CAB200213298FDF7A0FE329A3199515C73
:10411000884201D00020D6E732988078FF280BD162
:104120003298C078FF2807D132980079FF2803D150
:1041300032984079FF280FD0CE480068C078329975
:104140000979884206D1CB480068007932994979CB
:10415000884201D00020B6E7002030902F90042242
:10416000C4480168491C2FA8FCF730FB002438988C
:10417000002804D03898012801D00020A3E70020AF
:104180002B902C902D902E9001212BA802F0DAF884
:10419000389800280AD10123FF22B74901A800F06E
:1041A00011FF01A80FC82BAD0FC509E00123FF22A5
:1041B000B24905A800F006FF05A80FC82BAD0FC532
:1041C0002C992B98FCF75FFB68212046641C2B9AE6
:1041D000115444212046641C2B9A115428A8017FB5
:1041E0002046641C2B9A115428A8417F2046641C49
:1041F0002B9A115428A8817F2046641C2B9A1154B5
:1042000028A8C17F2046641C2B9A11540021204607
:10421000641C2B9A115411212046641C2B9A1154B2
:104220002046641C2B9A1154641C641C3298C07A7A
:1042300000043299097B090208433299497B0546FB
:104240000D438F48854202D08E4885420FD182218E
:104250002046641C2B9A115493212046641C2B9AEF
:1042600011544F212046641C2B9A11540EE08021DA
:104270002046641C2B9A115490212046641C2B9AD2
:1042800011541F212046641C2B9A115400202A909F
:1042900080210AA8FCF7F9FA3298407A0002329994
:1042A000897A0843099000267748854216D1012370
:1042B00080220AA905A800F085FE3298C07A000481
:1042C0003299097B090208433299497B08430090DF
:1042D00005A80FC8FDF768FF0020F4E60E2008903F
:1042E0009DE080210AA8FCF7D0FA32990898085C72
:1042F00001020898401C329A105C01432A912A98C6
:10430000802803DC33992A98814201DA0020DAE61A
:10431000329A089811182A9A521D0AA8FCF756FAE0
:10432000012380220AA904A800F04CFE3298C07A2A
:1043300000043299097B090208433299497B0843FA
:10434000009004A80FC8FDF72FFF30990843309064
:104350004B48854202D04B48854217D12A98401DD0
:10436000089909180998814210DD0123042204A844
:104370002B9900F027FE012020210094019102904A
:1043800004A80FC8FDF7FCFA04463AE03F4885420E
:1043900016D10123042204A82B9900F013FE304605
:1043A00012303299085C0A4631461131515C009452
:1043B0000191029004A80FC8FDF7E2FA044620E03C
:1043C00000212046641C2B9A115406212046641CAF
:1043D0002B9A11542E4841782046641C2B9A115474
:1043E0002B481E38817F2046641C2B9A11542021B3
:1043F0002046641C2B9A115400212046641C2B9AE1
:10440000115430460E303299085C00020A4631469B
:104410000F31515C0843861930460E3008900999D7
:104420000898884200DA5CE72004000E2B99487255
:104430002B998C7221462B9802F046F92B9908553E
:104440001621601C04462B9A11543898002805D177
:10445000601C044681B20F48018004E0601C0446E1
:1044600081B20D4801803098012801D1FDF70CFF81
:10447000012028E678000020943300209A3500209F
:104480003F9281001F9080004F9382002F91810006
:1044900016020020943400209A36002010B5FDF753
:1044A000EDFF02210D48FEF7DCFD0420FEF72AFB9C
:1044B00000BF0A48C069C007C00F002801D000240F
:1044C00000E0012402210548FEF75AFD0420FEF712
:1044D00019FBFDF7EBFF204610BD0000800C0040EB
:1044E00070B50024FDF7CAFF02211448FEF748FD0D
:1044F0000420FEF707FB00251AE002210F48FEF713
:10450000B0FD0420FEF7FEFA6006040E00BF0B4863
:10451000C069C007C00F002802D00120044301E099
:10452000FE20044002210548FEF72AFD681CC5B2A2
:10453000082DE2DBFDF7BAFF204670BD800C00407D
:1045400070B50446FDF7B2FF002521E08020204031
:10455000002804D001211148FEF783FD03E001216A
:104560000E48FEF70DFD0420FEF7CCFA02210B48A1
:10457000FEF777FD0420FEF7C5FA02210748FEF793
:10458000FFFC0420FEF7BEFA6006040E681CC5B2EC
:10459000082DDBDB0420FEF7B5FA70BD800C00406F
:1045A00010B5FDF783FF01210C48FEF75AFD0420EA
:1045B000FEF7A8FA02210948FEF7E2FC0420FEF704
:1045C000A1FA02210548FEF74CFD0420FEF79AFAF5
:1045D00002210248FEF7D4FC10BD0000800C004010
:1045E00010B5FDF763FF0420FEF78CFA01210E4899
:1045F000FEF737FD0420FEF785FA02210A48FEF790
:1046000030FD0420FEF77EFA01210748FEF7B8FCD2
:104610000420FEF777FA02210348FEF7B1FC0420DC
:10462000FEF770FA10BD0000800C004010B5FDF7D9
:104630003DFF01210C48FEF7A3FC0420FEF762FABF
:1046400002210948FEF70DFD0420FEF75BFA012167
:104650000548FEF795FC0420FEF754FA01210248B4
:10466000FEF7FFFC10BD0000800C004008B5FEF70F
:1046700073FB00BF02200B49C86300BF0A480078E3
:10468000401C094908705520FFF71EF900F048FC4E
:10469000064800900648FF222D320023016E0220BA
:1046A000884708BD00A801407C000020C5640000C8
:1046B0008800002010B5002436E060011C49401835
:1046C0004078002800D12EE0600119494018836825
:1046D000C1686001164A821810695269181A91411E
:1046E0000DD26001124940188368C06800215A1C2D
:1046F000484161010E4BC9188A60C86003E001207F
:1047000061010B4A505460010949085C012809D134
:10471000600140188069002804D06101044A8918AA
:104720008869804700BF641C022CC6DB10BD0000F6
:104730004801002010B500BF0A4840690421084024
:10474000800800280CD000BF04200649486100BF43
:10475000FFF7B0FF00BF04480449086000BF00BF76
:1047600010BD0000003401405A5A341200140140B8
:1047700008B51348FEF7B3FF01281ED11048FEF715
:1047800099FF012819D100BF0D480069C1B20D4839
:1047900041714088FF2802DBFDF748FC08BD00F0AE
:1047A00027FC0849487900F071FE07480090074847
:1047B00003220023016C1846884700BFEEE7000083
:1047C0000004014094350020D1470000F80000208B
:1047D00010B50548416C00208847044840880028EF
:1047E00001DD00F0FDF810BDF80000209435002038
:1047F00070B506460C46002C03D10F48FEF714FE98
:1048000070BD00250AE000BF0B48FEF75AFF0028E4
:10481000FAD0715D0848FEF769FF6D1CA542F2DB16
:1048200000BF0548FEF753FF0028FAD00248FEF704
:10483000FBFD00BFE4E700000004014008B5134899
:10484000FEF74DFF01281ED11048FEF733FF012867
:1048500019D100BF0D480069C1B20D4841714088AF
:10486000FF2802DBFDF7EEFB08BD00F0C1FB0849A5
:10487000487900F017FE07480090074803220023FC
:10488000016C0120884700BFEEE700000084014072
:104890009A3700209D480000F800002010B5054818
:1048A000416C0120884704484088002801DD00F061
:1048B000B9F810BDF80000209A37002070B5064600
:1048C0000C46002C03D10F48FEF7AEFD70BD00254D
:1048D0000AE000BF0B48FEF7F4FE0028FAD0715D35
:1048E0000848FEF703FF6D1CA542F2DB00BF054838
:1048F000FEF7EDFE0028FAD00248FEF795FD00BF56
:10490000E4E700000084014010B58CB00446182193
:1049100006A8FBF7BAFF142101A8FBF7B6FF002099
:1049200000902C48844220D1401401900220029033
:104930000020039001200490059001A92648FEF76D
:1049400041FA012080030190022002900020039090
:1049500004900120059001A91F48FEF733FA0120B9
:1049600000901F216846FEF7C7FE1C48844221D1F3
:104970000420019002200290002003900120049066
:10498000059001A914488030FEF71CFA0820019018
:10499000022002900020039004900120059001A9BC
:1049A0000D488030FEF70EFA012000901021684675
:1049B000FEF7A2FE002006900790402008900020FD
:1049C00009900A9003200B9006A92046FEF736FDB9
:1049D0000CB010BD00040140000C004000840140F8
:1049E00008B50020009069460A48006803F027F8DF
:1049F0000948006803F010FA002806D10098002842
:104A000003D00120000705494860002004490870D0
:104A100008BD0000A00200209C02002000ED00E084
:104A20009802002008B50020009069460A480068F6
:104A300003F005F80948006803F0EEF9002806D1F4
:104A40000098002803D00120000705494860012094
:104A50000449087008BD0000A00200209C0200204C
:104A600000ED00E098020020FF2026490870032294
:104A70000021012002F03AFE2349086041E00023B2
:104A80005A1E19462048006802F04EFE012838D10F
:104A90001C480078002815D11C4841881948027824
:104AA0001A48FD38FFF7F2FA002809D0FF20F53048
:104AB00002F040FD16480188FF380138FFF798FEE4
:104AC000FDF7B4FA0F480078012815D11148418844
:104AD0000C4802780F48FD38FFF7D8FA002809D0B3
:104AE000FF20F53002F026FD0B480188FF38013821
:104AF000FFF7E4FEFDF7A6FAFF2002490870FDF774
:104B000023F9BCE798020020A00200209435002081
:104B1000943400209A3700209A3600201CB50120DA
:104B2000000400900320000601906846FDF7F2FCA7
:104B30001CBD000000B591B0012040020C90032084
:104B40000D9000200E900F9010900CA92248FEF7B7
:104B500039F980200C9003200D9000200E900F90CA
:104B600010900CA91C48FEF72DF90120C0030C90F1
:104B700003200D9000200E900F9010900CA9164865
:104B80008038FEF71FF9002001900290012168464D
:104B90000173417300200490059006900790A020B7
:104BA000089008A8017188040A9000010B9001A9DF
:104BB0000A48FDF735FD01210848FDF72AFDFF21D0
:104BC00001310648FDF725FD012189020348FDF763
:104BD00020FD11B000BD0000800C004000AC014081
:104BE00000B585B012480190FF20F43002900120FA
:104BF00003900020049001A90E48FDF7DFFE00BFDE
:104C000001200C49086100BF00BF0846C0680121AF
:104C100008430849C86000BF0846FDF7C9FE0120E7
:104C2000009018216846FEF767FD05B000BD000042
:104C30007F02000000B4014010B500F051F90020DF
:104C40002F49496AC908C90001432D4A516200BF72
:104C500000BF1046406A0F2109028843052109025E
:104C600040181146486200BFAA20896B090A090250
:104C70000143916300BF0020114609690F2212040D
:104C8000914301431E4A116100BF00BF10460069F5
:104C9000012108431146086100BF0020C968C90806
:104CA000C9000143D16000BF00BF1146C968072297
:104CB000120291430143124AD16000BF00BF114666
:104CC000C96807221204914301430D4AD16000BF15
:104CD00000BF1146C9680722D20491430143084A24
:104CE000D16000BF04201146896A0143916200BF70
:104CF00000BF1146896A8143916200BF10BD000068
:104D00000002004010B500F0D7F8FEF783FEFFF771
:104D100005FFFFF70FFF6420FDF7E8FEFDF79EF9A2
:104D2000FDF722FA10BD08B5012080070090684603
:104D3000FDF718FF08BD000000B589B0FFF7F3FFCD
:104D40000420049000200590012006900790002088
:104D5000089004A90C48FEF735F8022001900120C4
:104D60000290039001A91020FDF72CFF10200649A6
:104D7000C031C86000BF012000901E216846FEF7C8
:104D8000BBFC09B000BD0000400C004000B585B080
:104D900014216846FBF779FD174800900120019027
:104DA00002900020039069461448FEF70BF8124960
:104DB0001248FEF7DFF8694610484030FEF702F867
:104DC0000D490E484030FEF7D5F869460B48803053
:104DD000FDF7F8FF084909488030FEF7CBF869462F
:104DE0000648C030FDF7EEFF03490448C030FEF727
:104DF000C1F805B000BD00007FFE0000000C0040BF
:104E00001CB5052000900020019069460148FEF77E
:104E10004BF91CBD0014014000B589B0FF200130E2
:104E20000190002002900390134804900020059008
:104E300006900790089001A91048FEF7C7F900BF37
:104E400004200E49486100BF00BF084600690421E4
:104E500008430A49086100BF0120009014216846F8
:104E6000FEF74AFC00BF0548806901210843034959
:104E7000886100BF09B000BDFF1F00000034014081
:104E800010B500BFFF2001300349886000BF08460D
:104E9000FEF7CDFA10BD00000004014010B500BFC0
:104EA000FF2001300349886000BF0846FEF7BFFAC3
:104EB00010BD00000084014000B585B00120400213
:104EC0000190002003900290012004900020694688
:104ED00008700248FEF734FC05B000BD0001004038
:104EE00000B585B001204002009003200190002011
:104EF00002900390049069460848FDF763FF012083
:104F00008002009003200190002002900390049002
:104F100069460248FDF756FF05B000BDC00C0040D1
:104F200010B5074807490860084601680648FEF7BB
:104F30003BFD7D20C000FDF7D9FD00F039F910BD23
:104F4000B00100204C0200200010014010B50028E4
:104F500019DB1A4A03231B02D21883089B00D2587C
:104F60008307DC0EFF23A3409A438B071B0E8407A5
:104F7000E40EA3401A43114B032424021B19840896
:104F8000A4001A5118E00E4A03071B0F083B9B08A8
:104F90009B00D2588307DC0EFF23A3409A438B0764
:104FA0001B0E8407E40EA3401A43054B0407240F8D
:104FB000083CA408A4001A5110BD000000E100E064
:104FC0001CED00E0FFB504460D461646002000909B
:104FD0000190029003900121684601F0B3F9019617
:104FE00000950293684687C887C4103CFFBD000047
:104FF00010B505480078FF2804D1FCF79BFEFE2081
:105000000149087010BD000098020020264A13785C
:10501000264A1268D27893423DD1234A5378234AD4
:1050200012681279934236D11F4A9278A12A03D08E
:105030001D4A9278A22A2ED100221D4B1A700021FF
:10504000002004E0184A125C5218D1B2401C082813
:10505000F8D3154A127A8A421DD1164A9288521CF8
:10506000144B9A801A465288642A03DA1A469288A8
:10507000642A03DB00220F4B5A809A800D4A9288E3
:105080000C4B5B889A4203DD00220A4B5A809A80BF
:105090000122094B1A70002003E00022024B1A542F
:1050A000401C2028F9D37047C0370020780000202A
:1050B00074020020CC0100207502002070B58EB073
:1050C0000646002521E007A91248FEF747FC69467D
:1050D0001048FEF743FC00240AE0A00007A9085886
:1050E000A1006A465158884200D003E0601CC4B257
:1050F000072CF2DB00BF072C05D11C2207A9304684
:10510000FBF76EF803E0681CC5B2032DDBDB00BFC4
:105110000EB070BD0010014010B500BF20484068BF
:1051200008210840C008002839D000BF1C4880680A
:105130000840C008002832D000BF08201849886005
:1051400000BF18480068FFF7B9FFFCF78BFF16484F
:10515000C1688847134800688069002818D1114841
:1051600000684069002812D10E48006800690028D4
:105170000DD10C4B1B689A680A4B1B685968094B88
:105180001B68186801F0FAF906490968C86000BF91
:1051900006480078012802D100200449087010BD9B
:1051A000001001404C020020540200205002002058
:1051B00008B504200A49896A0143094A916200BF7F
:1051C00000BF08484068082108430649486000BFFE
:1051D0000120009002216846FEF78EFA08BD00000B
:1051E00000020040001001403EB50446A26961691A
:1051F00020696B4607C320460FC801F03EF900281E
:1052000000D13EBD01200B490870002503E00120BC
:10521000FDF76CFC6D1C7D20C000854203DA05485B
:1052200000780028F3D121460348FEF757FB00BF62
:10523000E7E70000500200200010014008B51548C3
:10524000002301221449009014A002F025FE044618
:10525000002C0AD002F09AFC0546002003462A469C
:1052600001210090204602F04DFE03220021012082
:1052700002F03CFA0D4908600BE000235A1E194663
:105280000A48006802F050FA012802D10020FCF719
:10529000FBFFF2E7B152000060EA00005265616472
:1052A000454570726F6D5F54696D65008002002026
:1052B00010B5044608480088401C074908803C2176
:1052C00005480088FBF7EDFA002904D101F0F0FF52
:1052D00000200149088010BD8402002070B50546F9
:1052E000054801461439401AC4B221461C222846FA
:1052F000FDF7B4F870BD0000B00100200020704739
:10530000704770B50546012000F00CF80446F820FF
:1053100004402046284304462146012000F01AF8A4
:1053200070BD000070B504460948816800208847B8
:105330006006400E064A116888470549486880475C
:1053400005460348816801208847284670BD000053
:105350001038002070B504460D46094881680020C9
:105360008847802222431046054A1168884704482E
:10537000016828468847024881680120884770BD37
:105380001038002070B51220FFF7CCFF2A490870B2
:105390000846007808210840082801D100F058F894
:1053A0002548007840210840402840D11E20FFF7C2
:1053B000B9FF2249087008460078042108400428F3
:1053C00023D100210D20FFF7C5FF1320FFF7AAFF0F
:1053D0001B4908701B4881680020884719480168EC
:1053E00000208847002508E0202D04DA1549486888
:1053F000804715494855681CC5B211480078854258
:10540000F2DB1048816801208847002406E0202C48
:1054100003D20D48005D0D490855641C084800780A
:105420008442F4D30120FFF76CFFFFF7EFFDFF216B
:105430001220FFF78FFF70BD790200207A02002052
:105440007B02002010380020A0370020C037002049
:1054500010B50120FFF755FF9F211120FFF77AFFBC
:10546000FF212420FFF776FF00214020FFF772FF85
:1054700000214120FFF76EFF0520FFF742FF0248A1
:10548000C1680020884710BD1038002004494A88B0
:105490004988491C8BB202494B80FD3988547047BA
:1054A0009435002004494A884988491C8BB2024936
:1054B0004B80FD39885470479A37002000B587B07B
:1054C000FCF752FEFFF79CFCFFF736FC6846FFF73F
:1054D00005FF6846FFF788FE7D20C000FDF706FB4C
:1054E000FFF7CEFCFFF7DAFC07B000BD10B5FAF706
:1054F0004FFE044602F050FB002803D001200007B5
:10550000024948602046FAF747FE10BD00ED00E072
:1055100010B55648C0684007400F030000F0F0FE89
:10552000084C050A4C0F2F34394C5148006851493A
:1055300008605BE000F046F94E49086056E04B48D1
:105540004030406A8003800F002806D0012808D030
:1055500002280AD0032810D10BE0474845490860CB
:105560000BE046484349086007E045484149086068
:1055700003E044483F49086000BF00BF36E04248AE
:1055800000683C49086031E07D200002394908602C
:105590002CE03648C0680007C00F002802D0012860
:1055A00008D103E039483349086003E038483149FD
:1055B000086000BF00BF19E02C4800690003000F1D
:1055C00000280DD0012802D0022808D103E031487C
:1055D0002849086008E030482649086004E000BF18
:1055E0002E482449086000BF00BF00BF00BF1F480D
:1055F000C0684005400F030000F082FE08050A0F56
:1056000014191F252B311B4800681A4908602BE02C
:10561000184800681749086026E0164800681549D0
:10562000086021E013480068124908601CE0114836
:10563000006840080F49086016E00E4800688008BE
:105640000C49086010E00B480068C0080949086070
:105650000AE00848006800090649086004E00548B7
:1056600000680449086000BF00BF10BD0002004090
:10567000700000207400002000093D0040420F002F
:1056800020A1070090D003006C000020006CDC0219
:10569000008793030024F40000366E0100127A00A4
:1056A00010B500204249886105204006C8600846C0
:1056B000806A802108433E4988623E48C0680F21C5
:1056C000890408433B49C8600020394948620846BC
:1056D000406A052109020843354948627D242401B6
:1056E00000E0641E002CFCD13148C0680121C906CD
:1056F00008432F49C860AA20886301202E4908600A
:105700000E2048600320C90448602C480068000C43
:105710002A490988C94389B2884202D127480068CA
:1057200000E040204006400E21494861234840687F
:10573000000C22498988C94389B2884202D11F4896
:10574000406800E040204006400E19494031886220
:105750001A484038006A000C18494039098CC9437E
:1057600089B2884203D115484038006A00E08020A1
:10577000C0B20F4908620F484068FF2181310843D9
:105780000C4948600A48C06A102108430849C862A9
:105790000B48C06B091508430949C8630448C06A2F
:1057A000102188430249C862FFF7B2FE10BD000015
:1057B00000020040C00C004000A8014040FBFF1F59
:1057C0000004004010B500242A4880698007C00FFB
:1057D000002802D0012817D113E0264800690003F1
:1057E000000F002809D0012802D0022804D101E0CE
:1057F000214C04E0214C02E000BF214C00BF00BF5F
:1058000002E02048046800BF00BF1A4880694006D3
:10581000400F030000F074FD080507090B0D131578
:105820001B1D00BF15E0640813E0A40811E0E408A4
:105830000FE00C212046FBF72AF8044609E0240972
:1058400007E018212046FBF722F8044601E064092E
:1058500000BF00BF074880694002400E401C44431F
:10586000044880690007C00F002800D0640020466B
:1058700010BD0000000200400024F40000366E015C
:1058800000127A0070000020F0B589B004460A20AA
:105890004443002700200790401E0690224884427F
:1058A00002D3224809B0F0BD002023E000211EE011
:1058B000282343431E4D5B198D005B59A34207D239
:1058C000282343431A4D5B198D005B59E31A06E008
:1058D00028234343164D5B198D005B591B1B1A4649
:1058E000069B9A4202D2069207460791491C0A2952
:1058F000DED3401C8228D9D30798FBF78CFA0546E3
:105900000C4A0D4BFBF78AFA039102903846FBF7DD
:1059100082FA01910090039B029AFBF723FA05910A
:105920000490FBF765F8BDE7833A000000000243EE
:10593000448200009A9999999999B93FFEB5044615
:105940000D460020029010214A48FDF71FFB082158
:105950008801FEF7F3F910214648FDF788FB002087
:1059600009E000BF4349C96989B2202211400029DA
:1059700000D10AE0401C152109028842F1D3102110
:105980003C48FDF774FB0120FEBD10213948FDF7AE
:10599000FDFA08212D208002FEF7D0F9FEF71CF950
:1059A000029010213348FDF762FB0F214902029853
:1059B0000840002801D00220E6E710212D48FDF71D
:1059C000E5FA08210B200003FEF7B8F9FEF778F896
:1059D0000646760810212748FDF749FB1021254887
:1059E000FDF7D4FA0821B1200002FEF7A7F9FEF76F
:1059F00067F807467F0810211E48FDF738FB102185
:105A00001C48FDF7C3FA082159204002FEF796F919
:105A1000FEF756F8019001984008019010211548B2
:105A2000FDF725FB10211348FDF7B0FA0821B3203C
:105A30000002FEF783F9FEF743F800900098400853
:105A4000009010210B48FDF712FB002C06D00A49EC
:105A5000794308463146FAF71AFF2060002D07D037
:105A6000054A0199514308460099FAF710FF28604A
:105A7000002089E7400C00401027000070B5134853
:105A80000068007B012800D170BD01218903104806
:105A9000FDF7E4FA1420FDF729F8FEF72DFA0D4979
:105AA000484305460C49FAF7F2FE084909681222F4
:105AB0008A5E84182046FBF72BFB08490860012109
:105AC00089030348FDF759FA00BFDDE7780000209D
:105AD000400C0040C4090000E40C00004402002017
