:020000040000FA
:1000000068590020190200002102000023020000AC
:1000100000000000000000000000000000000000E0
:100020000000000000000000000000007D1F000034
:1000300000000000000000009F010000891F000078
:100040002B0200002B020000551E00002B020000B6
:10005000DD1B00002B0200002B0200002B02000021
:100060002B0200002B0200002B0200002B020000DC
:100070002B0200002B0200002B0200002B020000CC
:100080002B0200002B0200002B0200002B020000BC
:10009000A51C00002B0200002B0200002B02000018
:1000A000311000002B0200002B0200002B02000088
:1000B0002B0200002B0200002B0200002B0200008C
:1000C00000F002F800F041F80CA030C808382418FD
:1000D0002D18A246671EAB4654465D46AC4201D180
:1000E00000F033F87E460F3E0FCCB6460126334271
:1000F00000D0FB1AA246AB463343184750340000E9
:10010000703400000023002400250026103A01D39B
:1001100078C1FBD8520700D330C100D50B607047BF
:1001200010B5782902D100F069F910BD002010BD8A
:100130001FB500F0C9FC04000020002103F0D2F933
:10014000401C60601FBD10B510BD00F099FE114647
:10015000FFF7EEFF02F026FC00F0BAFE03B4FFF753
:10016000F2FF03BC00F000FF084B1968086820305C
:1001700080F30988022080F31488BFF36F8F3FBC9F
:10018000AE4608BC04BC62B6184700001C00002044
:10019000EFF3108072B6704780F310887047EFF36A
:1001A00009800E4B1A6820381060F0C044464D4656
:1001B00056465F46F0C008B572B602F073FF62B6ED
:1001C0000CBC116808681030F0C8A046A946B246B9
:1001D000BB4680F309882038F0C818471C0000206F
:1001E00070B505460C46164602E00FCC0FC5103E12
:1001F000102EFAD2082E02D303CC03C5083E042EDB
:1002000007D301CC01C5361F03E021782970641C97
:100210006D1C761EF9D270BD07488047074800471D
:10022000FEE7FEE7FEE7FEE7FEE7FEE704480549D6
:10023000054A064B704700003D210000C100000048
:10024000684900206859002068510020685100204A
:100250004343514330B55C18010C130C0D4692B268
:100260005D4380B251432C19054655430A0C0904DD
:100270004D1962415843010C00044019514130BDF1
:10028000FEB5054610460C46184373D0AE468C4664
:100290000020AD1A01469C4167D366460027012421
:1002A0003D46B61A9D4102D313463A46212465467F
:1002B00076462F04360C3E432D0CB61A9D4104D3CE
:1002C000150C1B042B4312041034654676462F068A
:1002D000360A3E432D0AB61A9D4104D3150E1B0261
:1002E0002B4312020834654676462F0736093E43F3
:1002F0002D09B61A9D4104D3150F1B012B43120182
:10030000241D65467646AF07B6083E43AD08B61ACB
:100310009D4104D3950F9B002B439200A41C65467E
:100320007646EF0776083E436D08B61A9D411AD30C
:1003300092185B41641C16E00018764665464941F8
:10034000B71A9D410191009009D36046B11A9841B6
:100350008E468446009801990025401C6941DD07BE
:1003600052082A435B08641EE6D57246634603B012
:10037000F0BDFFE700200146C046C0462A4623469E
:10038000F5E700000FB41CB5074B06AA7B4469468D
:100390000090059800F037FB0020694600F046FB0E
:1003A0001CBC08BC04B018479D06000070B504468C
:1003B00085690068C10601D5302600E02026C00707
:1003C00007D070BD62683046A1689047206A401C23
:1003D00020626D1EF6D570BD70B504468569007843
:1003E000C00707D170BD6268A16820209047206ACD
:1003F000401C20626D1EF6D570BD000070B504462D
:100400000D4621461068C046C0462188090502D520
:100410000F4A7A4402E00E4A7A440E322346002103
:10042000243305E006070009360F965D5E54491C2B
:100430000028F7D120780023000705D5702D03D0C0
:10044000002901D002231132204600F07FFA70BD4E
:10045000FA300000F3B50446002081B02062204647
:10046000E1688847002872D0252802D06268A16818
:10047000ABE0594F00267F442046E168884720289A
:10048000054608DB312D06D278192038007800287F
:1004900001D00643F0E7B00701D5042086430020D1
:1004A000E0610746A0612A2D0AD0284602F04AF8EA
:1004B000002827D0B8000019303D0090856119E070
:1004C0000298BA00121902C8916102902046E168B0
:1004D0008847012F054617D1E06900281FDA202040
:1004E00086431CE000980A2180694843009940191E
:1004F000303888612046E1688847054602F022F8D6
:100500000028EFD1012F0AD02E2D08D12046E16816
:1005100088470546202006437F1C022FC3DBA069C5
:10052000002803DA4042A06101200643F00701D011
:10053000102086436C2D0BD0682D09D04C2D3CD05B
:100540006A2D38D0742D38D07A2D36D016E040E0A0
:10055000E1682F4620468847B842054609D16C2FEE
:1005600029D001208002E1680643204688470546DD
:1005700004E06C2F1DD0FF2001300643002D28D051
:1005800028464138192803D80120C00206432035E7
:10059000204626602946029A1646FFF7C1FD00282C
:1005A00010D001280BD0F61DF008C00008300290D2
:1005B00055E74020E1E78020D5E70020D3E7361D4E
:1005C00002964CE762682846A1689047206A401C62
:1005D00044E7206AFEBD0000BE3000000FB400B545
:1005E0008DB010A909900B900020C04300910A9093
:1005F00000200C90074878440690074878446A46E3
:1006000007900F9909A800F02BFA0DB008BC04B0B0
:10061000184700008B040000A5040000FFB51D462C
:100620000027FF4383B05C68002001909E68A969A1
:1006300004987F1C88470090296A88470028F6D1D3
:100640000098401C0CD0032040028443002E19DD8A
:10065000600614D500982B2809D02D280FD103E06F
:100660000020C04307B0F0BD012080020443A96907
:1006700004987F1C8847761E002E009002DD0098AB
:10068000302803D00598002825D035E00120A9693D
:1006900040020443761E04987F1C8847002E009079
:1006A00003DD782805D0582803D00598002810D0FD
:1006B00022E00598002801D010281DD10120A96949
:1006C00040028443761E04987F1C884700901020C7
:1006D00002E0082000E00A2005900DE00121059AC3
:1006E00049020C430199761E514308180190A969EB
:1006F00004987F1C88470090002E05DD059900981E
:1007000000F099F90028E9DAE96904988847A0051A
:1007100002D40120C043A5E7E00722D1600611D52D
:100720006005019800D5404229680A1D2A600968C1
:10073000220501D5087014E0220701D5088010E0D9
:1007400008600EE02868011D29600068210502D5B7
:100750000199017005E02107019901D5018000E0B0
:10076000016038467EE7000030B5441C03E00178A4
:10077000401C00290DD08107F9D10B4BDD0104C8C5
:10078000D11A91432940FAD0001B0A0603D0C01E9B
:1007900030BD001B30BD0A0401D0801E30BD0902EF
:1007A000FCD0401E30BD00000101010101E004C089
:1007B000091F0429FBD28B0701D50280801CC907C1
:1007C00000D00270704700290BD0C30702D002701E
:1007D000401C491E022904D3830702D50280801CD5
:1007E000891EE3E70022EEE70022DFE7002203098B
:1007F0008B422CD3030A8B4211D300239C464EE03C
:1008000003460B433CD4002243088B4231D30309F7
:100810008B421CD3030A8B4201D394463FE0C309A9
:100820008B4201D3CB01C01A524183098B4201D3C1
:100830008B01C01A524143098B4201D34B01C01AAC
:10084000524103098B4201D30B01C01A5241C30824
:100850008B4201D3CB00C01A524183088B4201D393
:100860008B00C01A524143088B4201D34B00C01A7F
:100870005241411A00D201465241104670475DE094
:10088000CA0F00D04942031000D340425340002217
:100890009C4603098B422DD3030A8B4212D3FC22C0
:1008A000890112BA030A8B420CD3890192118B423F
:1008B00008D3890192118B4204D389013AD0921155
:1008C00000E08909C3098B4201D3CB01C01A524110
:1008D00083098B4201D38B01C01A524143098B42D9
:1008E00001D34B01C01A524103098B4201D30B01C2
:1008F000C01A5241C3088B4201D3CB00C01A5241E7
:1009000083088B4201D38B00C01A5241D9D24308CD
:100910008B4201D34B00C01A5241411A00D201460A
:10092000634652415B10104601D34042002B00D574
:100930004942704763465B1000D3404201B5002036
:10094000C046C04602BD704770477047FFB50446B9
:100950000D4681B0243000902168880604D510220D
:10096000E0699143216000E00120A84201DD471BBE
:1009700000E000270498A1697A191018081AA061EC
:100980002078C00602D42046FFF710FD002608E0BC
:1009900003986268A168805D9047206A401C761CBD
:1009A000206204988642F3DB2078C0060AD52046F0
:1009B000FFF7FCFC06E06268A16830209047206ADF
:1009C000401C206238467F1E0028F4DC07E00098B7
:1009D0006268A168405D9047206A401C20622846FA
:1009E0006D1E0028F3DC2046FFF7F6FC2078000699
:1009F00002D5022005B0F0BD0120FBE701694A1CC9
:100A000002610878704700B58FB00291002105910E
:100A10000549019379440391114604906846FFF714
:100A200019FD0FB000BD0000E5FFFFFF0A68107060
:100A3000521C0A6070473A2800D230382023024600
:100A40009A43412A01D310463738884201D3002007
:100A5000C043704702685118137801601846704708
:100A600010B5D16005497944516105497944116255
:100A700000211161114600F035F810BDEBFFFFFFBA
:100A8000610000004268002A08D001680B78491C08
:100A9000002B03D0521E06C0184670470121C160CA
:100AA000881E70474268002A0BD0C3680168002B7B
:100AB00007D183688B4204D0491E521C06C0002017
:100AC00070470020C0437047004870472449002009
:100AD00010B5044600F0F4F90068005DC007C00FCF
:100AE00010BD0000F3B50C468FB000200C90012023
:100AF00000260E9008460C3003906269039801218D
:100B00009047051E2ED0252D2DD0216A884700281C
:100B100018D06269039801219047216A884700280C
:100B2000F7D16269411E0398904700E0761CA169E5
:100B30000F988847216A88470028F7D1E1690F9804
:100B40008847DAE7A1690F988847A842074601D18C
:100B5000761CD2E7E1690F9888477F1C02D10C9878
:100B6000002877D075E16269039800273D46394631
:100B700090472A280CD162690398012190470125EA
:100B800006E00A214F433F18303FEBD410200543C5
:100B90006269039801219047014630390A2903D23E
:100BA000B1498F42DEDCECE7E90600D4AF4F6C2898
:100BB0000AD04C2810D0682824D06A282ED0742857
:100BC0000CD07A280AD00DE0626903980121904781
:100BD0006C2823D004211CE020200543626903987F
:100BE00001219047A760652865604FD026DC582812
:100BF00039D01ADC452849D012DC252834D04128C8
:100C0000B0D143E06269039801219047682802D07F
:100C100008210D43E6E70120C002DEE70220DCE701
:100C2000462833D047289DD130E05B2870D061281A
:100C30002CD063286CD0642894D161E06F284FD009
:100C400009DC662822D0672820D0692826D06E28A3
:100C500088D12EE0F9E070284DD073286FD0752828
:100C60004ED078280DD154E0A1690F9888472528E7
:100C7000054600D16CE7E1690F9888476D1C00D1EB
:100C80006DE7E6E00A224CE00A2252E0012023460A
:100C90006A460F99C043C046C046CFE0402128466F
:100CA000234608436060A80701D5002239E00022EE
:100CB0003FE0E80700D020E72068011D21600068C0
:100CC000290501D5067018E7290701D5068014E724
:100CD000A90703D5F117066041600EE706600CE72F
:100CE00040212846234608436060A80701D5082212
:100CF00017E008221DE05E4928460840606016E0C3
:100D000040212846234608436060A807BCD5B9E7C0
:100D100015E04021284608436060A80707D5234610
:100D2000102201200F99C043C046C04686E0102221
:100D3000234601200F99C043FFF770FC7EE000219D
:100D400063280B460191009102910D9102D05B281E
:100D500008D03CE02079C00601D40120A060012029
:100D6000009034E0E06801210D906269039890479B
:100D70005E2807D101200190E06801210D90626991
:100D8000039890472169002906D10B4604AA8F00D9
:100D9000491C0829D351FADB00285AD021690029BF
:100DA00027D00298401C0290626903980121904765
:100DB0005D28F1D10198002808D0002004AB810003
:100DC000401C5A58D24308285A50F8DB04AB20691B
:100DD000002820791DD0400726D5029A00980D9B47
:100DE00000922246029001200F99C043C046C0469F
:100DF00024E0C117C90E09184A114909930004AA31
:100E00009A184901411A136801208840034313606E
:100E1000CAE74007224617480F9902D5C046C04688
:100E20000CE0C046C04609E00298224600990D9B9E
:100E3000009002910F480F99C046C04600280ADA78
:100E4000401C06D10E98002803D00020C04311B0EA
:100E5000F0BD0C98FBE7E90702D10C99491C0C91F5
:100E6000361800200E9048E6CCCCCC0CFFFFFF7F5C
:100E7000F1F7FFFFFEFFFFFF004870470449002025
:100E80007546FFF7F9FFAE46050069465346C008B0
:100E9000C000854618B020B5FFF7C8F960BC002730
:100EA0004908B6460026C0C5C0C5C0C5C0C5C0C536
:100EB000C0C5C0C5C0C5403D49008D467047000053
:100EC00010B5FFF701FE001D10BD00BF1926000080
:100ED00010B50446C046C0462046FFF73FF910BD96
:100EE000024670B50A4392072AD11E4DEE0104C88E
:100EF00008C9541B9443344017D0D0B2D9B2401A19
:100F00002106014310D190B299B2401A2104014345
:100F10000AD110021902000A090A401A21020143EB
:100F200002D1100E190E401A70BD9A42DFD010BACD
:100F300019BA884201D9012070BD0020C04370BD9C
:100F400002780B78401C491C002A09D09A4207D12C
:100F500002780B78401C491C002A01D09A42EFD03D
:100F6000D01A70BD0101010101491820ABBEFEE796
:100F700026000200704770B58C180578401C6B077E
:100F80005B0F01D10378401C2A1106D10278401C66
:100F900003E00678401C0E70491C5B1EF9D12B073C
:100FA00005D40023521E0DD40B70491CFAE70378B8
:100FB000401CCB1A921C03E01D780D70491C5B1C71
:100FC000521EF9D5A142D8D3002070BD7047000051
:100FD00010B51448144908600120096848721920A6
:100FE00011490968C86610210F480068016701218E
:100FF0000D480068416706210B480068C167302131
:10100000094800686C3041615921074800686C301C
:10101000816101221146054801F01EFC0249096860
:10102000886710BD7C0300206400002020200000A1
:1010300010B500BF08480069C007C00F0121484033
:101040004840002806D000BF01200349086100BFC6
:1010500000F004F910BD000000B40140704700002A
:10106000F0B589B004460D4616461F463FA207CA92
:10107000059204910390E117090F091909117D22C6
:10108000D20051430094E217120F121912111201EB
:10109000A21A64235A438918EA17120F521912111F
:1010A0000A235A4389182846EA17120F12181211F8
:1010B0001201AA1A8918029501940891F217120FC9
:1010C000921912115A433046F3171B0F1B181B11AC
:1010D0001B01F31AD218D2B20792FA17120FD219C3
:1010E00012110A235A433846FB171B0F1B181B11FA
:1010F0001B01FB1AD218D2B206920798022819D106
:1011000008988007800F002805D164210898FFF710
:101110006DFB002906D1FF2191310898FFF766FB8E
:10112000002906D16846407B401CC1B26846417325
:1011300000E000BF07980C2802DD002009B0F0BDD8
:1011400006981F2801DD0020F8E70798012809DB31
:101150000798401E03A9095C0698814202DB0698A5
:10116000012801DA0020E9E70120E7E71F1C1F1E24
:101170001F1E1F1F1E1F1E1FF0B5034618110A2732
:1011800078431F073F0FC019C4B208110A277843DC
:101190000F073F0FC019C5B210110A277843170770
:1011A0003F0FC019C6B2002C02D011DD182C0FDA87
:1011B000002D02D00ADD3C2D08DA002E02D003DD1E
:1011C0003C2E01DA0120F0BD0020FCE70020FAE708
:1011D0000020F8E710B501F0A5F810BD10B5002407
:1011E00036E060011C4940184078002800D12EE00C
:1011F0006001194940188368C1686001164A821865
:1012000010695269181A91410DD2600112494018B3
:101210008368C06800215A1C484161010E4BC918FF
:101220008A60C86003E0012061010B4A50546001EC
:101230000949085C012809D160014018806900282B
:1012400004D06101044A89188869804700BF641C82
:101250000D2CC6DB10BD00008800002010B5002456
:1012600036E060011C4940184078002800D12EE08B
:101270006001194940188368C1686001164A8218E4
:1012800010695269181A91410DD260011249401833
:101290008368C06800215A1C484161010E4BC9187F
:1012A0008A60C86003E0012061010B4A505460016C
:1012B0000949085C012809D16001401880690028AB
:1012C00004D06101044A89188869804700BF641C02
:1012D000032CC6DB10BD00003802002008B500203A
:1012E000009004480F22D2010023016C1846884761
:1012F00008BD00002803002070B504460D460448D0
:10130000201AC6B231462A46204600F0FBF870BDCE
:101310007C03002070B505460E460448281AC4B266
:1013200021463246284600F031F970BD7C0300208A
:10133000F8B5074688200090164E002000F02CF8E3
:1013400031460978884201D1002F17D0012409E0E5
:10135000315DE0B200F08EF80546002D01D0284640
:10136000F8BD641C00988442F2DB3178002000F064
:1013700081F80546002D0BD02846F1E7012404E052
:10138000E0B200F009F83055641C00988442F7DBA5
:101390000020E5E77C03002038B5054600200090DA
:1013A00017490870002406E0284600F02BF869462B
:1013B0000855601CC4B2022CF6DB68460178407800
:1013C000814202D16846007838BD284600F01AF8FC
:1013D00069468870684601788078814202D1684603
:1013E0000078F1E7684641788078814202D168460A
:1013F0004078E9E70120024908705520E4E7000041
:101400000404002070B50446A02500F099FB28468E
:1014100000F03EFB00F0E0FA002801D1552070BD3D
:10142000012000F0E5F8204600F032FB00F0D4FA8D
:10143000002801D15520F2E7012000F0D9F800F092
:101440007FFBA125284600F023FB00F0C5FA002809
:1014500001D15520E3E7012000F0CAF800F0E2FADC
:10146000064600F049FB00F095FB022000F0B4F8BE
:101470003046D4E770B506460C4600200C4908708B
:1014800000250DE02146304600F014F83046FFF705
:1014900083FFA04202D10648007870BD681CC5B227
:1014A000032DEFDB01200249087008460078F4E7BD
:1014B0000404002070B505460C46A02600F040FB51
:1014C000304600F0E5FA00F087FA002801D15520F7
:1014D00070BD284600F0DCFA00F07EFA002801D149
:1014E0005520F5E7204600F0D3FA00F075FA002801
:1014F00001D15520ECE700F04DFB052000F06CF821
:101500000020E5E7F8B505460E461746002405E03D
:101510003119C8B2FFF740FF2855641CBC42F7DB05
:101520000020F8BD00B585B014216846FFF75CF9CE
:101530000120000300900020019001200290002073
:1015400003906946024800F0A3F805B000BD000012
:10155000000C004000B585B014216846FFF744F93F
:1015600001200003009001200190029000200390D0
:101570006946054800F08CF801210903024800F093
:1015800062F905B000BD0000000C0040F7B506464A
:101590000F4600240AE0315D3A19D0B2FFF76AFF26
:1015A0000546002D01D02846FEBD641C02988442E9
:1015B000F1DB0020F8E70000064800690421084339
:1015C000044908610846006901210843014908618E
:1015D0007047000000E000E010B5044603E07D2005
:1015E000C00000F005F82046641E0028F7D110BDA9
:1015F00010B504460C490D480068FFF7F7F844435E
:1016000001200006844200D900E020460446601E06
:10161000074948610020886100BF05480069C00390
:10162000C00F0028F9D010BD40420F00600000201C
:1016300000E000E00348806B4008400001498863F7
:101640007047000000A801400348C06BC007C00FEE
:10165000012148404840704700A80140826A8BB28F
:101660009A438262704702688BB29A430260704765
:1016700082688BB29A438260704742688BB29A4309
:1016800042607047026A8BB29A4302627047000060
:10169000F8B506460C460027002500BF654886427F
:1016A0000BD064484030864207D062488030864282
:1016B00003D06048C030864201D1012000E0002004
:1016C000002801D100BFFEE700BF00BF206800284E
:1016D00005D959492068884201D8012000E000203E
:1016E000002801D100BFFEE700BF00BF60680328EB
:1016F00008D06068002805D06068012802D06068C2
:10170000022801D1012000E00020002801D100BF03
:10171000FEE700BF00BFA068012802D0A068002833
:1017200001D1012000E00020002801D100BFFEE728
:1017300000BF00BFE068002802D0E068012801D1A6
:10174000012000E00020002801D100BFFEE700BF1B
:1017500080203A49896A0143384A916200BF62E0B9
:101760000121B940206808400546002D5AD0606824
:10177000032812D129463046FFF775FF2946304627
:10178000FFF77BFF29463046FFF772FF00BFB06AC4
:10179000A9B20843B06200BF2EE029463046FFF7E9
:1017A0005DFF6068002806D100BF3068A9B2084319
:1017B000306000BF03E029463046FFF754FFA068C1
:1017C000002804D129463046FFF752FF06E000BF4B
:1017D000B068A9B20843B06000BF00BFE06800284D
:1017E00006D000BF7068A9B20843706000BF03E074
:1017F00029463046FFF741FF606802280DD1206975
:10180000012806D100BF306AA9B20843306200BF88
:1018100003E029463046FFF735FF29463046626827
:1018200000F014F87F1C2068F840002898D10120AF
:10183000F8BD0000000C0040FFFF00000002004067
:101840008AB2826170478AB24261704730B5C3681C
:101850000C464C4365006419A3430C464C43544367
:101860002343C36030BD10B5FFF7A6FE10BD0000D6
:1018700070B505460C462868032801D90320286066
:101880002046002805DBC206D20E01219140094AFC
:10189000116000BF2046296800F05CFA204600284D
:1018A00006DBC206D20E01219140024A803A116045
:1018B00000BF70BD80E100E00349896B090A09029D
:1018C0000143014A9163704700020040024600BF95
:1018D0001C48106000BF8869D368DB09DB01034343
:1018E000D36000BF48691369DB09DB01034313615F
:1018F00000BF086953699B099B010343536100BF03
:10190000886893699B099B010343936100BFC86882
:10191000D369DB08DB000343D36100BF4868136A67
:101920005B095B010343136200BF0868536A1B0A2B
:101930001B020343536200BF00BF0348106000BF97
:1019400001207047ACACACAC5A5A5A5A024600BFA0
:10195000D0684006400E886100BF10694006400E06
:10196000486100BF50698006800E086100BF906921
:101970008006800E886000BFD0694007400FC860B5
:1019800000BF106AC006C00E486000BF506AC0B2F7
:10199000086001207047000030B504460D4600BFC6
:1019A0000B48844201D1012000E00020002801D131
:1019B00000BFFEE700BF04200649896A0143054ACB
:1019C000916200BF29462046FFF780FF012030BD0D
:1019D000001001400002004010B5FFF7A3FD0121F7
:1019E000C9020F48FFF72FFF0420FFF701FE00BFD9
:1019F0000B48C06980B2012109030840002801D0CA
:101A0000002400E001240121C9020548FFF718FF66
:101A10000420FFF7EDFDFFF79DFD204610BD0000FF
:101A2000000C004070B50024FFF77CFD0121C902C5
:101A30001648FFF705FF0420FFF7DAFD00251EE03A
:101A40000121C9021148FFF7FEFE0420FFF7D0FD77
:101A50006006040E00BF0D48C06980B20121090371
:101A60000840002802D00120044301E0FE20044089
:101A70000121C9020548FFF7E3FE681CC5B2082D25
:101A8000DEDBFFF767FD204670BD0000000C004064
:101A900070B50446FFF75EFD002525E0802020405C
:101AA000002805D0012109031248FFF7CCFE04E00D
:101AB000012109030F48FFF7C3FE0420FFF798FD3B
:101AC0000121C9020B48FFF7BEFE0420FFF790FD7D
:101AD0000121C9020748FFF7B3FE0420FFF788FD84
:101AE0006006040E681CC5B2082DD7DB0420FFF782
:101AF0007FFD70BD000C004010B5FFF72BFD0121EC
:101B000009030E48FFF79FFE0420FFF771FD012136
:101B1000C9020A48FFF794FE0420FFF769FD01217E
:101B2000C9020648FFF78FFE0420FFF761FD01217F
:101B3000C9020248FFF784FE10BD0000000C0040FF
:101B400010B5FFF707FD0420FFF752FD012109033F
:101B50000F48FFF778FE0420FFF74AFD0121C90274
:101B60000B48FFF770FE0420FFF742FD0121090337
:101B70000748FFF765FE0420FFF73AFD0121C9027F
:101B80000348FFF75DFE0420FFF732FD10BD0000A3
:101B9000000C004010B5FFF7DDFC012109030E48E1
:101BA000FFF74EFE0420FFF723FD0121C9020A487A
:101BB000FFF749FE0420FFF71BFD0121090306483A
:101BC000FFF73EFE0420FFF713FD01210903024841
:101BD000FFF739FE10BD0000000C004008B5FFF70C
:101BE00029FD00BF02200B49C86300BF0A480078E6
:101BF000401C094908705520FFF75EFE00F08EF882
:101C0000064800900648FF222D320023016A042076
:101C1000884708BD00A8014068000020A1270000F7
:101C20000802002010B5002436E060011C4940186D
:101C30004078002800D12EE06001194940188368DF
:101C4000C1686001164A821810695269181A9141D8
:101C50000DD26001124940188368C06800215A1CE7
:101C6000484161010E4BC9188A60C86003E0012039
:101C700061010B4A505460010949085C012809D1EF
:101C8000600140188069002804D06101044A891865
:101C90008869804700BF641C062CC6DB10BD0000AD
:101CA000A802002010B500BF0A484069042108407E
:101CB000800800280CD000BF04200649486100BFFE
:101CC000FFF7B0FF00BF04480449086000BF00BF31
:101CD00010BD0000003401405A5A34120014014073
:101CE000704710B500F006F86420FFF775FCFFF7A9
:101CF00071FA10BD00B585B001200749486100BFE9
:101D000000900190002002900390049069460248E0
:101D1000FFF7BEFC05B000BD800C004008B50A48C6
:101D20000A490860084601680948FFF735FE0220A5
:101D3000009002216846FFF79BFD7D20C000FFF761
:101D40004BFC00F0D5F808BDE8030020700000202F
:101D50000010014010B5002819DB1A4A03231B02AA
:101D6000D21883089B00D2588307DC0EFF23A340C0
:101D70009A438B071B0E8407E40EA3401A43114BB2
:101D8000032424021B198408A4001A5118E00E4AE7
:101D900003071B0F083B9B089B00D2588307DC0EF0
:101DA000FF23A3409A438B071B0E8407E40EA34036
:101DB0001A43054B0407240F083CA408A4001A5139
:101DC00010BD000000E100E01CED00E0FFB504469E
:101DD0000D461646002000900190029003900121CC
:101DE000684600F0B7FB019600950293684687C8E5
:101DF00087C4103CFFBD000070B58EB006460025BC
:101E000021E007A91248FFF7A1FD69461048FFF736
:101E10009DFD00240AE0A00007A90858A1006A4619
:101E20005158884200D003E0601CC4B2072CF2DB9A
:101E300000BF072C05D11C2207A93046FEF7D0F9B8
:101E400003E0681CC5B2032DDBDB00BF0EB070BD24
:101E50000010014010B500BF21484068082108402B
:101E6000C00800283BD000BF1D4880680840C0085B
:101E7000002834D000BF08201949886000BF1948E5
:101E80000068FFF7B9FFFFF7A9F91748C16888474D
:101E900014480068806900281AD112480068406917
:101EA000002814D10F480068006900280FD10D4B9D
:101EB0001B689A680B4B1B6859680A4B1B681868AB
:101EC00000F0CAFC07490968C86000F0DFFB00BFEA
:101ED00006480078012802D100200449087010BD8E
:101EE00000100140700000207800002074000020E5
:101EF00008B504200A49896A0143094A916200BF72
:101F000000BF08484068082108430649486000BFF0
:101F10000220009002216846FFF7AAFC08BD0000DD
:101F200000020040001001403EB50446A26961690C
:101F300020696B4607C320460FC800F00BFC002841
:101F400000D13EBD01200B490870002503E00120AF
:101F5000FFF742FB6D1C7D20C000854203DA054877
:101F600000780028F3D121460348FFF7AFFC00BFFB
:101F7000E7E700007400002000100140704710B532
:101F8000FFF7ACF910BD000010B5FEF701F90446EB
:101F900001F068F9002803D00120000702494860D9
:101FA0002046FEF7F9F810BD00ED00E010B55648E8
:101FB000C0684007400F030000F0AAFA084C050A69
:101FC0004C0F2F34394C51480068514908605BE090
:101FD00000F046F94E49086056E04B484030406AF0
:101FE0008003800F002806D0012808D002280AD0DC
:101FF000032810D10BE04748454908600BE04648EC
:102000004349086007E045484149086003E0444807
:102010003F49086000BF00BF36E0424800683C49C5
:10202000086031E07D200002394908602CE0364824
:10203000C0680007C00F002802D0012808D103E0C3
:1020400039483349086003E038483149086000BF27
:1020500000BF19E02C4800690003000F00280DD0D4
:10206000012802D0022808D103E03148284908603D
:1020700008E030482649086004E000BF2E482449A3
:10208000086000BF00BF00BF00BF1F48C068400518
:10209000400F030000F03CFA08050A0F14191F2531
:1020A0002B311B4800681A4908602BE0184800686B
:1020B0001749086026E0164800681549086021E0C5
:1020C00013480068124908601CE011480068400885
:1020D0000F49086016E00E48006880080C49086047
:1020E00010E00B480068C008094908600AE0084889
:1020F000006800090649086004E0054800680449D2
:10210000086000BF00BF10BD000200405C0000205E
:102110006000002000093D0040420F0020A10700A0
:1021200090D0030058000020006CDC02008793036D
:102130000024F40000366E0100127A0010B5002071
:102140004249886105204006C8600846806A8021AF
:1021500008433E4988623E48C0680F21890408430D
:102160003B49C8600020394948620846406A052159
:1021700009020843354948627D24240100E0641EB9
:10218000002CFCD13148C0680121C90608432F4901
:10219000C860AA20886301202E4908600E2048608C
:1021A0000320C90448602C480068000C2A490988AB
:1021B000C94389B2884202D12748006800E0402024
:1021C0004006400E2149486123484068000C2249DE
:1021D0008988C94389B2884202D11F48406800E01B
:1021E00040204006400E1949403188621A48403864
:1021F000006A000C18494039098CC94389B28842E9
:1022000003D115484038006A00E08020C0B20F4971
:1022100008620F484068FF21813108430C4948603B
:102220000A48C06A102108430849C8620B48C06BBD
:10223000091508430949C8630448C06A1021884346
:102240000249C862FFF7B2FE10BD00000002004064
:10225000C00C004000A8014040FBFF1F00040040EC
:1022600010B500242A4880698007C00F002802D0DA
:10227000012817D113E0264800690003000F002849
:1022800009D0012802D0022804D101E0214C04E049
:10229000214C02E000BF214C00BF00BF02E02048FB
:1022A000046800BF00BF1A4880694006400F030061
:1022B00000F02EF9080507090B0D13151B1D00BFB3
:1022C00015E0640813E0A40811E0E4080FE00C2115
:1022D0002046FEF78BFA044609E0240907E018219E
:1022E0002046FEF783FA044601E0640900BF00BF00
:1022F000074880694002400E401C444304488069FE
:102300000007C00F002800D06400204610BD000068
:10231000000200400024F40000366E0100127A0032
:102320005C00002008B500BF0648806B012108430F
:102330000449886300BF0120009004216846FFF72C
:1023400097FA08BD00A80140012202704160704761
:10235000F0B50599002801DB0D2800DBF0BD002455
:1023600045010B4E745501244501AD196C704401B3
:10237000354664196361226100254601044FF61950
:10238000B560F56044013D466419A16100BFE5E711
:1023900088000020F0B50599002801DB032800DB48
:1023A000F0BD002445010B4E745501244501AD19C3
:1023B0006C70440135466419636122610025460151
:1023C000044FF619B560F56044013D466419A161FA
:1023D00000BFE5E738020020F0B50599002801DBD1
:1023E000062800DBF0BD002445010B4E7455012486
:1023F0004501AD196C704401354664196361226171
:1024000000254601044FF619B560F56044013D46CC
:102410006419A16100BFE5E7A802002010B50028FB
:1024200001DB062800DB10BD00214201084BD21859
:1024300051704201995400224301054C1B199A60C6
:10244000DA6042012346D218916100BFEBE7000039
:10245000A802002010B5002801DB0D2800DB10BD0C
:1024600000214201084BD2185170420199540022B8
:102470004301054C1B199A60DA6042012346D218C9
:10248000916100BFEBE7000088000020017801297E
:102490001DD14168491E41604168002917DA00BF1B
:1024A00000BF00BF00BF00BFBFF34F8F00BF00BF22
:1024B00000BF0749074AD16000BF00BF00BFBFF39C
:1024C0004F8F00BF00BF00BF00BF00BFFDE77047D8
:1024D0000400FA0500ED00E010B5002801DB032838
:1024E00000DB10BD00214201084BD218517042019F
:1024F000995400224301054C1B199A60DA6042018D
:102500002346D218916100BFEBE70000380200209B
:1025100030B47446641E2578641CAB4204D3635DFA
:102520005B00E31830BC18471D46F8E710B50446B9
:10253000A068012803D12068FEF716F910BD00201D
:10254000C043FBE730380A2801D201207047002041
:10255000704700008160014AC26070472D2500006D
:10256000F0B51FB48EB004460D4600BF00200690A3
:10257000079008900990069007900890099010988D
:1025800010283FD000263746002009E00F212140C7
:1025900006AA11542B07210919432D090C46401C8A
:1025A0001028F3DB0020059027E006A90598085CB9
:1025B0000021039102900020019011E01098C317B0
:1025C000039A02990A930C920D910B9008461146BA
:1025D0000B9AFDF73DFE039102900198401C01907B
:1025E000059901988842E9DB3A4603990298361822
:1025F0004A4117460598401C059005981028D4DBE1
:1026000034463D46002006900790089009901198A6
:10261000102833D0002637460020059014E0119A88
:10262000D31720462946FDF72BFED1B206AA0598FE
:102630001154119AD31720462946FDF721FE04466E
:102640000D460598401C059005981028E7DB0F20E3
:1026500010E0330F3901194336010F4606A9095C12
:102660000C07240FE51731463A4621432A430E460C
:102670001746401E0028ECDA34463D4626462F46D3
:102680003D463046294613B0F0BD000010B52E4837
:102690000068C068012813D02B480068C068022871
:1026A0000ED029480068C068032809D02648006871
:1026B000C068042804D024480068C068052811D1E7
:1026C00030212248FEF718FE002008E0C100204A11
:1026D0008A18C3001D495B180ACB0AC2401C062891
:1026E000F4DB10BD18480068C068062804D01648FE
:1026F0000068C068072813D1302114483030FEF735
:10270000FBFD002009E0C100114A8A18C3000F49EF
:1027100030315B180ACB0AC2401C0628F3DBE0E725
:1027200030210A48FEF7E8FD002008E0C100084A11
:102730008A18C30005495B180ACB0AC2401C062848
:10274000F4DB00BFCDE7000070000020880300200C
:10275000D44800200FB410B5089BDAB2079BD9B259
:10276000069BD8B2FEF708FD002803D110BC08BCB8
:1027700004B01847049CE3B2039CE2B2029CE1B2AD
:102780002402200EFEF76CFC002800D1EEE7029830
:10279000C0B2192801D30120E8E70020E6E70000D5
:1027A00030B58BB0274800902748FF222D320023F8
:1027B000016A0420884725480078002805D122486E
:1027C000416A042088470BB030BD0025FFF7AAFD01
:1027D00001251F4CA04700282BD11C480078401B26
:1027E0001A49087008464068002801D048688047A8
:1027F000FFF776FAAA20FFF75FF8142106A8FDF785
:10280000F3FF06A800F090F8FFF788FA01231422DE
:1028100006A902A8FFF7DAFA0020009002A80FC864
:1028200000F026FBFEF7D6FC0748416A04208847E3
:10283000C9E7FEF7FFFE00BF02200649C86300BFDC
:1028400000BFC0E7A12700000802002068000020A8
:102850004916000000A80140F0B585B005460C46B9
:10286000164600BF002003900290019000901023B4
:102870000A2228460021FFF773FE054610230A228C
:1028800020460021FFF76CFE044610230A22304642
:102890000021FFF765FE0646012C01D0022C0ED167
:1028A000681E6421FDF7A2FF0290681E6421FDF7F7
:1028B0009DFF039120460C30019000960BE06421AF
:1028C0002846FDF793FF029064212846FDF78EFF0E
:1028D0000391019400960199491C1A22514308461C
:1028E0000A21FDF783FF03998A0852180299890883
:1028F000521802994900511A411800980818471EA9
:10290000002F04DB07213846FDF77AFF04E007219A
:102910003846FDF775FFC91D0F46002F00D1072768
:10292000384605B0F0BD00001FB5044608480168F0
:102930000848FFF70BF8064803940268103207CAEC
:102940006B4607C3024800680FC800F005F81FBDBA
:1029500070000020001001400FB41FB50D9C0A9BB1
:10296000089A0B990C98019300920291039005A18B
:102970002046079B069AFDF705FD1FBC08BC04B066
:10298000184700003230253032782D253032782D2E
:102990002530327820253032783A253032783A2581
:1029A000303278001CB5FFF79BF9FEF75CFFFEF7AD
:1029B0000FFBFFF796F9FEF791FC0020FEF7B8FC3D
:1029C000FFF7DDFAFEF74AFB002403220021012075
:1029D00000F0C0FB0749086000200346802206A1E2
:1029E00001940090054800F00FFC00F029FB00BFA7
:1029F000FEE700000804002041414100CD0F000027
:102A000010B5044600F0CCFA20480068401C1F496D
:102A100008601F480068002808D11D480460084667
:102A2000006801280ED100F019F90BE01948006880
:102A3000002807D116480068C06AE16A884201D8B8
:102A40001348046014480068401C13490860134987
:102A5000E06A0968884202D91049E06A08601422D5
:102A6000E16A51430E4A8818211D00F08DFA00F0EA
:102A7000A5FA08480068002807D005480068C06A21
:102A8000E16A884201D200F0CFFA10BD2C0000208C
:102A90001C000020380000204800002034000020E6
:102AA0000C48002070B525E000F0F4FA14480068E6
:102AB000002801D1012000E00020054600F0A2FC22
:102AC000002D17D100F06CFA0D48C068C468201DB5
:102AD00000F036FA0B480068401E0A4908600A48B0
:102AE0000068401E0849086000F068FA204600F0BF
:102AF0000DF800BF044800680028D5D170BD000063
:102B0000AC4800202C0000202800002010B504460E
:102B1000206B00F061FA204600F05EFA10BD000064
:102B200030B511239B0217484407640F002C05D0D1
:102B3000C01DC008C000134C041B1B1B0246124CD6
:102B400022600024104D6C60D0180838C008C00006
:102B50000E4C206000240D4D2D686C600B4D2D68CF
:102B60002C601146441A4C60084C24680C60084DD7
:102B70004C682C60074D4C682C600124E407064D1E
:102B80002C6030BD0C040020000000200800002054
:102B9000100000200C0000201400002000BFFFF7F0
:102BA00081FF034800680128F9D900F03DFAF6E7F3
:102BB0000C480020F8B506460D461746069C002D29
:102BC00001D1246000E02760E663256401212046EE
:102BD00000F0DEFAF8BDFFB581B00E460A9F0C9CEE
:102BE000216B0398401E8000081800900098C008D0
:102BF000C0000090002508E0715D2046343041554A
:102C0000705D002800D102E06D1C102DF4D300BFD0
:102C1000002143200155052F00D30427E762201D22
:102C200000F0AFF92046183000F0ABF92461052020
:102C3000C01BA0616462002060640021482001552F
:102C4000049A0199009800F003F920600B9800287D
:102C500001D00B98046005B0F0BD000010B5002451
:102C600006E0142161430E4A881800F07DF9641CC7
:102C7000052CF6D30B4800F077F90B4800F074F9F7
:102C80000A4800F071F90A4800F06EF9094800F0AE
:102C90006BF904480849086003480849086010BDFA
:102CA0000C480020704800208448002098480020EC
:102CB000AC480020C0480020200000202400002054
:102CC00010B50146164800E0006803688B42FBD34C
:102CD000024643689B188B4204D143684C681B1919
:102CE000436001460A464B689B180468A34211D111
:102CF0000C4C03682468A34208D04B6804686468DD
:102D00001B194B6003681B680B6005E0054B1B68D3
:102D10000B6001E003680B60884200D0016010BDC9
:102D200000000020080000200B49096809680029FC
:102D300001D1012100E00021002904D00021C94374
:102D4000064A116006E004490968C968C868034A70
:102D50004168116070470000200000204C000020F6
:102D60000248034948610720086170473F1F00007F
:102D700000E000E072B600BFFEE70000F8B50546CF
:102D80000020009000F086F92C480068002801D14E
:102D9000FFF7C6FE2A4800682840002849D1002DC8
:102DA00009D008356807400F002804D06807400F95
:102DB0000821081A4519002D3BD022480068854299
:102DC00037D8214E3046046801E026462468606802
:102DD000A84202D220680028F7D11848006884422F
:102DE00027D0306808300090206830606068401B51
:102DF000102807D967196068401B786065603846FD
:102E0000FFF75EFF0F4960680968081A0D490860FE
:102E1000084600680D490968884203D209480068DD
:102E20000A49086006496068096808436060002034
:102E3000206000F0E7FA0098F8BD000008000020CC
:102E4000140000200C0000200000002010000020D2
:102E5000001F01231B060360001F0160001F034BBE
:102E6000036014380260203870470000752D0000A0
:102E70007FB58CB0149D1C2105A8FDF7B5FC0C9EF8
:102E80000BA80AA909AA07AB00930192029103902B
:102E900006AB05AA23A13046FDF7A0FB0A231022AA
:102EA000059C20460021FFF75BFB05900A231022BA
:102EB000069C20460021FFF753FB06900A231022B0
:102EC000079C20460021FFF74BFB07900A231022A6
:102ED000099C20460021FFF743FB09900A2310229A
:102EE0000A9C20460021FFF73BFB0A900A23102290
:102EF0000B9C20460021FFF733FB0B9005A807C869
:102F0000FFF7AAFC089005A8FFF70EF80A4800682A
:102F1000FEF772FF002D03D01C210848FEF7FAF9D6
:102F200010B070BD25642D25642D25642025643ADC
:102F300025643A256400000070000020E8030020AA
:102F400001460A694B68886898608B6848685860D1
:102F50005068884201D1886850600020086110687C
:102F6000401E106010687047014608314160002122
:102F7000C943816001460831C160016100210160DF
:102F8000704700210161704742684A6093688B6016
:102F9000936859609160086103685B1C0360704727
:102FA00072B605480068401C03490860BFF34F8FA4
:102FB000BFF36F8F704700001800002005480068BD
:102FC000401E0449086008460068002800D162B627
:102FD000704700001800002070B506463546002EE8
:102FE0001CD0083D2C460E4960680968084000283E
:102FF00014D02068002811D1094960680968884305
:10300000606000F047F807496068096840180549A2
:1030100008602046FFF754FE00F0F4F970BD000090
:10302000140000200C000020012000070349486024
:10303000BFF34F8FBFF36F8F7047000000ED00E0CC
:103040001CB50D4800210B468022009101900BA178
:103050000C4800F0D9F80446012C0CD172B60020BF
:10306000C043094908600120084908600020084958
:10307000086000F053F81CBD5000002049444C4546
:10308000000000009D2B00004C00002038000020B4
:103090003000002002480068401C01490860704769
:1030A0005400002018480068002803D00120174968
:1030B000086027E00020154908601548016800E015
:1030C000491E14204843134A1058002801D10120FA
:1030D00000E000200028F3D114224A430D4BD01801
:1030E000426852684260024608324368934202D105
:1030F0004268526842604268D268074B1A600448CE
:10310000016000BF70470000540000204000002014
:10311000340000200C4800201C00002010B50B4893
:10312000006AFF2109040843084908620846006A4A
:10313000FF210906084305490862FFF711FE002038
:1031400003490860FDF710F8002010BD00ED00E015
:1031500018000020F7B582B007460D46002D01D1BA
:10316000002601E03E466E4330464830FFF706FE3B
:103170000446002C09D0204648300190009429468E
:103180003846049B019AFFF715FD204605B0F0BDB7
:1031900070B505460E462C46FFF702FF216CE06B2A
:1031A00048432168401860600020A0632068A06048
:1031B000E06B401E216C484321684018E06000210C
:1031C000C9434420015545200155002E10D12069E6
:1031D000002801D1012000E00020002810D1204665
:1031E000103000F0CFF800280AD0FFF71DFF07E0ED
:1031F00020461030FFF7B8FE20462430FFF7B4FE1B
:10320000FFF7DCFE012070BDFFB585B01746B800A2
:10321000FFF7B4FD0646002E0BD04C20FFF7AEFDA5
:103220000446002C01D0266304E03046FFF7D4FEAC
:1032300000E00024002C10D000220F990E986B465D
:1032400013C303923A46089B06990598FFF7C3FCFF
:103250002046FFF7D5FB012501E00025ED43284678
:1032600009B0F0BDF8B5002000903B480068002888
:1032700064D13A480068451C38480560002D0FD1DC
:10328000374807683748006835490860354807609F
:1032900035480068401C34490860FFF745FD00BF11
:1032A0003248006885423DD300BF2D480068006861
:1032B000002801D1012000E00020002804D00020D7
:1032C000C0432A4908602CE025480068C068C468EB
:1032D0006668B54202D22548066022E0201DFFF74D
:1032E0002FFEA06A002803D020461830FFF728FEE2
:1032F0001F49E06A0968884202D91D49E06A0860EE
:103300001422E16A51431B4A8818211DFFF73CFE35
:103310001949E06A0968C96A8842C6D30120009049
:10332000C3E700BF14480068C06A1421484311492C
:103330000858012801D90120009004E00F480068D6
:10334000401C0E4908600E480068002801D001208A
:1033500000900098F8BD00005400002030000020CC
:103360002000002024000020440000204C00002009
:10337000340000200C4800201C0000203C000020ED
:103380004000002070B50646F068C468204618303A
:10339000FFF7D6FD15480068002813D1201DFFF760
:1033A000CFFD1349E06A0968884202D91049E06AF2
:1033B00008601422E16A51430E4A8818211DFFF764
:1033C000E3FD04E0214618310B48FFF7DDFD0B4912
:1033D000E06A0968C96A884204D9012501200849C0
:1033E000086000E00025284670BD00005400002061
:1033F000340000200C480020984800201C000020C9
:103400004000002070B500240026FFF7C9FD2D48BC
:103410000068401E2B4908600846006800284DD10E
:1034200029480068002849D022E02848C068C468BC
:1034300020461830FFF784FD201DFFF781FD244949
:10344000E06A0968884202D92149E06A08601422CA
:10345000E16A51431F4A8818211DFFF795FD1E4957
:10346000E06A0968C96A884202D301201B490860E2
:1034700016480068002801D1012000E00020002843
:10348000D3D0002C01D0FFF74FFC15480568002D64
:103490000DD000BFFFF7E6FE002802D001200F4943
:1034A00008606D1E002DF5D100200D4908600B4805
:1034B0000068002802D00126FFF7B6FDFFF77EFD69
:1034C000304670BD540000202C0000209848002099
:1034D000340000200C4800201C0000204000002088
:1034E0003C00002010B500290AD00878002807D039
:1034F00005487844FDF7F4FC002801D0002010BDF9
:103500000248784410BD00007A00000072000000FC
:103510003031323334353637383941424344454609
:103520004030580030313233343536373839616203
:103530006364656640307800040000080000000005
:103540000000000200010000100000007C360000B6
:10355000000000200C040000760F0000E0360000A0
:103560000C0400205C550000040100001001000064
:1035700043000000F8FFFFFF004040404040404053
:103580004040414141414140404040404040404036
:1035900040404040404040404005020202020202DA
:1035A0000202020202020202022020202020202029
:1035B000202020020202020202029090909090903D
:1035C00010101010101010101010101010101010FB
:1035D000101010100202020202028888888888886F
:1035E000080808080808080808080808080808085B
:1035F0000808080802020202400000000000000063
:1036000000000000000000000000000000000000BA
:1036100000000000000000000000000000000000AA
:10362000000000000000000000000000000000009A
:10363000000000000000000000000000000000008A
:10364000000000000000000000000000000000007A
:10365000000000000000000000000000000000006A
:10366000000000000000000000000000000000005A
:1036700000000000000000000000000001181AAA6D
:1036800001013D32804B127A040117320223492393
:1036900003FF8D2401A323512323552402670D1A10
:1036A00095701AD97002C7031AD9D01A1DD07206A4
:1036B00032011EB212345678031301014407403818
:1036C0004DC0418070084BB081084BF0B9084B20C9
:1036D000CB082B60033A0B2EC041300124000000C0
:04000005000000C136
:00000001FF
