:020000040000FA
:1000000060590020F9010000010200000302000015
:1000100000000000000000000000000000000000E0
:10002000000000000000000000000000AD10000013
:1000300000000000000000007F010000B910000077
:100040000B0200000B020000111000000B02000068
:100050000B0200000B0200000B0200000B0200006C
:100060000B0200000B0200000B0200000B0200005C
:100070000B0200000B0200000B0200000B0200004C
:100080000B0200000B0200000B0200000B0200003C
:10009000450F00000B0200000B0200000B020000E5
:1000A000250600000B0200000B0200000B020000FE
:1000B0000B0200000B0200000B0200000B0200000C
:1000C00000F002F800F030F80CA030C8083824180E
:1000D0002D18A246671EAB4654465D46AC4201D180
:1000E00000F022F87E460F3E0FCCB6460126334282
:1000F00000D0FB1AA246AB463343184770220000DB
:10010000902200000023002400250026103A01D38D
:1001100078C1FBD8520700D330C100D50B607047BF
:100120001FB51FBD10B510BD00F0F0F91146FFF767
:10013000F7FF01F0E3FB00F008FA03B4FFF7F2FF6A
:1001400003BC00F00BFA0000084B19680868203067
:1001500080F30988022080F31488BFF36F8F3FBCBF
:10016000AE4608BC04BC62B6184700001C00002064
:10017000EFF3108072B6704780F310887047EFF38A
:1001800009800E4B1A6820381060F0C044464D4676
:1001900056465F46F0C008B572B601F0C7FE62B6BB
:1001A0000CBC116808681030F0C8A046A946B246D9
:1001B000BB4680F309882038F0C818471C0000208F
:1001C00070B505460C46164602E00FCC0FC5103E32
:1001D000102EFAD2082E02D303CC03C5083E042EFB
:1001E00007D301CC01C5361F03E021782970641CB8
:1001F0006D1C761EF9D270BD07488047074800473E
:10020000FEE7FEE7FEE7FEE7FEE7FEE704480549F6
:10021000054A064B704700006D120000C100000047
:10022000604900206059002060510020605100208A
:100230004343514330B55C18010C130C0D4692B288
:100240005D4380B251432C19054655430A0C0904FD
:100250004D1962415843010C00044019514130BD11
:10026000FEB5054610460C46184373D0AE468C4684
:100270000020AD1A01469C4167D366460027012441
:100280003D46B61A9D4102D313463A46212465469F
:1002900076462F04360C3E432D0CB61A9D4104D3EE
:1002A000150C1B042B4312041034654676462F06AA
:1002B000360A3E432D0AB61A9D4104D3150E1B0281
:1002C0002B4312020834654676462F0736093E4313
:1002D0002D09B61A9D4104D3150F1B012B431201A2
:1002E000241D65467646AF07B6083E43AD08B61AEC
:1002F0009D4104D3950F9B002B439200A41C65469F
:100300007646EF0776083E436D08B61A9D411AD32C
:1003100092185B41641C16E0001876466546494118
:10032000B71A9D410191009009D36046B11A9841D6
:100330008E468446009801990025401C6941DD07DE
:1003400052082A435B08641EE6D57246634603B032
:10035000F0BDFFE700200146C046C0462A462346BE
:10036000F5E701E004C0091F0429FBD28B0701D582
:100370000280801CC90700D00270704700290BD092
:10038000C30702D00270401C491E022904D3830710
:1003900002D50280801C891EE3E70022EEE70022DE
:1003A000DFE7002203098B422CD3030A8B4211D3CF
:1003B00000239C464EE003460B433CD400224308F6
:1003C0008B4231D303098B421CD3030A8B4201D3E6
:1003D00094463FE0C3098B4201D3CB01C01A52417E
:1003E00083098B4201D38B01C01A524143098B42CE
:1003F00001D34B01C01A524103098B4201D30B01B7
:10040000C01A5241C3088B4201D3CB00C01A5241DB
:1004100083088B4201D38B00C01A524143088B42A0
:1004200001D34B00C01A5241411A00D20146524139
:10043000104670475DE0CA0F00D04942031000D358
:100440004042534000229C4603098B422DD3030AAD
:100450008B4212D3FC22890112BA030A8B420CD3BD
:10046000890192118B4208D3890192118B4204D3E6
:1004700089013AD0921100E08909C3098B4201D366
:10048000CB01C01A524183098B4201D38B01C01AA0
:10049000524143098B4201D34B01C01A5241030917
:1004A0008B4201D30B01C01A5241C3088B4201D3C6
:1004B000CB00C01A524183088B4201D38B00C01A73
:1004C0005241D9D243088B4201D34B00C01A52414A
:1004D000411A00D20146634652415B10104601D3D7
:1004E0004042002B00D54942704763465B1000D361
:1004F000404201B50020C046C04602BD704770476B
:100500007047000000487047FC4800207546FFF720
:10051000F9FFAE46050069465346C008C00085464F
:1005200018B020B5FFF772FE60BC00274908B64638
:100530000026C0C5C0C5C0C5C0C5C0C5C0C5C0C5F2
:10054000C0C5403D49008D46704710B50446C046C1
:10055000C0462046FFF7F1FD10BD000001491820FC
:10056000ABBEFEE726000200704770B58C18057818
:10057000401C6B075B0F01D10378401C2A1106D188
:100580000278401C03E00678401C0E70491C5B1E7C
:10059000F9D12B0705D40023521E0DD40B70491C32
:1005A000FAE70378401CCB1A921C03E01D780D700B
:1005B000491C5B1C521EF9D5A142D8D3002070BD46
:1005C0007047000010B514481449086001200968FC
:1005D0004872192011490968C86610210F4800683F
:1005E000016701210D480068416706210B4800683A
:1005F000C1673021094800686C30416159210748C2
:1006000000686C30816101221146054801F00EF945
:1006100002490968886710BD740300206400002047
:100620002020000010B500BF08480069C007C00FB7
:10063000012148404840002806D000BF012003495E
:10064000086100BF00F046F810BD000000B4014092
:100650007047000010B5002436E060011C494018C6
:100660004078002800D12EE06001194940188368C5
:10067000C1686001164A821810695269181A9141BE
:100680000DD26001124940188368C06800215A1CCD
:10069000484161010E4BC9188A60C86003E001201F
:1006A00061010B4A505460010949085C012809D1D5
:1006B000600140188069002804D06101044A89184B
:1006C0008869804700BF641C0D2CC6DB10BD00008C
:1006D0008000002010B5002436E060011C4940185D
:1006E0004078002800D12EE0600119494018836845
:1006F000C1686001164A821810695269181A91413E
:100700000DD26001124940188368C06800215A1C4C
:10071000484161010E4BC9188A60C86003E001209E
:1007200061010B4A505460010949085C012809D154
:10073000600140188069002804D06101044A8918CA
:100740008869804700BF641C032CC6DB10BD000015
:100750003002002008B50020009004480F22D2018A
:100760000023016C1846884708BD000020030020C4
:1007700070B504460D460448201AC6B231462A46D2
:10078000204600F0EDF870BD74030020F8B5074670
:1007900088200090164E002000F02CF83146097891
:1007A000884201D1002F17D0012409E0315DE0B269
:1007B00000F08EF80546002D01D02846F8BD641CD7
:1007C00000988442F2DB3178002000F081F8054681
:1007D000002D0BD02846F1E7012404E0E0B200F040
:1007E00009F83055641C00988442F7DB0020E5E7E7
:1007F0007403002038B505460020009017490870A2
:10080000002406E0284600F02BF869460855601CD5
:10081000C4B2022CF6DB684601784078814202D1EE
:100820006846007838BD284600F01AF86946887096
:10083000684601788078814202D168460078F1E705
:10084000684641788078814202D168464078E9E77D
:100850000120024908705520E4E70000FC03002055
:1008600070B50446A02500F0DFFA284600F084FAAF
:1008700000F026FA002801D1552070BD012000F0BB
:10088000CFF8204600F078FA00F01AFA002801D1DB
:100890005520F2E7012000F0C3F800F0C5FAA125C9
:1008A000284600F069FA00F00BFA002801D1552023
:1008B000E3E7012000F0B4F800F028FA064600F063
:1008C0008FFA00F0DBFA022000F09EF83046D4E701
:1008D00070B506460C4600200C49087000250DE056
:1008E0002146304600F014F83046FFF783FFA0425F
:1008F00002D10648007870BD681CC5B2032DEFDB3D
:1009000001200249087008460078F4E7FC03002043
:1009100070B505460C46A02600F086FA304600F079
:100920002BFA00F0CDF9002801D1552070BD2846E2
:1009300000F022FA00F0C4F9002801D15520F5E7B3
:10094000204600F019FA00F0BBF9002801D155202B
:10095000ECE700F093FA052000F056F80020E5E7F8
:10096000F8B505460E461746002405E03119C8B211
:10097000FFF740FF2855641CBC42F7DB0020F8BDA0
:1009800000B585B014216846FFF709FD012000037A
:100990000090002001900120029000200390694601
:1009A000024800F079F805B000BD0000000C0040DE
:1009B00000B585B014216846FFF7F1FC0120000363
:1009C00000900120019002900020039069460548A4
:1009D00000F062F801210903024800F038F905B07F
:1009E00000BD0000000C00400648006904210843D7
:1009F000044908610846006901210843014908616A
:100A00007047000000E000E010B5044603E07D20E0
:100A1000C00000F005F82046641E0028F7D110BD84
:100A200010B504460C490D480068FFF7BAFC444372
:100A300001200006844200D900E020460446601EE2
:100A4000074948610020886100BF05480069C0036C
:100A5000C00F0028F9D010BD40420F0060000020F8
:100A600000E000E0826A8BB29A43826270470268BB
:100A70008BB29A430260704782688BB29A4382605D
:100A8000704742688BB29A4342607047026A8BB2E9
:100A90009A43026270470000F8B506460C460027EC
:100AA000002500BF654886420BD06448403086422E
:100AB00007D062488030864203D06048C03086420A
:100AC00001D1012000E00020002801D100BFFEE795
:100AD00000BF00BF2068002805D959492068884216
:100AE00001D8012000E00020002801D100BFFEE76E
:100AF00000BF00BF6068032808D06068002805D0E8
:100B00006068012802D06068022801D1012000E05D
:100B10000020002801D100BFFEE700BF00BFA06891
:100B2000012802D0A068002801D1012000E00020A7
:100B3000002801D100BFFEE700BF00BFE068002829
:100B400002D0E068012801D1012000E00020002847
:100B500001D100BFFEE700BF80203A49896A014306
:100B6000384A916200BF62E00121B9402068084024
:100B70000546002D5AD06068032812D12946304618
:100B8000FFF775FF29463046FFF77BFF29463046C1
:100B9000FFF772FF00BFB06AA9B20843B06200BF9E
:100BA0002EE029463046FFF75DFF6068002806D139
:100BB00000BF3068A9B20843306000BF03E0294697
:100BC0003046FFF754FFA068002804D1294630467C
:100BD000FFF752FF06E000BFB068A9B20843B0605B
:100BE00000BF00BFE068002806D000BF7068A9B24F
:100BF0000843706000BF03E029463046FFF741FF1D
:100C0000606802280DD12069012806D100BF306A32
:100C1000A9B20843306200BF03E029463046FFF71F
:100C200035FF29463046626800F014F87F1C2068C2
:100C3000F840002898D10120F8BD0000000C0040C9
:100C4000FFFF0000000200408AB2826170478AB252
:100C50004261704730B5C3680C464C436500641967
:100C6000A3430C464C4354432343C36030BD10B5EB
:100C7000FFF7BAFE10BD024600BFD0684006400E26
:100C8000886100BF10694006400E486100BF50698E
:100C90008006800E086100BF90698006800E886023
:100CA00000BFD0694007400FC86000BF106AC0068F
:100CB000C00E486000BF506AC0B208600120704793
:100CC00010B5FFF75DFE0121C9020F48FFF7BFFF16
:100CD0000420FFF7A5FE00BF0B48C06980B20121C8
:100CE00009030840002801D0002400E0012401216C
:100CF000C9020548FFF7A8FF0420FFF791FEFFF7A0
:100D000057FE204610BD0000000C004070B50024C6
:100D1000FFF736FE0121C9021648FFF795FF0420B0
:100D2000FFF77EFE00251EE00121C9021148FFF7F2
:100D30008EFF0420FFF774FE6006040E00BF0D480E
:100D4000C06980B2012109030840002802D00120B7
:100D5000044301E0FE2004400121C9020548FFF7D9
:100D600073FF681CC5B2082DDEDBFFF721FE2046AD
:100D700070BD0000000C004070B50446FFF718FE7F
:100D8000002525E080202040002805D0012109030E
:100D90001248FFF75CFF04E0012109030F48FFF749
:100DA00053FF0420FFF73CFE0121C9020B48FFF767
:100DB0004EFF0420FFF734FE0121C9020748FFF768
:100DC00043FF0420FFF72CFE6006040E681CC5B22A
:100DD000082DD7DB0420FFF723FE70BD000C004078
:100DE00010B5FFF7E5FD012109030E48FFF72FFFBE
:100DF0000420FFF715FE0121C9020A48FFF724FF6E
:100E00000420FFF70DFE0121C9020648FFF71FFF6E
:100E10000420FFF705FE0121C9020248FFF714FF75
:100E200010BD0000000C004010B5FFF7C1FD04200C
:100E3000FFF7F6FD012109030F48FFF708FF042023
:100E4000FFF7EEFD0121C9020B48FFF700FF042068
:100E5000FFF7E6FD012109030748FFF7F5FE04202F
:100E6000FFF7DEFD0121C9020348FFF7EDFE042074
:100E7000FFF7D6FD10BD0000000C004010B5FFF7D5
:100E800097FD012109030E48FFF7DEFE0420FFF75E
:100E9000C7FD0121C9020A48FFF7D9FE0420FFF768
:100EA000BFFD012109030648FFF7CEFE0420FFF72E
:100EB000B7FD012109030248FFF7C9FE10BD00007C
:100EC000000C004010B5002436E060011C494018B9
:100ED0004078002800D12EE060011949401883684D
:100EE000C1686001164A821810695269181A914146
:100EF0000DD26001124940188368C06800215A1C55
:100F0000484161010E4BC9188A60C86003E00120A6
:100F100061010B4A505460010949085C012809D15C
:100F2000600140188069002804D06101044A8918D2
:100F30008869804700BF641C062CC6DB10BD00001A
:100F4000A002002010B500BF0A48406904210840F3
:100F5000800800280CD000BF04200649486100BF6B
:100F6000FFF7B0FF00BF04480449086000BF00BF9E
:100F700010BD0000003401405A5A341200140140E0
:100F8000704710B500F002F810BD000000B585B044
:100F900001200749486100BF0090019000200290A5
:100FA0000390049069460248FFF776FD05B000BD46
:100FB000800C004070B58EB00646002521E007A9E0
:100FC0001248FFF758FE69461048FFF754FE002408
:100FD0000AE0A00007A90858A1006A4651588842B3
:100FE00000D003E0601CC4B2072CF2DB00BF072C6A
:100FF00005D11C2207A93046FFF7E2F803E0681C80
:10100000C5B2032DDBDB00BF0EB070BD0010014088
:1010100010B500BF2148406808210840C0080028DA
:101020003BD000BF1D4880680840C008002834D06D
:1010300000BF08201949886000BF19480068FFF701
:10104000B9FFFFF707FB1748C168884714480068D5
:10105000806900281AD1124800684069002814D11C
:101060000F480068006900280FD10D4B1B689A6873
:101070000B4B1B6859680A4B1B68186800F0D6FBBD
:1010800007490968C86000F06DFB00BF064800789A
:10109000012802D100200449087010BD0010014051
:1010A00068000020700000206C000020704710B520
:1010B000FFF750FB10BD000010B5FFF759F80446CC
:1010C00001F014F8002803D001200007024948600D
:1010D0002046FFF751F810BD00ED00E010B556486E
:1010E000C0684007400F030000F098FA084C050A5A
:1010F0004C0F2F34394C51480068514908605BE06F
:1011000000F046F94E49086056E04B484030406ACE
:101110008003800F002806D0012808D002280AD0BA
:10112000032810D10BE04748454908600BE04648CA
:101130004349086007E045484149086003E04448E6
:101140003F49086000BF00BF36E0424800683C49A4
:10115000086031E07D200002394908602CE0364803
:10116000C0680007C00F002802D0012808D103E0A2
:1011700039483349086003E038483149086000BF06
:1011800000BF19E02C4800690003000F00280DD0B3
:10119000012802D0022808D103E03148284908601C
:1011A00008E030482649086004E000BF2E48244982
:1011B000086000BF00BF00BF00BF1F48C0684005F7
:1011C000400F030000F02AFA08050A0F14191F2522
:1011D0002B311B4800681A4908602BE0184800684A
:1011E0001749086026E0164800681549086021E0A4
:1011F00013480068124908601CE011480068400864
:101200000F49086016E00E48006880080C49086025
:1012100010E00B480068C008094908600AE0084867
:10122000006800090649086004E0054800680449B0
:10123000086000BF00BF10BD000200405C0000203D
:101240006000002000093D0040420F0020A107007F
:1012500090D0030058000020006CDC02008793034C
:101260000024F40000366E0100127A0010B5002050
:101270004249886105204006C8600846806A80218E
:1012800008433E4988623E48C0680F2189040843EC
:101290003B49C8600020394948620846406A052138
:1012A00009020843354948627D24240100E0641E98
:1012B000002CFCD13148C0680121C90608432F49E0
:1012C000C860AA20886301202E4908600E2048606B
:1012D0000320C90448602C480068000C2A4909888A
:1012E000C94389B2884202D12748006800E0402003
:1012F0004006400E2149486123484068000C2249BD
:101300008988C94389B2884202D11F48406800E0F9
:1013100040204006400E1949403188621A48403842
:10132000006A000C18494039098CC94389B28842C7
:1013300003D115484038006A00E08020C0B20F4950
:1013400008620F484068FF21813108430C4948601A
:101350000A48C06A102108430849C8620B48C06B9C
:10136000091508430949C8630448C06A1021884325
:101370000249C862FFF7B2FE10BD00000002004043
:10138000C00C004000A8014040FBFF1F00040040CB
:1013900010B500242A4880698007C00F002802D0B9
:1013A000012817D113E0264800690003000F002828
:1013B00009D0012802D0022804D101E0214C04E028
:1013C000214C02E000BF214C00BF00BF02E02048DA
:1013D000046800BF00BF1A4880694006400F030040
:1013E00000F01CF9080507090B0D13151B1D00BFA4
:1013F00015E0640813E0A40811E0E4080FE00C21F4
:101400002046FEF7CEFF044609E0240907E0182134
:101410002046FEF7C6FF044601E0640900BF00BF96
:10142000074880694002400E401C444304488069DC
:101430000007C00F002800D06400204610BD000047
:10144000000200400024F40000366E0100127A0011
:101450005C0000200122027041607047F0B50599E0
:10146000002801DB0D2800DBF0BD002445010B4EF8
:10147000745501244501AD196C7044013546641959
:101480006361226100254601044FF619B560F560DD
:1014900044013D466419A16100BFE5E780000020DA
:1014A000F0B50599002801DB032800DBF0BD00241E
:1014B00045010B4E745501244501AD196C70440172
:1014C000354664196361226100254601044FF6190F
:1014D000B560F56044013D466419A16100BFE5E7D0
:1014E00030020020F0B50599002801DB062800DB5A
:1014F000F0BD002445010B4E745501244501AD1982
:101500006C7044013546641963612261002546010F
:10151000044FF619B560F56044013D466419A161B8
:1015200000BFE5E7A002002010B5002801DB062877
:1015300000DB10BD00214201084BD218517042015E
:10154000995400224301054C1B199A60DA6042014C
:101550002346D218916100BFEBE70000A0020020F3
:1015600010B5002801DB0D2800DB10BD0021420171
:10157000084BD21851704201995400224301054C86
:101580001B199A60DA6042012346D218916100BFAC
:10159000EBE7000080000020017801291DD141689F
:1015A000491E41604168002917DA00BF00BF00BF33
:1015B00000BF00BFBFF34F8F00BF00BF00BF074990
:1015C000074AD16000BF00BF00BFBFF34F8F00BF0D
:1015D00000BF00BF00BF00BFFDE770470400FA0571
:1015E00000ED00E010B5002801DB032800DB10BD92
:1015F00000214201084BD218517042019954002237
:101600004301054C1B199A60DA6042012346D21847
:10161000916100BFEBE700003002002030B4744657
:10162000641E2578641CAB4204D3635D5B00E31841
:1016300030BC18471D46F8E7F0B51FB48EB004461D
:101640000D4600BF00200690079008900990069074
:10165000079008900990109810283FD00026374630
:10166000002009E00F21214006AA11542B0721096F
:1016700019432D090C46401C1028F3DB002005906F
:1016800027E006A90598085C00210391029000203C
:10169000019011E01098C317039A02990A930C92D3
:1016A0000D910B90084611460B9AFEF7C1FD039170
:1016B00002900198401C0190059901988842E9DB4D
:1016C0003A460399029836184A4117460598401C35
:1016D000059005981028D4DB34463D46002006903E
:1016E0000790089009901198102833D000263746AB
:1016F0000020059014E0119AD31720462946FEF7E2
:10170000AFFDD1B206AA05981154119AD3172046FD
:101710002946FEF7A5FD04460D460598401C059098
:1017200005981028E7DB0F2010E0330F390119432B
:1017300036010F4606A9095C0C07240FE517314650
:101740003A4621432A430E461746401E0028ECDA4B
:1017500034463D4626462F463D463046294613B080
:10176000F0BD000010B52E480068C068012813D0F5
:101770002B480068C06802280ED029480068C0685D
:10178000032809D026480068C068042804D02448EB
:101790000068C068052811D130212248FEF7E8FF13
:1017A000002008E0C100204A8A18C3001D495B18C8
:1017B0000ACB0AC2401C0628F4DB10BD184800689A
:1017C000C068062804D016480068C068072813D1EE
:1017D000302114483030FEF7CBFF002009E0C10073
:1017E000114A8A18C3000F4930315B180ACB0AC26C
:1017F000401C0628F3DBE0E730210A48FEF7B8FF7B
:10180000002008E0C100084A8A18C30005495B1897
:101810000ACB0AC2401C0628F4DB00BFCDE700005B
:101820006800002080030020CC480020F0B585B07F
:1018300005460C46164600BF00200390029001901A
:10184000009010230A2228460021FFF7F5FE0546E6
:1018500010230A2220460021FFF7EEFE0446102343
:101860000A2230460021FFF7E7FE0646012C01D090
:10187000022C0ED1681E6421FEF793FD0290681EB3
:101880006421FEF78EFD039120460C3001900096F6
:101890000BE064212846FEF784FD0290642128466F
:1018A000FEF77FFD0391019400960199491C1A22CD
:1018B000514308460A21FEF774FD03998A0852181D
:1018C00002998908521802994900511A4118009842
:1018D0000818471E002F04DB07213846FEF76BFD72
:1018E00004E007213846FEF766FDC91D0F46002FAC
:1018F00000D10727384605B0F0BD00001CB5FFF742
:101900003FFBFFF7B4F9FEF75DFEFFF73AFBFEF78A
:1019100021FF0020FEF73AFFFFF7C9FBFEF798FE14
:10192000002403220021012000F058FB0749086031
:1019300000200346802206A101940090054800F093
:10194000A7FB00F0C1FA00BFFEE700000004002082
:1019500041414100C105000010B5044600F064FAA1
:1019600020480068401C1F4908601F480068002884
:1019700008D11D4804600846006801280ED100F017
:1019800019F90BE019480068002807D116480068CB
:10199000C06AE16A884201D81348046014480068AC
:1019A000401C134908601349E06A0968884202D95B
:1019B0001049E06A08601422E16A51430E4A88180F
:1019C000211D00F025FA00F03DFA084800680028C3
:1019D00007D005480068C06AE16A884201D200F079
:1019E00067FA10BD2C0000201C00002038000020E9
:1019F00048000020340000200448002070B525E095
:101A000000F08CFA14480068002801D1012000E0A1
:101A10000020054600F03AFC002D17D100F004FA32
:101A20000D48C068C468201D00F0CEF90B4800685E
:101A3000401E0A4908600A480068401E08490860BC
:101A400000F000FA204600F00DF800BF04480068DE
:101A50000028D5D170BD0000A44800202C00002033
:101A60002800002010B50446206B00F0F9F920464C
:101A700000F0F6F910BD000030B511239B021748A5
:101A80004407640F002C05D0C01DC008C000134CD3
:101A9000041B1B1B0246124C22600024104D6C607C
:101AA000D0180838C008C0000E4C206000240D4D2E
:101AB0002D686C600B4D2D682C601146441A4C60EB
:101AC000084C24680C60084D4C682C60074D4C682D
:101AD0002C600124E407064D2C6030BD0404002076
:101AE0000000002008000020100000200C00002052
:101AF0001400002000BFFFF781FF034800680128A1
:101B0000F9D900F0D5F9F6E704480020F8B5064603
:101B10000D461746069C002D01D1246000E0276089
:101B2000E66325640121204600F076FAF8BDFFB592
:101B300081B00E460A9F0C9C216B0398401E8000CA
:101B4000081800900098C008C0000090002508E028
:101B5000715D204634304155705D002800D102E0AF
:101B60006D1C102DF4D300BF002143200155052F1B
:101B700000D30427E762201D00F047F92046183003
:101B800000F043F924610520C01BA06164620020BD
:101B90006064002148200155049A0199009800F0E2
:101BA00003F920600B98002801D00B98046005B061
:101BB000F0BD000010B5002406E0142161430E4A78
:101BC000881800F015F9641C052CF6D30B4800F0BA
:101BD0000FF90B4800F00CF90A4800F009F90A481F
:101BE00000F006F9094800F003F9044808490860C4
:101BF00003480849086010BD0448002068480020D8
:101C00007C48002090480020A4480020B8480020CC
:101C1000200000202400002010B50146164800E0F6
:101C2000006803688B42FBD3024643689B188B42D3
:101C300004D143684C681B19436001460A464B684F
:101C40009B180468A34211D10C4C03682468A3427A
:101C500008D04B68046864681B194B6003681B68F4
:101C60000B6005E0054B1B680B6001E003680B602F
:101C7000884200D0016010BD000000200800002054
:101C80000B4909680968002901D1012100E0002100
:101C9000002904D00021C943064A116006E0044926
:101CA0000968C968C868034A416811607047000044
:101CB000200000204C000020024803494861072012
:101CC000086170473F1F000000E000E072B600BFEF
:101CD000FEE70000F8B505460020009000F01EF970
:101CE0002C480068002801D1FFF7C6FE2A4800688A
:101CF0002840002849D1002D09D008356807400F39
:101D0000002804D06807400F0821081A4519002D43
:101D10003BD022480068854237D8214E30460468BF
:101D200001E0264624686068A84202D220680028A4
:101D3000F7D118480068844227D0306808300090F6
:101D4000206830606068401B102807D967196068F8
:101D5000401B786065603846FFF75EFF0F4960689A
:101D60000968081A0D490860084600680D490968A5
:101D7000884203D2094800680A4908600649606839
:101D80000968084360600020206000F07FFA009836
:101D9000F8BD000008000020140000200C00002006
:101DA0000000002010000020001F01231B0603601C
:101DB000001F0160001F034B0360143802602038CD
:101DC00070470000CD1C000001460A694B68886816
:101DD00098608B68486858605068884201D188686C
:101DE0005060002008611068401E10601068704745
:101DF0000146083141600021C94381600146083134
:101E0000C1600161002101607047002101617047DC
:101E100042684A6093688B6093685960916008617A
:101E200003685B1C0360704772B605480068401C7D
:101E300003490860BFF34F8FBFF36F8F70470000F7
:101E40001800002005480068401E04490860084644
:101E50000068002800D162B670470000180000201A
:101E600070B506463546002E1CD0083D2C460E495E
:101E7000606809680840002814D02068002811D143
:101E80000949606809688843606000F047F80749BD
:101E9000606809684018054908602046FFF7BCFEE5
:101EA00000F0F4F970BD0000140000200C000020C8
:101EB0000120000703494860BFF34F8FBFF36F8FC6
:101EC0007047000000ED00E01CB50D4800210B46F6
:101ED0008022009101900BA10C4800F0D9F8044633
:101EE000012C0CD172B60020C043094908600120C2
:101EF0000849086000200849086000F053F81CBD3C
:101F00005000002049444C4500000000F51A000034
:101F10004C000020380000203000002002480068FB
:101F2000401C0149086070475400002018480068B0
:101F3000002803D001201749086027E00020154938
:101F400008601548016800E0491E14204843134A00
:101F50001058002801D1012000E000200028F3D112
:101F600014224A430D4BD018426852684260024620
:101F700008324368934202D1426852684260426824
:101F8000D268074B1A600448016000BF7047000028
:101F900054000020400000203400002004480020AD
:101FA0001C00002010B50B48006AFF2109040843FB
:101FB000084908620846006AFF21090608430549E6
:101FC0000862FFF779FE002003490860FEF7BCF8BD
:101FD000002010BD00ED00E018000020F7B582B031
:101FE00007460D46002D01D1002601E03E466E4316
:101FF00030464830FFF76EFE0446002C09D02046DC
:1020000048300190009429463846049B019AFFF716
:102010007DFD204605B0F0BD70B505460E462C4648
:10202000FFF702FF216CE06B4843216840186060B5
:102030000020A0632068A060E06B401E216C484334
:1020400021684018E0600021C94344200155452023
:102050000155002E10D12069002801D1012000E097
:102060000020002810D12046103000F0CFF80028C2
:102070000AD0FFF71DFF07E020461030FFF7B8FE3B
:1020800020462430FFF7B4FEFFF7DCFE012070BDD0
:10209000FFB585B01746B800FFF71CFE0646002EB8
:1020A0000BD04C20FFF716FE0446002C01D026630F
:1020B00004E03046FFF7D4FE00E00024002C10D0EE
:1020C00000220F990E986B4613C303923A46089B61
:1020D00006990598FFF72BFD2046FFF73DFC0125EB
:1020E00001E00025ED43284609B0F0BDF8B5002019
:1020F00000903B480068002864D13A480068451CBD
:1021000038480560002D0FD1374807683748006808
:10211000354908603548076035480068401C344937
:102120000860FFF7ADFD00BF3248006885423DD32F
:1021300000BF2D4800680068002801D1012000E0A0
:102140000020002804D00020C0432A4908602CE069
:1021500025480068C068C4686668B54202D2254850
:10216000066022E0201DFFF72FFEA06A002803D0A2
:1021700020461830FFF728FE1F49E06A09688842A8
:1021800002D91D49E06A08601422E16A51431B4AE2
:102190008818211DFFF73CFE1949E06A0968C96AE1
:1021A0008842C6D301200090C3E700BF14480068EE
:1021B000C06A1421484311490858012801D9012057
:1021C000009004E00F480068401C0E4908600E486B
:1021D0000068002801D0012000900098F8BD0000A0
:1021E00054000020300000202000002024000020A7
:1021F000440000204C00002034000020044800204F
:102200001C0000203C0000204000002070B5064665
:10221000F068C46820461830FFF7D6FD15480068FE
:10222000002813D1201DFFF7CFFD1349E06A09688C
:10223000884202D91049E06A08601422E16A5143D9
:102240000E4A8818211DFFF7E3FD04E021461831EE
:102250000B48FFF7DDFD0B49E06A0968C96A88424F
:1022600004D9012501200849086000E0002528461E
:1022700070BD0000540000203400002004480020FD
:10228000904800201C0000204000002070B5002471
:102290000026FFF7C9FD2D480068401E2B49086045
:1022A0000846006800284DD129480068002849D018
:1022B00022E02848C068C46820461830FFF784FD33
:1022C000201DFFF781FD2449E06A0968884202D990
:1022D0002149E06A08601422E16A51431F4A8818C4
:1022E000211DFFF795FD1E49E06A0968C96A884209
:1022F00002D301201B49086016480068002801D15C
:10230000012000E000200028D3D0002C01D0FFF7EE
:10231000B7FC15480568002D0DD000BFFFF7E6FE9D
:10232000002802D001200F4908606D1E002DF5D154
:1023300000200D4908600B480068002802D00126E3
:10234000FFF7B6FDFFF77EFD304670BD540000205C
:102350002C00002090480020340000200448002079
:102360001C000020400000203C0000208C230000C6
:1023700000000020040400006A050000EC230000B7
:10238000040400205C5500000401000001181AAA92
:1023900001013D32804B127A04F1320223551403BD
:1023A000FF991501A3235D1423611502670D1AA17E
:1023B000701AE57002C7031AE5D01A29D0720632E6
:1023C000011EB21234567803130101440740384D00
:1023D000C0418070084BB081084BF0B9084B20CB4E
:0C23E000082B60033A0B2EC04130012492
:04000005000000C136
:00000001FF
