:020000040000FA
:1000000098550020150200001D0200001F0200008C
:1000100000000000000000000000000000000000E0
:10002000000000000000000000000000DD0C0000E7
:1000300000000000000000009B010000E10C000037
:10004000270200002702000027020000270200000C
:1000500027020000270200002702000027020000FC
:1000600027020000270200002702000027020000EC
:1000700027020000270200002702000027020000DC
:1000800027020000270200002702000027020000CC
:100090001D0C0000270200002702000027020000BC
:1000A00027020000270200002702000027020000AC
:1000B0002702000027020000C50A000027020000F6
:1000C00000F002F800F03EF80CA030C80838241800
:1000D0002D18A246671EAB4654465D46AC4201D180
:1000E00000F030F87E460F3E0FCCB6460126334274
:1000F00000D0FB1AA246AB4633431847C41D00008C
:10010000E41D0000103A02D378C878C1FAD852072B
:1001100001D330C830C101D504680C6070470000BD
:100120000023002400250026103A01D378C1FBD813
:10013000520700D330C100D50B6070471FB51FBDFB
:1001400010B510BD00F093F91146FFF7F7FF00F06E
:10015000A3FF00F0ABF903B4FFF7F2FF03BC00F01C
:10016000B1F90000084B19680868203080F309884D
:10017000022080F31488BFF36F8F3FBCAE4608BCEB
:1001800004BC62B61847000014000020EFF3108092
:1001900072B6704780F310887047EFF309800E4BFA
:1001A0001A6820381060F0C044464D4656465F46F7
:1001B000F0C008B572B601F069FB62B60CBC1168FC
:1001C00008681030F0C8A046A946B246BB4680F386
:1001D00009882038F0C818471400002070B505467B
:1001E0000C46164602E00FCC0FC5103E102EFAD278
:1001F000082E02D303CC03C5083E042E07D301CC3E
:1002000001C5361F03E021782970641C6D1C761E21
:10021000F9D270BD0748804707480047FEE7FEE770
:10022000FEE7FEE7FEE7FEE704480549054A064B00
:1002300070470000950E0000C100000098450020A6
:1002400098550020984D0020984D0020F8B5042ABC
:100250002CD3830712D00B78491C0370401C521E0C
:1002600083070BD00B78491C0370401C521E830778
:1002700004D00B78491C0370401C521E8B079B0F47
:1002800005D0C91ADF002023DE1B08C90AE0FFF7EA
:10029000A5FFF8BD1D4608C9FD401C46B4402C43CF
:1002A00010C0121F042AF5D2F308C91A521EF0D446
:1002B0000B78491C0370401C521EEAD40B78491C71
:1002C0000370401C012AE4D409780170F8BD01E0F4
:1002D00004C0091F0429FBD28B0701D50280801CB2
:1002E000C90700D00270704700290BD0C30702D0A5
:1002F0000270401C491E022904D3830702D50280E4
:10030000801C891EE3E70022EEE70022DFE70022DF
:1003100003098B422CD3030A8B4211D300239C4642
:100320004EE003460B433CD4002243088B4231D3BA
:1003300003098B421CD3030A8B4201D394463FE04E
:10034000C3098B4201D3CB01C01A524183098B42AE
:1003500001D38B01C01A524143098B4201D34B0197
:10036000C01A524103098B4201D30B01C01A5241FA
:10037000C3088B4201D3CB00C01A524183088B4281
:1003800001D38B00C01A524143088B4201D34B006A
:10039000C01A5241411A00D20146524110467047DC
:1003A0005DE0CA0F00D04942031000D340425340E1
:1003B00000229C4603098B422DD3030A8B4212D3A1
:1003C000FC22890112BA030A8B420CD389019211D3
:1003D0008B4208D3890192118B4204D389013AD010
:1003E000921100E08909C3098B4201D3CB01C01AE5
:1003F000524183098B4201D38B01C01A52414309F8
:100400008B4201D34B01C01A524103098B4201D3E5
:100410000B01C01A5241C3088B4201D3CB00C01A52
:10042000524183088B4201D38B00C01A5241D9D26A
:1004300043088B4201D34B00C01A5241411A00D2EB
:100440000146634652415B10104601D34042002BE7
:1004500000D54942704763465B1000D3404201B566
:100460000020C046C04602BD7047704770477546C1
:1004700000F024F8AE46050069465346C008C000A7
:10048000854618B020B5FFF7CFFE60BC00274908AD
:10049000B6460026C0C5C0C5C0C5C0C5C0C5C0C51C
:1004A000C0C5C0C5403D49008D46704710B50446E3
:1004B000C046C0462046FFF74EFE10BD00487047BC
:1004C0003445002001491820ABBEFEE7260002009B
:1004D0007047000006480069042108430449086188
:1004E000084600690121084301490861704700007E
:1004F00000E000E08AB2C2607047826A8BB29A4321
:100500008262704702688BB29A43026070478268C9
:100510008BB29A438260704742688BB29A434260C2
:100520007047026A8BB29A4302627047F8B506467A
:100530000C460027002500BF654886420BD0644862
:100540004030864207D062488030864203D06048FF
:10055000C030864201D1012000E00020002801D1F6
:1005600000BFFEE700BF00BF2068002805D9594939
:100570002068884201D8012000E00020002801D135
:1005800000BFFEE700BF00BF6068032808D06068B6
:10059000002805D06068012802D06068022801D1D7
:1005A000012000E00020002801D100BFFEE700BFCD
:1005B00000BFA068012802D0A068002801D1012056
:1005C00000E00020002801D100BFFEE700BF00BF0F
:1005D000E068002802D0E068012801D1012000E095
:1005E0000020002801D100BFFEE700BF80203A496B
:1005F000896A0143384A916200BF62E00121B94033
:10060000206808400546002D5AD06068032812D1A2
:1006100029463046FFF776FF29463046FFF77CFF34
:1006200029463046FFF773FF00BFB06AA9B20843FE
:10063000B06200BF2EE029463046FFF75EFF6068DB
:10064000002806D100BF3068A9B20843306000BF5F
:1006500003E029463046FFF755FFA068002804D183
:1006600029463046FFF753FF06E000BFB068A9B245
:100670000843B06000BF00BFE068002806D000BF9C
:100680007068A9B20843706000BF03E02946304695
:10069000FFF742FF606802280DD12069012806D1CA
:1006A00000BF306AA9B20843306200BF03E02946A8
:1006B0003046FFF736FF29463046626800F00EF8F4
:1006C0007F1C2068F840002898D10120F8BD000068
:1006D000000C0040FFFF00000002004030B5C3687E
:1006E0000C464C4365006419A3430C464C435443E9
:1006F0002343C36030BD30B543680C464C436500AE
:100700006419A3430C464C4354432343436030BD18
:1007100010B5FFF7DFFE10BD8A07920F42617047E8
:1007200001680122120611430160704770B5054649
:100730000C46012600BF8C48854201D1012000E013
:100740000020002801D100BFFEE700BF00BF2068E5
:1007500000280DD0FF2101312068884208D04900CF
:100760002068884204D0032109022068884201D110
:10077000012000E00020002801D100BFFEE700BFFB
:1007800000BF6068002804D00121890360688842A6
:1007900001D1012000E00020002801D100BFFEE7C8
:1007A00000BF00BFA068002821D001218902A068F5
:1007B00088421CD04900A068884218D003218902D1
:1007C000A068884213D001210903A06888420ED096
:1007D00005218902A068884209D00321C902A068C6
:1007E000884204D007218902A068884201D10120F3
:1007F00000E00020002801D100BFFEE700BF00BFDD
:100800002069002808D02069012805D02069022825
:1008100002D02069032801D1012000E00020002837
:1008200001D100BFFEE700BF00BFE069002805D08E
:10083000E069202802D0E069402801D1012000E0D1
:100840000020002801D100BFFEE700BF00BF6069A3
:10085000002802D06069042801D1012000E00020B6
:10086000002801D100BFFEE700BF00BFA06900283B
:1008700002D0A069802801D1012000E000200028DA
:1008800001D100BFFEE700BF374885421ED10120DD
:100890003649896A0143354A916200BF20690228BE
:1008A00014D0901431494031096B01432F4A403232
:1008B000116300BF20681146096B032212029143A5
:1008C00001432A4A4032116300BF00BF60682968B3
:1008D0000122920391430143296000BFA068296867
:1008E0000722920291430143296000BF20692968D1
:1008F000890889000143296000BF2069002806D0CB
:10090000012811D0022814D003281FD119E0012199
:1009100089036068884206D12846A16900F09BF8E7
:100920002846FFF7FDFE11E02846E16900F099F83E
:100930000CE02846A16900F08EF82846FFF7F0FE8B
:1009400004E02846E16900F08CF800BF00BF606950
:100950002968042291430143296000BFE068E968E7
:10096000E86000BF304670BD003401400002004026
:10097000F8B504460D461646012700BF2A488442B2
:1009800001D1012000E00020002801D100BFFEE7D6
:1009900000BF00BF012D01D0022D01D1012000E0D8
:1009A0000020002801D100BFFEE700BF00BF706833
:1009B000002802D07068102801D1012000E000203A
:1009C000002801D100BFFEE700BF29467068012959
:1009D00002D002290DD105E0A26810239A430243F8
:1009E000A26006E0A26820239A4343001A43A26053
:1009F00000BF00BF00BF012D02D0022D0AD104E0CC
:100A00003068216A206200BF06E03068616A606277
:100A100000BF01E0002700BF00BF2A460221204698
:100A200000F004F83846F8BD0034014010B5012A42
:100A300002D0022A0DD105E083689B089B000B437E
:100A4000836006E083680C24A3438C002343836007
:100A500000BF00BF10BD026880239A430A430260B2
:100A60007047026860239A430A430260704700009F
:100A700000BF15E000235A1E19460A48006800F01E
:100A80007BFF01280CD100BF0749096901400029FB
:100A900002D00549886101E00349486100BF00BFF9
:100AA000E8E7000000000020800C004010B503497A
:100AB0000348006801F02FF810BD0000040000207A
:100AC0000000002010B5012040020949C96801401A
:100AD000814201D1012100E00021002906D001213D
:100AE00049020348FFF706FDFFF7E0FF10BD0000D5
:100AF000000D004000B585B014216846FFF705FCE5
:100B000000BF2E48C0680121490608432B49C86030
:100B100000BF880529494031C96A0143274A40324C
:100B2000D16200BF4020009000200190029003900D
:100B3000049069462248FFF7F9FC0322012149028B
:100B40001F488030FFF7D7FD0120C0041C498031C9
:100B500009680322920491430143194A80321160CB
:100B600000BF8012114689680143916000BF0122D5
:100B7000014613488030FFF7BEFD012149021048AD
:100B80008030FFF7B7FC1E20002805DBC206D20E1E
:100B9000012191400B4A116000BF02211E2000F08C
:100BA00061F81E20002806DBC206D20E012191400A
:100BB000044A803A116000BF05B000BD0002004049
:100BC000800C004080E100E000B58BB0202103A83C
:100BD000FFF79BFB002001900290FF200130039063
:100BE000002004900520800205900020C04306905C
:100BF0000020079009900A90089003A90648FFF783
:100C000095FD01AA01210448FFF7B2FE0121024827
:100C1000FFF782FD0BB000BD0034014010B501218B
:100C20000148FFF779FD10BD00340140704710B551
:100C300000F002F810BD000000B585B001200749A2
:100C4000486100BF00900190002002900390049042
:100C500069460248FFF76AFC05B000BD800C004001
:100C60007047000010B5002819DB1A4A03231B0245
:100C7000D21883089B00D2588307DC0EFF23A340C1
:100C80009A438B071B0E8407E40EA3401A43114BB3
:100C9000032424021B198408A4001A5118E00E4AE8
:100CA00003071B0F083B9B089B00D2588307DC0EF1
:100CB000FF23A3409A438B071B0E8407E40EA34037
:100CC0001A43054B0407240F083CA408A4001A513A
:100CD00010BD000000E100E01CED00E070470000E6
:100CE00010B5FFF753FA044600F0AAFF002803D01E
:100CF00001200007024948602046FFF74BFA10BD6B
:100D000000ED00E010B55648C0684007400F0300F2
:100D100000F0B4F9084C050A4C0F2F34394C5148F7
:100D20000068514908605BE000F046F94E490860F0
:100D300056E04B484030406A8003800F002806D0C0
:100D4000012808D002280AD0032810D10BE0474818
:100D5000454908600BE046484349086007E04548BC
:100D60004149086003E044483F49086000BF00BFB4
:100D700036E0424800683C49086031E07D200002CE
:100D8000394908602CE03648C0680007C00F0028C9
:100D900002D0012808D103E039483349086003E054
:100DA00038483149086000BF00BF19E02C4800698D
:100DB0000003000F00280DD0012802D0022808D11E
:100DC00003E031482849086008E0304826490860B7
:100DD00004E000BF2E482449086000BF00BF00BFE8
:100DE00000BF1F48C0684005400F030000F046F9EF
:100DF00008050A0F14191F252B311B4800681A49D2
:100E000008602BE0184800681749086026E016487B
:100E100000681549086021E013480068124908601D
:100E20001CE01148006840080F49086016E00E48B1
:100E3000006880080C49086010E00B480068C00892
:100E4000094908600AE00848006800090649086086
:100E500004E0054800680449086000BF00BF10BDF9
:100E6000000200400C0000201000002000093D009E
:100E700040420F0020A1070090D00300080000208E
:100E8000006CDC02008793030024F40000366E013E
:100E900000127A0010B50020424988610520400602
:100EA000C8600846806A802108433E4988623E48FF
:100EB000C0680F21890408433B49C86000203949B4
:100EC00048620846406A05210902084335494862DC
:100ED0007D24240100E0641E002CFCD13148C06850
:100EE0000121C90608432F49C860AA208863012050
:100EF0002E4908600E2048600320C90448602C4831
:100F00000068000C2A490988C94389B2884202D185
:100F10002748006800E040204006400E2149486113
:100F200023484068000C22498988C94389B2884215
:100F300002D11F48406800E040204006400E194999
:100F4000403188621A484038006A000C184940391C
:100F5000098CC94389B2884203D115484038006AD8
:100F600000E08020C0B20F4908620F484068FF21AE
:100F7000813108430C4948600A48C06A102108437F
:100F80000849C8620B48C06B091508430949C86382
:100F90000448C06A102188430249C862FFF7B2FEC4
:100FA00010BD000000020040C00C004000A801403D
:100FB00040FBFF1F0004004010B500242A48806950
:100FC0008007C00F002802D0012817D113E026485F
:100FD00000690003000F002809D0012802D0022870
:100FE00004D101E0214C04E0214C02E000BF214C7F
:100FF00000BF00BF02E02048046800BF00BF1A48DD
:1010000080694006400F030000F038F80805070922
:101010000B0D13151B1D00BF15E0640813E0A40899
:1010200011E0E4080FE00C212046FFF770F90446B8
:1010300009E0240907E018212046FFF768F9044673
:1010400001E0640900BF00BF074880694002400E0C
:10105000401C4443044880690007C00F002800D0AA
:101060006400204610BD0000000200400024F4008F
:1010700000366E0100127A000C00002030B4744675
:10108000641E2578641CAB4204D3635D5B00E318E7
:1010900030BC18471D46F8E71CB5FFF7C7FDFFF742
:1010A000DFFDFFF735FBFFF7C2FDFFF723FDFFF77D
:1010B0008BFD03220021012000F040FC074908605D
:1010C00000200221034680220091019004A10648DD
:1010D00000F088FD00F0A8FB00BFFEE70000002044
:1010E0004750494F00000000710A0000F8B505465E
:1010F0000E461748076817480068001D00F0D6FA2A
:10110000681C002808D1002E06D012480168091D6D
:10111000114800F00AFB1AE07C190E480068446090
:10112000BC4207D20B480168091D0C48006800F05A
:10113000E1FA0CE007480168091D0948006800F061
:10114000D9FA08480068844201D206480460F8BD14
:101150002800002014000020200100201C00002096
:10116000180000204400002010B5044600F0EAFA00
:1011700020480068401C1F4908601F48006800287C
:1011800008D11D4804600846006801280ED100F00F
:101190002FF90BE019480068002807D116480068AD
:1011A000C06AE16A884201D81348046014480068A4
:1011B000401C134908601349E06A0968884202D953
:1011C0001049E06A08601422E16A51430E4A881807
:1011D000211D00F0AAFA00F0C3FA084800680028B0
:1011E00007D005480068C06AE16A884201D200F071
:1011F000EDFA10BD24000020140000203000002073
:10120000400000202C0000206C00002070B525E07C
:1012100000F034FB14480068002801D1012000E0F0
:101220000020054600F0DCFD002D17D100F08AFA01
:101230000D48C068C468201D00F038FA0B480068EB
:10124000401E0A4908600A480068401E08490860B4
:1012500000F086FA204600F023F800BF044800683A
:101260000028D5D170BD00000C0100202400002012
:101270002000002070B504460D46206C00280ED0DA
:10128000216CE0684018E0606168E068884201D342
:101290002068E0602846226CE168FEF7D7FF70BD49
:1012A00010B50446206B00F069FA204600F066FA9B
:1012B00010BD000030B511239B0217484407640F8E
:1012C000002C05D0C01DC008C000134C041B1B1B04
:1012D0000246124C22600024104D6C60D018083871
:1012E000C008C0000E4C206000240D4D2D686C60BD
:1012F0000B4D2D682C601146441A4C60084C246834
:101300000C60084D4C682C60074D4C682C60012423
:10131000E407064D2C6030BD340100205000002051
:1013200058000020600000205C00002064000020C5
:1013300000BFFFF76BFF034800680128F9D900F0F0
:1013400045FAF6E76C000020F8B506460D4617464C
:10135000069C002D01D1246000E02760E66325642F
:101360000121204600F09BFBF8BDFFB581B00E4681
:101370000A9F0C9C216B0398401E80000818009067
:101380000098C008C0000090002508E0715D20466C
:1013900034304155705D002800D102E06D1C102DE5
:1013A000F4D300BF002143200155052F00D30427AB
:1013B000E762201D00F09BF92046183000F097F9F5
:1013C00024610520C01BA0616462002060640021CC
:1013D00048200155049A0199009800F057F92060BF
:1013E0000B98002801D00B98046005B0F0BD0000F8
:1013F00010B5002406E0142161430E4A881800F05D
:1014000069F9641C052CF6D30B4800F063F90B480E
:1014100000F060F90A4800F05DF90A4800F05AF956
:10142000094800F057F9044808490860034808498A
:10143000086010BD6C000020D0000020E4000020F7
:10144000F80000200C0100202001002018000020DE
:101450001C00002010B50146164800E00068036833
:101460008B42FBD3024643689B188B4204D14368EE
:101470004C681B19436001460A464B689B18046878
:10148000A34211D10C4C03682468A34208D04B68D6
:10149000046864681B194B6003681B680B6005E0F7
:1014A000054B1B680B6001E003680B60884200D0AD
:1014B000016010BD500000205800002070B50546A6
:1014C00000F040F9A86B002801D1012400E00024BD
:1014D00000F046F9204670BD0B49096809680029EB
:1014E00001D1012100E00021002904D00021C943DD
:1014F000064A116006E004490968C968C868034AD9
:10150000416811607047000018000020440000206E
:101510000248034948610720086170473F1F0000E7
:1015200000E000E072B600BFFEE770B5044600F0D0
:1015300009F94520055713E0606A002801D1012010
:1015400000E00020002808D12046243000F008FCEC
:10155000002803D000F046F900E003E0681E45B221
:10156000002DE9DC00BF0021C9434520015500F0F2
:10157000F7F800F0E7F84420055713E02069002849
:1015800001D1012000E0002000280AD120461030BF
:1015900000F0E6FB002801D000F024F9681E45B2F7
:1015A00000E001E0002DE9DC00BF0021C943442038
:1015B000015500F0D5F870BDF8B505460020009043
:1015C00000F05CF92C480068002801D1FFF772FE9A
:1015D0002A4800682840002849D1002D09D0083544
:1015E0006807400F002804D06807400F0821081A38
:1015F0004519002D3BD022480068854237D8214E3E
:101600003046046801E0264624686068A84202D299
:1016100020680028F7D118480068844227D0306835
:1016200008300090206830606068401B102807D99F
:1016300067196068401B786065603846FFF70AFFED
:101640000F4960680968081A0D4908600846006873
:101650000D490968884203D2094800680A490860B0
:10166000064960680968084360600020206000F057
:10167000B7FB0098F8BD000058000020640000206F
:101680005C0000205000002060000020001F0123AB
:101690001B060360001F0160001F034B036014382A
:1016A00002602038704700002515000001460A69D5
:1016B0004B68886898608B684868586050688842B2
:1016C00001D188685060002008611068401E1060D9
:1016D000106870470146083141600021C9438160AC
:1016E00001460831C160016100210160704700219D
:1016F0000161704710B502460B685C1C002C01D1DB
:10170000106907E01046083000E04068446824682B
:101710009C42FAD944684C604C68A1608860416082
:101720000A611468641C146010BD42684A609368C2
:101730008B60936859609160086103685B1C03606B
:101740007047000072B605480068401C03490860F5
:10175000BFF34F8FBFF36F8F70470000680000200A
:1017600005480068401E04490860084600680028D3
:1017700000D162B6704700006800002070B50646D0
:101780003546002E1CD0083D2C460E49606809687D
:101790000840002814D02068002811D10949606849
:1017A00009688843606000F069F807496068096863
:1017B0004018054908602046FFF74CFE00F010FB7A
:1017C00070BD0000640000205C00002001200007C4
:1017D00003494860BFF34F8FBFF36F8F704700001E
:1017E00000ED00E00120014908607047380000204A
:1017F00070B505460C460548016818312846FFF7C4
:1018000079FF01212046FFF771FC70BD1400002014
:101810000349096801600349096841607047000095
:101820003C000020280000201CB50D4800210B467C
:101830008022009101900BA10C4800F0D3F90446DE
:10184000012C0CD172B60020C04309490860012068
:101850000849086000200849086000F053F81CBDE2
:101860004800002049444C450000000031130000AE
:1018700044000020300000202800002002480068BA
:10188000401C0149086070474C000020184800685F
:10189000002803D001201749086027E000201549DF
:1018A00008601548016800E0491E14204843134AA7
:1018B0001058002801D1012000E000200028F3D1B9
:1018C00014224A430D4BD0184268526842600246C7
:1018D00008324368934202D14268526842604268CB
:1018E000D268074B1A600448016000BF70470000CF
:1018F0004C000020380000202C0000206C0000204C
:101900001400002010B50B48006AFF2109040843A9
:10191000084908620846006AFF210906084305498C
:101920000862FFF7F5FD002003490860FEF71AFC86
:10193000002010BD00ED00E068000020F7B582B087
:1019400007460D46002D01D1002601E03E466E43BC
:1019500030464830FFF730FE0446002C09D02046C0
:1019600048300190009429463846049B019AFFF7BD
:10197000EBFC204605B0F0BDFFB585B005461E4620
:10198000002004902C4600BFFFF7DCFEA06B019006
:101990000198002830D0E76820460699FFF76AFCD6
:1019A000002E13D10198401EA0632069002801D1A8
:1019B000012000E00020002819D12046103000F05E
:1019C000CFF9002813D0FFF701FF10E0E760606A4D
:1019D000002801D1012000E00020002807D1204686
:1019E000243000F0BDF9002801D0FFF7EFFEFFF72B
:1019F000B7FE012009B0F0BD0798002803D1FFF71A
:101A0000AFFE0020F6E70498002804D102A8FFF7F3
:101A1000FFFE01200490FFF7A3FEFFF72FFFFFF763
:101A200091FE44210857401C002802D10021442087
:101A3000015545210857401C002802D100214520AE
:101A40000155FFF78DFE07A902A800F09BF80028BA
:101A500019D12046FFF732FD00280ED02046243051
:101A60000799FFF7C5FE2046FFF75FFD00F0B8F9C4
:101A7000002889D1FFF7AAFE86E72046FFF755FD2B
:101A800000F0AEF980E72046FFF74FFD00F0A8F91F
:101A90002046FFF713FD0028EED00020AAE770B51E
:101AA00005460E462C46FFF74DFE216CE06B484381
:101AB0002168401860600020A0632068A060E06B8F
:101AC000401E216C484321684018E0600021C94352
:101AD0004420015545200155002E10D120690028D1
:101AE00001D1012000E00020002810D12046103054
:101AF00000F036F900280AD0FFF768FE07E020461C
:101B00001030FFF7E7FD20462430FFF7E3FDFFF735
:101B100027FE012070BDFEB505460E462C46FEF799
:101B200035FB0290A06B0190E16B0198814223D9B3
:101B30004520015700910198401CA0630098401C6B
:101B4000002812D1606A002801D1012000E00020A5
:101B500000280FD12046243000F002F9002809D0D7
:101B6000002E07D00120306004E00098401C41B2F4
:101B700045200155012700E000270298FEF70AFBE7
:101B80003846FEBD70B504460D46FFF7DBFD134831
:101B900002682868401C002801D1002619E010497D
:101BA00020680968884204D06068904201D8012604
:101BB0000FE06068101A2968884209D228686168B5
:101BC000511A401A28602046FFF722FE002600E046
:101BD0000126FFF7C5FD304670BD0000280000203B
:101BE0003C000020FFB585B01746B800FFF7E4FCC5
:101BF0000646002E0BD04C20FFF7DEFC0446002CDE
:101C000001D0266304E03046FFF7B8FD00E0002471
:101C1000002C10D000220F990E986B4613C303922C
:101C20003A46089B06990598FFF79FFB2046FFF769
:101C30009BFA012501E00025ED43284609B0F0BDDF
:101C4000F8B5002000903B480068002864D13A486D
:101C50000068451C38480560002D0FD137480768DB
:101C600037480068354908603548076035480068DE
:101C7000401C34490860FFF72FFC00BF3248006861
:101C800085423DD300BF2D4800680068002801D17F
:101C9000012000E00020002804D00020C0432A4991
:101CA00008602CE025480068C068C4686668B542D2
:101CB00002D22548066022E0201DFFF7F7FCA06A4B
:101CC000002803D020461830FFF7F0FC1F49E06AD7
:101CD0000968884202D91D49E06A08601422E16A55
:101CE00051431B4A8818211DFFF71FFD1949E06A5F
:101CF0000968C96A8842C6D301200090C3E700BFC3
:101D000014480068C06A1421484311490858012842
:101D100001D90120009004E00F480068401C0E49E2
:101D200008600E480068002801D00120009000984B
:101D3000F8BD00004C000020280000201800002002
:101D40001C0000203C000020440000202C0000204B
:101D50006C00002014000020340000203800002017
:101D600070B50646F068C46820461830FFF79EFC40
:101D700015480068002813D1201DFFF797FC134970
:101D8000E06A0968884202D91049E06A08601422B2
:101D9000E16A51430E4A8818211DFFF7C6FC04E092
:101DA000214618310B48FFF7C0FC0B49E06A09686F
:101DB000C96A884204D9012501200849086000E069
:101DC0000025284670BD00004C0000202C0000209B
:101DD0006C000020F80000201400002038000020D3
:101DE00070B500240026FFF7ADFC2D480068401EAA
:101DF0002B4908600846006800284DD12948006832
:101E0000002849D022E02848C068C468204618301D
:101E1000FFF74CFC201DFFF749FC2449E06A0968E4
:101E2000884202D92149E06A08601422E16A5143DC
:101E30001F4A8818211DFFF778FC1E49E06A0968CF
:101E4000C96A884202D301201B490860164800680D
:101E5000002801D1012000E000200028D3D0002C70
:101E600001D0FFF739FB15480568002D0DD000BFE4
:101E7000FFF7E6FE002802D001200F4908606D1E22
:101E8000002DF5D100200D4908600B48006800289E
:101E900002D00126FFF79AFCFFF762FC304670BDC6
:101EA0004C00002024000020F80000202C0000201E
:101EB0006C000020140000203800002034000020B6
:101EC000E01E0000000000206C0000000401000083
:101ED0004C1F00006C0000202C5500002001000069
:101EE00000000000000000000080000000127A00E6
:101EF00000127A0000000000000000000000000056
:101F000000000000000000000000000000000000D1
:101F100000000000000000000000000000000000C1
:101F200000000000000000000000000000000000B1
:101F300000000000000000000000000000000000A1
:0C1F40000000000000000000AAAAAAAAED
:04000005000000C136
:00000001FF
